{
	"shipment.sol": {
		"shipment": {
			"abi": [
				{
					"constant": false,
					"inputs": [
						{
							"name": "_name",
							"type": "string"
						},
						{
							"name": "_passwd",
							"type": "string"
						}
					],
					"name": "addUser",
					"outputs": [],
					"payable": false,
					"stateMutability": "nonpayable",
					"type": "function"
				},
				{
					"constant": true,
					"inputs": [
						{
							"name": "_id",
							"type": "uint256"
						}
					],
					"name": "getShipment",
					"outputs": [
						{
							"name": "",
							"type": "uint256"
						},
						{
							"name": "",
							"type": "uint256"
						},
						{
							"name": "",
							"type": "uint256"
						},
						{
							"name": "",
							"type": "string"
						},
						{
							"name": "",
							"type": "string"
						},
						{
							"name": "",
							"type": "string"
						},
						{
							"name": "",
							"type": "uint256"
						},
						{
							"name": "",
							"type": "uint256"
						}
					],
					"payable": false,
					"stateMutability": "view",
					"type": "function"
				},
				{
					"constant": false,
					"inputs": [
						{
							"name": "_account",
							"type": "string"
						},
						{
							"name": "_passwd",
							"type": "string"
						}
					],
					"name": "addAdmin",
					"outputs": [],
					"payable": false,
					"stateMutability": "nonpayable",
					"type": "function"
				},
				{
					"constant": true,
					"inputs": [
						{
							"name": "_account",
							"type": "string"
						},
						{
							"name": "_passwd",
							"type": "string"
						}
					],
					"name": "checkAdmin",
					"outputs": [
						{
							"name": "",
							"type": "bool"
						}
					],
					"payable": false,
					"stateMutability": "view",
					"type": "function"
				},
				{
					"constant": false,
					"inputs": [
						{
							"name": "_shipment_id",
							"type": "uint256"
						}
					],
					"name": "deleteShipment",
					"outputs": [
						{
							"name": "",
							"type": "bool"
						}
					],
					"payable": false,
					"stateMutability": "nonpayable",
					"type": "function"
				},
				{
					"constant": false,
					"inputs": [
						{
							"name": "_id",
							"type": "uint256"
						}
					],
					"name": "deleteUser",
					"outputs": [
						{
							"name": "",
							"type": "bool"
						}
					],
					"payable": false,
					"stateMutability": "nonpayable",
					"type": "function"
				},
				{
					"constant": false,
					"inputs": [
						{
							"name": "_name",
							"type": "string"
						},
						{
							"name": "_info",
							"type": "string"
						},
						{
							"name": "_passwd",
							"type": "string"
						}
					],
					"name": "addCarrier",
					"outputs": [],
					"payable": false,
					"stateMutability": "nonpayable",
					"type": "function"
				},
				{
					"constant": false,
					"inputs": [
						{
							"name": "_account",
							"type": "string"
						},
						{
							"name": "_newPasswd",
							"type": "string"
						}
					],
					"name": "updateAdminPassword",
					"outputs": [
						{
							"name": "",
							"type": "bool"
						}
					],
					"payable": false,
					"stateMutability": "nonpayable",
					"type": "function"
				},
				{
					"constant": true,
					"inputs": [
						{
							"name": "_id",
							"type": "uint256"
						},
						{
							"name": "_passwd",
							"type": "string"
						}
					],
					"name": "checkUser",
					"outputs": [
						{
							"name": "",
							"type": "bool"
						}
					],
					"payable": false,
					"stateMutability": "view",
					"type": "function"
				},
				{
					"constant": true,
					"inputs": [],
					"name": "getAllShipments",
					"outputs": [
						{
							"name": "",
							"type": "uint256[]"
						},
						{
							"name": "",
							"type": "uint256[]"
						},
						{
							"name": "",
							"type": "uint256[]"
						},
						{
							"name": "",
							"type": "string[]"
						},
						{
							"name": "",
							"type": "string[]"
						},
						{
							"name": "",
							"type": "string[]"
						}
					],
					"payable": false,
					"stateMutability": "view",
					"type": "function"
				},
				{
					"constant": true,
					"inputs": [
						{
							"name": "_id",
							"type": "uint256"
						}
					],
					"name": "getShipmentsByCarrier",
					"outputs": [
						{
							"name": "",
							"type": "uint256[]"
						}
					],
					"payable": false,
					"stateMutability": "view",
					"type": "function"
				},
				{
					"constant": false,
					"inputs": [
						{
							"name": "_id",
							"type": "uint256"
						},
						{
							"name": "_name",
							"type": "string"
						},
						{
							"name": "_info",
							"type": "string"
						}
					],
					"name": "updateCarrierInfo",
					"outputs": [
						{
							"name": "",
							"type": "bool"
						}
					],
					"payable": false,
					"stateMutability": "nonpayable",
					"type": "function"
				},
				{
					"constant": false,
					"inputs": [
						{
							"name": "_id",
							"type": "uint256"
						}
					],
					"name": "deleteCarrier",
					"outputs": [
						{
							"name": "",
							"type": "bool"
						}
					],
					"payable": false,
					"stateMutability": "nonpayable",
					"type": "function"
				},
				{
					"constant": true,
					"inputs": [
						{
							"name": "_id",
							"type": "uint256"
						}
					],
					"name": "getStatus",
					"outputs": [
						{
							"name": "",
							"type": "string"
						}
					],
					"payable": false,
					"stateMutability": "view",
					"type": "function"
				},
				{
					"constant": false,
					"inputs": [
						{
							"name": "_id",
							"type": "uint256"
						},
						{
							"name": "_carrier",
							"type": "uint256"
						},
						{
							"name": "_from",
							"type": "string"
						},
						{
							"name": "_to",
							"type": "string"
						}
					],
					"name": "addShipment",
					"outputs": [],
					"payable": false,
					"stateMutability": "nonpayable",
					"type": "function"
				},
				{
					"constant": false,
					"inputs": [
						{
							"name": "carrier_id",
							"type": "uint256"
						},
						{
							"name": "shipment_id",
							"type": "uint256"
						},
						{
							"name": "_status",
							"type": "string"
						}
					],
					"name": "updateShipment",
					"outputs": [],
					"payable": false,
					"stateMutability": "nonpayable",
					"type": "function"
				},
				{
					"constant": true,
					"inputs": [
						{
							"name": "_id",
							"type": "uint256"
						}
					],
					"name": "getUserById",
					"outputs": [
						{
							"name": "",
							"type": "uint256"
						},
						{
							"name": "",
							"type": "string"
						},
						{
							"name": "",
							"type": "string"
						}
					],
					"payable": false,
					"stateMutability": "view",
					"type": "function"
				},
				{
					"constant": true,
					"inputs": [],
					"name": "getAllCarriers",
					"outputs": [
						{
							"name": "",
							"type": "uint256[]"
						},
						{
							"name": "",
							"type": "string[]"
						},
						{
							"name": "",
							"type": "string[]"
						},
						{
							"name": "",
							"type": "string[]"
						}
					],
					"payable": false,
					"stateMutability": "view",
					"type": "function"
				},
				{
					"constant": false,
					"inputs": [
						{
							"name": "_id",
							"type": "uint256"
						},
						{
							"name": "_newPasswd",
							"type": "string"
						}
					],
					"name": "updateUserPassword",
					"outputs": [
						{
							"name": "",
							"type": "bool"
						}
					],
					"payable": false,
					"stateMutability": "nonpayable",
					"type": "function"
				},
				{
					"constant": true,
					"inputs": [
						{
							"name": "_id",
							"type": "uint256"
						}
					],
					"name": "getCarrierById",
					"outputs": [
						{
							"name": "",
							"type": "uint256"
						},
						{
							"name": "",
							"type": "string"
						},
						{
							"name": "",
							"type": "string"
						},
						{
							"name": "",
							"type": "string"
						}
					],
					"payable": false,
					"stateMutability": "view",
					"type": "function"
				},
				{
					"constant": true,
					"inputs": [
						{
							"name": "_id",
							"type": "uint256"
						},
						{
							"name": "_passwd",
							"type": "string"
						}
					],
					"name": "checkCarrier",
					"outputs": [
						{
							"name": "",
							"type": "bool"
						}
					],
					"payable": false,
					"stateMutability": "view",
					"type": "function"
				},
				{
					"constant": true,
					"inputs": [],
					"name": "getAllUsers",
					"outputs": [
						{
							"name": "",
							"type": "uint256[]"
						},
						{
							"name": "",
							"type": "string[]"
						},
						{
							"name": "",
							"type": "string[]"
						}
					],
					"payable": false,
					"stateMutability": "view",
					"type": "function"
				},
				{
					"constant": false,
					"inputs": [
						{
							"name": "_id",
							"type": "uint256"
						},
						{
							"name": "_newPasswd",
							"type": "string"
						}
					],
					"name": "updateCarrierPassword",
					"outputs": [
						{
							"name": "",
							"type": "bool"
						}
					],
					"payable": false,
					"stateMutability": "nonpayable",
					"type": "function"
				},
				{
					"constant": true,
					"inputs": [],
					"name": "getAllAdmins",
					"outputs": [
						{
							"name": "",
							"type": "uint256[]"
						},
						{
							"name": "",
							"type": "string[]"
						},
						{
							"name": "",
							"type": "string[]"
						}
					],
					"payable": false,
					"stateMutability": "view",
					"type": "function"
				},
				{
					"payable": false,
					"stateMutability": "nonpayable",
					"type": "fallback"
				}
			],
			"devdoc": {
				"methods": {}
			},
			"evm": {
				"assembly": "    /* \"shipment.sol\":95:12127  contract shipment{\r... */\n  mstore(0x40, 0x80)\n  callvalue\n    /* \"--CODEGEN--\":8:17   */\n  dup1\n    /* \"--CODEGEN--\":5:7   */\n  iszero\n  tag_1\n  jumpi\n    /* \"--CODEGEN--\":30:31   */\n  0x0\n    /* \"--CODEGEN--\":27:28   */\n  dup1\n    /* \"--CODEGEN--\":20:32   */\n  revert\n    /* \"--CODEGEN--\":5:7   */\ntag_1:\n    /* \"shipment.sol\":95:12127  contract shipment{\r... */\n  pop\n  dataSize(sub_0)\n  dup1\n  dataOffset(sub_0)\n  0x0\n  codecopy\n  0x0\n  return\nstop\n\nsub_0: assembly {\n        /* \"shipment.sol\":95:12127  contract shipment{\r... */\n      mstore(0x40, 0x80)\n      jumpi(tag_1, lt(calldatasize, 0x4))\n      calldataload(0x0)\n      0x100000000000000000000000000000000000000000000000000000000\n      swap1\n      div\n      0xffffffff\n      and\n      dup1\n      0x79eaf34\n      eq\n      tag_2\n      jumpi\n      dup1\n      0x92b3740\n      eq\n      tag_3\n      jumpi\n      dup1\n      0x1f459041\n      eq\n      tag_4\n      jumpi\n      dup1\n      0x269ee5c0\n      eq\n      tag_5\n      jumpi\n      dup1\n      0x2f3e0bc6\n      eq\n      tag_6\n      jumpi\n      dup1\n      0x38f14845\n      eq\n      tag_7\n      jumpi\n      dup1\n      0x3e92ecab\n      eq\n      tag_8\n      jumpi\n      dup1\n      0x3e98ab21\n      eq\n      tag_9\n      jumpi\n      dup1\n      0x46fe46f9\n      eq\n      tag_10\n      jumpi\n      dup1\n      0x494dad6c\n      eq\n      tag_11\n      jumpi\n      dup1\n      0x4de52651\n      eq\n      tag_12\n      jumpi\n      dup1\n      0x4e9f4614\n      eq\n      tag_13\n      jumpi\n      dup1\n      0x58ab49da\n      eq\n      tag_14\n      jumpi\n      dup1\n      0x5c622a0e\n      eq\n      tag_15\n      jumpi\n      dup1\n      0x5df2d368\n      eq\n      tag_16\n      jumpi\n      dup1\n      0x65d7b766\n      eq\n      tag_17\n      jumpi\n      dup1\n      0x6ed6da9e\n      eq\n      tag_18\n      jumpi\n      dup1\n      0x9a006fe2\n      eq\n      tag_19\n      jumpi\n      dup1\n      0xb8997993\n      eq\n      tag_20\n      jumpi\n      dup1\n      0xb9def59e\n      eq\n      tag_21\n      jumpi\n      dup1\n      0xc64cb4ed\n      eq\n      tag_22\n      jumpi\n      dup1\n      0xe2842d79\n      eq\n      tag_23\n      jumpi\n      dup1\n      0xe8a6dafe\n      eq\n      tag_24\n      jumpi\n      dup1\n      0xe9523c97\n      eq\n      tag_25\n      jumpi\n    tag_1:\n      callvalue\n        /* \"--CODEGEN--\":8:17   */\n      dup1\n        /* \"--CODEGEN--\":5:7   */\n      iszero\n      tag_26\n      jumpi\n        /* \"--CODEGEN--\":30:31   */\n      0x0\n        /* \"--CODEGEN--\":27:28   */\n      dup1\n        /* \"--CODEGEN--\":20:32   */\n      revert\n        /* \"--CODEGEN--\":5:7   */\n    tag_26:\n        /* \"shipment.sol\":95:12127  contract shipment{\r... */\n      pop\n        /* \"shipment.sol\":946:964  Admin memory admin */\n      tag_28\n      jump\t// in(tag_29)\n    tag_28:\n        /* \"shipment.sol\":967:993  Admin(1, \"admin\", \"admin\") */\n      0x60\n      mload(0x40)\n      swap1\n      dup2\n      add\n      0x40\n      mstore\n      dup1\n        /* \"shipment.sol\":973:974  1 */\n      0x1\n        /* \"shipment.sol\":967:993  Admin(1, \"admin\", \"admin\") */\n      dup2\n      mstore\n      0x20\n      add\n      0x40\n      dup1\n      mload\n      swap1\n      dup2\n      add\n      0x40\n      mstore\n      dup1\n      0x5\n      dup2\n      mstore\n      0x20\n      add\n      0x61646d696e000000000000000000000000000000000000000000000000000000\n      dup2\n      mstore\n      pop\n      dup2\n      mstore\n      0x20\n      add\n      0x40\n      dup1\n      mload\n      swap1\n      dup2\n      add\n      0x40\n      mstore\n      dup1\n      0x5\n      dup2\n      mstore\n      0x20\n      add\n      0x61646d696e000000000000000000000000000000000000000000000000000000\n      dup2\n      mstore\n      pop\n      dup2\n      mstore\n      pop\n        /* \"shipment.sol\":946:993  Admin memory admin = Admin(1, \"admin\", \"admin\") */\n      swap1\n      pop\n        /* \"shipment.sol\":1004:1010  admins */\n      0x0\n        /* \"shipment.sol\":1016:1021  admin */\n      dup2\n        /* \"shipment.sol\":1004:1022  admins.push(admin) */\n      swap1\n      dup1\n        /* \"--CODEGEN--\":39:40   */\n      0x1\n        /* \"--CODEGEN--\":33:36   */\n      dup2\n        /* \"--CODEGEN--\":27:37   */\n      sload\n        /* \"--CODEGEN--\":23:41   */\n      add\n        /* \"--CODEGEN--\":57:67   */\n      dup1\n        /* \"--CODEGEN--\":52:55   */\n      dup3\n        /* \"--CODEGEN--\":45:68   */\n      sstore\n        /* \"--CODEGEN--\":79:89   */\n      dup1\n        /* \"--CODEGEN--\":72:89   */\n      swap2\n      pop\n        /* \"--CODEGEN--\":0:93   */\n      pop\n        /* \"shipment.sol\":1004:1022  admins.push(admin) */\n      swap1\n      0x1\n      dup3\n      sub\n      swap1\n      0x0\n      mstore\n      keccak256(0x0, 0x20)\n      swap1\n      0x3\n      mul\n      add\n      0x0\n      swap1\n      swap2\n      swap3\n      swap1\n      swap2\n      swap1\n      swap2\n      pop\n      0x0\n      dup3\n      add\n      mload\n      dup2\n      0x0\n      add\n      sstore\n      0x20\n      dup3\n      add\n      mload\n      dup2\n      0x1\n      add\n      swap1\n      dup1\n      mload\n      swap1\n      0x20\n      add\n      swap1\n      tag_32\n      swap3\n      swap2\n      swap1\n      jump\t// in(tag_33)\n    tag_32:\n      pop\n      0x40\n      dup3\n      add\n      mload\n      dup2\n      0x2\n      add\n      swap1\n      dup1\n      mload\n      swap1\n      0x20\n      add\n      swap1\n      tag_34\n      swap3\n      swap2\n      swap1\n      jump\t// in(tag_33)\n    tag_34:\n      pop\n      pop\n      pop\n      pop\n        /* \"shipment.sol\":849:1030  function() public {\r... */\n      pop\n        /* \"shipment.sol\":95:12127  contract shipment{\r... */\n      stop\n        /* \"shipment.sol\":1038:1250  function addUser(string _name,string _passwd) public{\r... */\n    tag_2:\n      callvalue\n        /* \"--CODEGEN--\":8:17   */\n      dup1\n        /* \"--CODEGEN--\":5:7   */\n      iszero\n      tag_35\n      jumpi\n        /* \"--CODEGEN--\":30:31   */\n      0x0\n        /* \"--CODEGEN--\":27:28   */\n      dup1\n        /* \"--CODEGEN--\":20:32   */\n      revert\n        /* \"--CODEGEN--\":5:7   */\n    tag_35:\n        /* \"shipment.sol\":1038:1250  function addUser(string _name,string _passwd) public{\r... */\n      pop\n      tag_36\n      0x4\n      dup1\n      calldatasize\n      sub\n      tag_37\n      swap2\n      swap1\n      dup2\n      add\n      swap1\n      jump(tag_38)\n    tag_37:\n      jump(tag_39)\n    tag_36:\n      stop\n        /* \"shipment.sol\":5443:5685  function getShipment(uint _id) public view returns(uint,uint,uint,string,string,string,uint,uint){\r... */\n    tag_3:\n      callvalue\n        /* \"--CODEGEN--\":8:17   */\n      dup1\n        /* \"--CODEGEN--\":5:7   */\n      iszero\n      tag_40\n      jumpi\n        /* \"--CODEGEN--\":30:31   */\n      0x0\n        /* \"--CODEGEN--\":27:28   */\n      dup1\n        /* \"--CODEGEN--\":20:32   */\n      revert\n        /* \"--CODEGEN--\":5:7   */\n    tag_40:\n        /* \"shipment.sol\":5443:5685  function getShipment(uint _id) public view returns(uint,uint,uint,string,string,string,uint,uint){\r... */\n      pop\n      tag_41\n      0x4\n      dup1\n      calldatasize\n      sub\n      tag_42\n      swap2\n      swap1\n      dup2\n      add\n      swap1\n      jump(tag_43)\n    tag_42:\n      jump(tag_44)\n    tag_41:\n      mload(0x40)\n      tag_45\n      swap9\n      swap8\n      swap7\n      swap6\n      swap5\n      swap4\n      swap3\n      swap2\n      swap1\n      jump(tag_46)\n    tag_45:\n      mload(0x40)\n      dup1\n      swap2\n      sub\n      swap1\n      return\n        /* \"shipment.sol\":3372:3539  function addAdmin(string _account,string _passwd) public {\r... */\n    tag_4:\n      callvalue\n        /* \"--CODEGEN--\":8:17   */\n      dup1\n        /* \"--CODEGEN--\":5:7   */\n      iszero\n      tag_47\n      jumpi\n        /* \"--CODEGEN--\":30:31   */\n      0x0\n        /* \"--CODEGEN--\":27:28   */\n      dup1\n        /* \"--CODEGEN--\":20:32   */\n      revert\n        /* \"--CODEGEN--\":5:7   */\n    tag_47:\n        /* \"shipment.sol\":3372:3539  function addAdmin(string _account,string _passwd) public {\r... */\n      pop\n      tag_48\n      0x4\n      dup1\n      calldatasize\n      sub\n      tag_49\n      swap2\n      swap1\n      dup2\n      add\n      swap1\n      jump(tag_38)\n    tag_49:\n      jump(tag_50)\n    tag_48:\n      stop\n        /* \"shipment.sol\":2883:3337  function checkAdmin(string _account,string _passwd)public view returns(bool){\r... */\n    tag_5:\n      callvalue\n        /* \"--CODEGEN--\":8:17   */\n      dup1\n        /* \"--CODEGEN--\":5:7   */\n      iszero\n      tag_51\n      jumpi\n        /* \"--CODEGEN--\":30:31   */\n      0x0\n        /* \"--CODEGEN--\":27:28   */\n      dup1\n        /* \"--CODEGEN--\":20:32   */\n      revert\n        /* \"--CODEGEN--\":5:7   */\n    tag_51:\n        /* \"shipment.sol\":2883:3337  function checkAdmin(string _account,string _passwd)public view returns(bool){\r... */\n      pop\n      tag_52\n      0x4\n      dup1\n      calldatasize\n      sub\n      tag_53\n      swap2\n      swap1\n      dup2\n      add\n      swap1\n      jump(tag_38)\n    tag_53:\n      jump(tag_54)\n    tag_52:\n      mload(0x40)\n      tag_55\n      swap2\n      swap1\n      jump(tag_56)\n    tag_55:\n      mload(0x40)\n      dup1\n      swap2\n      sub\n      swap1\n      return\n        /* \"shipment.sol\":5785:6925  function deleteShipment(uint _shipment_id) public returns(bool){\r... */\n    tag_6:\n      callvalue\n        /* \"--CODEGEN--\":8:17   */\n      dup1\n        /* \"--CODEGEN--\":5:7   */\n      iszero\n      tag_57\n      jumpi\n        /* \"--CODEGEN--\":30:31   */\n      0x0\n        /* \"--CODEGEN--\":27:28   */\n      dup1\n        /* \"--CODEGEN--\":20:32   */\n      revert\n        /* \"--CODEGEN--\":5:7   */\n    tag_57:\n        /* \"shipment.sol\":5785:6925  function deleteShipment(uint _shipment_id) public returns(bool){\r... */\n      pop\n      tag_58\n      0x4\n      dup1\n      calldatasize\n      sub\n      tag_59\n      swap2\n      swap1\n      dup2\n      add\n      swap1\n      jump(tag_43)\n    tag_59:\n      jump(tag_60)\n    tag_58:\n      mload(0x40)\n      tag_61\n      swap2\n      swap1\n      jump(tag_56)\n    tag_61:\n      mload(0x40)\n      dup1\n      swap2\n      sub\n      swap1\n      return\n        /* \"shipment.sol\":8420:9537  function deleteUser(uint _id) public returns(bool){\r... */\n    tag_7:\n      callvalue\n        /* \"--CODEGEN--\":8:17   */\n      dup1\n        /* \"--CODEGEN--\":5:7   */\n      iszero\n      tag_62\n      jumpi\n        /* \"--CODEGEN--\":30:31   */\n      0x0\n        /* \"--CODEGEN--\":27:28   */\n      dup1\n        /* \"--CODEGEN--\":20:32   */\n      revert\n        /* \"--CODEGEN--\":5:7   */\n    tag_62:\n        /* \"shipment.sol\":8420:9537  function deleteUser(uint _id) public returns(bool){\r... */\n      pop\n      tag_63\n      0x4\n      dup1\n      calldatasize\n      sub\n      tag_64\n      swap2\n      swap1\n      dup2\n      add\n      swap1\n      jump(tag_43)\n    tag_64:\n      jump(tag_65)\n    tag_63:\n      mload(0x40)\n      tag_66\n      swap2\n      swap1\n      jump(tag_56)\n    tag_66:\n      mload(0x40)\n      dup1\n      swap2\n      sub\n      swap1\n      return\n        /* \"shipment.sol\":2305:2586  function addCarrier(string _name,string _info,string _passwd) public{\r... */\n    tag_8:\n      callvalue\n        /* \"--CODEGEN--\":8:17   */\n      dup1\n        /* \"--CODEGEN--\":5:7   */\n      iszero\n      tag_67\n      jumpi\n        /* \"--CODEGEN--\":30:31   */\n      0x0\n        /* \"--CODEGEN--\":27:28   */\n      dup1\n        /* \"--CODEGEN--\":20:32   */\n      revert\n        /* \"--CODEGEN--\":5:7   */\n    tag_67:\n        /* \"shipment.sol\":2305:2586  function addCarrier(string _name,string _info,string _passwd) public{\r... */\n      pop\n      tag_68\n      0x4\n      dup1\n      calldatasize\n      sub\n      tag_69\n      swap2\n      swap1\n      dup2\n      add\n      swap1\n      jump(tag_70)\n    tag_69:\n      jump(tag_71)\n    tag_68:\n      stop\n        /* \"shipment.sol\":4125:4503  function updateAdminPassword(string _account, string _newPasswd) public returns(bool){\r... */\n    tag_9:\n      callvalue\n        /* \"--CODEGEN--\":8:17   */\n      dup1\n        /* \"--CODEGEN--\":5:7   */\n      iszero\n      tag_72\n      jumpi\n        /* \"--CODEGEN--\":30:31   */\n      0x0\n        /* \"--CODEGEN--\":27:28   */\n      dup1\n        /* \"--CODEGEN--\":20:32   */\n      revert\n        /* \"--CODEGEN--\":5:7   */\n    tag_72:\n        /* \"shipment.sol\":4125:4503  function updateAdminPassword(string _account, string _newPasswd) public returns(bool){\r... */\n      pop\n      tag_73\n      0x4\n      dup1\n      calldatasize\n      sub\n      tag_74\n      swap2\n      swap1\n      dup2\n      add\n      swap1\n      jump(tag_38)\n    tag_74:\n      jump(tag_75)\n    tag_73:\n      mload(0x40)\n      tag_76\n      swap2\n      swap1\n      jump(tag_56)\n    tag_76:\n      mload(0x40)\n      dup1\n      swap2\n      sub\n      swap1\n      return\n        /* \"shipment.sol\":1258:1499  function checkUser(uint _id,string _passwd)public view returns(bool){\r... */\n    tag_10:\n      callvalue\n        /* \"--CODEGEN--\":8:17   */\n      dup1\n        /* \"--CODEGEN--\":5:7   */\n      iszero\n      tag_77\n      jumpi\n        /* \"--CODEGEN--\":30:31   */\n      0x0\n        /* \"--CODEGEN--\":27:28   */\n      dup1\n        /* \"--CODEGEN--\":20:32   */\n      revert\n        /* \"--CODEGEN--\":5:7   */\n    tag_77:\n        /* \"shipment.sol\":1258:1499  function checkUser(uint _id,string _passwd)public view returns(bool){\r... */\n      pop\n      tag_78\n      0x4\n      dup1\n      calldatasize\n      sub\n      tag_79\n      swap2\n      swap1\n      dup2\n      add\n      swap1\n      jump(tag_80)\n    tag_79:\n      jump(tag_81)\n    tag_78:\n      mload(0x40)\n      tag_82\n      swap2\n      swap1\n      jump(tag_56)\n    tag_82:\n      mload(0x40)\n      dup1\n      swap2\n      sub\n      swap1\n      return\n        /* \"shipment.sol\":6966:8049  function getAllShipments() public view returns(uint[],uint[],uint[],string[],string[],string[]){\r... */\n    tag_11:\n      callvalue\n        /* \"--CODEGEN--\":8:17   */\n      dup1\n        /* \"--CODEGEN--\":5:7   */\n      iszero\n      tag_83\n      jumpi\n        /* \"--CODEGEN--\":30:31   */\n      0x0\n        /* \"--CODEGEN--\":27:28   */\n      dup1\n        /* \"--CODEGEN--\":20:32   */\n      revert\n        /* \"--CODEGEN--\":5:7   */\n    tag_83:\n        /* \"shipment.sol\":6966:8049  function getAllShipments() public view returns(uint[],uint[],uint[],string[],string[],string[]){\r... */\n      pop\n      tag_84\n      jump(tag_85)\n    tag_84:\n      mload(0x40)\n      tag_86\n      swap7\n      swap6\n      swap5\n      swap4\n      swap3\n      swap2\n      swap1\n      jump(tag_87)\n    tag_86:\n      mload(0x40)\n      dup1\n      swap2\n      sub\n      swap1\n      return\n        /* \"shipment.sol\":4511:4629  function getShipmentsByCarrier(uint _id)public view returns(uint[]){\r... */\n    tag_12:\n      callvalue\n        /* \"--CODEGEN--\":8:17   */\n      dup1\n        /* \"--CODEGEN--\":5:7   */\n      iszero\n      tag_88\n      jumpi\n        /* \"--CODEGEN--\":30:31   */\n      0x0\n        /* \"--CODEGEN--\":27:28   */\n      dup1\n        /* \"--CODEGEN--\":20:32   */\n      revert\n        /* \"--CODEGEN--\":5:7   */\n    tag_88:\n        /* \"shipment.sol\":4511:4629  function getShipmentsByCarrier(uint _id)public view returns(uint[]){\r... */\n      pop\n      tag_89\n      0x4\n      dup1\n      calldatasize\n      sub\n      tag_90\n      swap2\n      swap1\n      dup2\n      add\n      swap1\n      jump(tag_43)\n    tag_90:\n      jump(tag_91)\n    tag_89:\n      mload(0x40)\n      tag_92\n      swap2\n      swap1\n      jump(tag_93)\n    tag_92:\n      mload(0x40)\n      dup1\n      swap2\n      sub\n      swap1\n      return\n        /* \"shipment.sol\":10621:10896  function updateCarrierInfo(uint _id, string _name, string _info) public returns(bool){\r... */\n    tag_13:\n      callvalue\n        /* \"--CODEGEN--\":8:17   */\n      dup1\n        /* \"--CODEGEN--\":5:7   */\n      iszero\n      tag_94\n      jumpi\n        /* \"--CODEGEN--\":30:31   */\n      0x0\n        /* \"--CODEGEN--\":27:28   */\n      dup1\n        /* \"--CODEGEN--\":20:32   */\n      revert\n        /* \"--CODEGEN--\":5:7   */\n    tag_94:\n        /* \"shipment.sol\":10621:10896  function updateCarrierInfo(uint _id, string _name, string _info) public returns(bool){\r... */\n      pop\n      tag_95\n      0x4\n      dup1\n      calldatasize\n      sub\n      tag_96\n      swap2\n      swap1\n      dup2\n      add\n      swap1\n      jump(tag_97)\n    tag_96:\n      jump(tag_98)\n    tag_95:\n      mload(0x40)\n      tag_99\n      swap2\n      swap1\n      jump(tag_56)\n    tag_99:\n      mload(0x40)\n      dup1\n      swap2\n      sub\n      swap1\n      return\n        /* \"shipment.sol\":11204:12124  function deleteCarrier(uint _id) public returns(bool){\r... */\n    tag_14:\n      callvalue\n        /* \"--CODEGEN--\":8:17   */\n      dup1\n        /* \"--CODEGEN--\":5:7   */\n      iszero\n      tag_100\n      jumpi\n        /* \"--CODEGEN--\":30:31   */\n      0x0\n        /* \"--CODEGEN--\":27:28   */\n      dup1\n        /* \"--CODEGEN--\":20:32   */\n      revert\n        /* \"--CODEGEN--\":5:7   */\n    tag_100:\n        /* \"shipment.sol\":11204:12124  function deleteCarrier(uint _id) public returns(bool){\r... */\n      pop\n      tag_101\n      0x4\n      dup1\n      calldatasize\n      sub\n      tag_102\n      swap2\n      swap1\n      dup2\n      add\n      swap1\n      jump(tag_43)\n    tag_102:\n      jump(tag_103)\n    tag_101:\n      mload(0x40)\n      tag_104\n      swap2\n      swap1\n      jump(tag_56)\n    tag_104:\n      mload(0x40)\n      dup1\n      swap2\n      sub\n      swap1\n      return\n        /* \"shipment.sol\":5306:5411  function getStatus(uint _id) public view returns(string){\r... */\n    tag_15:\n      callvalue\n        /* \"--CODEGEN--\":8:17   */\n      dup1\n        /* \"--CODEGEN--\":5:7   */\n      iszero\n      tag_105\n      jumpi\n        /* \"--CODEGEN--\":30:31   */\n      0x0\n        /* \"--CODEGEN--\":27:28   */\n      dup1\n        /* \"--CODEGEN--\":20:32   */\n      revert\n        /* \"--CODEGEN--\":5:7   */\n    tag_105:\n        /* \"shipment.sol\":5306:5411  function getStatus(uint _id) public view returns(string){\r... */\n      pop\n      tag_106\n      0x4\n      dup1\n      calldatasize\n      sub\n      tag_107\n      swap2\n      swap1\n      dup2\n      add\n      swap1\n      jump(tag_43)\n    tag_107:\n      jump(tag_108)\n    tag_106:\n      mload(0x40)\n      tag_109\n      swap2\n      swap1\n      jump(tag_110)\n    tag_109:\n      mload(0x40)\n      dup1\n      swap2\n      sub\n      swap1\n      return\n        /* \"shipment.sol\":4661:4962  function addShipment(uint _id,uint _carrier,string _from,string _to)public{\r... */\n    tag_16:\n      callvalue\n        /* \"--CODEGEN--\":8:17   */\n      dup1\n        /* \"--CODEGEN--\":5:7   */\n      iszero\n      tag_111\n      jumpi\n        /* \"--CODEGEN--\":30:31   */\n      0x0\n        /* \"--CODEGEN--\":27:28   */\n      dup1\n        /* \"--CODEGEN--\":20:32   */\n      revert\n        /* \"--CODEGEN--\":5:7   */\n    tag_111:\n        /* \"shipment.sol\":4661:4962  function addShipment(uint _id,uint _carrier,string _from,string _to)public{\r... */\n      pop\n      tag_112\n      0x4\n      dup1\n      calldatasize\n      sub\n      tag_113\n      swap2\n      swap1\n      dup2\n      add\n      swap1\n      jump(tag_114)\n    tag_113:\n      jump(tag_115)\n    tag_112:\n      stop\n        /* \"shipment.sol\":4994:5274  function updateShipment(uint carrier_id,uint shipment_id,string _status)public{\r... */\n    tag_17:\n      callvalue\n        /* \"--CODEGEN--\":8:17   */\n      dup1\n        /* \"--CODEGEN--\":5:7   */\n      iszero\n      tag_116\n      jumpi\n        /* \"--CODEGEN--\":30:31   */\n      0x0\n        /* \"--CODEGEN--\":27:28   */\n      dup1\n        /* \"--CODEGEN--\":20:32   */\n      revert\n        /* \"--CODEGEN--\":5:7   */\n    tag_116:\n        /* \"shipment.sol\":4994:5274  function updateShipment(uint carrier_id,uint shipment_id,string _status)public{\r... */\n      pop\n      tag_117\n      0x4\n      dup1\n      calldatasize\n      sub\n      tag_118\n      swap2\n      swap1\n      dup2\n      add\n      swap1\n      jump(tag_119)\n    tag_118:\n      jump(tag_120)\n    tag_117:\n      stop\n        /* \"shipment.sol\":8156:8391  function getUserById(uint _id) public view returns(uint,string,string){\r... */\n    tag_18:\n      callvalue\n        /* \"--CODEGEN--\":8:17   */\n      dup1\n        /* \"--CODEGEN--\":5:7   */\n      iszero\n      tag_121\n      jumpi\n        /* \"--CODEGEN--\":30:31   */\n      0x0\n        /* \"--CODEGEN--\":27:28   */\n      dup1\n        /* \"--CODEGEN--\":20:32   */\n      revert\n        /* \"--CODEGEN--\":5:7   */\n    tag_121:\n        /* \"shipment.sol\":8156:8391  function getUserById(uint _id) public view returns(uint,string,string){\r... */\n      pop\n      tag_122\n      0x4\n      dup1\n      calldatasize\n      sub\n      tag_123\n      swap2\n      swap1\n      dup2\n      add\n      swap1\n      jump(tag_43)\n    tag_123:\n      jump(tag_124)\n    tag_122:\n      mload(0x40)\n      tag_125\n      swap4\n      swap3\n      swap2\n      swap1\n      jump(tag_126)\n    tag_125:\n      mload(0x40)\n      dup1\n      swap2\n      sub\n      swap1\n      return\n        /* \"shipment.sol\":9639:10269  function getAllCarriers() public view returns(uint[], string[], string[], string[]){\r... */\n    tag_19:\n      callvalue\n        /* \"--CODEGEN--\":8:17   */\n      dup1\n        /* \"--CODEGEN--\":5:7   */\n      iszero\n      tag_127\n      jumpi\n        /* \"--CODEGEN--\":30:31   */\n      0x0\n        /* \"--CODEGEN--\":27:28   */\n      dup1\n        /* \"--CODEGEN--\":20:32   */\n      revert\n        /* \"--CODEGEN--\":5:7   */\n    tag_127:\n        /* \"shipment.sol\":9639:10269  function getAllCarriers() public view returns(uint[], string[], string[], string[]){\r... */\n      pop\n      tag_128\n      jump(tag_129)\n    tag_128:\n      mload(0x40)\n      tag_130\n      swap5\n      swap4\n      swap3\n      swap2\n      swap1\n      jump(tag_131)\n    tag_130:\n      mload(0x40)\n      dup1\n      swap2\n      sub\n      swap1\n      return\n        /* \"shipment.sol\":2058:2295  function updateUserPassword(uint _id, string _newPasswd) public returns(bool){\r... */\n    tag_20:\n      callvalue\n        /* \"--CODEGEN--\":8:17   */\n      dup1\n        /* \"--CODEGEN--\":5:7   */\n      iszero\n      tag_132\n      jumpi\n        /* \"--CODEGEN--\":30:31   */\n      0x0\n        /* \"--CODEGEN--\":27:28   */\n      dup1\n        /* \"--CODEGEN--\":20:32   */\n      revert\n        /* \"--CODEGEN--\":5:7   */\n    tag_132:\n        /* \"shipment.sol\":2058:2295  function updateUserPassword(uint _id, string _newPasswd) public returns(bool){\r... */\n      pop\n      tag_133\n      0x4\n      dup1\n      calldatasize\n      sub\n      tag_134\n      swap2\n      swap1\n      dup2\n      add\n      swap1\n      jump(tag_80)\n    tag_134:\n      jump(tag_135)\n    tag_133:\n      mload(0x40)\n      tag_136\n      swap2\n      swap1\n      jump(tag_56)\n    tag_136:\n      mload(0x40)\n      dup1\n      swap2\n      sub\n      swap1\n      return\n        /* \"shipment.sol\":10318:10583  function getCarrierById(uint _id) public view returns(uint,string,string,string){\r... */\n    tag_21:\n      callvalue\n        /* \"--CODEGEN--\":8:17   */\n      dup1\n        /* \"--CODEGEN--\":5:7   */\n      iszero\n      tag_137\n      jumpi\n        /* \"--CODEGEN--\":30:31   */\n      0x0\n        /* \"--CODEGEN--\":27:28   */\n      dup1\n        /* \"--CODEGEN--\":20:32   */\n      revert\n        /* \"--CODEGEN--\":5:7   */\n    tag_137:\n        /* \"shipment.sol\":10318:10583  function getCarrierById(uint _id) public view returns(uint,string,string,string){\r... */\n      pop\n      tag_138\n      0x4\n      dup1\n      calldatasize\n      sub\n      tag_139\n      swap2\n      swap1\n      dup2\n      add\n      swap1\n      jump(tag_43)\n    tag_139:\n      jump(tag_140)\n    tag_138:\n      mload(0x40)\n      tag_141\n      swap5\n      swap4\n      swap3\n      swap2\n      swap1\n      jump(tag_142)\n    tag_141:\n      mload(0x40)\n      dup1\n      swap2\n      sub\n      swap1\n      return\n        /* \"shipment.sol\":2598:2845  function checkCarrier(uint _id,string _passwd)public view returns(bool){\r... */\n    tag_22:\n      callvalue\n        /* \"--CODEGEN--\":8:17   */\n      dup1\n        /* \"--CODEGEN--\":5:7   */\n      iszero\n      tag_143\n      jumpi\n        /* \"--CODEGEN--\":30:31   */\n      0x0\n        /* \"--CODEGEN--\":27:28   */\n      dup1\n        /* \"--CODEGEN--\":20:32   */\n      revert\n        /* \"--CODEGEN--\":5:7   */\n    tag_143:\n        /* \"shipment.sol\":2598:2845  function checkCarrier(uint _id,string _passwd)public view returns(bool){\r... */\n      pop\n      tag_144\n      0x4\n      dup1\n      calldatasize\n      sub\n      tag_145\n      swap2\n      swap1\n      dup2\n      add\n      swap1\n      jump(tag_80)\n    tag_145:\n      jump(tag_146)\n    tag_144:\n      mload(0x40)\n      tag_147\n      swap2\n      swap1\n      jump(tag_56)\n    tag_147:\n      mload(0x40)\n      dup1\n      swap2\n      sub\n      swap1\n      return\n        /* \"shipment.sol\":1540:2023  function getAllUsers() public view returns(uint[], string[], string[]){\r... */\n    tag_23:\n      callvalue\n        /* \"--CODEGEN--\":8:17   */\n      dup1\n        /* \"--CODEGEN--\":5:7   */\n      iszero\n      tag_148\n      jumpi\n        /* \"--CODEGEN--\":30:31   */\n      0x0\n        /* \"--CODEGEN--\":27:28   */\n      dup1\n        /* \"--CODEGEN--\":20:32   */\n      revert\n        /* \"--CODEGEN--\":5:7   */\n    tag_148:\n        /* \"shipment.sol\":1540:2023  function getAllUsers() public view returns(uint[], string[], string[]){\r... */\n      pop\n      tag_149\n      jump(tag_150)\n    tag_149:\n      mload(0x40)\n      tag_151\n      swap4\n      swap3\n      swap2\n      swap1\n      jump(tag_152)\n    tag_151:\n      mload(0x40)\n      dup1\n      swap2\n      sub\n      swap1\n      return\n        /* \"shipment.sol\":10934:11172  function updateCarrierPassword(uint _id, string _newPasswd) public returns(bool){\r... */\n    tag_24:\n      callvalue\n        /* \"--CODEGEN--\":8:17   */\n      dup1\n        /* \"--CODEGEN--\":5:7   */\n      iszero\n      tag_153\n      jumpi\n        /* \"--CODEGEN--\":30:31   */\n      0x0\n        /* \"--CODEGEN--\":27:28   */\n      dup1\n        /* \"--CODEGEN--\":20:32   */\n      revert\n        /* \"--CODEGEN--\":5:7   */\n    tag_153:\n        /* \"shipment.sol\":10934:11172  function updateCarrierPassword(uint _id, string _newPasswd) public returns(bool){\r... */\n      pop\n      tag_154\n      0x4\n      dup1\n      calldatasize\n      sub\n      tag_155\n      swap2\n      swap1\n      dup2\n      add\n      swap1\n      jump(tag_80)\n    tag_155:\n      jump(tag_156)\n    tag_154:\n      mload(0x40)\n      tag_157\n      swap2\n      swap1\n      jump(tag_56)\n    tag_157:\n      mload(0x40)\n      dup1\n      swap2\n      sub\n      swap1\n      return\n        /* \"shipment.sol\":3583:4087  function getAllAdmins() public view returns(uint[], string[], string[]) {\r... */\n    tag_25:\n      callvalue\n        /* \"--CODEGEN--\":8:17   */\n      dup1\n        /* \"--CODEGEN--\":5:7   */\n      iszero\n      tag_158\n      jumpi\n        /* \"--CODEGEN--\":30:31   */\n      0x0\n        /* \"--CODEGEN--\":27:28   */\n      dup1\n        /* \"--CODEGEN--\":20:32   */\n      revert\n        /* \"--CODEGEN--\":5:7   */\n    tag_158:\n        /* \"shipment.sol\":3583:4087  function getAllAdmins() public view returns(uint[], string[], string[]) {\r... */\n      pop\n      tag_159\n      jump(tag_160)\n    tag_159:\n      mload(0x40)\n      tag_161\n      swap4\n      swap3\n      swap2\n      swap1\n      jump(tag_152)\n    tag_161:\n      mload(0x40)\n      dup1\n      swap2\n      sub\n      swap1\n      return\n        /* \"shipment.sol\":1038:1250  function addUser(string _name,string _passwd) public{\r... */\n    tag_39:\n        /* \"shipment.sol\":1101:1114  User memory u */\n      tag_162\n      jump\t// in(tag_163)\n    tag_162:\n        /* \"shipment.sol\":1117:1151  User(users.length+1,_name,_passwd) */\n      0x60\n      mload(0x40)\n      swap1\n      dup2\n      add\n      0x40\n      mstore\n      dup1\n        /* \"shipment.sol\":1135:1136  1 */\n      0x1\n        /* \"shipment.sol\":1122:1127  users */\n      dup1\n        /* \"shipment.sol\":1122:1134  users.length */\n      dup1\n      sload\n      swap1\n      pop\n        /* \"shipment.sol\":1122:1136  users.length+1 */\n      add\n        /* \"shipment.sol\":1117:1151  User(users.length+1,_name,_passwd) */\n      dup2\n      mstore\n      0x20\n      add\n        /* \"shipment.sol\":1137:1142  _name */\n      dup5\n        /* \"shipment.sol\":1117:1151  User(users.length+1,_name,_passwd) */\n      dup2\n      mstore\n      0x20\n      add\n        /* \"shipment.sol\":1143:1150  _passwd */\n      dup4\n        /* \"shipment.sol\":1117:1151  User(users.length+1,_name,_passwd) */\n      dup2\n      mstore\n      pop\n        /* \"shipment.sol\":1101:1151  User memory u = User(users.length+1,_name,_passwd) */\n      swap1\n      pop\n        /* \"shipment.sol\":1194:1199  users */\n      0x1\n        /* \"shipment.sol\":1205:1206  u */\n      dup2\n        /* \"shipment.sol\":1194:1207  users.push(u) */\n      swap1\n      dup1\n        /* \"--CODEGEN--\":39:40   */\n      0x1\n        /* \"--CODEGEN--\":33:36   */\n      dup2\n        /* \"--CODEGEN--\":27:37   */\n      sload\n        /* \"--CODEGEN--\":23:41   */\n      add\n        /* \"--CODEGEN--\":57:67   */\n      dup1\n        /* \"--CODEGEN--\":52:55   */\n      dup3\n        /* \"--CODEGEN--\":45:68   */\n      sstore\n        /* \"--CODEGEN--\":79:89   */\n      dup1\n        /* \"--CODEGEN--\":72:89   */\n      swap2\n      pop\n        /* \"--CODEGEN--\":0:93   */\n      pop\n        /* \"shipment.sol\":1194:1207  users.push(u) */\n      swap1\n      0x1\n      dup3\n      sub\n      swap1\n      0x0\n      mstore\n      keccak256(0x0, 0x20)\n      swap1\n      0x3\n      mul\n      add\n      0x0\n      swap1\n      swap2\n      swap3\n      swap1\n      swap2\n      swap1\n      swap2\n      pop\n      0x0\n      dup3\n      add\n      mload\n      dup2\n      0x0\n      add\n      sstore\n      0x20\n      dup3\n      add\n      mload\n      dup2\n      0x1\n      add\n      swap1\n      dup1\n      mload\n      swap1\n      0x20\n      add\n      swap1\n      tag_166\n      swap3\n      swap2\n      swap1\n      jump\t// in(tag_33)\n    tag_166:\n      pop\n      0x40\n      dup3\n      add\n      mload\n      dup2\n      0x2\n      add\n      swap1\n      dup1\n      mload\n      swap1\n      0x20\n      add\n      swap1\n      tag_167\n      swap3\n      swap2\n      swap1\n      jump\t// in(tag_33)\n    tag_167:\n      pop\n      pop\n      pop\n      pop\n        /* \"shipment.sol\":1038:1250  function addUser(string _name,string _passwd) public{\r... */\n      pop\n      pop\n      pop\n      jump\t// out\n        /* \"shipment.sol\":5443:5685  function getShipment(uint _id) public view returns(uint,uint,uint,string,string,string,uint,uint){\r... */\n    tag_44:\n        /* \"shipment.sol\":5494:5498  uint */\n      0x0\n        /* \"shipment.sol\":5499:5503  uint */\n      dup1\n        /* \"shipment.sol\":5504:5508  uint */\n      0x0\n        /* \"shipment.sol\":5509:5515  string */\n      0x60\n        /* \"shipment.sol\":5516:5522  string */\n      dup1\n        /* \"shipment.sol\":5523:5529  string */\n      0x60\n        /* \"shipment.sol\":5530:5534  uint */\n      0x0\n        /* \"shipment.sol\":5535:5539  uint */\n      dup1\n        /* \"shipment.sol\":5551:5568  Shipment memory s */\n      tag_168\n      jump\t// in(tag_169)\n    tag_168:\n        /* \"shipment.sol\":5570:5579  shipments */\n      0x3\n        /* \"shipment.sol\":5584:5585  1 */\n      0x1\n        /* \"shipment.sol\":5580:5583  _id */\n      dup12\n        /* \"shipment.sol\":5580:5585  _id-1 */\n      sub\n        /* \"shipment.sol\":5570:5586  shipments[_id-1] */\n      dup2\n      sload\n      dup2\n      lt\n      iszero\n      iszero\n      tag_171\n      jumpi\n      invalid\n    tag_171:\n      swap1\n      0x0\n      mstore\n      keccak256(0x0, 0x20)\n      swap1\n      0x8\n      mul\n      add\n        /* \"shipment.sol\":5551:5586  Shipment memory s =shipments[_id-1] */\n      0x100\n      mload(0x40)\n      swap1\n      dup2\n      add\n      0x40\n      mstore\n      swap1\n      dup2\n      0x0\n      dup3\n      add\n      sload\n      dup2\n      mstore\n      0x20\n      add\n      0x1\n      dup3\n      add\n      sload\n      dup2\n      mstore\n      0x20\n      add\n      0x2\n      dup3\n      add\n      sload\n      dup2\n      mstore\n      0x20\n      add\n      0x3\n      dup3\n      add\n      dup1\n      sload\n      0x1\n      dup2\n      0x1\n      and\n      iszero\n      0x100\n      mul\n      sub\n      and\n      0x2\n      swap1\n      div\n      dup1\n      0x1f\n      add\n      0x20\n      dup1\n      swap2\n      div\n      mul\n      0x20\n      add\n      mload(0x40)\n      swap1\n      dup2\n      add\n      0x40\n      mstore\n      dup1\n      swap3\n      swap2\n      swap1\n      dup2\n      dup2\n      mstore\n      0x20\n      add\n      dup3\n      dup1\n      sload\n      0x1\n      dup2\n      0x1\n      and\n      iszero\n      0x100\n      mul\n      sub\n      and\n      0x2\n      swap1\n      div\n      dup1\n      iszero\n      tag_173\n      jumpi\n      dup1\n      0x1f\n      lt\n      tag_174\n      jumpi\n      0x100\n      dup1\n      dup4\n      sload\n      div\n      mul\n      dup4\n      mstore\n      swap2\n      0x20\n      add\n      swap2\n      jump(tag_173)\n    tag_174:\n      dup3\n      add\n      swap2\n      swap1\n      0x0\n      mstore\n      keccak256(0x0, 0x20)\n      swap1\n    tag_175:\n      dup2\n      sload\n      dup2\n      mstore\n      swap1\n      0x1\n      add\n      swap1\n      0x20\n      add\n      dup1\n      dup4\n      gt\n      tag_175\n      jumpi\n      dup3\n      swap1\n      sub\n      0x1f\n      and\n      dup3\n      add\n      swap2\n    tag_173:\n      pop\n      pop\n      pop\n      pop\n      pop\n      dup2\n      mstore\n      0x20\n      add\n      0x4\n      dup3\n      add\n      dup1\n      sload\n      0x1\n      dup2\n      0x1\n      and\n      iszero\n      0x100\n      mul\n      sub\n      and\n      0x2\n      swap1\n      div\n      dup1\n      0x1f\n      add\n      0x20\n      dup1\n      swap2\n      div\n      mul\n      0x20\n      add\n      mload(0x40)\n      swap1\n      dup2\n      add\n      0x40\n      mstore\n      dup1\n      swap3\n      swap2\n      swap1\n      dup2\n      dup2\n      mstore\n      0x20\n      add\n      dup3\n      dup1\n      sload\n      0x1\n      dup2\n      0x1\n      and\n      iszero\n      0x100\n      mul\n      sub\n      and\n      0x2\n      swap1\n      div\n      dup1\n      iszero\n      tag_176\n      jumpi\n      dup1\n      0x1f\n      lt\n      tag_177\n      jumpi\n      0x100\n      dup1\n      dup4\n      sload\n      div\n      mul\n      dup4\n      mstore\n      swap2\n      0x20\n      add\n      swap2\n      jump(tag_176)\n    tag_177:\n      dup3\n      add\n      swap2\n      swap1\n      0x0\n      mstore\n      keccak256(0x0, 0x20)\n      swap1\n    tag_178:\n      dup2\n      sload\n      dup2\n      mstore\n      swap1\n      0x1\n      add\n      swap1\n      0x20\n      add\n      dup1\n      dup4\n      gt\n      tag_178\n      jumpi\n      dup3\n      swap1\n      sub\n      0x1f\n      and\n      dup3\n      add\n      swap2\n    tag_176:\n      pop\n      pop\n      pop\n      pop\n      pop\n      dup2\n      mstore\n      0x20\n      add\n      0x5\n      dup3\n      add\n      dup1\n      sload\n      0x1\n      dup2\n      0x1\n      and\n      iszero\n      0x100\n      mul\n      sub\n      and\n      0x2\n      swap1\n      div\n      dup1\n      0x1f\n      add\n      0x20\n      dup1\n      swap2\n      div\n      mul\n      0x20\n      add\n      mload(0x40)\n      swap1\n      dup2\n      add\n      0x40\n      mstore\n      dup1\n      swap3\n      swap2\n      swap1\n      dup2\n      dup2\n      mstore\n      0x20\n      add\n      dup3\n      dup1\n      sload\n      0x1\n      dup2\n      0x1\n      and\n      iszero\n      0x100\n      mul\n      sub\n      and\n      0x2\n      swap1\n      div\n      dup1\n      iszero\n      tag_179\n      jumpi\n      dup1\n      0x1f\n      lt\n      tag_180\n      jumpi\n      0x100\n      dup1\n      dup4\n      sload\n      div\n      mul\n      dup4\n      mstore\n      swap2\n      0x20\n      add\n      swap2\n      jump(tag_179)\n    tag_180:\n      dup3\n      add\n      swap2\n      swap1\n      0x0\n      mstore\n      keccak256(0x0, 0x20)\n      swap1\n    tag_181:\n      dup2\n      sload\n      dup2\n      mstore\n      swap1\n      0x1\n      add\n      swap1\n      0x20\n      add\n      dup1\n      dup4\n      gt\n      tag_181\n      jumpi\n      dup3\n      swap1\n      sub\n      0x1f\n      and\n      dup3\n      add\n      swap2\n    tag_179:\n      pop\n      pop\n      pop\n      pop\n      pop\n      dup2\n      mstore\n      0x20\n      add\n      0x6\n      dup3\n      add\n      sload\n      dup2\n      mstore\n      0x20\n      add\n      0x7\n      dup3\n      add\n      sload\n      dup2\n      mstore\n      pop\n      pop\n      swap1\n      pop\n        /* \"shipment.sol\":5605:5606  s */\n      dup1\n        /* \"shipment.sol\":5605:5609  s.id */\n      0x0\n      add\n      mload\n        /* \"shipment.sol\":5610:5611  s */\n      dup2\n        /* \"shipment.sol\":5610:5619  s.user_id */\n      0x20\n      add\n      mload\n        /* \"shipment.sol\":5620:5621  s */\n      dup3\n        /* \"shipment.sol\":5620:5629  s.carrier */\n      0x40\n      add\n      mload\n        /* \"shipment.sol\":5630:5631  s */\n      dup4\n        /* \"shipment.sol\":5630:5636  s.from */\n      0x60\n      add\n      mload\n        /* \"shipment.sol\":5637:5638  s */\n      dup5\n        /* \"shipment.sol\":5637:5641  s.to */\n      0x80\n      add\n      mload\n        /* \"shipment.sol\":5642:5643  s */\n      dup6\n        /* \"shipment.sol\":5642:5650  s.status */\n      0xa0\n      add\n      mload\n        /* \"shipment.sol\":5651:5652  s */\n      dup7\n        /* \"shipment.sol\":5651:5663  s.createTime */\n      0xc0\n      add\n      mload\n        /* \"shipment.sol\":5664:5665  s */\n      dup8\n        /* \"shipment.sol\":5664:5676  s.updateTime */\n      0xe0\n      add\n      mload\n        /* \"shipment.sol\":5597:5677  return (s.id,s.user_id,s.carrier,s.from,s.to,s.status,s.createTime,s.updateTime) */\n      dup5\n      swap5\n      pop\n      dup4\n      swap4\n      pop\n      dup3\n      swap3\n      pop\n      swap9\n      pop\n      swap9\n      pop\n      swap9\n      pop\n      swap9\n      pop\n      swap9\n      pop\n      swap9\n      pop\n      swap9\n      pop\n      swap9\n      pop\n        /* \"shipment.sol\":5443:5685  function getShipment(uint _id) public view returns(uint,uint,uint,string,string,string,uint,uint){\r... */\n      pop\n      swap2\n      swap4\n      swap6\n      swap8\n      pop\n      swap2\n      swap4\n      swap6\n      swap8\n      jump\t// out\n        /* \"shipment.sol\":3372:3539  function addAdmin(string _account,string _passwd) public {\r... */\n    tag_50:\n        /* \"shipment.sol\":3440:3458  Admin memory admin */\n      tag_182\n      jump\t// in(tag_29)\n    tag_182:\n        /* \"shipment.sol\":3461:3502  Admin(admins.length+1, _account, _passwd) */\n      0x60\n      mload(0x40)\n      swap1\n      dup2\n      add\n      0x40\n      mstore\n      dup1\n        /* \"shipment.sol\":3481:3482  1 */\n      0x1\n        /* \"shipment.sol\":3467:3473  admins */\n      0x0\n        /* \"shipment.sol\":3467:3480  admins.length */\n      dup1\n      sload\n      swap1\n      pop\n        /* \"shipment.sol\":3467:3482  admins.length+1 */\n      add\n        /* \"shipment.sol\":3461:3502  Admin(admins.length+1, _account, _passwd) */\n      dup2\n      mstore\n      0x20\n      add\n        /* \"shipment.sol\":3484:3492  _account */\n      dup5\n        /* \"shipment.sol\":3461:3502  Admin(admins.length+1, _account, _passwd) */\n      dup2\n      mstore\n      0x20\n      add\n        /* \"shipment.sol\":3494:3501  _passwd */\n      dup4\n        /* \"shipment.sol\":3461:3502  Admin(admins.length+1, _account, _passwd) */\n      dup2\n      mstore\n      pop\n        /* \"shipment.sol\":3440:3502  Admin memory admin = Admin(admins.length+1, _account, _passwd) */\n      swap1\n      pop\n        /* \"shipment.sol\":3513:3519  admins */\n      0x0\n        /* \"shipment.sol\":3525:3530  admin */\n      dup2\n        /* \"shipment.sol\":3513:3531  admins.push(admin) */\n      swap1\n      dup1\n        /* \"--CODEGEN--\":39:40   */\n      0x1\n        /* \"--CODEGEN--\":33:36   */\n      dup2\n        /* \"--CODEGEN--\":27:37   */\n      sload\n        /* \"--CODEGEN--\":23:41   */\n      add\n        /* \"--CODEGEN--\":57:67   */\n      dup1\n        /* \"--CODEGEN--\":52:55   */\n      dup3\n        /* \"--CODEGEN--\":45:68   */\n      sstore\n        /* \"--CODEGEN--\":79:89   */\n      dup1\n        /* \"--CODEGEN--\":72:89   */\n      swap2\n      pop\n        /* \"--CODEGEN--\":0:93   */\n      pop\n        /* \"shipment.sol\":3513:3531  admins.push(admin) */\n      swap1\n      0x1\n      dup3\n      sub\n      swap1\n      0x0\n      mstore\n      keccak256(0x0, 0x20)\n      swap1\n      0x3\n      mul\n      add\n      0x0\n      swap1\n      swap2\n      swap3\n      swap1\n      swap2\n      swap1\n      swap2\n      pop\n      0x0\n      dup3\n      add\n      mload\n      dup2\n      0x0\n      add\n      sstore\n      0x20\n      dup3\n      add\n      mload\n      dup2\n      0x1\n      add\n      swap1\n      dup1\n      mload\n      swap1\n      0x20\n      add\n      swap1\n      tag_185\n      swap3\n      swap2\n      swap1\n      jump\t// in(tag_33)\n    tag_185:\n      pop\n      0x40\n      dup3\n      add\n      mload\n      dup2\n      0x2\n      add\n      swap1\n      dup1\n      mload\n      swap1\n      0x20\n      add\n      swap1\n      tag_186\n      swap3\n      swap2\n      swap1\n      jump\t// in(tag_33)\n    tag_186:\n      pop\n      pop\n      pop\n      pop\n        /* \"shipment.sol\":3372:3539  function addAdmin(string _account,string _passwd) public {\r... */\n      pop\n      pop\n      pop\n      jump\t// out\n        /* \"shipment.sol\":2883:3337  function checkAdmin(string _account,string _passwd)public view returns(bool){\r... */\n    tag_54:\n        /* \"shipment.sol\":2954:2958  bool */\n      0x0\n        /* \"shipment.sol\":2974:2980  uint i */\n      dup1\n        /* \"shipment.sol\":2983:2984  0 */\n      0x0\n        /* \"shipment.sol\":2974:2984  uint i = 0 */\n      swap1\n      pop\n        /* \"shipment.sol\":2970:3307  for(uint i = 0; i < admins.length; i++){\r... */\n    tag_188:\n        /* \"shipment.sol\":2990:2996  admins */\n      0x0\n        /* \"shipment.sol\":2990:3003  admins.length */\n      dup1\n      sload\n      swap1\n      pop\n        /* \"shipment.sol\":2986:2987  i */\n      dup2\n        /* \"shipment.sol\":2986:3003  i < admins.length */\n      lt\n        /* \"shipment.sol\":2970:3307  for(uint i = 0; i < admins.length; i++){\r... */\n      iszero\n      tag_189\n      jumpi\n        /* \"shipment.sol\":3105:3113  _account */\n      dup4\n        /* \"shipment.sol\":3088:3114  abi.encodePacked(_account) */\n      add(0x20, mload(0x40))\n      dup1\n      dup3\n      dup1\n      mload\n      swap1\n      0x20\n      add\n      swap1\n      dup1\n      dup4\n      dup4\n        /* \"--CODEGEN--\":36:189   */\n    tag_191:\n        /* \"--CODEGEN--\":66:68   */\n      0x20\n        /* \"--CODEGEN--\":61:64   */\n      dup4\n        /* \"--CODEGEN--\":58:69   */\n      lt\n        /* \"--CODEGEN--\":51:70   */\n      iszero\n        /* \"--CODEGEN--\":36:189   */\n      iszero\n      tag_192\n      jumpi\n        /* \"--CODEGEN--\":182:185   */\n      dup1\n        /* \"--CODEGEN--\":176:186   */\n      mload\n        /* \"--CODEGEN--\":171:174   */\n      dup3\n        /* \"--CODEGEN--\":164:187   */\n      mstore\n        /* \"--CODEGEN--\":98:100   */\n      0x20\n        /* \"--CODEGEN--\":93:96   */\n      dup3\n        /* \"--CODEGEN--\":89:101   */\n      add\n        /* \"--CODEGEN--\":82:101   */\n      swap2\n      pop\n        /* \"--CODEGEN--\":123:125   */\n      0x20\n        /* \"--CODEGEN--\":118:121   */\n      dup2\n        /* \"--CODEGEN--\":114:126   */\n      add\n        /* \"--CODEGEN--\":107:126   */\n      swap1\n      pop\n        /* \"--CODEGEN--\":148:150   */\n      0x20\n        /* \"--CODEGEN--\":143:146   */\n      dup4\n        /* \"--CODEGEN--\":139:151   */\n      sub\n        /* \"--CODEGEN--\":132:151   */\n      swap3\n      pop\n        /* \"--CODEGEN--\":36:189   */\n      jump(tag_191)\n    tag_192:\n        /* \"--CODEGEN--\":274:275   */\n      0x1\n        /* \"--CODEGEN--\":267:270   */\n      dup4\n        /* \"--CODEGEN--\":263:265   */\n      0x20\n        /* \"--CODEGEN--\":259:271   */\n      sub\n        /* \"--CODEGEN--\":254:257   */\n      0x100\n        /* \"--CODEGEN--\":250:272   */\n      exp\n        /* \"--CODEGEN--\":246:276   */\n      sub\n        /* \"--CODEGEN--\":315:319   */\n      dup1\n        /* \"--CODEGEN--\":311:320   */\n      not\n        /* \"--CODEGEN--\":305:308   */\n      dup3\n        /* \"--CODEGEN--\":299:309   */\n      mload\n        /* \"--CODEGEN--\":295:321   */\n      and\n        /* \"--CODEGEN--\":356:360   */\n      dup2\n        /* \"--CODEGEN--\":350:353   */\n      dup5\n        /* \"--CODEGEN--\":344:354   */\n      mload\n        /* \"--CODEGEN--\":340:361   */\n      and\n        /* \"--CODEGEN--\":389:396   */\n      dup1\n        /* \"--CODEGEN--\":380:387   */\n      dup3\n        /* \"--CODEGEN--\":377:397   */\n      or\n        /* \"--CODEGEN--\":372:375   */\n      dup6\n        /* \"--CODEGEN--\":365:398   */\n      mstore\n        /* \"--CODEGEN--\":3:402   */\n      pop\n      pop\n      pop\n        /* \"shipment.sol\":3088:3114  abi.encodePacked(_account) */\n      pop\n      pop\n      pop\n      swap1\n      pop\n      add\n      swap2\n      pop\n      pop\n      mload(0x40)\n        /* \"--CODEGEN--\":49:53   */\n      0x20\n        /* \"--CODEGEN--\":39:46   */\n      dup2\n        /* \"--CODEGEN--\":30:37   */\n      dup4\n        /* \"--CODEGEN--\":26:47   */\n      sub\n        /* \"--CODEGEN--\":22:54   */\n      sub\n        /* \"--CODEGEN--\":13:20   */\n      dup2\n        /* \"--CODEGEN--\":6:55   */\n      mstore\n        /* \"shipment.sol\":3088:3114  abi.encodePacked(_account) */\n      swap1\n      0x40\n      mstore\n        /* \"shipment.sol\":3077:3116  keccak256((abi.encodePacked(_account))) */\n      mload(0x40)\n      dup1\n      dup3\n      dup1\n      mload\n      swap1\n      0x20\n      add\n      swap1\n      dup1\n      dup4\n      dup4\n        /* \"--CODEGEN--\":36:189   */\n    tag_194:\n        /* \"--CODEGEN--\":66:68   */\n      0x20\n        /* \"--CODEGEN--\":61:64   */\n      dup4\n        /* \"--CODEGEN--\":58:69   */\n      lt\n        /* \"--CODEGEN--\":51:70   */\n      iszero\n        /* \"--CODEGEN--\":36:189   */\n      iszero\n      tag_195\n      jumpi\n        /* \"--CODEGEN--\":182:185   */\n      dup1\n        /* \"--CODEGEN--\":176:186   */\n      mload\n        /* \"--CODEGEN--\":171:174   */\n      dup3\n        /* \"--CODEGEN--\":164:187   */\n      mstore\n        /* \"--CODEGEN--\":98:100   */\n      0x20\n        /* \"--CODEGEN--\":93:96   */\n      dup3\n        /* \"--CODEGEN--\":89:101   */\n      add\n        /* \"--CODEGEN--\":82:101   */\n      swap2\n      pop\n        /* \"--CODEGEN--\":123:125   */\n      0x20\n        /* \"--CODEGEN--\":118:121   */\n      dup2\n        /* \"--CODEGEN--\":114:126   */\n      add\n        /* \"--CODEGEN--\":107:126   */\n      swap1\n      pop\n        /* \"--CODEGEN--\":148:150   */\n      0x20\n        /* \"--CODEGEN--\":143:146   */\n      dup4\n        /* \"--CODEGEN--\":139:151   */\n      sub\n        /* \"--CODEGEN--\":132:151   */\n      swap3\n      pop\n        /* \"--CODEGEN--\":36:189   */\n      jump(tag_194)\n    tag_195:\n        /* \"--CODEGEN--\":274:275   */\n      0x1\n        /* \"--CODEGEN--\":267:270   */\n      dup4\n        /* \"--CODEGEN--\":263:265   */\n      0x20\n        /* \"--CODEGEN--\":259:271   */\n      sub\n        /* \"--CODEGEN--\":254:257   */\n      0x100\n        /* \"--CODEGEN--\":250:272   */\n      exp\n        /* \"--CODEGEN--\":246:276   */\n      sub\n        /* \"--CODEGEN--\":315:319   */\n      dup1\n        /* \"--CODEGEN--\":311:320   */\n      not\n        /* \"--CODEGEN--\":305:308   */\n      dup3\n        /* \"--CODEGEN--\":299:309   */\n      mload\n        /* \"--CODEGEN--\":295:321   */\n      and\n        /* \"--CODEGEN--\":356:360   */\n      dup2\n        /* \"--CODEGEN--\":350:353   */\n      dup5\n        /* \"--CODEGEN--\":344:354   */\n      mload\n        /* \"--CODEGEN--\":340:361   */\n      and\n        /* \"--CODEGEN--\":389:396   */\n      dup1\n        /* \"--CODEGEN--\":380:387   */\n      dup3\n        /* \"--CODEGEN--\":377:397   */\n      or\n        /* \"--CODEGEN--\":372:375   */\n      dup6\n        /* \"--CODEGEN--\":365:398   */\n      mstore\n        /* \"--CODEGEN--\":3:402   */\n      pop\n      pop\n      pop\n        /* \"shipment.sol\":3077:3116  keccak256((abi.encodePacked(_account))) */\n      pop\n      pop\n      pop\n      swap1\n      pop\n      add\n      swap2\n      pop\n      pop\n      mload(0x40)\n      dup1\n      swap2\n      sub\n      swap1\n      keccak256\n        /* \"shipment.sol\":3027:3116  keccak256((abi.encodePacked(admins[i].account)))==keccak256((abi.encodePacked(_account))) */\n      not(0x0)\n      and\n        /* \"shipment.sol\":3055:3061  admins */\n      0x0\n        /* \"shipment.sol\":3062:3063  i */\n      dup3\n        /* \"shipment.sol\":3055:3064  admins[i] */\n      dup2\n      sload\n      dup2\n      lt\n      iszero\n      iszero\n      tag_197\n      jumpi\n      invalid\n    tag_197:\n      swap1\n      0x0\n      mstore\n      keccak256(0x0, 0x20)\n      swap1\n      0x3\n      mul\n      add\n        /* \"shipment.sol\":3055:3072  admins[i].account */\n      0x1\n      add\n        /* \"shipment.sol\":3038:3073  abi.encodePacked(admins[i].account) */\n      add(0x20, mload(0x40))\n      dup1\n      dup3\n      dup1\n      sload\n      0x1\n      dup2\n      0x1\n      and\n      iszero\n      0x100\n      mul\n      sub\n      and\n      0x2\n      swap1\n      div\n      dup1\n      iszero\n      tag_199\n      jumpi\n      dup1\n      0x1f\n      lt\n      tag_200\n      jumpi\n      0x100\n      dup1\n      dup4\n      sload\n      div\n      mul\n      dup4\n      mstore\n      swap2\n      dup3\n      add\n      swap2\n      jump(tag_199)\n    tag_200:\n      dup3\n      add\n      swap2\n      swap1\n      0x0\n      mstore\n      keccak256(0x0, 0x20)\n      swap1\n    tag_201:\n      dup2\n      sload\n      dup2\n      mstore\n      swap1\n      0x1\n      add\n      swap1\n      0x20\n      add\n      dup1\n      dup4\n      gt\n      tag_201\n      jumpi\n    tag_199:\n      pop\n      pop\n      swap2\n      pop\n      pop\n      mload(0x40)\n        /* \"--CODEGEN--\":49:53   */\n      0x20\n        /* \"--CODEGEN--\":39:46   */\n      dup2\n        /* \"--CODEGEN--\":30:37   */\n      dup4\n        /* \"--CODEGEN--\":26:47   */\n      sub\n        /* \"--CODEGEN--\":22:54   */\n      sub\n        /* \"--CODEGEN--\":13:20   */\n      dup2\n        /* \"--CODEGEN--\":6:55   */\n      mstore\n        /* \"shipment.sol\":3038:3073  abi.encodePacked(admins[i].account) */\n      swap1\n      0x40\n      mstore\n        /* \"shipment.sol\":3027:3075  keccak256((abi.encodePacked(admins[i].account))) */\n      mload(0x40)\n      dup1\n      dup3\n      dup1\n      mload\n      swap1\n      0x20\n      add\n      swap1\n      dup1\n      dup4\n      dup4\n        /* \"--CODEGEN--\":36:189   */\n    tag_202:\n        /* \"--CODEGEN--\":66:68   */\n      0x20\n        /* \"--CODEGEN--\":61:64   */\n      dup4\n        /* \"--CODEGEN--\":58:69   */\n      lt\n        /* \"--CODEGEN--\":51:70   */\n      iszero\n        /* \"--CODEGEN--\":36:189   */\n      iszero\n      tag_203\n      jumpi\n        /* \"--CODEGEN--\":182:185   */\n      dup1\n        /* \"--CODEGEN--\":176:186   */\n      mload\n        /* \"--CODEGEN--\":171:174   */\n      dup3\n        /* \"--CODEGEN--\":164:187   */\n      mstore\n        /* \"--CODEGEN--\":98:100   */\n      0x20\n        /* \"--CODEGEN--\":93:96   */\n      dup3\n        /* \"--CODEGEN--\":89:101   */\n      add\n        /* \"--CODEGEN--\":82:101   */\n      swap2\n      pop\n        /* \"--CODEGEN--\":123:125   */\n      0x20\n        /* \"--CODEGEN--\":118:121   */\n      dup2\n        /* \"--CODEGEN--\":114:126   */\n      add\n        /* \"--CODEGEN--\":107:126   */\n      swap1\n      pop\n        /* \"--CODEGEN--\":148:150   */\n      0x20\n        /* \"--CODEGEN--\":143:146   */\n      dup4\n        /* \"--CODEGEN--\":139:151   */\n      sub\n        /* \"--CODEGEN--\":132:151   */\n      swap3\n      pop\n        /* \"--CODEGEN--\":36:189   */\n      jump(tag_202)\n    tag_203:\n        /* \"--CODEGEN--\":274:275   */\n      0x1\n        /* \"--CODEGEN--\":267:270   */\n      dup4\n        /* \"--CODEGEN--\":263:265   */\n      0x20\n        /* \"--CODEGEN--\":259:271   */\n      sub\n        /* \"--CODEGEN--\":254:257   */\n      0x100\n        /* \"--CODEGEN--\":250:272   */\n      exp\n        /* \"--CODEGEN--\":246:276   */\n      sub\n        /* \"--CODEGEN--\":315:319   */\n      dup1\n        /* \"--CODEGEN--\":311:320   */\n      not\n        /* \"--CODEGEN--\":305:308   */\n      dup3\n        /* \"--CODEGEN--\":299:309   */\n      mload\n        /* \"--CODEGEN--\":295:321   */\n      and\n        /* \"--CODEGEN--\":356:360   */\n      dup2\n        /* \"--CODEGEN--\":350:353   */\n      dup5\n        /* \"--CODEGEN--\":344:354   */\n      mload\n        /* \"--CODEGEN--\":340:361   */\n      and\n        /* \"--CODEGEN--\":389:396   */\n      dup1\n        /* \"--CODEGEN--\":380:387   */\n      dup3\n        /* \"--CODEGEN--\":377:397   */\n      or\n        /* \"--CODEGEN--\":372:375   */\n      dup6\n        /* \"--CODEGEN--\":365:398   */\n      mstore\n        /* \"--CODEGEN--\":3:402   */\n      pop\n      pop\n      pop\n        /* \"shipment.sol\":3027:3075  keccak256((abi.encodePacked(admins[i].account))) */\n      pop\n      pop\n      pop\n      swap1\n      pop\n      add\n      swap2\n      pop\n      pop\n      mload(0x40)\n      dup1\n      swap2\n      sub\n      swap1\n      keccak256\n        /* \"shipment.sol\":3027:3116  keccak256((abi.encodePacked(admins[i].account)))==keccak256((abi.encodePacked(_account))) */\n      not(0x0)\n      and\n      eq\n        /* \"shipment.sol\":3024:3296  if(keccak256((abi.encodePacked(admins[i].account)))==keccak256((abi.encodePacked(_account)))){\r... */\n      iszero\n      tag_205\n      jumpi\n        /* \"shipment.sol\":3216:3223  _passwd */\n      dup3\n        /* \"shipment.sol\":3199:3224  abi.encodePacked(_passwd) */\n      add(0x20, mload(0x40))\n      dup1\n      dup3\n      dup1\n      mload\n      swap1\n      0x20\n      add\n      swap1\n      dup1\n      dup4\n      dup4\n        /* \"--CODEGEN--\":36:189   */\n    tag_206:\n        /* \"--CODEGEN--\":66:68   */\n      0x20\n        /* \"--CODEGEN--\":61:64   */\n      dup4\n        /* \"--CODEGEN--\":58:69   */\n      lt\n        /* \"--CODEGEN--\":51:70   */\n      iszero\n        /* \"--CODEGEN--\":36:189   */\n      iszero\n      tag_207\n      jumpi\n        /* \"--CODEGEN--\":182:185   */\n      dup1\n        /* \"--CODEGEN--\":176:186   */\n      mload\n        /* \"--CODEGEN--\":171:174   */\n      dup3\n        /* \"--CODEGEN--\":164:187   */\n      mstore\n        /* \"--CODEGEN--\":98:100   */\n      0x20\n        /* \"--CODEGEN--\":93:96   */\n      dup3\n        /* \"--CODEGEN--\":89:101   */\n      add\n        /* \"--CODEGEN--\":82:101   */\n      swap2\n      pop\n        /* \"--CODEGEN--\":123:125   */\n      0x20\n        /* \"--CODEGEN--\":118:121   */\n      dup2\n        /* \"--CODEGEN--\":114:126   */\n      add\n        /* \"--CODEGEN--\":107:126   */\n      swap1\n      pop\n        /* \"--CODEGEN--\":148:150   */\n      0x20\n        /* \"--CODEGEN--\":143:146   */\n      dup4\n        /* \"--CODEGEN--\":139:151   */\n      sub\n        /* \"--CODEGEN--\":132:151   */\n      swap3\n      pop\n        /* \"--CODEGEN--\":36:189   */\n      jump(tag_206)\n    tag_207:\n        /* \"--CODEGEN--\":274:275   */\n      0x1\n        /* \"--CODEGEN--\":267:270   */\n      dup4\n        /* \"--CODEGEN--\":263:265   */\n      0x20\n        /* \"--CODEGEN--\":259:271   */\n      sub\n        /* \"--CODEGEN--\":254:257   */\n      0x100\n        /* \"--CODEGEN--\":250:272   */\n      exp\n        /* \"--CODEGEN--\":246:276   */\n      sub\n        /* \"--CODEGEN--\":315:319   */\n      dup1\n        /* \"--CODEGEN--\":311:320   */\n      not\n        /* \"--CODEGEN--\":305:308   */\n      dup3\n        /* \"--CODEGEN--\":299:309   */\n      mload\n        /* \"--CODEGEN--\":295:321   */\n      and\n        /* \"--CODEGEN--\":356:360   */\n      dup2\n        /* \"--CODEGEN--\":350:353   */\n      dup5\n        /* \"--CODEGEN--\":344:354   */\n      mload\n        /* \"--CODEGEN--\":340:361   */\n      and\n        /* \"--CODEGEN--\":389:396   */\n      dup1\n        /* \"--CODEGEN--\":380:387   */\n      dup3\n        /* \"--CODEGEN--\":377:397   */\n      or\n        /* \"--CODEGEN--\":372:375   */\n      dup6\n        /* \"--CODEGEN--\":365:398   */\n      mstore\n        /* \"--CODEGEN--\":3:402   */\n      pop\n      pop\n      pop\n        /* \"shipment.sol\":3199:3224  abi.encodePacked(_passwd) */\n      pop\n      pop\n      pop\n      swap1\n      pop\n      add\n      swap2\n      pop\n      pop\n      mload(0x40)\n        /* \"--CODEGEN--\":49:53   */\n      0x20\n        /* \"--CODEGEN--\":39:46   */\n      dup2\n        /* \"--CODEGEN--\":30:37   */\n      dup4\n        /* \"--CODEGEN--\":26:47   */\n      sub\n        /* \"--CODEGEN--\":22:54   */\n      sub\n        /* \"--CODEGEN--\":13:20   */\n      dup2\n        /* \"--CODEGEN--\":6:55   */\n      mstore\n        /* \"shipment.sol\":3199:3224  abi.encodePacked(_passwd) */\n      swap1\n      0x40\n      mstore\n        /* \"shipment.sol\":3188:3226  keccak256((abi.encodePacked(_passwd))) */\n      mload(0x40)\n      dup1\n      dup3\n      dup1\n      mload\n      swap1\n      0x20\n      add\n      swap1\n      dup1\n      dup4\n      dup4\n        /* \"--CODEGEN--\":36:189   */\n    tag_209:\n        /* \"--CODEGEN--\":66:68   */\n      0x20\n        /* \"--CODEGEN--\":61:64   */\n      dup4\n        /* \"--CODEGEN--\":58:69   */\n      lt\n        /* \"--CODEGEN--\":51:70   */\n      iszero\n        /* \"--CODEGEN--\":36:189   */\n      iszero\n      tag_210\n      jumpi\n        /* \"--CODEGEN--\":182:185   */\n      dup1\n        /* \"--CODEGEN--\":176:186   */\n      mload\n        /* \"--CODEGEN--\":171:174   */\n      dup3\n        /* \"--CODEGEN--\":164:187   */\n      mstore\n        /* \"--CODEGEN--\":98:100   */\n      0x20\n        /* \"--CODEGEN--\":93:96   */\n      dup3\n        /* \"--CODEGEN--\":89:101   */\n      add\n        /* \"--CODEGEN--\":82:101   */\n      swap2\n      pop\n        /* \"--CODEGEN--\":123:125   */\n      0x20\n        /* \"--CODEGEN--\":118:121   */\n      dup2\n        /* \"--CODEGEN--\":114:126   */\n      add\n        /* \"--CODEGEN--\":107:126   */\n      swap1\n      pop\n        /* \"--CODEGEN--\":148:150   */\n      0x20\n        /* \"--CODEGEN--\":143:146   */\n      dup4\n        /* \"--CODEGEN--\":139:151   */\n      sub\n        /* \"--CODEGEN--\":132:151   */\n      swap3\n      pop\n        /* \"--CODEGEN--\":36:189   */\n      jump(tag_209)\n    tag_210:\n        /* \"--CODEGEN--\":274:275   */\n      0x1\n        /* \"--CODEGEN--\":267:270   */\n      dup4\n        /* \"--CODEGEN--\":263:265   */\n      0x20\n        /* \"--CODEGEN--\":259:271   */\n      sub\n        /* \"--CODEGEN--\":254:257   */\n      0x100\n        /* \"--CODEGEN--\":250:272   */\n      exp\n        /* \"--CODEGEN--\":246:276   */\n      sub\n        /* \"--CODEGEN--\":315:319   */\n      dup1\n        /* \"--CODEGEN--\":311:320   */\n      not\n        /* \"--CODEGEN--\":305:308   */\n      dup3\n        /* \"--CODEGEN--\":299:309   */\n      mload\n        /* \"--CODEGEN--\":295:321   */\n      and\n        /* \"--CODEGEN--\":356:360   */\n      dup2\n        /* \"--CODEGEN--\":350:353   */\n      dup5\n        /* \"--CODEGEN--\":344:354   */\n      mload\n        /* \"--CODEGEN--\":340:361   */\n      and\n        /* \"--CODEGEN--\":389:396   */\n      dup1\n        /* \"--CODEGEN--\":380:387   */\n      dup3\n        /* \"--CODEGEN--\":377:397   */\n      or\n        /* \"--CODEGEN--\":372:375   */\n      dup6\n        /* \"--CODEGEN--\":365:398   */\n      mstore\n        /* \"--CODEGEN--\":3:402   */\n      pop\n      pop\n      pop\n        /* \"shipment.sol\":3188:3226  keccak256((abi.encodePacked(_passwd))) */\n      pop\n      pop\n      pop\n      swap1\n      pop\n      add\n      swap2\n      pop\n      pop\n      mload(0x40)\n      dup1\n      swap2\n      sub\n      swap1\n      keccak256\n        /* \"shipment.sol\":3139:3226  keccak256((abi.encodePacked(admins[i].passwd)))==keccak256((abi.encodePacked(_passwd))) */\n      not(0x0)\n      and\n        /* \"shipment.sol\":3167:3173  admins */\n      0x0\n        /* \"shipment.sol\":3174:3175  i */\n      dup3\n        /* \"shipment.sol\":3167:3176  admins[i] */\n      dup2\n      sload\n      dup2\n      lt\n      iszero\n      iszero\n      tag_212\n      jumpi\n      invalid\n    tag_212:\n      swap1\n      0x0\n      mstore\n      keccak256(0x0, 0x20)\n      swap1\n      0x3\n      mul\n      add\n        /* \"shipment.sol\":3167:3183  admins[i].passwd */\n      0x2\n      add\n        /* \"shipment.sol\":3150:3184  abi.encodePacked(admins[i].passwd) */\n      add(0x20, mload(0x40))\n      dup1\n      dup3\n      dup1\n      sload\n      0x1\n      dup2\n      0x1\n      and\n      iszero\n      0x100\n      mul\n      sub\n      and\n      0x2\n      swap1\n      div\n      dup1\n      iszero\n      tag_214\n      jumpi\n      dup1\n      0x1f\n      lt\n      tag_215\n      jumpi\n      0x100\n      dup1\n      dup4\n      sload\n      div\n      mul\n      dup4\n      mstore\n      swap2\n      dup3\n      add\n      swap2\n      jump(tag_214)\n    tag_215:\n      dup3\n      add\n      swap2\n      swap1\n      0x0\n      mstore\n      keccak256(0x0, 0x20)\n      swap1\n    tag_216:\n      dup2\n      sload\n      dup2\n      mstore\n      swap1\n      0x1\n      add\n      swap1\n      0x20\n      add\n      dup1\n      dup4\n      gt\n      tag_216\n      jumpi\n    tag_214:\n      pop\n      pop\n      swap2\n      pop\n      pop\n      mload(0x40)\n        /* \"--CODEGEN--\":49:53   */\n      0x20\n        /* \"--CODEGEN--\":39:46   */\n      dup2\n        /* \"--CODEGEN--\":30:37   */\n      dup4\n        /* \"--CODEGEN--\":26:47   */\n      sub\n        /* \"--CODEGEN--\":22:54   */\n      sub\n        /* \"--CODEGEN--\":13:20   */\n      dup2\n        /* \"--CODEGEN--\":6:55   */\n      mstore\n        /* \"shipment.sol\":3150:3184  abi.encodePacked(admins[i].passwd) */\n      swap1\n      0x40\n      mstore\n        /* \"shipment.sol\":3139:3186  keccak256((abi.encodePacked(admins[i].passwd))) */\n      mload(0x40)\n      dup1\n      dup3\n      dup1\n      mload\n      swap1\n      0x20\n      add\n      swap1\n      dup1\n      dup4\n      dup4\n        /* \"--CODEGEN--\":36:189   */\n    tag_217:\n        /* \"--CODEGEN--\":66:68   */\n      0x20\n        /* \"--CODEGEN--\":61:64   */\n      dup4\n        /* \"--CODEGEN--\":58:69   */\n      lt\n        /* \"--CODEGEN--\":51:70   */\n      iszero\n        /* \"--CODEGEN--\":36:189   */\n      iszero\n      tag_218\n      jumpi\n        /* \"--CODEGEN--\":182:185   */\n      dup1\n        /* \"--CODEGEN--\":176:186   */\n      mload\n        /* \"--CODEGEN--\":171:174   */\n      dup3\n        /* \"--CODEGEN--\":164:187   */\n      mstore\n        /* \"--CODEGEN--\":98:100   */\n      0x20\n        /* \"--CODEGEN--\":93:96   */\n      dup3\n        /* \"--CODEGEN--\":89:101   */\n      add\n        /* \"--CODEGEN--\":82:101   */\n      swap2\n      pop\n        /* \"--CODEGEN--\":123:125   */\n      0x20\n        /* \"--CODEGEN--\":118:121   */\n      dup2\n        /* \"--CODEGEN--\":114:126   */\n      add\n        /* \"--CODEGEN--\":107:126   */\n      swap1\n      pop\n        /* \"--CODEGEN--\":148:150   */\n      0x20\n        /* \"--CODEGEN--\":143:146   */\n      dup4\n        /* \"--CODEGEN--\":139:151   */\n      sub\n        /* \"--CODEGEN--\":132:151   */\n      swap3\n      pop\n        /* \"--CODEGEN--\":36:189   */\n      jump(tag_217)\n    tag_218:\n        /* \"--CODEGEN--\":274:275   */\n      0x1\n        /* \"--CODEGEN--\":267:270   */\n      dup4\n        /* \"--CODEGEN--\":263:265   */\n      0x20\n        /* \"--CODEGEN--\":259:271   */\n      sub\n        /* \"--CODEGEN--\":254:257   */\n      0x100\n        /* \"--CODEGEN--\":250:272   */\n      exp\n        /* \"--CODEGEN--\":246:276   */\n      sub\n        /* \"--CODEGEN--\":315:319   */\n      dup1\n        /* \"--CODEGEN--\":311:320   */\n      not\n        /* \"--CODEGEN--\":305:308   */\n      dup3\n        /* \"--CODEGEN--\":299:309   */\n      mload\n        /* \"--CODEGEN--\":295:321   */\n      and\n        /* \"--CODEGEN--\":356:360   */\n      dup2\n        /* \"--CODEGEN--\":350:353   */\n      dup5\n        /* \"--CODEGEN--\":344:354   */\n      mload\n        /* \"--CODEGEN--\":340:361   */\n      and\n        /* \"--CODEGEN--\":389:396   */\n      dup1\n        /* \"--CODEGEN--\":380:387   */\n      dup3\n        /* \"--CODEGEN--\":377:397   */\n      or\n        /* \"--CODEGEN--\":372:375   */\n      dup6\n        /* \"--CODEGEN--\":365:398   */\n      mstore\n        /* \"--CODEGEN--\":3:402   */\n      pop\n      pop\n      pop\n        /* \"shipment.sol\":3139:3186  keccak256((abi.encodePacked(admins[i].passwd))) */\n      pop\n      pop\n      pop\n      swap1\n      pop\n      add\n      swap2\n      pop\n      pop\n      mload(0x40)\n      dup1\n      swap2\n      sub\n      swap1\n      keccak256\n        /* \"shipment.sol\":3139:3226  keccak256((abi.encodePacked(admins[i].passwd)))==keccak256((abi.encodePacked(_passwd))) */\n      not(0x0)\n      and\n      eq\n        /* \"shipment.sol\":3136:3281  if(keccak256((abi.encodePacked(admins[i].passwd)))==keccak256((abi.encodePacked(_passwd)))){\r... */\n      iszero\n      tag_220\n      jumpi\n        /* \"shipment.sol\":3257:3261  true */\n      0x1\n        /* \"shipment.sol\":3250:3261  return true */\n      swap2\n      pop\n      jump(tag_187)\n        /* \"shipment.sol\":3136:3281  if(keccak256((abi.encodePacked(admins[i].passwd)))==keccak256((abi.encodePacked(_passwd)))){\r... */\n    tag_220:\n        /* \"shipment.sol\":3024:3296  if(keccak256((abi.encodePacked(admins[i].account)))==keccak256((abi.encodePacked(_account)))){\r... */\n    tag_205:\n        /* \"shipment.sol\":3005:3008  i++ */\n      dup1\n      dup1\n      0x1\n      add\n      swap2\n      pop\n      pop\n        /* \"shipment.sol\":2970:3307  for(uint i = 0; i < admins.length; i++){\r... */\n      jump(tag_188)\n    tag_189:\n        /* \"shipment.sol\":3324:3329  false */\n      0x0\n        /* \"shipment.sol\":3317:3329  return false */\n      swap2\n      pop\n        /* \"shipment.sol\":2883:3337  function checkAdmin(string _account,string _passwd)public view returns(bool){\r... */\n    tag_187:\n      pop\n      swap3\n      swap2\n      pop\n      pop\n      jump\t// out\n        /* \"shipment.sol\":5785:6925  function deleteShipment(uint _shipment_id) public returns(bool){\r... */\n    tag_60:\n        /* \"shipment.sol\":5843:5847  bool */\n      0x0\n        /* \"shipment.sol\":6014:6032  uint shipmentIndex */\n      dup1\n        /* \"shipment.sol\":6062:6076  uint carrierId */\n      0x0\n        /* \"shipment.sol\":6195:6226  uint[] storage carrierShipments */\n      dup1\n        /* \"shipment.sol\":6277:6283  uint l */\n      0x0\n        /* \"shipment.sol\":6683:6689  uint m */\n      dup1\n        /* \"shipment.sol\":5882:5883  0 */\n      0x0\n        /* \"shipment.sol\":5867:5879  _shipment_id */\n      dup8\n        /* \"shipment.sol\":5867:5883  _shipment_id > 0 */\n      gt\n        /* \"shipment.sol\":5867:5919  _shipment_id > 0 && _shipment_id <= shipments.length */\n      dup1\n      iszero\n      tag_222\n      jumpi\n      pop\n        /* \"shipment.sol\":5903:5912  shipments */\n      0x3\n        /* \"shipment.sol\":5903:5919  shipments.length */\n      dup1\n      sload\n      swap1\n      pop\n        /* \"shipment.sol\":5887:5899  _shipment_id */\n      dup8\n        /* \"shipment.sol\":5887:5919  _shipment_id <= shipments.length */\n      gt\n      iszero\n        /* \"shipment.sol\":5867:5919  _shipment_id > 0 && _shipment_id <= shipments.length */\n    tag_222:\n        /* \"shipment.sol\":5859:5950  require(_shipment_id > 0 && _shipment_id <= shipments.length, \"Shipment ID does not exist\") */\n      iszero\n      iszero\n      tag_223\n      jumpi\n      mload(0x40)\n      0x8c379a000000000000000000000000000000000000000000000000000000000\n      dup2\n      mstore\n      0x4\n      add\n      tag_224\n      swap1\n      jump(tag_225)\n    tag_224:\n      mload(0x40)\n      dup1\n      swap2\n      sub\n      swap1\n      revert\n    tag_223:\n        /* \"shipment.sol\":6050:6051  1 */\n      0x1\n        /* \"shipment.sol\":6035:6047  _shipment_id */\n      dup8\n        /* \"shipment.sol\":6035:6051  _shipment_id - 1 */\n      sub\n        /* \"shipment.sol\":6014:6051  uint shipmentIndex = _shipment_id - 1 */\n      swap5\n      pop\n        /* \"shipment.sol\":6079:6088  shipments */\n      0x3\n        /* \"shipment.sol\":6089:6102  shipmentIndex */\n      dup6\n        /* \"shipment.sol\":6079:6103  shipments[shipmentIndex] */\n      dup2\n      sload\n      dup2\n      lt\n      iszero\n      iszero\n      tag_226\n      jumpi\n      invalid\n    tag_226:\n      swap1\n      0x0\n      mstore\n      keccak256(0x0, 0x20)\n      swap1\n      0x8\n      mul\n      add\n        /* \"shipment.sol\":6079:6111  shipments[shipmentIndex].carrier */\n      0x2\n      add\n      sload\n        /* \"shipment.sol\":6062:6111  uint carrierId = shipments[shipmentIndex].carrier */\n      swap4\n      pop\n        /* \"shipment.sol\":6229:6237  carriers */\n      0x2\n        /* \"shipment.sol\":6250:6251  1 */\n      0x1\n        /* \"shipment.sol\":6238:6247  carrierId */\n      dup6\n        /* \"shipment.sol\":6238:6251  carrierId - 1 */\n      sub\n        /* \"shipment.sol\":6229:6252  carriers[carrierId - 1] */\n      dup2\n      sload\n      dup2\n      lt\n      iszero\n      iszero\n      tag_228\n      jumpi\n      invalid\n    tag_228:\n      swap1\n      0x0\n      mstore\n      keccak256(0x0, 0x20)\n      swap1\n      0x5\n      mul\n      add\n        /* \"shipment.sol\":6229:6262  carriers[carrierId - 1].shipments */\n      0x4\n      add\n        /* \"shipment.sol\":6195:6262  uint[] storage carrierShipments = carriers[carrierId - 1].shipments */\n      swap3\n      pop\n        /* \"shipment.sol\":6286:6287  0 */\n      0x0\n        /* \"shipment.sol\":6277:6287  uint l = 0 */\n      swap2\n      pop\n        /* \"shipment.sol\":6273:6617  for(uint l = 0; l < carrierShipments.length; l++){\r... */\n    tag_230:\n        /* \"shipment.sol\":6293:6309  carrierShipments */\n      dup3\n        /* \"shipment.sol\":6293:6316  carrierShipments.length */\n      dup1\n      sload\n      swap1\n      pop\n        /* \"shipment.sol\":6289:6290  l */\n      dup3\n        /* \"shipment.sol\":6289:6316  l < carrierShipments.length */\n      lt\n        /* \"shipment.sol\":6273:6617  for(uint l = 0; l < carrierShipments.length; l++){\r... */\n      iszero\n      tag_231\n      jumpi\n        /* \"shipment.sol\":6363:6375  _shipment_id */\n      dup7\n        /* \"shipment.sol\":6340:6356  carrierShipments */\n      dup4\n        /* \"shipment.sol\":6357:6358  l */\n      dup4\n        /* \"shipment.sol\":6340:6359  carrierShipments[l] */\n      dup2\n      sload\n      dup2\n      lt\n      iszero\n      iszero\n      tag_233\n      jumpi\n      invalid\n    tag_233:\n      swap1\n      0x0\n      mstore\n      keccak256(0x0, 0x20)\n      add\n      sload\n        /* \"shipment.sol\":6340:6375  carrierShipments[l] == _shipment_id */\n      eq\n        /* \"shipment.sol\":6337:6606  if(carrierShipments[l] == _shipment_id){\r... */\n      iszero\n      tag_235\n      jumpi\n        /* \"shipment.sol\":6477:6493  carrierShipments */\n      dup3\n        /* \"shipment.sol\":6520:6521  1 */\n      0x1\n        /* \"shipment.sol\":6494:6510  carrierShipments */\n      dup5\n        /* \"shipment.sol\":6494:6517  carrierShipments.length */\n      dup1\n      sload\n      swap1\n      pop\n        /* \"shipment.sol\":6494:6521  carrierShipments.length - 1 */\n      sub\n        /* \"shipment.sol\":6477:6522  carrierShipments[carrierShipments.length - 1] */\n      dup2\n      sload\n      dup2\n      lt\n      iszero\n      iszero\n      tag_236\n      jumpi\n      invalid\n    tag_236:\n      swap1\n      0x0\n      mstore\n      keccak256(0x0, 0x20)\n      add\n      sload\n        /* \"shipment.sol\":6455:6471  carrierShipments */\n      dup4\n        /* \"shipment.sol\":6472:6473  l */\n      dup4\n        /* \"shipment.sol\":6455:6474  carrierShipments[l] */\n      dup2\n      sload\n      dup2\n      lt\n      iszero\n      iszero\n      tag_238\n      jumpi\n      invalid\n    tag_238:\n      swap1\n      0x0\n      mstore\n      keccak256(0x0, 0x20)\n      add\n        /* \"shipment.sol\":6455:6522  carrierShipments[l] = carrierShipments[carrierShipments.length - 1] */\n      dup2\n      swap1\n      sstore\n      pop\n        /* \"shipment.sol\":6541:6557  carrierShipments */\n      dup3\n        /* \"shipment.sol\":6541:6566  carrierShipments.length-- */\n      dup1\n      sload\n      dup1\n      swap2\n      swap1\n      0x1\n      swap1\n      sub\n      tag_240\n      swap2\n      swap1\n      jump\t// in(tag_241)\n    tag_240:\n      pop\n        /* \"shipment.sol\":6585:6590  break */\n      jump(tag_231)\n        /* \"shipment.sol\":6337:6606  if(carrierShipments[l] == _shipment_id){\r... */\n    tag_235:\n        /* \"shipment.sol\":6318:6321  l++ */\n      dup2\n      dup1\n      0x1\n      add\n      swap3\n      pop\n      pop\n        /* \"shipment.sol\":6273:6617  for(uint l = 0; l < carrierShipments.length; l++){\r... */\n      jump(tag_230)\n    tag_231:\n        /* \"shipment.sol\":6692:6705  shipmentIndex */\n      dup5\n        /* \"shipment.sol\":6683:6705  uint m = shipmentIndex */\n      swap1\n      pop\n        /* \"shipment.sol\":6679:6857  for(uint m = shipmentIndex; m < shipments.length - 1; m++){\r... */\n    tag_242:\n        /* \"shipment.sol\":6730:6731  1 */\n      0x1\n        /* \"shipment.sol\":6711:6720  shipments */\n      0x3\n        /* \"shipment.sol\":6711:6727  shipments.length */\n      dup1\n      sload\n      swap1\n      pop\n        /* \"shipment.sol\":6711:6731  shipments.length - 1 */\n      sub\n        /* \"shipment.sol\":6707:6708  m */\n      dup2\n        /* \"shipment.sol\":6707:6731  m < shipments.length - 1 */\n      lt\n        /* \"shipment.sol\":6679:6857  for(uint m = shipmentIndex; m < shipments.length - 1; m++){\r... */\n      iszero\n      tag_243\n      jumpi\n        /* \"shipment.sol\":6767:6776  shipments */\n      0x3\n        /* \"shipment.sol\":6781:6782  1 */\n      0x1\n        /* \"shipment.sol\":6777:6778  m */\n      dup3\n        /* \"shipment.sol\":6777:6782  m + 1 */\n      add\n        /* \"shipment.sol\":6767:6783  shipments[m + 1] */\n      dup2\n      sload\n      dup2\n      lt\n      iszero\n      iszero\n      tag_245\n      jumpi\n      invalid\n    tag_245:\n      swap1\n      0x0\n      mstore\n      keccak256(0x0, 0x20)\n      swap1\n      0x8\n      mul\n      add\n        /* \"shipment.sol\":6752:6761  shipments */\n      0x3\n        /* \"shipment.sol\":6762:6763  m */\n      dup3\n        /* \"shipment.sol\":6752:6764  shipments[m] */\n      dup2\n      sload\n      dup2\n      lt\n      iszero\n      iszero\n      tag_247\n      jumpi\n      invalid\n    tag_247:\n      swap1\n      0x0\n      mstore\n      keccak256(0x0, 0x20)\n      swap1\n      0x8\n      mul\n      add\n        /* \"shipment.sol\":6752:6783  shipments[m] = shipments[m + 1] */\n      0x0\n      dup3\n      add\n      sload\n      dup2\n      0x0\n      add\n      sstore\n      0x1\n      dup3\n      add\n      sload\n      dup2\n      0x1\n      add\n      sstore\n      0x2\n      dup3\n      add\n      sload\n      dup2\n      0x2\n      add\n      sstore\n      0x3\n      dup3\n      add\n      dup2\n      0x3\n      add\n      swap1\n      dup1\n      sload\n      0x1\n      dup2\n      0x1\n      and\n      iszero\n      0x100\n      mul\n      sub\n      and\n      0x2\n      swap1\n      div\n      tag_249\n      swap3\n      swap2\n      swap1\n      jump\t// in(tag_250)\n    tag_249:\n      pop\n      0x4\n      dup3\n      add\n      dup2\n      0x4\n      add\n      swap1\n      dup1\n      sload\n      0x1\n      dup2\n      0x1\n      and\n      iszero\n      0x100\n      mul\n      sub\n      and\n      0x2\n      swap1\n      div\n      tag_251\n      swap3\n      swap2\n      swap1\n      jump\t// in(tag_250)\n    tag_251:\n      pop\n      0x5\n      dup3\n      add\n      dup2\n      0x5\n      add\n      swap1\n      dup1\n      sload\n      0x1\n      dup2\n      0x1\n      and\n      iszero\n      0x100\n      mul\n      sub\n      and\n      0x2\n      swap1\n      div\n      tag_252\n      swap3\n      swap2\n      swap1\n      jump\t// in(tag_250)\n    tag_252:\n      pop\n      0x6\n      dup3\n      add\n      sload\n      dup2\n      0x6\n      add\n      sstore\n      0x7\n      dup3\n      add\n      sload\n      dup2\n      0x7\n      add\n      sstore\n      swap1\n      pop\n      pop\n        /* \"shipment.sol\":6834:6835  1 */\n      0x1\n        /* \"shipment.sol\":6816:6825  shipments */\n      0x3\n        /* \"shipment.sol\":6826:6827  m */\n      dup3\n        /* \"shipment.sol\":6816:6828  shipments[m] */\n      dup2\n      sload\n      dup2\n      lt\n      iszero\n      iszero\n      tag_253\n      jumpi\n      invalid\n    tag_253:\n      swap1\n      0x0\n      mstore\n      keccak256(0x0, 0x20)\n      swap1\n      0x8\n      mul\n      add\n        /* \"shipment.sol\":6816:6831  shipments[m].id */\n      0x0\n      add\n      sload\n        /* \"shipment.sol\":6816:6835  shipments[m].id - 1 */\n      sub\n        /* \"shipment.sol\":6798:6807  shipments */\n      0x3\n        /* \"shipment.sol\":6808:6809  m */\n      dup3\n        /* \"shipment.sol\":6798:6810  shipments[m] */\n      dup2\n      sload\n      dup2\n      lt\n      iszero\n      iszero\n      tag_255\n      jumpi\n      invalid\n    tag_255:\n      swap1\n      0x0\n      mstore\n      keccak256(0x0, 0x20)\n      swap1\n      0x8\n      mul\n      add\n        /* \"shipment.sol\":6798:6813  shipments[m].id */\n      0x0\n      add\n        /* \"shipment.sol\":6798:6835  shipments[m].id = shipments[m].id - 1 */\n      dup2\n      swap1\n      sstore\n      pop\n        /* \"shipment.sol\":6733:6736  m++ */\n      dup1\n      dup1\n      0x1\n      add\n      swap2\n      pop\n      pop\n        /* \"shipment.sol\":6679:6857  for(uint m = shipmentIndex; m < shipments.length - 1; m++){\r... */\n      jump(tag_242)\n    tag_243:\n        /* \"shipment.sol\":6867:6876  shipments */\n      0x3\n        /* \"shipment.sol\":6867:6885  shipments.length-- */\n      dup1\n      sload\n      dup1\n      swap2\n      swap1\n      0x1\n      swap1\n      sub\n      tag_257\n      swap2\n      swap1\n      jump\t// in(tag_258)\n    tag_257:\n      pop\n        /* \"shipment.sol\":6913:6917  true */\n      0x1\n        /* \"shipment.sol\":6906:6917  return true */\n      swap6\n      pop\n        /* \"shipment.sol\":5785:6925  function deleteShipment(uint _shipment_id) public returns(bool){\r... */\n      pop\n      pop\n      pop\n      pop\n      pop\n      swap2\n      swap1\n      pop\n      jump\t// out\n        /* \"shipment.sol\":8420:9537  function deleteUser(uint _id) public returns(bool){\r... */\n    tag_65:\n        /* \"shipment.sol\":8465:8469  bool */\n      0x0\n        /* \"shipment.sol\":8629:8635  uint q */\n      dup1\n        /* \"shipment.sol\":8890:8896  uint r */\n      0x0\n        /* \"shipment.sol\":9103:9109  uint s */\n      dup1\n        /* \"shipment.sol\":9379:9385  uint t */\n      0x0\n        /* \"shipment.sol\":8495:8496  0 */\n      dup1\n        /* \"shipment.sol\":8489:8492  _id */\n      dup7\n        /* \"shipment.sol\":8489:8496  _id > 0 */\n      gt\n        /* \"shipment.sol\":8489:8519  _id > 0 && _id <= users.length */\n      dup1\n      iszero\n      tag_260\n      jumpi\n      pop\n        /* \"shipment.sol\":8507:8512  users */\n      0x1\n        /* \"shipment.sol\":8507:8519  users.length */\n      dup1\n      sload\n      swap1\n      pop\n        /* \"shipment.sol\":8500:8503  _id */\n      dup7\n        /* \"shipment.sol\":8500:8519  _id <= users.length */\n      gt\n      iszero\n        /* \"shipment.sol\":8489:8519  _id > 0 && _id <= users.length */\n    tag_260:\n        /* \"shipment.sol\":8481:8546  require(_id > 0 && _id <= users.length, \"User ID does not exist\") */\n      iszero\n      iszero\n      tag_261\n      jumpi\n      mload(0x40)\n      0x8c379a000000000000000000000000000000000000000000000000000000000\n      dup2\n      mstore\n      0x4\n      add\n      tag_262\n      swap1\n      jump(tag_263)\n    tag_262:\n      mload(0x40)\n      dup1\n      swap2\n      sub\n      swap1\n      revert\n    tag_261:\n        /* \"shipment.sol\":8638:8639  0 */\n      0x0\n        /* \"shipment.sol\":8629:8639  uint q = 0 */\n      swap4\n      pop\n        /* \"shipment.sol\":8625:8811  for(uint q = 0; q < shipments.length; q++){\r... */\n    tag_264:\n        /* \"shipment.sol\":8645:8654  shipments */\n      0x3\n        /* \"shipment.sol\":8645:8661  shipments.length */\n      dup1\n      sload\n      swap1\n      pop\n        /* \"shipment.sol\":8641:8642  q */\n      dup5\n        /* \"shipment.sol\":8641:8661  q < shipments.length */\n      lt\n        /* \"shipment.sol\":8625:8811  for(uint q = 0; q < shipments.length; q++){\r... */\n      iszero\n      tag_265\n      jumpi\n        /* \"shipment.sol\":8709:8712  _id */\n      dup6\n        /* \"shipment.sol\":8685:8694  shipments */\n      0x3\n        /* \"shipment.sol\":8695:8696  q */\n      dup6\n        /* \"shipment.sol\":8685:8697  shipments[q] */\n      dup2\n      sload\n      dup2\n      lt\n      iszero\n      iszero\n      tag_267\n      jumpi\n      invalid\n    tag_267:\n      swap1\n      0x0\n      mstore\n      keccak256(0x0, 0x20)\n      swap1\n      0x8\n      mul\n      add\n        /* \"shipment.sol\":8685:8705  shipments[q].user_id */\n      0x1\n      add\n      sload\n        /* \"shipment.sol\":8685:8712  shipments[q].user_id == _id */\n      eq\n        /* \"shipment.sol\":8682:8800  if(shipments[q].user_id == _id){\r... */\n      iszero\n      tag_269\n      jumpi\n        /* \"shipment.sol\":8739:8744  false */\n      0x0\n        /* \"shipment.sol\":8732:8744  return false */\n      swap5\n      pop\n      jump(tag_259)\n        /* \"shipment.sol\":8682:8800  if(shipments[q].user_id == _id){\r... */\n    tag_269:\n        /* \"shipment.sol\":8663:8666  q++ */\n      dup4\n      dup1\n      0x1\n      add\n      swap5\n      pop\n      pop\n        /* \"shipment.sol\":8625:8811  for(uint q = 0; q < shipments.length; q++){\r... */\n      jump(tag_264)\n    tag_265:\n        /* \"shipment.sol\":8899:8900  0 */\n      0x0\n        /* \"shipment.sol\":8890:8900  uint r = 0 */\n      swap3\n      pop\n        /* \"shipment.sol\":8886:9035  for(uint r = 0; r < users.length; r++){\r... */\n    tag_270:\n        /* \"shipment.sol\":8906:8911  users */\n      0x1\n        /* \"shipment.sol\":8906:8918  users.length */\n      dup1\n      sload\n      swap1\n      pop\n        /* \"shipment.sol\":8902:8903  r */\n      dup4\n        /* \"shipment.sol\":8902:8918  r < users.length */\n      lt\n        /* \"shipment.sol\":8886:9035  for(uint r = 0; r < users.length; r++){\r... */\n      iszero\n      tag_271\n      jumpi\n        /* \"shipment.sol\":8956:8959  _id */\n      dup6\n        /* \"shipment.sol\":8942:8947  users */\n      0x1\n        /* \"shipment.sol\":8948:8949  r */\n      dup5\n        /* \"shipment.sol\":8942:8950  users[r] */\n      dup2\n      sload\n      dup2\n      lt\n      iszero\n      iszero\n      tag_273\n      jumpi\n      invalid\n    tag_273:\n      swap1\n      0x0\n      mstore\n      keccak256(0x0, 0x20)\n      swap1\n      0x3\n      mul\n      add\n        /* \"shipment.sol\":8942:8953  users[r].id */\n      0x0\n      add\n      sload\n        /* \"shipment.sol\":8942:8959  users[r].id > _id */\n      gt\n        /* \"shipment.sol\":8939:9024  if(users[r].id > _id){\r... */\n      iszero\n      tag_275\n      jumpi\n        /* \"shipment.sol\":9007:9008  1 */\n      0x1\n        /* \"shipment.sol\":8993:8998  users */\n      dup1\n        /* \"shipment.sol\":8999:9000  r */\n      dup5\n        /* \"shipment.sol\":8993:9001  users[r] */\n      dup2\n      sload\n      dup2\n      lt\n      iszero\n      iszero\n      tag_276\n      jumpi\n      invalid\n    tag_276:\n      swap1\n      0x0\n      mstore\n      keccak256(0x0, 0x20)\n      swap1\n      0x3\n      mul\n      add\n        /* \"shipment.sol\":8993:9004  users[r].id */\n      0x0\n      add\n      sload\n        /* \"shipment.sol\":8993:9008  users[r].id - 1 */\n      sub\n        /* \"shipment.sol\":8979:8984  users */\n      0x1\n        /* \"shipment.sol\":8985:8986  r */\n      dup5\n        /* \"shipment.sol\":8979:8987  users[r] */\n      dup2\n      sload\n      dup2\n      lt\n      iszero\n      iszero\n      tag_278\n      jumpi\n      invalid\n    tag_278:\n      swap1\n      0x0\n      mstore\n      keccak256(0x0, 0x20)\n      swap1\n      0x3\n      mul\n      add\n        /* \"shipment.sol\":8979:8990  users[r].id */\n      0x0\n      add\n        /* \"shipment.sol\":8979:9008  users[r].id = users[r].id - 1 */\n      dup2\n      swap1\n      sstore\n      pop\n        /* \"shipment.sol\":8939:9024  if(users[r].id > _id){\r... */\n    tag_275:\n        /* \"shipment.sol\":8920:8923  r++ */\n      dup3\n      dup1\n      0x1\n      add\n      swap4\n      pop\n      pop\n        /* \"shipment.sol\":8886:9035  for(uint r = 0; r < users.length; r++){\r... */\n      jump(tag_270)\n    tag_271:\n        /* \"shipment.sol\":9112:9113  0 */\n      0x0\n        /* \"shipment.sol\":9103:9113  uint s = 0 */\n      swap2\n      pop\n        /* \"shipment.sol\":9099:9279  for(uint s = 0; s < shipments.length; s++){\r... */\n    tag_280:\n        /* \"shipment.sol\":9119:9128  shipments */\n      0x3\n        /* \"shipment.sol\":9119:9135  shipments.length */\n      dup1\n      sload\n      swap1\n      pop\n        /* \"shipment.sol\":9115:9116  s */\n      dup3\n        /* \"shipment.sol\":9115:9135  s < shipments.length */\n      lt\n        /* \"shipment.sol\":9099:9279  for(uint s = 0; s < shipments.length; s++){\r... */\n      iszero\n      tag_281\n      jumpi\n        /* \"shipment.sol\":9182:9185  _id */\n      dup6\n        /* \"shipment.sol\":9159:9168  shipments */\n      0x3\n        /* \"shipment.sol\":9169:9170  s */\n      dup4\n        /* \"shipment.sol\":9159:9171  shipments[s] */\n      dup2\n      sload\n      dup2\n      lt\n      iszero\n      iszero\n      tag_283\n      jumpi\n      invalid\n    tag_283:\n      swap1\n      0x0\n      mstore\n      keccak256(0x0, 0x20)\n      swap1\n      0x8\n      mul\n      add\n        /* \"shipment.sol\":9159:9179  shipments[s].user_id */\n      0x1\n      add\n      sload\n        /* \"shipment.sol\":9159:9185  shipments[s].user_id > _id */\n      gt\n        /* \"shipment.sol\":9156:9268  if(shipments[s].user_id > _id){\r... */\n      iszero\n      tag_285\n      jumpi\n        /* \"shipment.sol\":9251:9252  1 */\n      0x1\n        /* \"shipment.sol\":9228:9237  shipments */\n      0x3\n        /* \"shipment.sol\":9238:9239  s */\n      dup4\n        /* \"shipment.sol\":9228:9240  shipments[s] */\n      dup2\n      sload\n      dup2\n      lt\n      iszero\n      iszero\n      tag_286\n      jumpi\n      invalid\n    tag_286:\n      swap1\n      0x0\n      mstore\n      keccak256(0x0, 0x20)\n      swap1\n      0x8\n      mul\n      add\n        /* \"shipment.sol\":9228:9248  shipments[s].user_id */\n      0x1\n      add\n      sload\n        /* \"shipment.sol\":9228:9252  shipments[s].user_id - 1 */\n      sub\n        /* \"shipment.sol\":9205:9214  shipments */\n      0x3\n        /* \"shipment.sol\":9215:9216  s */\n      dup4\n        /* \"shipment.sol\":9205:9217  shipments[s] */\n      dup2\n      sload\n      dup2\n      lt\n      iszero\n      iszero\n      tag_288\n      jumpi\n      invalid\n    tag_288:\n      swap1\n      0x0\n      mstore\n      keccak256(0x0, 0x20)\n      swap1\n      0x8\n      mul\n      add\n        /* \"shipment.sol\":9205:9225  shipments[s].user_id */\n      0x1\n      add\n        /* \"shipment.sol\":9205:9252  shipments[s].user_id = shipments[s].user_id - 1 */\n      dup2\n      swap1\n      sstore\n      pop\n        /* \"shipment.sol\":9156:9268  if(shipments[s].user_id > _id){\r... */\n    tag_285:\n        /* \"shipment.sol\":9137:9140  s++ */\n      dup2\n      dup1\n      0x1\n      add\n      swap3\n      pop\n      pop\n        /* \"shipment.sol\":9099:9279  for(uint s = 0; s < shipments.length; s++){\r... */\n      jump(tag_280)\n    tag_281:\n        /* \"shipment.sol\":9394:9395  1 */\n      0x1\n        /* \"shipment.sol\":9388:9391  _id */\n      dup7\n        /* \"shipment.sol\":9388:9395  _id - 1 */\n      sub\n        /* \"shipment.sol\":9379:9395  uint t = _id - 1 */\n      swap1\n      pop\n        /* \"shipment.sol\":9375:9473  for(uint t = _id - 1; t < users.length - 1; t++){\r... */\n    tag_290:\n        /* \"shipment.sol\":9416:9417  1 */\n      0x1\n        /* \"shipment.sol\":9401:9406  users */\n      dup1\n        /* \"shipment.sol\":9401:9413  users.length */\n      dup1\n      sload\n      swap1\n      pop\n        /* \"shipment.sol\":9401:9417  users.length - 1 */\n      sub\n        /* \"shipment.sol\":9397:9398  t */\n      dup2\n        /* \"shipment.sol\":9397:9417  t < users.length - 1 */\n      lt\n        /* \"shipment.sol\":9375:9473  for(uint t = _id - 1; t < users.length - 1; t++){\r... */\n      iszero\n      tag_291\n      jumpi\n        /* \"shipment.sol\":9449:9454  users */\n      0x1\n        /* \"shipment.sol\":9459:9460  1 */\n      dup1\n        /* \"shipment.sol\":9455:9456  t */\n      dup3\n        /* \"shipment.sol\":9455:9460  t + 1 */\n      add\n        /* \"shipment.sol\":9449:9461  users[t + 1] */\n      dup2\n      sload\n      dup2\n      lt\n      iszero\n      iszero\n      tag_293\n      jumpi\n      invalid\n    tag_293:\n      swap1\n      0x0\n      mstore\n      keccak256(0x0, 0x20)\n      swap1\n      0x3\n      mul\n      add\n        /* \"shipment.sol\":9438:9443  users */\n      0x1\n        /* \"shipment.sol\":9444:9445  t */\n      dup3\n        /* \"shipment.sol\":9438:9446  users[t] */\n      dup2\n      sload\n      dup2\n      lt\n      iszero\n      iszero\n      tag_295\n      jumpi\n      invalid\n    tag_295:\n      swap1\n      0x0\n      mstore\n      keccak256(0x0, 0x20)\n      swap1\n      0x3\n      mul\n      add\n        /* \"shipment.sol\":9438:9461  users[t] = users[t + 1] */\n      0x0\n      dup3\n      add\n      sload\n      dup2\n      0x0\n      add\n      sstore\n      0x1\n      dup3\n      add\n      dup2\n      0x1\n      add\n      swap1\n      dup1\n      sload\n      0x1\n      dup2\n      0x1\n      and\n      iszero\n      0x100\n      mul\n      sub\n      and\n      0x2\n      swap1\n      div\n      tag_297\n      swap3\n      swap2\n      swap1\n      jump\t// in(tag_250)\n    tag_297:\n      pop\n      0x2\n      dup3\n      add\n      dup2\n      0x2\n      add\n      swap1\n      dup1\n      sload\n      0x1\n      dup2\n      0x1\n      and\n      iszero\n      0x100\n      mul\n      sub\n      and\n      0x2\n      swap1\n      div\n      tag_298\n      swap3\n      swap2\n      swap1\n      jump\t// in(tag_250)\n    tag_298:\n      pop\n      swap1\n      pop\n      pop\n        /* \"shipment.sol\":9419:9422  t++ */\n      dup1\n      dup1\n      0x1\n      add\n      swap2\n      pop\n      pop\n        /* \"shipment.sol\":9375:9473  for(uint t = _id - 1; t < users.length - 1; t++){\r... */\n      jump(tag_290)\n    tag_291:\n        /* \"shipment.sol\":9483:9488  users */\n      0x1\n        /* \"shipment.sol\":9483:9497  users.length-- */\n      dup1\n      sload\n      dup1\n      swap2\n      swap1\n      0x1\n      swap1\n      sub\n      tag_299\n      swap2\n      swap1\n      jump\t// in(tag_300)\n    tag_299:\n      pop\n        /* \"shipment.sol\":9525:9529  true */\n      0x1\n        /* \"shipment.sol\":9518:9529  return true */\n      swap5\n      pop\n        /* \"shipment.sol\":8420:9537  function deleteUser(uint _id) public returns(bool){\r... */\n    tag_259:\n      pop\n      pop\n      pop\n      pop\n      swap2\n      swap1\n      pop\n      jump\t// out\n        /* \"shipment.sol\":2305:2586  function addCarrier(string _name,string _info,string _passwd) public{\r... */\n    tag_71:\n        /* \"shipment.sol\":2384:2400  uint[] storage s */\n      0x0\n        /* \"shipment.sol\":2411:2427  Carrier memory c */\n      tag_301\n      jump\t// in(tag_302)\n    tag_301:\n        /* \"shipment.sol\":2430:2478  Carrier(carriers.length+1,_name,_info,_passwd,s) */\n      0xa0\n      mload(0x40)\n      swap1\n      dup2\n      add\n      0x40\n      mstore\n      dup1\n        /* \"shipment.sol\":2454:2455  1 */\n      0x1\n        /* \"shipment.sol\":2438:2446  carriers */\n      0x2\n        /* \"shipment.sol\":2438:2453  carriers.length */\n      dup1\n      sload\n      swap1\n      pop\n        /* \"shipment.sol\":2438:2455  carriers.length+1 */\n      add\n        /* \"shipment.sol\":2430:2478  Carrier(carriers.length+1,_name,_info,_passwd,s) */\n      dup2\n      mstore\n      0x20\n      add\n        /* \"shipment.sol\":2456:2461  _name */\n      dup7\n        /* \"shipment.sol\":2430:2478  Carrier(carriers.length+1,_name,_info,_passwd,s) */\n      dup2\n      mstore\n      0x20\n      add\n        /* \"shipment.sol\":2462:2467  _info */\n      dup6\n        /* \"shipment.sol\":2430:2478  Carrier(carriers.length+1,_name,_info,_passwd,s) */\n      dup2\n      mstore\n      0x20\n      add\n        /* \"shipment.sol\":2468:2475  _passwd */\n      dup5\n        /* \"shipment.sol\":2430:2478  Carrier(carriers.length+1,_name,_info,_passwd,s) */\n      dup2\n      mstore\n      0x20\n      add\n        /* \"shipment.sol\":2476:2477  s */\n      dup4\n        /* \"shipment.sol\":2430:2478  Carrier(carriers.length+1,_name,_info,_passwd,s) */\n      dup1\n      sload\n      dup1\n      0x20\n      mul\n      0x20\n      add\n      mload(0x40)\n      swap1\n      dup2\n      add\n      0x40\n      mstore\n      dup1\n      swap3\n      swap2\n      swap1\n      dup2\n      dup2\n      mstore\n      0x20\n      add\n      dup3\n      dup1\n      sload\n      dup1\n      iszero\n      tag_304\n      jumpi\n      0x20\n      mul\n      dup3\n      add\n      swap2\n      swap1\n      0x0\n      mstore\n      keccak256(0x0, 0x20)\n      swap1\n    tag_305:\n      dup2\n      sload\n      dup2\n      mstore\n      0x20\n      add\n      swap1\n      0x1\n      add\n      swap1\n      dup1\n      dup4\n      gt\n      tag_305\n      jumpi\n    tag_304:\n      pop\n      pop\n      pop\n      pop\n      pop\n      dup2\n      mstore\n      pop\n        /* \"shipment.sol\":2411:2478  Carrier memory c = Carrier(carriers.length+1,_name,_info,_passwd,s) */\n      swap1\n      pop\n        /* \"shipment.sol\":2524:2532  carriers */\n      0x2\n        /* \"shipment.sol\":2538:2539  c */\n      dup2\n        /* \"shipment.sol\":2524:2540  carriers.push(c) */\n      swap1\n      dup1\n        /* \"--CODEGEN--\":39:40   */\n      0x1\n        /* \"--CODEGEN--\":33:36   */\n      dup2\n        /* \"--CODEGEN--\":27:37   */\n      sload\n        /* \"--CODEGEN--\":23:41   */\n      add\n        /* \"--CODEGEN--\":57:67   */\n      dup1\n        /* \"--CODEGEN--\":52:55   */\n      dup3\n        /* \"--CODEGEN--\":45:68   */\n      sstore\n        /* \"--CODEGEN--\":79:89   */\n      dup1\n        /* \"--CODEGEN--\":72:89   */\n      swap2\n      pop\n        /* \"--CODEGEN--\":0:93   */\n      pop\n        /* \"shipment.sol\":2524:2540  carriers.push(c) */\n      swap1\n      0x1\n      dup3\n      sub\n      swap1\n      0x0\n      mstore\n      keccak256(0x0, 0x20)\n      swap1\n      0x5\n      mul\n      add\n      0x0\n      swap1\n      swap2\n      swap3\n      swap1\n      swap2\n      swap1\n      swap2\n      pop\n      0x0\n      dup3\n      add\n      mload\n      dup2\n      0x0\n      add\n      sstore\n      0x20\n      dup3\n      add\n      mload\n      dup2\n      0x1\n      add\n      swap1\n      dup1\n      mload\n      swap1\n      0x20\n      add\n      swap1\n      tag_307\n      swap3\n      swap2\n      swap1\n      jump\t// in(tag_33)\n    tag_307:\n      pop\n      0x40\n      dup3\n      add\n      mload\n      dup2\n      0x2\n      add\n      swap1\n      dup1\n      mload\n      swap1\n      0x20\n      add\n      swap1\n      tag_308\n      swap3\n      swap2\n      swap1\n      jump\t// in(tag_33)\n    tag_308:\n      pop\n      0x60\n      dup3\n      add\n      mload\n      dup2\n      0x3\n      add\n      swap1\n      dup1\n      mload\n      swap1\n      0x20\n      add\n      swap1\n      tag_309\n      swap3\n      swap2\n      swap1\n      jump\t// in(tag_33)\n    tag_309:\n      pop\n      0x80\n      dup3\n      add\n      mload\n      dup2\n      0x4\n      add\n      swap1\n      dup1\n      mload\n      swap1\n      0x20\n      add\n      swap1\n      tag_310\n      swap3\n      swap2\n      swap1\n      jump\t// in(tag_311)\n    tag_310:\n      pop\n      pop\n      pop\n      pop\n        /* \"shipment.sol\":2305:2586  function addCarrier(string _name,string _info,string _passwd) public{\r... */\n      pop\n      pop\n      pop\n      pop\n      pop\n      jump\t// out\n        /* \"shipment.sol\":4125:4503  function updateAdminPassword(string _account, string _newPasswd) public returns(bool){\r... */\n    tag_75:\n        /* \"shipment.sol\":4205:4209  bool */\n      0x0\n        /* \"shipment.sol\":4225:4231  uint k */\n      dup1\n        /* \"shipment.sol\":4234:4235  0 */\n      0x0\n        /* \"shipment.sol\":4225:4235  uint k = 0 */\n      swap1\n      pop\n        /* \"shipment.sol\":4221:4473  for(uint k = 0; k < admins.length; k++){\r... */\n    tag_313:\n        /* \"shipment.sol\":4241:4247  admins */\n      0x0\n        /* \"shipment.sol\":4241:4254  admins.length */\n      dup1\n      sload\n      swap1\n      pop\n        /* \"shipment.sol\":4237:4238  k */\n      dup2\n        /* \"shipment.sol\":4237:4254  k < admins.length */\n      lt\n        /* \"shipment.sol\":4221:4473  for(uint k = 0; k < admins.length; k++){\r... */\n      iszero\n      tag_314\n      jumpi\n        /* \"shipment.sol\":4356:4364  _account */\n      dup4\n        /* \"shipment.sol\":4339:4365  abi.encodePacked(_account) */\n      add(0x20, mload(0x40))\n      dup1\n      dup3\n      dup1\n      mload\n      swap1\n      0x20\n      add\n      swap1\n      dup1\n      dup4\n      dup4\n        /* \"--CODEGEN--\":36:189   */\n    tag_316:\n        /* \"--CODEGEN--\":66:68   */\n      0x20\n        /* \"--CODEGEN--\":61:64   */\n      dup4\n        /* \"--CODEGEN--\":58:69   */\n      lt\n        /* \"--CODEGEN--\":51:70   */\n      iszero\n        /* \"--CODEGEN--\":36:189   */\n      iszero\n      tag_317\n      jumpi\n        /* \"--CODEGEN--\":182:185   */\n      dup1\n        /* \"--CODEGEN--\":176:186   */\n      mload\n        /* \"--CODEGEN--\":171:174   */\n      dup3\n        /* \"--CODEGEN--\":164:187   */\n      mstore\n        /* \"--CODEGEN--\":98:100   */\n      0x20\n        /* \"--CODEGEN--\":93:96   */\n      dup3\n        /* \"--CODEGEN--\":89:101   */\n      add\n        /* \"--CODEGEN--\":82:101   */\n      swap2\n      pop\n        /* \"--CODEGEN--\":123:125   */\n      0x20\n        /* \"--CODEGEN--\":118:121   */\n      dup2\n        /* \"--CODEGEN--\":114:126   */\n      add\n        /* \"--CODEGEN--\":107:126   */\n      swap1\n      pop\n        /* \"--CODEGEN--\":148:150   */\n      0x20\n        /* \"--CODEGEN--\":143:146   */\n      dup4\n        /* \"--CODEGEN--\":139:151   */\n      sub\n        /* \"--CODEGEN--\":132:151   */\n      swap3\n      pop\n        /* \"--CODEGEN--\":36:189   */\n      jump(tag_316)\n    tag_317:\n        /* \"--CODEGEN--\":274:275   */\n      0x1\n        /* \"--CODEGEN--\":267:270   */\n      dup4\n        /* \"--CODEGEN--\":263:265   */\n      0x20\n        /* \"--CODEGEN--\":259:271   */\n      sub\n        /* \"--CODEGEN--\":254:257   */\n      0x100\n        /* \"--CODEGEN--\":250:272   */\n      exp\n        /* \"--CODEGEN--\":246:276   */\n      sub\n        /* \"--CODEGEN--\":315:319   */\n      dup1\n        /* \"--CODEGEN--\":311:320   */\n      not\n        /* \"--CODEGEN--\":305:308   */\n      dup3\n        /* \"--CODEGEN--\":299:309   */\n      mload\n        /* \"--CODEGEN--\":295:321   */\n      and\n        /* \"--CODEGEN--\":356:360   */\n      dup2\n        /* \"--CODEGEN--\":350:353   */\n      dup5\n        /* \"--CODEGEN--\":344:354   */\n      mload\n        /* \"--CODEGEN--\":340:361   */\n      and\n        /* \"--CODEGEN--\":389:396   */\n      dup1\n        /* \"--CODEGEN--\":380:387   */\n      dup3\n        /* \"--CODEGEN--\":377:397   */\n      or\n        /* \"--CODEGEN--\":372:375   */\n      dup6\n        /* \"--CODEGEN--\":365:398   */\n      mstore\n        /* \"--CODEGEN--\":3:402   */\n      pop\n      pop\n      pop\n        /* \"shipment.sol\":4339:4365  abi.encodePacked(_account) */\n      pop\n      pop\n      pop\n      swap1\n      pop\n      add\n      swap2\n      pop\n      pop\n      mload(0x40)\n        /* \"--CODEGEN--\":49:53   */\n      0x20\n        /* \"--CODEGEN--\":39:46   */\n      dup2\n        /* \"--CODEGEN--\":30:37   */\n      dup4\n        /* \"--CODEGEN--\":26:47   */\n      sub\n        /* \"--CODEGEN--\":22:54   */\n      sub\n        /* \"--CODEGEN--\":13:20   */\n      dup2\n        /* \"--CODEGEN--\":6:55   */\n      mstore\n        /* \"shipment.sol\":4339:4365  abi.encodePacked(_account) */\n      swap1\n      0x40\n      mstore\n        /* \"shipment.sol\":4328:4367  keccak256((abi.encodePacked(_account))) */\n      mload(0x40)\n      dup1\n      dup3\n      dup1\n      mload\n      swap1\n      0x20\n      add\n      swap1\n      dup1\n      dup4\n      dup4\n        /* \"--CODEGEN--\":36:189   */\n    tag_319:\n        /* \"--CODEGEN--\":66:68   */\n      0x20\n        /* \"--CODEGEN--\":61:64   */\n      dup4\n        /* \"--CODEGEN--\":58:69   */\n      lt\n        /* \"--CODEGEN--\":51:70   */\n      iszero\n        /* \"--CODEGEN--\":36:189   */\n      iszero\n      tag_320\n      jumpi\n        /* \"--CODEGEN--\":182:185   */\n      dup1\n        /* \"--CODEGEN--\":176:186   */\n      mload\n        /* \"--CODEGEN--\":171:174   */\n      dup3\n        /* \"--CODEGEN--\":164:187   */\n      mstore\n        /* \"--CODEGEN--\":98:100   */\n      0x20\n        /* \"--CODEGEN--\":93:96   */\n      dup3\n        /* \"--CODEGEN--\":89:101   */\n      add\n        /* \"--CODEGEN--\":82:101   */\n      swap2\n      pop\n        /* \"--CODEGEN--\":123:125   */\n      0x20\n        /* \"--CODEGEN--\":118:121   */\n      dup2\n        /* \"--CODEGEN--\":114:126   */\n      add\n        /* \"--CODEGEN--\":107:126   */\n      swap1\n      pop\n        /* \"--CODEGEN--\":148:150   */\n      0x20\n        /* \"--CODEGEN--\":143:146   */\n      dup4\n        /* \"--CODEGEN--\":139:151   */\n      sub\n        /* \"--CODEGEN--\":132:151   */\n      swap3\n      pop\n        /* \"--CODEGEN--\":36:189   */\n      jump(tag_319)\n    tag_320:\n        /* \"--CODEGEN--\":274:275   */\n      0x1\n        /* \"--CODEGEN--\":267:270   */\n      dup4\n        /* \"--CODEGEN--\":263:265   */\n      0x20\n        /* \"--CODEGEN--\":259:271   */\n      sub\n        /* \"--CODEGEN--\":254:257   */\n      0x100\n        /* \"--CODEGEN--\":250:272   */\n      exp\n        /* \"--CODEGEN--\":246:276   */\n      sub\n        /* \"--CODEGEN--\":315:319   */\n      dup1\n        /* \"--CODEGEN--\":311:320   */\n      not\n        /* \"--CODEGEN--\":305:308   */\n      dup3\n        /* \"--CODEGEN--\":299:309   */\n      mload\n        /* \"--CODEGEN--\":295:321   */\n      and\n        /* \"--CODEGEN--\":356:360   */\n      dup2\n        /* \"--CODEGEN--\":350:353   */\n      dup5\n        /* \"--CODEGEN--\":344:354   */\n      mload\n        /* \"--CODEGEN--\":340:361   */\n      and\n        /* \"--CODEGEN--\":389:396   */\n      dup1\n        /* \"--CODEGEN--\":380:387   */\n      dup3\n        /* \"--CODEGEN--\":377:397   */\n      or\n        /* \"--CODEGEN--\":372:375   */\n      dup6\n        /* \"--CODEGEN--\":365:398   */\n      mstore\n        /* \"--CODEGEN--\":3:402   */\n      pop\n      pop\n      pop\n        /* \"shipment.sol\":4328:4367  keccak256((abi.encodePacked(_account))) */\n      pop\n      pop\n      pop\n      swap1\n      pop\n      add\n      swap2\n      pop\n      pop\n      mload(0x40)\n      dup1\n      swap2\n      sub\n      swap1\n      keccak256\n        /* \"shipment.sol\":4278:4367  keccak256((abi.encodePacked(admins[k].account)))==keccak256((abi.encodePacked(_account))) */\n      not(0x0)\n      and\n        /* \"shipment.sol\":4306:4312  admins */\n      0x0\n        /* \"shipment.sol\":4313:4314  k */\n      dup3\n        /* \"shipment.sol\":4306:4315  admins[k] */\n      dup2\n      sload\n      dup2\n      lt\n      iszero\n      iszero\n      tag_322\n      jumpi\n      invalid\n    tag_322:\n      swap1\n      0x0\n      mstore\n      keccak256(0x0, 0x20)\n      swap1\n      0x3\n      mul\n      add\n        /* \"shipment.sol\":4306:4323  admins[k].account */\n      0x1\n      add\n        /* \"shipment.sol\":4289:4324  abi.encodePacked(admins[k].account) */\n      add(0x20, mload(0x40))\n      dup1\n      dup3\n      dup1\n      sload\n      0x1\n      dup2\n      0x1\n      and\n      iszero\n      0x100\n      mul\n      sub\n      and\n      0x2\n      swap1\n      div\n      dup1\n      iszero\n      tag_324\n      jumpi\n      dup1\n      0x1f\n      lt\n      tag_325\n      jumpi\n      0x100\n      dup1\n      dup4\n      sload\n      div\n      mul\n      dup4\n      mstore\n      swap2\n      dup3\n      add\n      swap2\n      jump(tag_324)\n    tag_325:\n      dup3\n      add\n      swap2\n      swap1\n      0x0\n      mstore\n      keccak256(0x0, 0x20)\n      swap1\n    tag_326:\n      dup2\n      sload\n      dup2\n      mstore\n      swap1\n      0x1\n      add\n      swap1\n      0x20\n      add\n      dup1\n      dup4\n      gt\n      tag_326\n      jumpi\n    tag_324:\n      pop\n      pop\n      swap2\n      pop\n      pop\n      mload(0x40)\n        /* \"--CODEGEN--\":49:53   */\n      0x20\n        /* \"--CODEGEN--\":39:46   */\n      dup2\n        /* \"--CODEGEN--\":30:37   */\n      dup4\n        /* \"--CODEGEN--\":26:47   */\n      sub\n        /* \"--CODEGEN--\":22:54   */\n      sub\n        /* \"--CODEGEN--\":13:20   */\n      dup2\n        /* \"--CODEGEN--\":6:55   */\n      mstore\n        /* \"shipment.sol\":4289:4324  abi.encodePacked(admins[k].account) */\n      swap1\n      0x40\n      mstore\n        /* \"shipment.sol\":4278:4326  keccak256((abi.encodePacked(admins[k].account))) */\n      mload(0x40)\n      dup1\n      dup3\n      dup1\n      mload\n      swap1\n      0x20\n      add\n      swap1\n      dup1\n      dup4\n      dup4\n        /* \"--CODEGEN--\":36:189   */\n    tag_327:\n        /* \"--CODEGEN--\":66:68   */\n      0x20\n        /* \"--CODEGEN--\":61:64   */\n      dup4\n        /* \"--CODEGEN--\":58:69   */\n      lt\n        /* \"--CODEGEN--\":51:70   */\n      iszero\n        /* \"--CODEGEN--\":36:189   */\n      iszero\n      tag_328\n      jumpi\n        /* \"--CODEGEN--\":182:185   */\n      dup1\n        /* \"--CODEGEN--\":176:186   */\n      mload\n        /* \"--CODEGEN--\":171:174   */\n      dup3\n        /* \"--CODEGEN--\":164:187   */\n      mstore\n        /* \"--CODEGEN--\":98:100   */\n      0x20\n        /* \"--CODEGEN--\":93:96   */\n      dup3\n        /* \"--CODEGEN--\":89:101   */\n      add\n        /* \"--CODEGEN--\":82:101   */\n      swap2\n      pop\n        /* \"--CODEGEN--\":123:125   */\n      0x20\n        /* \"--CODEGEN--\":118:121   */\n      dup2\n        /* \"--CODEGEN--\":114:126   */\n      add\n        /* \"--CODEGEN--\":107:126   */\n      swap1\n      pop\n        /* \"--CODEGEN--\":148:150   */\n      0x20\n        /* \"--CODEGEN--\":143:146   */\n      dup4\n        /* \"--CODEGEN--\":139:151   */\n      sub\n        /* \"--CODEGEN--\":132:151   */\n      swap3\n      pop\n        /* \"--CODEGEN--\":36:189   */\n      jump(tag_327)\n    tag_328:\n        /* \"--CODEGEN--\":274:275   */\n      0x1\n        /* \"--CODEGEN--\":267:270   */\n      dup4\n        /* \"--CODEGEN--\":263:265   */\n      0x20\n        /* \"--CODEGEN--\":259:271   */\n      sub\n        /* \"--CODEGEN--\":254:257   */\n      0x100\n        /* \"--CODEGEN--\":250:272   */\n      exp\n        /* \"--CODEGEN--\":246:276   */\n      sub\n        /* \"--CODEGEN--\":315:319   */\n      dup1\n        /* \"--CODEGEN--\":311:320   */\n      not\n        /* \"--CODEGEN--\":305:308   */\n      dup3\n        /* \"--CODEGEN--\":299:309   */\n      mload\n        /* \"--CODEGEN--\":295:321   */\n      and\n        /* \"--CODEGEN--\":356:360   */\n      dup2\n        /* \"--CODEGEN--\":350:353   */\n      dup5\n        /* \"--CODEGEN--\":344:354   */\n      mload\n        /* \"--CODEGEN--\":340:361   */\n      and\n        /* \"--CODEGEN--\":389:396   */\n      dup1\n        /* \"--CODEGEN--\":380:387   */\n      dup3\n        /* \"--CODEGEN--\":377:397   */\n      or\n        /* \"--CODEGEN--\":372:375   */\n      dup6\n        /* \"--CODEGEN--\":365:398   */\n      mstore\n        /* \"--CODEGEN--\":3:402   */\n      pop\n      pop\n      pop\n        /* \"shipment.sol\":4278:4326  keccak256((abi.encodePacked(admins[k].account))) */\n      pop\n      pop\n      pop\n      swap1\n      pop\n      add\n      swap2\n      pop\n      pop\n      mload(0x40)\n      dup1\n      swap2\n      sub\n      swap1\n      keccak256\n        /* \"shipment.sol\":4278:4367  keccak256((abi.encodePacked(admins[k].account)))==keccak256((abi.encodePacked(_account))) */\n      not(0x0)\n      and\n      eq\n        /* \"shipment.sol\":4275:4462  if(keccak256((abi.encodePacked(admins[k].account)))==keccak256((abi.encodePacked(_account)))){\r... */\n      iszero\n      tag_330\n      jumpi\n        /* \"shipment.sol\":4406:4416  _newPasswd */\n      dup3\n        /* \"shipment.sol\":4387:4393  admins */\n      0x0\n        /* \"shipment.sol\":4394:4395  k */\n      dup3\n        /* \"shipment.sol\":4387:4396  admins[k] */\n      dup2\n      sload\n      dup2\n      lt\n      iszero\n      iszero\n      tag_331\n      jumpi\n      invalid\n    tag_331:\n      swap1\n      0x0\n      mstore\n      keccak256(0x0, 0x20)\n      swap1\n      0x3\n      mul\n      add\n        /* \"shipment.sol\":4387:4403  admins[k].passwd */\n      0x2\n      add\n        /* \"shipment.sol\":4387:4416  admins[k].passwd = _newPasswd */\n      swap1\n      dup1\n      mload\n      swap1\n      0x20\n      add\n      swap1\n      tag_333\n      swap3\n      swap2\n      swap1\n      jump\t// in(tag_334)\n    tag_333:\n      pop\n        /* \"shipment.sol\":4442:4446  true */\n      0x1\n        /* \"shipment.sol\":4435:4446  return true */\n      swap2\n      pop\n      jump(tag_312)\n        /* \"shipment.sol\":4275:4462  if(keccak256((abi.encodePacked(admins[k].account)))==keccak256((abi.encodePacked(_account)))){\r... */\n    tag_330:\n        /* \"shipment.sol\":4256:4259  k++ */\n      dup1\n      dup1\n      0x1\n      add\n      swap2\n      pop\n      pop\n        /* \"shipment.sol\":4221:4473  for(uint k = 0; k < admins.length; k++){\r... */\n      jump(tag_313)\n    tag_314:\n        /* \"shipment.sol\":4490:4495  false */\n      0x0\n        /* \"shipment.sol\":4483:4495  return false */\n      swap2\n      pop\n        /* \"shipment.sol\":4125:4503  function updateAdminPassword(string _account, string _newPasswd) public returns(bool){\r... */\n    tag_312:\n      pop\n      swap3\n      swap2\n      pop\n      pop\n      jump\t// out\n        /* \"shipment.sol\":1258:1499  function checkUser(uint _id,string _passwd)public view returns(bool){\r... */\n    tag_81:\n        /* \"shipment.sol\":1321:1325  bool */\n      0x0\n        /* \"shipment.sol\":1420:1427  _passwd */\n      dup2\n        /* \"shipment.sol\":1403:1428  abi.encodePacked(_passwd) */\n      add(0x20, mload(0x40))\n      dup1\n      dup3\n      dup1\n      mload\n      swap1\n      0x20\n      add\n      swap1\n      dup1\n      dup4\n      dup4\n        /* \"--CODEGEN--\":36:189   */\n    tag_336:\n        /* \"--CODEGEN--\":66:68   */\n      0x20\n        /* \"--CODEGEN--\":61:64   */\n      dup4\n        /* \"--CODEGEN--\":58:69   */\n      lt\n        /* \"--CODEGEN--\":51:70   */\n      iszero\n        /* \"--CODEGEN--\":36:189   */\n      iszero\n      tag_337\n      jumpi\n        /* \"--CODEGEN--\":182:185   */\n      dup1\n        /* \"--CODEGEN--\":176:186   */\n      mload\n        /* \"--CODEGEN--\":171:174   */\n      dup3\n        /* \"--CODEGEN--\":164:187   */\n      mstore\n        /* \"--CODEGEN--\":98:100   */\n      0x20\n        /* \"--CODEGEN--\":93:96   */\n      dup3\n        /* \"--CODEGEN--\":89:101   */\n      add\n        /* \"--CODEGEN--\":82:101   */\n      swap2\n      pop\n        /* \"--CODEGEN--\":123:125   */\n      0x20\n        /* \"--CODEGEN--\":118:121   */\n      dup2\n        /* \"--CODEGEN--\":114:126   */\n      add\n        /* \"--CODEGEN--\":107:126   */\n      swap1\n      pop\n        /* \"--CODEGEN--\":148:150   */\n      0x20\n        /* \"--CODEGEN--\":143:146   */\n      dup4\n        /* \"--CODEGEN--\":139:151   */\n      sub\n        /* \"--CODEGEN--\":132:151   */\n      swap3\n      pop\n        /* \"--CODEGEN--\":36:189   */\n      jump(tag_336)\n    tag_337:\n        /* \"--CODEGEN--\":274:275   */\n      0x1\n        /* \"--CODEGEN--\":267:270   */\n      dup4\n        /* \"--CODEGEN--\":263:265   */\n      0x20\n        /* \"--CODEGEN--\":259:271   */\n      sub\n        /* \"--CODEGEN--\":254:257   */\n      0x100\n        /* \"--CODEGEN--\":250:272   */\n      exp\n        /* \"--CODEGEN--\":246:276   */\n      sub\n        /* \"--CODEGEN--\":315:319   */\n      dup1\n        /* \"--CODEGEN--\":311:320   */\n      not\n        /* \"--CODEGEN--\":305:308   */\n      dup3\n        /* \"--CODEGEN--\":299:309   */\n      mload\n        /* \"--CODEGEN--\":295:321   */\n      and\n        /* \"--CODEGEN--\":356:360   */\n      dup2\n        /* \"--CODEGEN--\":350:353   */\n      dup5\n        /* \"--CODEGEN--\":344:354   */\n      mload\n        /* \"--CODEGEN--\":340:361   */\n      and\n        /* \"--CODEGEN--\":389:396   */\n      dup1\n        /* \"--CODEGEN--\":380:387   */\n      dup3\n        /* \"--CODEGEN--\":377:397   */\n      or\n        /* \"--CODEGEN--\":372:375   */\n      dup6\n        /* \"--CODEGEN--\":365:398   */\n      mstore\n        /* \"--CODEGEN--\":3:402   */\n      pop\n      pop\n      pop\n        /* \"shipment.sol\":1403:1428  abi.encodePacked(_passwd) */\n      pop\n      pop\n      pop\n      swap1\n      pop\n      add\n      swap2\n      pop\n      pop\n      mload(0x40)\n        /* \"--CODEGEN--\":49:53   */\n      0x20\n        /* \"--CODEGEN--\":39:46   */\n      dup2\n        /* \"--CODEGEN--\":30:37   */\n      dup4\n        /* \"--CODEGEN--\":26:47   */\n      sub\n        /* \"--CODEGEN--\":22:54   */\n      sub\n        /* \"--CODEGEN--\":13:20   */\n      dup2\n        /* \"--CODEGEN--\":6:55   */\n      mstore\n        /* \"shipment.sol\":1403:1428  abi.encodePacked(_passwd) */\n      swap1\n      0x40\n      mstore\n        /* \"shipment.sol\":1392:1430  keccak256((abi.encodePacked(_passwd))) */\n      mload(0x40)\n      dup1\n      dup3\n      dup1\n      mload\n      swap1\n      0x20\n      add\n      swap1\n      dup1\n      dup4\n      dup4\n        /* \"--CODEGEN--\":36:189   */\n    tag_339:\n        /* \"--CODEGEN--\":66:68   */\n      0x20\n        /* \"--CODEGEN--\":61:64   */\n      dup4\n        /* \"--CODEGEN--\":58:69   */\n      lt\n        /* \"--CODEGEN--\":51:70   */\n      iszero\n        /* \"--CODEGEN--\":36:189   */\n      iszero\n      tag_340\n      jumpi\n        /* \"--CODEGEN--\":182:185   */\n      dup1\n        /* \"--CODEGEN--\":176:186   */\n      mload\n        /* \"--CODEGEN--\":171:174   */\n      dup3\n        /* \"--CODEGEN--\":164:187   */\n      mstore\n        /* \"--CODEGEN--\":98:100   */\n      0x20\n        /* \"--CODEGEN--\":93:96   */\n      dup3\n        /* \"--CODEGEN--\":89:101   */\n      add\n        /* \"--CODEGEN--\":82:101   */\n      swap2\n      pop\n        /* \"--CODEGEN--\":123:125   */\n      0x20\n        /* \"--CODEGEN--\":118:121   */\n      dup2\n        /* \"--CODEGEN--\":114:126   */\n      add\n        /* \"--CODEGEN--\":107:126   */\n      swap1\n      pop\n        /* \"--CODEGEN--\":148:150   */\n      0x20\n        /* \"--CODEGEN--\":143:146   */\n      dup4\n        /* \"--CODEGEN--\":139:151   */\n      sub\n        /* \"--CODEGEN--\":132:151   */\n      swap3\n      pop\n        /* \"--CODEGEN--\":36:189   */\n      jump(tag_339)\n    tag_340:\n        /* \"--CODEGEN--\":274:275   */\n      0x1\n        /* \"--CODEGEN--\":267:270   */\n      dup4\n        /* \"--CODEGEN--\":263:265   */\n      0x20\n        /* \"--CODEGEN--\":259:271   */\n      sub\n        /* \"--CODEGEN--\":254:257   */\n      0x100\n        /* \"--CODEGEN--\":250:272   */\n      exp\n        /* \"--CODEGEN--\":246:276   */\n      sub\n        /* \"--CODEGEN--\":315:319   */\n      dup1\n        /* \"--CODEGEN--\":311:320   */\n      not\n        /* \"--CODEGEN--\":305:308   */\n      dup3\n        /* \"--CODEGEN--\":299:309   */\n      mload\n        /* \"--CODEGEN--\":295:321   */\n      and\n        /* \"--CODEGEN--\":356:360   */\n      dup2\n        /* \"--CODEGEN--\":350:353   */\n      dup5\n        /* \"--CODEGEN--\":344:354   */\n      mload\n        /* \"--CODEGEN--\":340:361   */\n      and\n        /* \"--CODEGEN--\":389:396   */\n      dup1\n        /* \"--CODEGEN--\":380:387   */\n      dup3\n        /* \"--CODEGEN--\":377:397   */\n      or\n        /* \"--CODEGEN--\":372:375   */\n      dup6\n        /* \"--CODEGEN--\":365:398   */\n      mstore\n        /* \"--CODEGEN--\":3:402   */\n      pop\n      pop\n      pop\n        /* \"shipment.sol\":1392:1430  keccak256((abi.encodePacked(_passwd))) */\n      pop\n      pop\n      pop\n      swap1\n      pop\n      add\n      swap2\n      pop\n      pop\n      mload(0x40)\n      dup1\n      swap2\n      sub\n      swap1\n      keccak256\n        /* \"shipment.sol\":1340:1430  keccak256((abi.encodePacked(users[_id-1].passwd)))==keccak256((abi.encodePacked(_passwd))) */\n      not(0x0)\n      and\n        /* \"shipment.sol\":1368:1373  users */\n      0x1\n        /* \"shipment.sol\":1378:1379  1 */\n      dup1\n        /* \"shipment.sol\":1374:1377  _id */\n      dup6\n        /* \"shipment.sol\":1374:1379  _id-1 */\n      sub\n        /* \"shipment.sol\":1368:1380  users[_id-1] */\n      dup2\n      sload\n      dup2\n      lt\n      iszero\n      iszero\n      tag_342\n      jumpi\n      invalid\n    tag_342:\n      swap1\n      0x0\n      mstore\n      keccak256(0x0, 0x20)\n      swap1\n      0x3\n      mul\n      add\n        /* \"shipment.sol\":1368:1387  users[_id-1].passwd */\n      0x2\n      add\n        /* \"shipment.sol\":1351:1388  abi.encodePacked(users[_id-1].passwd) */\n      add(0x20, mload(0x40))\n      dup1\n      dup3\n      dup1\n      sload\n      0x1\n      dup2\n      0x1\n      and\n      iszero\n      0x100\n      mul\n      sub\n      and\n      0x2\n      swap1\n      div\n      dup1\n      iszero\n      tag_344\n      jumpi\n      dup1\n      0x1f\n      lt\n      tag_345\n      jumpi\n      0x100\n      dup1\n      dup4\n      sload\n      div\n      mul\n      dup4\n      mstore\n      swap2\n      dup3\n      add\n      swap2\n      jump(tag_344)\n    tag_345:\n      dup3\n      add\n      swap2\n      swap1\n      0x0\n      mstore\n      keccak256(0x0, 0x20)\n      swap1\n    tag_346:\n      dup2\n      sload\n      dup2\n      mstore\n      swap1\n      0x1\n      add\n      swap1\n      0x20\n      add\n      dup1\n      dup4\n      gt\n      tag_346\n      jumpi\n    tag_344:\n      pop\n      pop\n      swap2\n      pop\n      pop\n      mload(0x40)\n        /* \"--CODEGEN--\":49:53   */\n      0x20\n        /* \"--CODEGEN--\":39:46   */\n      dup2\n        /* \"--CODEGEN--\":30:37   */\n      dup4\n        /* \"--CODEGEN--\":26:47   */\n      sub\n        /* \"--CODEGEN--\":22:54   */\n      sub\n        /* \"--CODEGEN--\":13:20   */\n      dup2\n        /* \"--CODEGEN--\":6:55   */\n      mstore\n        /* \"shipment.sol\":1351:1388  abi.encodePacked(users[_id-1].passwd) */\n      swap1\n      0x40\n      mstore\n        /* \"shipment.sol\":1340:1390  keccak256((abi.encodePacked(users[_id-1].passwd))) */\n      mload(0x40)\n      dup1\n      dup3\n      dup1\n      mload\n      swap1\n      0x20\n      add\n      swap1\n      dup1\n      dup4\n      dup4\n        /* \"--CODEGEN--\":36:189   */\n    tag_347:\n        /* \"--CODEGEN--\":66:68   */\n      0x20\n        /* \"--CODEGEN--\":61:64   */\n      dup4\n        /* \"--CODEGEN--\":58:69   */\n      lt\n        /* \"--CODEGEN--\":51:70   */\n      iszero\n        /* \"--CODEGEN--\":36:189   */\n      iszero\n      tag_348\n      jumpi\n        /* \"--CODEGEN--\":182:185   */\n      dup1\n        /* \"--CODEGEN--\":176:186   */\n      mload\n        /* \"--CODEGEN--\":171:174   */\n      dup3\n        /* \"--CODEGEN--\":164:187   */\n      mstore\n        /* \"--CODEGEN--\":98:100   */\n      0x20\n        /* \"--CODEGEN--\":93:96   */\n      dup3\n        /* \"--CODEGEN--\":89:101   */\n      add\n        /* \"--CODEGEN--\":82:101   */\n      swap2\n      pop\n        /* \"--CODEGEN--\":123:125   */\n      0x20\n        /* \"--CODEGEN--\":118:121   */\n      dup2\n        /* \"--CODEGEN--\":114:126   */\n      add\n        /* \"--CODEGEN--\":107:126   */\n      swap1\n      pop\n        /* \"--CODEGEN--\":148:150   */\n      0x20\n        /* \"--CODEGEN--\":143:146   */\n      dup4\n        /* \"--CODEGEN--\":139:151   */\n      sub\n        /* \"--CODEGEN--\":132:151   */\n      swap3\n      pop\n        /* \"--CODEGEN--\":36:189   */\n      jump(tag_347)\n    tag_348:\n        /* \"--CODEGEN--\":274:275   */\n      0x1\n        /* \"--CODEGEN--\":267:270   */\n      dup4\n        /* \"--CODEGEN--\":263:265   */\n      0x20\n        /* \"--CODEGEN--\":259:271   */\n      sub\n        /* \"--CODEGEN--\":254:257   */\n      0x100\n        /* \"--CODEGEN--\":250:272   */\n      exp\n        /* \"--CODEGEN--\":246:276   */\n      sub\n        /* \"--CODEGEN--\":315:319   */\n      dup1\n        /* \"--CODEGEN--\":311:320   */\n      not\n        /* \"--CODEGEN--\":305:308   */\n      dup3\n        /* \"--CODEGEN--\":299:309   */\n      mload\n        /* \"--CODEGEN--\":295:321   */\n      and\n        /* \"--CODEGEN--\":356:360   */\n      dup2\n        /* \"--CODEGEN--\":350:353   */\n      dup5\n        /* \"--CODEGEN--\":344:354   */\n      mload\n        /* \"--CODEGEN--\":340:361   */\n      and\n        /* \"--CODEGEN--\":389:396   */\n      dup1\n        /* \"--CODEGEN--\":380:387   */\n      dup3\n        /* \"--CODEGEN--\":377:397   */\n      or\n        /* \"--CODEGEN--\":372:375   */\n      dup6\n        /* \"--CODEGEN--\":365:398   */\n      mstore\n        /* \"--CODEGEN--\":3:402   */\n      pop\n      pop\n      pop\n        /* \"shipment.sol\":1340:1390  keccak256((abi.encodePacked(users[_id-1].passwd))) */\n      pop\n      pop\n      pop\n      swap1\n      pop\n      add\n      swap2\n      pop\n      pop\n      mload(0x40)\n      dup1\n      swap2\n      sub\n      swap1\n      keccak256\n        /* \"shipment.sol\":1340:1430  keccak256((abi.encodePacked(users[_id-1].passwd)))==keccak256((abi.encodePacked(_passwd))) */\n      not(0x0)\n      and\n      eq\n        /* \"shipment.sol\":1337:1469  if(keccak256((abi.encodePacked(users[_id-1].passwd)))==keccak256((abi.encodePacked(_passwd)))){\r... */\n      iszero\n      tag_350\n      jumpi\n        /* \"shipment.sol\":1453:1457  true */\n      0x1\n        /* \"shipment.sol\":1446:1457  return true */\n      swap1\n      pop\n      jump(tag_335)\n        /* \"shipment.sol\":1337:1469  if(keccak256((abi.encodePacked(users[_id-1].passwd)))==keccak256((abi.encodePacked(_passwd)))){\r... */\n    tag_350:\n        /* \"shipment.sol\":1486:1491  false */\n      0x0\n        /* \"shipment.sol\":1479:1491  return false */\n      swap1\n      pop\n        /* \"shipment.sol\":1258:1499  function checkUser(uint _id,string _passwd)public view returns(bool){\r... */\n    tag_335:\n      swap3\n      swap2\n      pop\n      pop\n      jump\t// out\n        /* \"shipment.sol\":6966:8049  function getAllShipments() public view returns(uint[],uint[],uint[],string[],string[],string[]){\r... */\n    tag_85:\n        /* \"shipment.sol\":7013:7019  uint[] */\n      0x60\n        /* \"shipment.sol\":7020:7026  uint[] */\n      dup1\n        /* \"shipment.sol\":7027:7033  uint[] */\n      0x60\n        /* \"shipment.sol\":7034:7042  string[] */\n      dup1\n        /* \"shipment.sol\":7043:7051  string[] */\n      0x60\n        /* \"shipment.sol\":7052:7060  string[] */\n      dup1\n        /* \"shipment.sol\":7247:7264  uint[] memory ids */\n      0x60\n        /* \"shipment.sol\":7306:7327  uint[] memory userIds */\n      dup1\n        /* \"shipment.sol\":7369:7394  uint[] memory carriersArr */\n      0x60\n        /* \"shipment.sol\":7436:7457  string[] memory froms */\n      dup1\n        /* \"shipment.sol\":7501:7520  string[] memory tos */\n      0x60\n        /* \"shipment.sol\":7564:7588  string[] memory statuses */\n      dup1\n        /* \"shipment.sol\":7646:7652  uint n */\n      0x0\n        /* \"shipment.sol\":7095:7096  0 */\n      dup1\n        /* \"shipment.sol\":7075:7084  shipments */\n      0x3\n        /* \"shipment.sol\":7075:7091  shipments.length */\n      dup1\n      sload\n      swap1\n      pop\n        /* \"shipment.sol\":7075:7096  shipments.length == 0 */\n      eq\n        /* \"shipment.sol\":7072:7227  if(shipments.length == 0){\r... */\n      iszero\n      tag_352\n      jumpi\n        /* \"shipment.sol\":7131:7132  0 */\n      0x0\n        /* \"shipment.sol\":7120:7133  new uint[](0) */\n      mload(0x40)\n      swap1\n      dup1\n      dup3\n      mstore\n      dup1\n      0x20\n      mul\n      0x20\n      add\n      dup3\n      add\n      0x40\n      mstore\n      dup1\n      iszero\n      tag_353\n      jumpi\n      dup2\n      0x20\n      add\n        /* \"--CODEGEN--\":29:31   */\n      0x20\n        /* \"--CODEGEN--\":21:27   */\n      dup3\n        /* \"--CODEGEN--\":17:32   */\n      mul\n        /* \"--CODEGEN--\":117:121   */\n      dup1\n        /* \"--CODEGEN--\":105:115   */\n      codesize\n        /* \"--CODEGEN--\":97:103   */\n      dup4\n        /* \"--CODEGEN--\":88:122   */\n      codecopy\n        /* \"--CODEGEN--\":148:152   */\n      dup1\n        /* \"--CODEGEN--\":140:146   */\n      dup3\n        /* \"--CODEGEN--\":136:153   */\n      add\n        /* \"--CODEGEN--\":126:153   */\n      swap2\n      pop\n        /* \"--CODEGEN--\":0:157   */\n      pop\n        /* \"shipment.sol\":7120:7133  new uint[](0) */\n      swap1\n      pop\n    tag_353:\n      pop\n        /* \"shipment.sol\":7146:7147  0 */\n      0x0\n        /* \"shipment.sol\":7135:7148  new uint[](0) */\n      mload(0x40)\n      swap1\n      dup1\n      dup3\n      mstore\n      dup1\n      0x20\n      mul\n      0x20\n      add\n      dup3\n      add\n      0x40\n      mstore\n      dup1\n      iszero\n      tag_354\n      jumpi\n      dup2\n      0x20\n      add\n        /* \"--CODEGEN--\":29:31   */\n      0x20\n        /* \"--CODEGEN--\":21:27   */\n      dup3\n        /* \"--CODEGEN--\":17:32   */\n      mul\n        /* \"--CODEGEN--\":117:121   */\n      dup1\n        /* \"--CODEGEN--\":105:115   */\n      codesize\n        /* \"--CODEGEN--\":97:103   */\n      dup4\n        /* \"--CODEGEN--\":88:122   */\n      codecopy\n        /* \"--CODEGEN--\":148:152   */\n      dup1\n        /* \"--CODEGEN--\":140:146   */\n      dup3\n        /* \"--CODEGEN--\":136:153   */\n      add\n        /* \"--CODEGEN--\":126:153   */\n      swap2\n      pop\n        /* \"--CODEGEN--\":0:157   */\n      pop\n        /* \"shipment.sol\":7135:7148  new uint[](0) */\n      swap1\n      pop\n    tag_354:\n      pop\n        /* \"shipment.sol\":7161:7162  0 */\n      0x0\n        /* \"shipment.sol\":7150:7163  new uint[](0) */\n      mload(0x40)\n      swap1\n      dup1\n      dup3\n      mstore\n      dup1\n      0x20\n      mul\n      0x20\n      add\n      dup3\n      add\n      0x40\n      mstore\n      dup1\n      iszero\n      tag_355\n      jumpi\n      dup2\n      0x20\n      add\n        /* \"--CODEGEN--\":29:31   */\n      0x20\n        /* \"--CODEGEN--\":21:27   */\n      dup3\n        /* \"--CODEGEN--\":17:32   */\n      mul\n        /* \"--CODEGEN--\":117:121   */\n      dup1\n        /* \"--CODEGEN--\":105:115   */\n      codesize\n        /* \"--CODEGEN--\":97:103   */\n      dup4\n        /* \"--CODEGEN--\":88:122   */\n      codecopy\n        /* \"--CODEGEN--\":148:152   */\n      dup1\n        /* \"--CODEGEN--\":140:146   */\n      dup3\n        /* \"--CODEGEN--\":136:153   */\n      add\n        /* \"--CODEGEN--\":126:153   */\n      swap2\n      pop\n        /* \"--CODEGEN--\":0:157   */\n      pop\n        /* \"shipment.sol\":7150:7163  new uint[](0) */\n      swap1\n      pop\n    tag_355:\n      pop\n        /* \"shipment.sol\":7178:7179  0 */\n      0x0\n        /* \"shipment.sol\":7165:7180  new string[](0) */\n      mload(0x40)\n      swap1\n      dup1\n      dup3\n      mstore\n      dup1\n      0x20\n      mul\n      0x20\n      add\n      dup3\n      add\n      0x40\n      mstore\n      dup1\n      iszero\n      tag_356\n      jumpi\n      dup2\n      0x20\n      add\n    tag_357:\n      0x60\n      dup2\n      mstore\n      0x20\n      add\n      swap1\n      0x1\n      swap1\n      sub\n      swap1\n      dup2\n      tag_357\n      jumpi\n      swap1\n      pop\n    tag_356:\n      pop\n        /* \"shipment.sol\":7195:7196  0 */\n      0x0\n        /* \"shipment.sol\":7182:7197  new string[](0) */\n      mload(0x40)\n      swap1\n      dup1\n      dup3\n      mstore\n      dup1\n      0x20\n      mul\n      0x20\n      add\n      dup3\n      add\n      0x40\n      mstore\n      dup1\n      iszero\n      tag_358\n      jumpi\n      dup2\n      0x20\n      add\n    tag_359:\n      0x60\n      dup2\n      mstore\n      0x20\n      add\n      swap1\n      0x1\n      swap1\n      sub\n      swap1\n      dup2\n      tag_359\n      jumpi\n      swap1\n      pop\n    tag_358:\n      pop\n        /* \"shipment.sol\":7212:7213  0 */\n      0x0\n        /* \"shipment.sol\":7199:7214  new string[](0) */\n      mload(0x40)\n      swap1\n      dup1\n      dup3\n      mstore\n      dup1\n      0x20\n      mul\n      0x20\n      add\n      dup3\n      add\n      0x40\n      mstore\n      dup1\n      iszero\n      tag_360\n      jumpi\n      dup2\n      0x20\n      add\n    tag_361:\n      0x60\n      dup2\n      mstore\n      0x20\n      add\n      swap1\n      0x1\n      swap1\n      sub\n      swap1\n      dup2\n      tag_361\n      jumpi\n      swap1\n      pop\n    tag_360:\n      pop\n        /* \"shipment.sol\":7112:7215  return (new uint[](0), new uint[](0), new uint[](0), new string[](0), new string[](0), new string[](0)) */\n      dup6\n      swap6\n      pop\n      dup5\n      swap5\n      pop\n      dup4\n      swap4\n      pop\n      dup3\n      swap3\n      pop\n      dup2\n      swap2\n      pop\n      dup1\n      swap1\n      pop\n      swap13\n      pop\n      swap13\n      pop\n      swap13\n      pop\n      swap13\n      pop\n      swap13\n      pop\n      swap13\n      pop\n      jump(tag_351)\n        /* \"shipment.sol\":7072:7227  if(shipments.length == 0){\r... */\n    tag_352:\n        /* \"shipment.sol\":7278:7287  shipments */\n      0x3\n        /* \"shipment.sol\":7278:7294  shipments.length */\n      dup1\n      sload\n      swap1\n      pop\n        /* \"shipment.sol\":7267:7295  new uint[](shipments.length) */\n      mload(0x40)\n      swap1\n      dup1\n      dup3\n      mstore\n      dup1\n      0x20\n      mul\n      0x20\n      add\n      dup3\n      add\n      0x40\n      mstore\n      dup1\n      iszero\n      tag_362\n      jumpi\n      dup2\n      0x20\n      add\n        /* \"--CODEGEN--\":29:31   */\n      0x20\n        /* \"--CODEGEN--\":21:27   */\n      dup3\n        /* \"--CODEGEN--\":17:32   */\n      mul\n        /* \"--CODEGEN--\":117:121   */\n      dup1\n        /* \"--CODEGEN--\":105:115   */\n      codesize\n        /* \"--CODEGEN--\":97:103   */\n      dup4\n        /* \"--CODEGEN--\":88:122   */\n      codecopy\n        /* \"--CODEGEN--\":148:152   */\n      dup1\n        /* \"--CODEGEN--\":140:146   */\n      dup3\n        /* \"--CODEGEN--\":136:153   */\n      add\n        /* \"--CODEGEN--\":126:153   */\n      swap2\n      pop\n        /* \"--CODEGEN--\":0:157   */\n      pop\n        /* \"shipment.sol\":7267:7295  new uint[](shipments.length) */\n      swap1\n      pop\n    tag_362:\n      pop\n        /* \"shipment.sol\":7247:7295  uint[] memory ids = new uint[](shipments.length) */\n      swap7\n      pop\n        /* \"shipment.sol\":7341:7350  shipments */\n      0x3\n        /* \"shipment.sol\":7341:7357  shipments.length */\n      dup1\n      sload\n      swap1\n      pop\n        /* \"shipment.sol\":7330:7358  new uint[](shipments.length) */\n      mload(0x40)\n      swap1\n      dup1\n      dup3\n      mstore\n      dup1\n      0x20\n      mul\n      0x20\n      add\n      dup3\n      add\n      0x40\n      mstore\n      dup1\n      iszero\n      tag_363\n      jumpi\n      dup2\n      0x20\n      add\n        /* \"--CODEGEN--\":29:31   */\n      0x20\n        /* \"--CODEGEN--\":21:27   */\n      dup3\n        /* \"--CODEGEN--\":17:32   */\n      mul\n        /* \"--CODEGEN--\":117:121   */\n      dup1\n        /* \"--CODEGEN--\":105:115   */\n      codesize\n        /* \"--CODEGEN--\":97:103   */\n      dup4\n        /* \"--CODEGEN--\":88:122   */\n      codecopy\n        /* \"--CODEGEN--\":148:152   */\n      dup1\n        /* \"--CODEGEN--\":140:146   */\n      dup3\n        /* \"--CODEGEN--\":136:153   */\n      add\n        /* \"--CODEGEN--\":126:153   */\n      swap2\n      pop\n        /* \"--CODEGEN--\":0:157   */\n      pop\n        /* \"shipment.sol\":7330:7358  new uint[](shipments.length) */\n      swap1\n      pop\n    tag_363:\n      pop\n        /* \"shipment.sol\":7306:7358  uint[] memory userIds = new uint[](shipments.length) */\n      swap6\n      pop\n        /* \"shipment.sol\":7408:7417  shipments */\n      0x3\n        /* \"shipment.sol\":7408:7424  shipments.length */\n      dup1\n      sload\n      swap1\n      pop\n        /* \"shipment.sol\":7397:7425  new uint[](shipments.length) */\n      mload(0x40)\n      swap1\n      dup1\n      dup3\n      mstore\n      dup1\n      0x20\n      mul\n      0x20\n      add\n      dup3\n      add\n      0x40\n      mstore\n      dup1\n      iszero\n      tag_364\n      jumpi\n      dup2\n      0x20\n      add\n        /* \"--CODEGEN--\":29:31   */\n      0x20\n        /* \"--CODEGEN--\":21:27   */\n      dup3\n        /* \"--CODEGEN--\":17:32   */\n      mul\n        /* \"--CODEGEN--\":117:121   */\n      dup1\n        /* \"--CODEGEN--\":105:115   */\n      codesize\n        /* \"--CODEGEN--\":97:103   */\n      dup4\n        /* \"--CODEGEN--\":88:122   */\n      codecopy\n        /* \"--CODEGEN--\":148:152   */\n      dup1\n        /* \"--CODEGEN--\":140:146   */\n      dup3\n        /* \"--CODEGEN--\":136:153   */\n      add\n        /* \"--CODEGEN--\":126:153   */\n      swap2\n      pop\n        /* \"--CODEGEN--\":0:157   */\n      pop\n        /* \"shipment.sol\":7397:7425  new uint[](shipments.length) */\n      swap1\n      pop\n    tag_364:\n      pop\n        /* \"shipment.sol\":7369:7425  uint[] memory carriersArr = new uint[](shipments.length) */\n      swap5\n      pop\n        /* \"shipment.sol\":7473:7482  shipments */\n      0x3\n        /* \"shipment.sol\":7473:7489  shipments.length */\n      dup1\n      sload\n      swap1\n      pop\n        /* \"shipment.sol\":7460:7490  new string[](shipments.length) */\n      mload(0x40)\n      swap1\n      dup1\n      dup3\n      mstore\n      dup1\n      0x20\n      mul\n      0x20\n      add\n      dup3\n      add\n      0x40\n      mstore\n      dup1\n      iszero\n      tag_365\n      jumpi\n      dup2\n      0x20\n      add\n    tag_366:\n      0x60\n      dup2\n      mstore\n      0x20\n      add\n      swap1\n      0x1\n      swap1\n      sub\n      swap1\n      dup2\n      tag_366\n      jumpi\n      swap1\n      pop\n    tag_365:\n      pop\n        /* \"shipment.sol\":7436:7490  string[] memory froms = new string[](shipments.length) */\n      swap4\n      pop\n        /* \"shipment.sol\":7536:7545  shipments */\n      0x3\n        /* \"shipment.sol\":7536:7552  shipments.length */\n      dup1\n      sload\n      swap1\n      pop\n        /* \"shipment.sol\":7523:7553  new string[](shipments.length) */\n      mload(0x40)\n      swap1\n      dup1\n      dup3\n      mstore\n      dup1\n      0x20\n      mul\n      0x20\n      add\n      dup3\n      add\n      0x40\n      mstore\n      dup1\n      iszero\n      tag_367\n      jumpi\n      dup2\n      0x20\n      add\n    tag_368:\n      0x60\n      dup2\n      mstore\n      0x20\n      add\n      swap1\n      0x1\n      swap1\n      sub\n      swap1\n      dup2\n      tag_368\n      jumpi\n      swap1\n      pop\n    tag_367:\n      pop\n        /* \"shipment.sol\":7501:7553  string[] memory tos = new string[](shipments.length) */\n      swap3\n      pop\n        /* \"shipment.sol\":7604:7613  shipments */\n      0x3\n        /* \"shipment.sol\":7604:7620  shipments.length */\n      dup1\n      sload\n      swap1\n      pop\n        /* \"shipment.sol\":7591:7621  new string[](shipments.length) */\n      mload(0x40)\n      swap1\n      dup1\n      dup3\n      mstore\n      dup1\n      0x20\n      mul\n      0x20\n      add\n      dup3\n      add\n      0x40\n      mstore\n      dup1\n      iszero\n      tag_369\n      jumpi\n      dup2\n      0x20\n      add\n    tag_370:\n      0x60\n      dup2\n      mstore\n      0x20\n      add\n      swap1\n      0x1\n      swap1\n      sub\n      swap1\n      dup2\n      tag_370\n      jumpi\n      swap1\n      pop\n    tag_369:\n      pop\n        /* \"shipment.sol\":7564:7621  string[] memory statuses = new string[](shipments.length) */\n      swap2\n      pop\n        /* \"shipment.sol\":7655:7656  0 */\n      0x0\n        /* \"shipment.sol\":7646:7656  uint n = 0 */\n      swap1\n      pop\n        /* \"shipment.sol\":7642:7965  for(uint n = 0; n < shipments.length; n++){\r... */\n    tag_371:\n        /* \"shipment.sol\":7662:7671  shipments */\n      0x3\n        /* \"shipment.sol\":7662:7678  shipments.length */\n      dup1\n      sload\n      swap1\n      pop\n        /* \"shipment.sol\":7658:7659  n */\n      dup2\n        /* \"shipment.sol\":7658:7678  n < shipments.length */\n      lt\n        /* \"shipment.sol\":7642:7965  for(uint n = 0; n < shipments.length; n++){\r... */\n      iszero\n      tag_372\n      jumpi\n        /* \"shipment.sol\":7708:7717  shipments */\n      0x3\n        /* \"shipment.sol\":7718:7719  n */\n      dup2\n        /* \"shipment.sol\":7708:7720  shipments[n] */\n      dup2\n      sload\n      dup2\n      lt\n      iszero\n      iszero\n      tag_374\n      jumpi\n      invalid\n    tag_374:\n      swap1\n      0x0\n      mstore\n      keccak256(0x0, 0x20)\n      swap1\n      0x8\n      mul\n      add\n        /* \"shipment.sol\":7708:7723  shipments[n].id */\n      0x0\n      add\n      sload\n        /* \"shipment.sol\":7699:7702  ids */\n      dup8\n        /* \"shipment.sol\":7703:7704  n */\n      dup3\n        /* \"shipment.sol\":7699:7705  ids[n] */\n      dup2\n      mload\n      dup2\n      lt\n      iszero\n      iszero\n      tag_376\n      jumpi\n      invalid\n    tag_376:\n      swap1\n      0x20\n      add\n      swap1\n      0x20\n      mul\n      add\n        /* \"shipment.sol\":7699:7723  ids[n] = shipments[n].id */\n      dup2\n      dup2\n      mstore\n      pop\n      pop\n        /* \"shipment.sol\":7751:7760  shipments */\n      0x3\n        /* \"shipment.sol\":7761:7762  n */\n      dup2\n        /* \"shipment.sol\":7751:7763  shipments[n] */\n      dup2\n      sload\n      dup2\n      lt\n      iszero\n      iszero\n      tag_377\n      jumpi\n      invalid\n    tag_377:\n      swap1\n      0x0\n      mstore\n      keccak256(0x0, 0x20)\n      swap1\n      0x8\n      mul\n      add\n        /* \"shipment.sol\":7751:7771  shipments[n].user_id */\n      0x1\n      add\n      sload\n        /* \"shipment.sol\":7738:7745  userIds */\n      dup7\n        /* \"shipment.sol\":7746:7747  n */\n      dup3\n        /* \"shipment.sol\":7738:7748  userIds[n] */\n      dup2\n      mload\n      dup2\n      lt\n      iszero\n      iszero\n      tag_379\n      jumpi\n      invalid\n    tag_379:\n      swap1\n      0x20\n      add\n      swap1\n      0x20\n      mul\n      add\n        /* \"shipment.sol\":7738:7771  userIds[n] = shipments[n].user_id */\n      dup2\n      dup2\n      mstore\n      pop\n      pop\n        /* \"shipment.sol\":7803:7812  shipments */\n      0x3\n        /* \"shipment.sol\":7813:7814  n */\n      dup2\n        /* \"shipment.sol\":7803:7815  shipments[n] */\n      dup2\n      sload\n      dup2\n      lt\n      iszero\n      iszero\n      tag_380\n      jumpi\n      invalid\n    tag_380:\n      swap1\n      0x0\n      mstore\n      keccak256(0x0, 0x20)\n      swap1\n      0x8\n      mul\n      add\n        /* \"shipment.sol\":7803:7823  shipments[n].carrier */\n      0x2\n      add\n      sload\n        /* \"shipment.sol\":7786:7797  carriersArr */\n      dup6\n        /* \"shipment.sol\":7798:7799  n */\n      dup3\n        /* \"shipment.sol\":7786:7800  carriersArr[n] */\n      dup2\n      mload\n      dup2\n      lt\n      iszero\n      iszero\n      tag_382\n      jumpi\n      invalid\n    tag_382:\n      swap1\n      0x20\n      add\n      swap1\n      0x20\n      mul\n      add\n        /* \"shipment.sol\":7786:7823  carriersArr[n] = shipments[n].carrier */\n      dup2\n      dup2\n      mstore\n      pop\n      pop\n        /* \"shipment.sol\":7849:7858  shipments */\n      0x3\n        /* \"shipment.sol\":7859:7860  n */\n      dup2\n        /* \"shipment.sol\":7849:7861  shipments[n] */\n      dup2\n      sload\n      dup2\n      lt\n      iszero\n      iszero\n      tag_383\n      jumpi\n      invalid\n    tag_383:\n      swap1\n      0x0\n      mstore\n      keccak256(0x0, 0x20)\n      swap1\n      0x8\n      mul\n      add\n        /* \"shipment.sol\":7849:7866  shipments[n].from */\n      0x3\n      add\n        /* \"shipment.sol\":7838:7866  froms[n] = shipments[n].from */\n      dup1\n      sload\n      0x1\n      dup2\n      0x1\n      and\n      iszero\n      0x100\n      mul\n      sub\n      and\n      0x2\n      swap1\n      div\n      dup1\n      0x1f\n      add\n      0x20\n      dup1\n      swap2\n      div\n      mul\n      0x20\n      add\n      mload(0x40)\n      swap1\n      dup2\n      add\n      0x40\n      mstore\n      dup1\n      swap3\n      swap2\n      swap1\n      dup2\n      dup2\n      mstore\n      0x20\n      add\n      dup3\n      dup1\n      sload\n      0x1\n      dup2\n      0x1\n      and\n      iszero\n      0x100\n      mul\n      sub\n      and\n      0x2\n      swap1\n      div\n      dup1\n      iszero\n      tag_385\n      jumpi\n      dup1\n      0x1f\n      lt\n      tag_386\n      jumpi\n      0x100\n      dup1\n      dup4\n      sload\n      div\n      mul\n      dup4\n      mstore\n      swap2\n      0x20\n      add\n      swap2\n      jump(tag_385)\n    tag_386:\n      dup3\n      add\n      swap2\n      swap1\n      0x0\n      mstore\n      keccak256(0x0, 0x20)\n      swap1\n    tag_387:\n      dup2\n      sload\n      dup2\n      mstore\n      swap1\n      0x1\n      add\n      swap1\n      0x20\n      add\n      dup1\n      dup4\n      gt\n      tag_387\n      jumpi\n      dup3\n      swap1\n      sub\n      0x1f\n      and\n      dup3\n      add\n      swap2\n    tag_385:\n      pop\n      pop\n      pop\n      pop\n      pop\n        /* \"shipment.sol\":7838:7843  froms */\n      dup5\n        /* \"shipment.sol\":7844:7845  n */\n      dup3\n        /* \"shipment.sol\":7838:7846  froms[n] */\n      dup2\n      mload\n      dup2\n      lt\n      iszero\n      iszero\n      tag_388\n      jumpi\n      invalid\n    tag_388:\n      swap1\n      0x20\n      add\n      swap1\n      0x20\n      mul\n      add\n        /* \"shipment.sol\":7838:7866  froms[n] = shipments[n].from */\n      dup2\n      swap1\n      mstore\n      pop\n        /* \"shipment.sol\":7890:7899  shipments */\n      0x3\n        /* \"shipment.sol\":7900:7901  n */\n      dup2\n        /* \"shipment.sol\":7890:7902  shipments[n] */\n      dup2\n      sload\n      dup2\n      lt\n      iszero\n      iszero\n      tag_389\n      jumpi\n      invalid\n    tag_389:\n      swap1\n      0x0\n      mstore\n      keccak256(0x0, 0x20)\n      swap1\n      0x8\n      mul\n      add\n        /* \"shipment.sol\":7890:7905  shipments[n].to */\n      0x4\n      add\n        /* \"shipment.sol\":7881:7905  tos[n] = shipments[n].to */\n      dup1\n      sload\n      0x1\n      dup2\n      0x1\n      and\n      iszero\n      0x100\n      mul\n      sub\n      and\n      0x2\n      swap1\n      div\n      dup1\n      0x1f\n      add\n      0x20\n      dup1\n      swap2\n      div\n      mul\n      0x20\n      add\n      mload(0x40)\n      swap1\n      dup2\n      add\n      0x40\n      mstore\n      dup1\n      swap3\n      swap2\n      swap1\n      dup2\n      dup2\n      mstore\n      0x20\n      add\n      dup3\n      dup1\n      sload\n      0x1\n      dup2\n      0x1\n      and\n      iszero\n      0x100\n      mul\n      sub\n      and\n      0x2\n      swap1\n      div\n      dup1\n      iszero\n      tag_391\n      jumpi\n      dup1\n      0x1f\n      lt\n      tag_392\n      jumpi\n      0x100\n      dup1\n      dup4\n      sload\n      div\n      mul\n      dup4\n      mstore\n      swap2\n      0x20\n      add\n      swap2\n      jump(tag_391)\n    tag_392:\n      dup3\n      add\n      swap2\n      swap1\n      0x0\n      mstore\n      keccak256(0x0, 0x20)\n      swap1\n    tag_393:\n      dup2\n      sload\n      dup2\n      mstore\n      swap1\n      0x1\n      add\n      swap1\n      0x20\n      add\n      dup1\n      dup4\n      gt\n      tag_393\n      jumpi\n      dup3\n      swap1\n      sub\n      0x1f\n      and\n      dup3\n      add\n      swap2\n    tag_391:\n      pop\n      pop\n      pop\n      pop\n      pop\n        /* \"shipment.sol\":7881:7884  tos */\n      dup4\n        /* \"shipment.sol\":7885:7886  n */\n      dup3\n        /* \"shipment.sol\":7881:7887  tos[n] */\n      dup2\n      mload\n      dup2\n      lt\n      iszero\n      iszero\n      tag_394\n      jumpi\n      invalid\n    tag_394:\n      swap1\n      0x20\n      add\n      swap1\n      0x20\n      mul\n      add\n        /* \"shipment.sol\":7881:7905  tos[n] = shipments[n].to */\n      dup2\n      swap1\n      mstore\n      pop\n        /* \"shipment.sol\":7934:7943  shipments */\n      0x3\n        /* \"shipment.sol\":7944:7945  n */\n      dup2\n        /* \"shipment.sol\":7934:7946  shipments[n] */\n      dup2\n      sload\n      dup2\n      lt\n      iszero\n      iszero\n      tag_395\n      jumpi\n      invalid\n    tag_395:\n      swap1\n      0x0\n      mstore\n      keccak256(0x0, 0x20)\n      swap1\n      0x8\n      mul\n      add\n        /* \"shipment.sol\":7934:7953  shipments[n].status */\n      0x5\n      add\n        /* \"shipment.sol\":7920:7953  statuses[n] = shipments[n].status */\n      dup1\n      sload\n      0x1\n      dup2\n      0x1\n      and\n      iszero\n      0x100\n      mul\n      sub\n      and\n      0x2\n      swap1\n      div\n      dup1\n      0x1f\n      add\n      0x20\n      dup1\n      swap2\n      div\n      mul\n      0x20\n      add\n      mload(0x40)\n      swap1\n      dup2\n      add\n      0x40\n      mstore\n      dup1\n      swap3\n      swap2\n      swap1\n      dup2\n      dup2\n      mstore\n      0x20\n      add\n      dup3\n      dup1\n      sload\n      0x1\n      dup2\n      0x1\n      and\n      iszero\n      0x100\n      mul\n      sub\n      and\n      0x2\n      swap1\n      div\n      dup1\n      iszero\n      tag_397\n      jumpi\n      dup1\n      0x1f\n      lt\n      tag_398\n      jumpi\n      0x100\n      dup1\n      dup4\n      sload\n      div\n      mul\n      dup4\n      mstore\n      swap2\n      0x20\n      add\n      swap2\n      jump(tag_397)\n    tag_398:\n      dup3\n      add\n      swap2\n      swap1\n      0x0\n      mstore\n      keccak256(0x0, 0x20)\n      swap1\n    tag_399:\n      dup2\n      sload\n      dup2\n      mstore\n      swap1\n      0x1\n      add\n      swap1\n      0x20\n      add\n      dup1\n      dup4\n      gt\n      tag_399\n      jumpi\n      dup3\n      swap1\n      sub\n      0x1f\n      and\n      dup3\n      add\n      swap2\n    tag_397:\n      pop\n      pop\n      pop\n      pop\n      pop\n        /* \"shipment.sol\":7920:7928  statuses */\n      dup3\n        /* \"shipment.sol\":7929:7930  n */\n      dup3\n        /* \"shipment.sol\":7920:7931  statuses[n] */\n      dup2\n      mload\n      dup2\n      lt\n      iszero\n      iszero\n      tag_400\n      jumpi\n      invalid\n    tag_400:\n      swap1\n      0x20\n      add\n      swap1\n      0x20\n      mul\n      add\n        /* \"shipment.sol\":7920:7953  statuses[n] = shipments[n].status */\n      dup2\n      swap1\n      mstore\n      pop\n        /* \"shipment.sol\":7680:7683  n++ */\n      dup1\n      dup1\n      0x1\n      add\n      swap2\n      pop\n      pop\n        /* \"shipment.sol\":7642:7965  for(uint n = 0; n < shipments.length; n++){\r... */\n      jump(tag_371)\n    tag_372:\n        /* \"shipment.sol\":7993:7996  ids */\n      dup7\n        /* \"shipment.sol\":7998:8005  userIds */\n      dup7\n        /* \"shipment.sol\":8007:8018  carriersArr */\n      dup7\n        /* \"shipment.sol\":8020:8025  froms */\n      dup7\n        /* \"shipment.sol\":8027:8030  tos */\n      dup7\n        /* \"shipment.sol\":8032:8040  statuses */\n      dup7\n        /* \"shipment.sol\":7985:8041  return (ids, userIds, carriersArr, froms, tos, statuses) */\n      swap13\n      pop\n      swap13\n      pop\n      swap13\n      pop\n      swap13\n      pop\n      swap13\n      pop\n      swap13\n      pop\n        /* \"shipment.sol\":6966:8049  function getAllShipments() public view returns(uint[],uint[],uint[],string[],string[],string[]){\r... */\n    tag_351:\n      pop\n      pop\n      pop\n      pop\n      pop\n      pop\n      pop\n      swap1\n      swap2\n      swap3\n      swap4\n      swap5\n      swap6\n      jump\t// out\n        /* \"shipment.sol\":4511:4629  function getShipmentsByCarrier(uint _id)public view returns(uint[]){\r... */\n    tag_91:\n        /* \"shipment.sol\":4571:4577  uint[] */\n      0x60\n        /* \"shipment.sol\":4596:4604  carriers */\n      0x2\n        /* \"shipment.sol\":4609:4610  1 */\n      0x1\n        /* \"shipment.sol\":4605:4608  _id */\n      dup4\n        /* \"shipment.sol\":4605:4610  _id-1 */\n      sub\n        /* \"shipment.sol\":4596:4611  carriers[_id-1] */\n      dup2\n      sload\n      dup2\n      lt\n      iszero\n      iszero\n      tag_402\n      jumpi\n      invalid\n    tag_402:\n      swap1\n      0x0\n      mstore\n      keccak256(0x0, 0x20)\n      swap1\n      0x5\n      mul\n      add\n        /* \"shipment.sol\":4596:4621  carriers[_id-1].shipments */\n      0x4\n      add\n        /* \"shipment.sol\":4589:4621  return carriers[_id-1].shipments */\n      dup1\n      sload\n      dup1\n      0x20\n      mul\n      0x20\n      add\n      mload(0x40)\n      swap1\n      dup2\n      add\n      0x40\n      mstore\n      dup1\n      swap3\n      swap2\n      swap1\n      dup2\n      dup2\n      mstore\n      0x20\n      add\n      dup3\n      dup1\n      sload\n      dup1\n      iszero\n      tag_404\n      jumpi\n      0x20\n      mul\n      dup3\n      add\n      swap2\n      swap1\n      0x0\n      mstore\n      keccak256(0x0, 0x20)\n      swap1\n    tag_405:\n      dup2\n      sload\n      dup2\n      mstore\n      0x20\n      add\n      swap1\n      0x1\n      add\n      swap1\n      dup1\n      dup4\n      gt\n      tag_405\n      jumpi\n    tag_404:\n      pop\n      pop\n      pop\n      pop\n      pop\n      swap1\n      pop\n        /* \"shipment.sol\":4511:4629  function getShipmentsByCarrier(uint _id)public view returns(uint[]){\r... */\n      swap2\n      swap1\n      pop\n      jump\t// out\n        /* \"shipment.sol\":10621:10896  function updateCarrierInfo(uint _id, string _name, string _info) public returns(bool){\r... */\n    tag_98:\n        /* \"shipment.sol\":10701:10705  bool */\n      0x0\n        /* \"shipment.sol\":10731:10732  0 */\n      dup1\n        /* \"shipment.sol\":10725:10728  _id */\n      dup5\n        /* \"shipment.sol\":10725:10732  _id > 0 */\n      gt\n        /* \"shipment.sol\":10725:10758  _id > 0 && _id <= carriers.length */\n      dup1\n      iszero\n      tag_407\n      jumpi\n      pop\n        /* \"shipment.sol\":10743:10751  carriers */\n      0x2\n        /* \"shipment.sol\":10743:10758  carriers.length */\n      dup1\n      sload\n      swap1\n      pop\n        /* \"shipment.sol\":10736:10739  _id */\n      dup5\n        /* \"shipment.sol\":10736:10758  _id <= carriers.length */\n      gt\n      iszero\n        /* \"shipment.sol\":10725:10758  _id > 0 && _id <= carriers.length */\n    tag_407:\n        /* \"shipment.sol\":10717:10788  require(_id > 0 && _id <= carriers.length, \"Carrier ID does not exist\") */\n      iszero\n      iszero\n      tag_408\n      jumpi\n      mload(0x40)\n      0x8c379a000000000000000000000000000000000000000000000000000000000\n      dup2\n      mstore\n      0x4\n      add\n      tag_409\n      swap1\n      jump(tag_410)\n    tag_409:\n      mload(0x40)\n      dup1\n      swap2\n      sub\n      swap1\n      revert\n    tag_408:\n        /* \"shipment.sol\":10822:10827  _name */\n      dup3\n        /* \"shipment.sol\":10799:10807  carriers */\n      0x2\n        /* \"shipment.sol\":10812:10813  1 */\n      0x1\n        /* \"shipment.sol\":10808:10811  _id */\n      dup7\n        /* \"shipment.sol\":10808:10813  _id-1 */\n      sub\n        /* \"shipment.sol\":10799:10814  carriers[_id-1] */\n      dup2\n      sload\n      dup2\n      lt\n      iszero\n      iszero\n      tag_411\n      jumpi\n      invalid\n    tag_411:\n      swap1\n      0x0\n      mstore\n      keccak256(0x0, 0x20)\n      swap1\n      0x5\n      mul\n      add\n        /* \"shipment.sol\":10799:10819  carriers[_id-1].name */\n      0x1\n      add\n        /* \"shipment.sol\":10799:10827  carriers[_id-1].name = _name */\n      swap1\n      dup1\n      mload\n      swap1\n      0x20\n      add\n      swap1\n      tag_413\n      swap3\n      swap2\n      swap1\n      jump\t// in(tag_334)\n    tag_413:\n      pop\n        /* \"shipment.sol\":10861:10866  _info */\n      dup2\n        /* \"shipment.sol\":10838:10846  carriers */\n      0x2\n        /* \"shipment.sol\":10851:10852  1 */\n      0x1\n        /* \"shipment.sol\":10847:10850  _id */\n      dup7\n        /* \"shipment.sol\":10847:10852  _id-1 */\n      sub\n        /* \"shipment.sol\":10838:10853  carriers[_id-1] */\n      dup2\n      sload\n      dup2\n      lt\n      iszero\n      iszero\n      tag_414\n      jumpi\n      invalid\n    tag_414:\n      swap1\n      0x0\n      mstore\n      keccak256(0x0, 0x20)\n      swap1\n      0x5\n      mul\n      add\n        /* \"shipment.sol\":10838:10858  carriers[_id-1].info */\n      0x2\n      add\n        /* \"shipment.sol\":10838:10866  carriers[_id-1].info = _info */\n      swap1\n      dup1\n      mload\n      swap1\n      0x20\n      add\n      swap1\n      tag_416\n      swap3\n      swap2\n      swap1\n      jump\t// in(tag_334)\n    tag_416:\n      pop\n        /* \"shipment.sol\":10884:10888  true */\n      0x1\n        /* \"shipment.sol\":10877:10888  return true */\n      swap1\n      pop\n        /* \"shipment.sol\":10621:10896  function updateCarrierInfo(uint _id, string _name, string _info) public returns(bool){\r... */\n      swap4\n      swap3\n      pop\n      pop\n      pop\n      jump\t// out\n        /* \"shipment.sol\":11204:12124  function deleteCarrier(uint _id) public returns(bool){\r... */\n    tag_103:\n        /* \"shipment.sol\":11252:11256  bool */\n      0x0\n        /* \"shipment.sol\":11425:11431  uint v */\n      dup1\n        /* \"shipment.sol\":11675:11681  uint w */\n      0x0\n        /* \"shipment.sol\":11954:11960  uint x */\n      dup1\n        /* \"shipment.sol\":11282:11283  0 */\n      0x0\n        /* \"shipment.sol\":11276:11279  _id */\n      dup6\n        /* \"shipment.sol\":11276:11283  _id > 0 */\n      gt\n        /* \"shipment.sol\":11276:11309  _id > 0 && _id <= carriers.length */\n      dup1\n      iszero\n      tag_418\n      jumpi\n      pop\n        /* \"shipment.sol\":11294:11302  carriers */\n      0x2\n        /* \"shipment.sol\":11294:11309  carriers.length */\n      dup1\n      sload\n      swap1\n      pop\n        /* \"shipment.sol\":11287:11290  _id */\n      dup6\n        /* \"shipment.sol\":11287:11309  _id <= carriers.length */\n      gt\n      iszero\n        /* \"shipment.sol\":11276:11309  _id > 0 && _id <= carriers.length */\n    tag_418:\n        /* \"shipment.sol\":11268:11339  require(_id > 0 && _id <= carriers.length, \"Carrier ID does not exist\") */\n      iszero\n      iszero\n      tag_419\n      jumpi\n      mload(0x40)\n      0x8c379a000000000000000000000000000000000000000000000000000000000\n      dup2\n      mstore\n      0x4\n      add\n      tag_420\n      swap1\n      jump(tag_410)\n    tag_420:\n      mload(0x40)\n      dup1\n      swap2\n      sub\n      swap1\n      revert\n    tag_419:\n        /* \"shipment.sol\":11434:11435  0 */\n      0x0\n        /* \"shipment.sol\":11425:11435  uint v = 0 */\n      swap3\n      pop\n        /* \"shipment.sol\":11421:11607  for(uint v = 0; v < shipments.length; v++){\r... */\n    tag_421:\n        /* \"shipment.sol\":11441:11450  shipments */\n      0x3\n        /* \"shipment.sol\":11441:11457  shipments.length */\n      dup1\n      sload\n      swap1\n      pop\n        /* \"shipment.sol\":11437:11438  v */\n      dup4\n        /* \"shipment.sol\":11437:11457  v < shipments.length */\n      lt\n        /* \"shipment.sol\":11421:11607  for(uint v = 0; v < shipments.length; v++){\r... */\n      iszero\n      tag_422\n      jumpi\n        /* \"shipment.sol\":11505:11508  _id */\n      dup5\n        /* \"shipment.sol\":11481:11490  shipments */\n      0x3\n        /* \"shipment.sol\":11491:11492  v */\n      dup5\n        /* \"shipment.sol\":11481:11493  shipments[v] */\n      dup2\n      sload\n      dup2\n      lt\n      iszero\n      iszero\n      tag_424\n      jumpi\n      invalid\n    tag_424:\n      swap1\n      0x0\n      mstore\n      keccak256(0x0, 0x20)\n      swap1\n      0x8\n      mul\n      add\n        /* \"shipment.sol\":11481:11501  shipments[v].carrier */\n      0x2\n      add\n      sload\n        /* \"shipment.sol\":11481:11508  shipments[v].carrier == _id */\n      eq\n        /* \"shipment.sol\":11478:11596  if(shipments[v].carrier == _id){\r... */\n      iszero\n      tag_426\n      jumpi\n        /* \"shipment.sol\":11535:11540  false */\n      0x0\n        /* \"shipment.sol\":11528:11540  return false */\n      swap4\n      pop\n      jump(tag_417)\n        /* \"shipment.sol\":11478:11596  if(shipments[v].carrier == _id){\r... */\n    tag_426:\n        /* \"shipment.sol\":11459:11462  v++ */\n      dup3\n      dup1\n      0x1\n      add\n      swap4\n      pop\n      pop\n        /* \"shipment.sol\":11421:11607  for(uint v = 0; v < shipments.length; v++){\r... */\n      jump(tag_421)\n    tag_422:\n        /* \"shipment.sol\":11684:11685  0 */\n      0x0\n        /* \"shipment.sol\":11675:11685  uint w = 0 */\n      swap2\n      pop\n        /* \"shipment.sol\":11671:11851  for(uint w = 0; w < shipments.length; w++){\r... */\n    tag_427:\n        /* \"shipment.sol\":11691:11700  shipments */\n      0x3\n        /* \"shipment.sol\":11691:11707  shipments.length */\n      dup1\n      sload\n      swap1\n      pop\n        /* \"shipment.sol\":11687:11688  w */\n      dup3\n        /* \"shipment.sol\":11687:11707  w < shipments.length */\n      lt\n        /* \"shipment.sol\":11671:11851  for(uint w = 0; w < shipments.length; w++){\r... */\n      iszero\n      tag_428\n      jumpi\n        /* \"shipment.sol\":11754:11757  _id */\n      dup5\n        /* \"shipment.sol\":11731:11740  shipments */\n      0x3\n        /* \"shipment.sol\":11741:11742  w */\n      dup4\n        /* \"shipment.sol\":11731:11743  shipments[w] */\n      dup2\n      sload\n      dup2\n      lt\n      iszero\n      iszero\n      tag_430\n      jumpi\n      invalid\n    tag_430:\n      swap1\n      0x0\n      mstore\n      keccak256(0x0, 0x20)\n      swap1\n      0x8\n      mul\n      add\n        /* \"shipment.sol\":11731:11751  shipments[w].carrier */\n      0x2\n      add\n      sload\n        /* \"shipment.sol\":11731:11757  shipments[w].carrier > _id */\n      gt\n        /* \"shipment.sol\":11728:11840  if(shipments[w].carrier > _id){\r... */\n      iszero\n      tag_432\n      jumpi\n        /* \"shipment.sol\":11823:11824  1 */\n      0x1\n        /* \"shipment.sol\":11800:11809  shipments */\n      0x3\n        /* \"shipment.sol\":11810:11811  w */\n      dup4\n        /* \"shipment.sol\":11800:11812  shipments[w] */\n      dup2\n      sload\n      dup2\n      lt\n      iszero\n      iszero\n      tag_433\n      jumpi\n      invalid\n    tag_433:\n      swap1\n      0x0\n      mstore\n      keccak256(0x0, 0x20)\n      swap1\n      0x8\n      mul\n      add\n        /* \"shipment.sol\":11800:11820  shipments[w].carrier */\n      0x2\n      add\n      sload\n        /* \"shipment.sol\":11800:11824  shipments[w].carrier - 1 */\n      sub\n        /* \"shipment.sol\":11777:11786  shipments */\n      0x3\n        /* \"shipment.sol\":11787:11788  w */\n      dup4\n        /* \"shipment.sol\":11777:11789  shipments[w] */\n      dup2\n      sload\n      dup2\n      lt\n      iszero\n      iszero\n      tag_435\n      jumpi\n      invalid\n    tag_435:\n      swap1\n      0x0\n      mstore\n      keccak256(0x0, 0x20)\n      swap1\n      0x8\n      mul\n      add\n        /* \"shipment.sol\":11777:11797  shipments[w].carrier */\n      0x2\n      add\n        /* \"shipment.sol\":11777:11824  shipments[w].carrier = shipments[w].carrier - 1 */\n      dup2\n      swap1\n      sstore\n      pop\n        /* \"shipment.sol\":11728:11840  if(shipments[w].carrier > _id){\r... */\n    tag_432:\n        /* \"shipment.sol\":11709:11712  w++ */\n      dup2\n      dup1\n      0x1\n      add\n      swap3\n      pop\n      pop\n        /* \"shipment.sol\":11671:11851  for(uint w = 0; w < shipments.length; w++){\r... */\n      jump(tag_427)\n    tag_428:\n        /* \"shipment.sol\":11969:11970  1 */\n      0x1\n        /* \"shipment.sol\":11963:11966  _id */\n      dup6\n        /* \"shipment.sol\":11963:11970  _id - 1 */\n      sub\n        /* \"shipment.sol\":11954:11970  uint x = _id - 1 */\n      swap1\n      pop\n        /* \"shipment.sol\":11950:12057  for(uint x = _id - 1; x < carriers.length - 1; x++){\r... */\n    tag_437:\n        /* \"shipment.sol\":11994:11995  1 */\n      0x1\n        /* \"shipment.sol\":11976:11984  carriers */\n      0x2\n        /* \"shipment.sol\":11976:11991  carriers.length */\n      dup1\n      sload\n      swap1\n      pop\n        /* \"shipment.sol\":11976:11995  carriers.length - 1 */\n      sub\n        /* \"shipment.sol\":11972:11973  x */\n      dup2\n        /* \"shipment.sol\":11972:11995  x < carriers.length - 1 */\n      lt\n        /* \"shipment.sol\":11950:12057  for(uint x = _id - 1; x < carriers.length - 1; x++){\r... */\n      iszero\n      tag_438\n      jumpi\n        /* \"shipment.sol\":12030:12038  carriers */\n      0x2\n        /* \"shipment.sol\":12043:12044  1 */\n      0x1\n        /* \"shipment.sol\":12039:12040  x */\n      dup3\n        /* \"shipment.sol\":12039:12044  x + 1 */\n      add\n        /* \"shipment.sol\":12030:12045  carriers[x + 1] */\n      dup2\n      sload\n      dup2\n      lt\n      iszero\n      iszero\n      tag_440\n      jumpi\n      invalid\n    tag_440:\n      swap1\n      0x0\n      mstore\n      keccak256(0x0, 0x20)\n      swap1\n      0x5\n      mul\n      add\n        /* \"shipment.sol\":12016:12024  carriers */\n      0x2\n        /* \"shipment.sol\":12025:12026  x */\n      dup3\n        /* \"shipment.sol\":12016:12027  carriers[x] */\n      dup2\n      sload\n      dup2\n      lt\n      iszero\n      iszero\n      tag_442\n      jumpi\n      invalid\n    tag_442:\n      swap1\n      0x0\n      mstore\n      keccak256(0x0, 0x20)\n      swap1\n      0x5\n      mul\n      add\n        /* \"shipment.sol\":12016:12045  carriers[x] = carriers[x + 1] */\n      0x0\n      dup3\n      add\n      sload\n      dup2\n      0x0\n      add\n      sstore\n      0x1\n      dup3\n      add\n      dup2\n      0x1\n      add\n      swap1\n      dup1\n      sload\n      0x1\n      dup2\n      0x1\n      and\n      iszero\n      0x100\n      mul\n      sub\n      and\n      0x2\n      swap1\n      div\n      tag_444\n      swap3\n      swap2\n      swap1\n      jump\t// in(tag_250)\n    tag_444:\n      pop\n      0x2\n      dup3\n      add\n      dup2\n      0x2\n      add\n      swap1\n      dup1\n      sload\n      0x1\n      dup2\n      0x1\n      and\n      iszero\n      0x100\n      mul\n      sub\n      and\n      0x2\n      swap1\n      div\n      tag_445\n      swap3\n      swap2\n      swap1\n      jump\t// in(tag_250)\n    tag_445:\n      pop\n      0x3\n      dup3\n      add\n      dup2\n      0x3\n      add\n      swap1\n      dup1\n      sload\n      0x1\n      dup2\n      0x1\n      and\n      iszero\n      0x100\n      mul\n      sub\n      and\n      0x2\n      swap1\n      div\n      tag_446\n      swap3\n      swap2\n      swap1\n      jump\t// in(tag_250)\n    tag_446:\n      pop\n      0x4\n      dup3\n      add\n      dup2\n      0x4\n      add\n      swap1\n      dup1\n      sload\n      tag_447\n      swap3\n      swap2\n      swap1\n      jump\t// in(tag_448)\n    tag_447:\n      pop\n      swap1\n      pop\n      pop\n        /* \"shipment.sol\":11997:12000  x++ */\n      dup1\n      dup1\n      0x1\n      add\n      swap2\n      pop\n      pop\n        /* \"shipment.sol\":11950:12057  for(uint x = _id - 1; x < carriers.length - 1; x++){\r... */\n      jump(tag_437)\n    tag_438:\n        /* \"shipment.sol\":12067:12075  carriers */\n      0x2\n        /* \"shipment.sol\":12067:12084  carriers.length-- */\n      dup1\n      sload\n      dup1\n      swap2\n      swap1\n      0x1\n      swap1\n      sub\n      tag_449\n      swap2\n      swap1\n      jump\t// in(tag_450)\n    tag_449:\n      pop\n        /* \"shipment.sol\":12112:12116  true */\n      0x1\n        /* \"shipment.sol\":12105:12116  return true */\n      swap4\n      pop\n        /* \"shipment.sol\":11204:12124  function deleteCarrier(uint _id) public returns(bool){\r... */\n    tag_417:\n      pop\n      pop\n      pop\n      swap2\n      swap1\n      pop\n      jump\t// out\n        /* \"shipment.sol\":5306:5411  function getStatus(uint _id) public view returns(string){\r... */\n    tag_108:\n        /* \"shipment.sol\":5355:5361  string */\n      0x60\n        /* \"shipment.sol\":5380:5389  shipments */\n      0x3\n        /* \"shipment.sol\":5394:5395  1 */\n      0x1\n        /* \"shipment.sol\":5390:5393  _id */\n      dup4\n        /* \"shipment.sol\":5390:5395  _id-1 */\n      sub\n        /* \"shipment.sol\":5380:5396  shipments[_id-1] */\n      dup2\n      sload\n      dup2\n      lt\n      iszero\n      iszero\n      tag_452\n      jumpi\n      invalid\n    tag_452:\n      swap1\n      0x0\n      mstore\n      keccak256(0x0, 0x20)\n      swap1\n      0x8\n      mul\n      add\n        /* \"shipment.sol\":5380:5403  shipments[_id-1].status */\n      0x5\n      add\n        /* \"shipment.sol\":5373:5403  return shipments[_id-1].status */\n      dup1\n      sload\n      0x1\n      dup2\n      0x1\n      and\n      iszero\n      0x100\n      mul\n      sub\n      and\n      0x2\n      swap1\n      div\n      dup1\n      0x1f\n      add\n      0x20\n      dup1\n      swap2\n      div\n      mul\n      0x20\n      add\n      mload(0x40)\n      swap1\n      dup2\n      add\n      0x40\n      mstore\n      dup1\n      swap3\n      swap2\n      swap1\n      dup2\n      dup2\n      mstore\n      0x20\n      add\n      dup3\n      dup1\n      sload\n      0x1\n      dup2\n      0x1\n      and\n      iszero\n      0x100\n      mul\n      sub\n      and\n      0x2\n      swap1\n      div\n      dup1\n      iszero\n      tag_454\n      jumpi\n      dup1\n      0x1f\n      lt\n      tag_455\n      jumpi\n      0x100\n      dup1\n      dup4\n      sload\n      div\n      mul\n      dup4\n      mstore\n      swap2\n      0x20\n      add\n      swap2\n      jump(tag_454)\n    tag_455:\n      dup3\n      add\n      swap2\n      swap1\n      0x0\n      mstore\n      keccak256(0x0, 0x20)\n      swap1\n    tag_456:\n      dup2\n      sload\n      dup2\n      mstore\n      swap1\n      0x1\n      add\n      swap1\n      0x20\n      add\n      dup1\n      dup4\n      gt\n      tag_456\n      jumpi\n      dup3\n      swap1\n      sub\n      0x1f\n      and\n      dup3\n      add\n      swap2\n    tag_454:\n      pop\n      pop\n      pop\n      pop\n      pop\n      swap1\n      pop\n        /* \"shipment.sol\":5306:5411  function getStatus(uint _id) public view returns(string){\r... */\n      swap2\n      swap1\n      pop\n      jump\t// out\n        /* \"shipment.sol\":4661:4962  function addShipment(uint _id,uint _carrier,string _from,string _to)public{\r... */\n    tag_115:\n        /* \"shipment.sol\":4812:4829  Shipment memory s */\n      tag_457\n      jump\t// in(tag_169)\n    tag_457:\n        /* \"shipment.sol\":4746:4754  carriers */\n      0x2\n        /* \"shipment.sol\":4764:4765  1 */\n      0x1\n        /* \"shipment.sol\":4755:4763  _carrier */\n      dup6\n        /* \"shipment.sol\":4755:4765  _carrier-1 */\n      sub\n        /* \"shipment.sol\":4746:4766  carriers[_carrier-1] */\n      dup2\n      sload\n      dup2\n      lt\n      iszero\n      iszero\n      tag_459\n      jumpi\n      invalid\n    tag_459:\n      swap1\n      0x0\n      mstore\n      keccak256(0x0, 0x20)\n      swap1\n      0x5\n      mul\n      add\n        /* \"shipment.sol\":4746:4776  carriers[_carrier-1].shipments */\n      0x4\n      add\n        /* \"shipment.sol\":4799:4800  1 */\n      0x1\n        /* \"shipment.sol\":4782:4791  shipments */\n      0x3\n        /* \"shipment.sol\":4782:4798  shipments.length */\n      dup1\n      sload\n      swap1\n      pop\n        /* \"shipment.sol\":4782:4800  shipments.length+1 */\n      add\n        /* \"shipment.sol\":4746:4801  carriers[_carrier-1].shipments.push(shipments.length+1) */\n      swap1\n      dup1\n        /* \"--CODEGEN--\":39:40   */\n      0x1\n        /* \"--CODEGEN--\":33:36   */\n      dup2\n        /* \"--CODEGEN--\":27:37   */\n      sload\n        /* \"--CODEGEN--\":23:41   */\n      add\n        /* \"--CODEGEN--\":57:67   */\n      dup1\n        /* \"--CODEGEN--\":52:55   */\n      dup3\n        /* \"--CODEGEN--\":45:68   */\n      sstore\n        /* \"--CODEGEN--\":79:89   */\n      dup1\n        /* \"--CODEGEN--\":72:89   */\n      swap2\n      pop\n        /* \"--CODEGEN--\":0:93   */\n      pop\n        /* \"shipment.sol\":4746:4801  carriers[_carrier-1].shipments.push(shipments.length+1) */\n      swap1\n      0x1\n      dup3\n      sub\n      swap1\n      0x0\n      mstore\n      keccak256(0x0, 0x20)\n      add\n      0x0\n      swap1\n      swap2\n      swap3\n      swap1\n      swap2\n      swap1\n      swap2\n      pop\n      sstore\n      pop\n        /* \"shipment.sol\":4831:4926  Shipment(shipments.length+1,_id,_carrier,_from,_to,\"待揽收\",block.timestamp,block.timestamp) */\n      0x100\n      mload(0x40)\n      swap1\n      dup2\n      add\n      0x40\n      mstore\n      dup1\n        /* \"shipment.sol\":4857:4858  1 */\n      0x1\n        /* \"shipment.sol\":4840:4849  shipments */\n      0x3\n        /* \"shipment.sol\":4840:4856  shipments.length */\n      dup1\n      sload\n      swap1\n      pop\n        /* \"shipment.sol\":4840:4858  shipments.length+1 */\n      add\n        /* \"shipment.sol\":4831:4926  Shipment(shipments.length+1,_id,_carrier,_from,_to,\"待揽收\",block.timestamp,block.timestamp) */\n      dup2\n      mstore\n      0x20\n      add\n        /* \"shipment.sol\":4859:4862  _id */\n      dup7\n        /* \"shipment.sol\":4831:4926  Shipment(shipments.length+1,_id,_carrier,_from,_to,\"待揽收\",block.timestamp,block.timestamp) */\n      dup2\n      mstore\n      0x20\n      add\n        /* \"shipment.sol\":4863:4871  _carrier */\n      dup6\n        /* \"shipment.sol\":4831:4926  Shipment(shipments.length+1,_id,_carrier,_from,_to,\"待揽收\",block.timestamp,block.timestamp) */\n      dup2\n      mstore\n      0x20\n      add\n        /* \"shipment.sol\":4872:4877  _from */\n      dup5\n        /* \"shipment.sol\":4831:4926  Shipment(shipments.length+1,_id,_carrier,_from,_to,\"待揽收\",block.timestamp,block.timestamp) */\n      dup2\n      mstore\n      0x20\n      add\n        /* \"shipment.sol\":4878:4881  _to */\n      dup4\n        /* \"shipment.sol\":4831:4926  Shipment(shipments.length+1,_id,_carrier,_from,_to,\"待揽收\",block.timestamp,block.timestamp) */\n      dup2\n      mstore\n      0x20\n      add\n      0x40\n      dup1\n      mload\n      swap1\n      dup2\n      add\n      0x40\n      mstore\n      dup1\n      0x9\n      dup2\n      mstore\n      0x20\n      add\n      0xe5be85e68fbde694b60000000000000000000000000000000000000000000000\n      dup2\n      mstore\n      pop\n      dup2\n      mstore\n      0x20\n      add\n        /* \"shipment.sol\":4894:4909  block.timestamp */\n      timestamp\n        /* \"shipment.sol\":4831:4926  Shipment(shipments.length+1,_id,_carrier,_from,_to,\"待揽收\",block.timestamp,block.timestamp) */\n      dup2\n      mstore\n      0x20\n      add\n        /* \"shipment.sol\":4910:4925  block.timestamp */\n      timestamp\n        /* \"shipment.sol\":4831:4926  Shipment(shipments.length+1,_id,_carrier,_from,_to,\"待揽收\",block.timestamp,block.timestamp) */\n      dup2\n      mstore\n      pop\n        /* \"shipment.sol\":4812:4926  Shipment memory s =Shipment(shipments.length+1,_id,_carrier,_from,_to,\"待揽收\",block.timestamp,block.timestamp) */\n      swap1\n      pop\n        /* \"shipment.sol\":4937:4946  shipments */\n      0x3\n        /* \"shipment.sol\":4952:4953  s */\n      dup2\n        /* \"shipment.sol\":4937:4954  shipments.push(s) */\n      swap1\n      dup1\n        /* \"--CODEGEN--\":39:40   */\n      0x1\n        /* \"--CODEGEN--\":33:36   */\n      dup2\n        /* \"--CODEGEN--\":27:37   */\n      sload\n        /* \"--CODEGEN--\":23:41   */\n      add\n        /* \"--CODEGEN--\":57:67   */\n      dup1\n        /* \"--CODEGEN--\":52:55   */\n      dup3\n        /* \"--CODEGEN--\":45:68   */\n      sstore\n        /* \"--CODEGEN--\":79:89   */\n      dup1\n        /* \"--CODEGEN--\":72:89   */\n      swap2\n      pop\n        /* \"--CODEGEN--\":0:93   */\n      pop\n        /* \"shipment.sol\":4937:4954  shipments.push(s) */\n      swap1\n      0x1\n      dup3\n      sub\n      swap1\n      0x0\n      mstore\n      keccak256(0x0, 0x20)\n      swap1\n      0x8\n      mul\n      add\n      0x0\n      swap1\n      swap2\n      swap3\n      swap1\n      swap2\n      swap1\n      swap2\n      pop\n      0x0\n      dup3\n      add\n      mload\n      dup2\n      0x0\n      add\n      sstore\n      0x20\n      dup3\n      add\n      mload\n      dup2\n      0x1\n      add\n      sstore\n      0x40\n      dup3\n      add\n      mload\n      dup2\n      0x2\n      add\n      sstore\n      0x60\n      dup3\n      add\n      mload\n      dup2\n      0x3\n      add\n      swap1\n      dup1\n      mload\n      swap1\n      0x20\n      add\n      swap1\n      tag_463\n      swap3\n      swap2\n      swap1\n      jump\t// in(tag_33)\n    tag_463:\n      pop\n      0x80\n      dup3\n      add\n      mload\n      dup2\n      0x4\n      add\n      swap1\n      dup1\n      mload\n      swap1\n      0x20\n      add\n      swap1\n      tag_464\n      swap3\n      swap2\n      swap1\n      jump\t// in(tag_33)\n    tag_464:\n      pop\n      0xa0\n      dup3\n      add\n      mload\n      dup2\n      0x5\n      add\n      swap1\n      dup1\n      mload\n      swap1\n      0x20\n      add\n      swap1\n      tag_465\n      swap3\n      swap2\n      swap1\n      jump\t// in(tag_33)\n    tag_465:\n      pop\n      0xc0\n      dup3\n      add\n      mload\n      dup2\n      0x6\n      add\n      sstore\n      0xe0\n      dup3\n      add\n      mload\n      dup2\n      0x7\n      add\n      sstore\n      pop\n      pop\n      pop\n        /* \"shipment.sol\":4661:4962  function addShipment(uint _id,uint _carrier,string _from,string _to)public{\r... */\n      pop\n      pop\n      pop\n      pop\n      pop\n      jump\t// out\n        /* \"shipment.sol\":4994:5274  function updateShipment(uint carrier_id,uint shipment_id,string _status)public{\r... */\n    tag_120:\n        /* \"shipment.sol\":5121:5131  carrier_id */\n      dup3\n        /* \"shipment.sol\":5087:5096  shipments */\n      0x3\n        /* \"shipment.sol\":5109:5110  1 */\n      0x1\n        /* \"shipment.sol\":5097:5108  shipment_id */\n      dup5\n        /* \"shipment.sol\":5097:5110  shipment_id-1 */\n      sub\n        /* \"shipment.sol\":5087:5111  shipments[shipment_id-1] */\n      dup2\n      sload\n      dup2\n      lt\n      iszero\n      iszero\n      tag_467\n      jumpi\n      invalid\n    tag_467:\n      swap1\n      0x0\n      mstore\n      keccak256(0x0, 0x20)\n      swap1\n      0x8\n      mul\n      add\n        /* \"shipment.sol\":5087:5119  shipments[shipment_id-1].carrier */\n      0x2\n      add\n      sload\n        /* \"shipment.sol\":5087:5131  shipments[shipment_id-1].carrier==carrier_id */\n      eq\n        /* \"shipment.sol\":5083:5267  if (shipments[shipment_id-1].carrier==carrier_id){\r... */\n      iszero\n      tag_469\n      jumpi\n        /* \"shipment.sol\":5180:5187  _status */\n      dup1\n        /* \"shipment.sol\":5147:5156  shipments */\n      0x3\n        /* \"shipment.sol\":5169:5170  1 */\n      0x1\n        /* \"shipment.sol\":5157:5168  shipment_id */\n      dup5\n        /* \"shipment.sol\":5157:5170  shipment_id-1 */\n      sub\n        /* \"shipment.sol\":5147:5171  shipments[shipment_id-1] */\n      dup2\n      sload\n      dup2\n      lt\n      iszero\n      iszero\n      tag_470\n      jumpi\n      invalid\n    tag_470:\n      swap1\n      0x0\n      mstore\n      keccak256(0x0, 0x20)\n      swap1\n      0x8\n      mul\n      add\n        /* \"shipment.sol\":5147:5178  shipments[shipment_id-1].status */\n      0x5\n      add\n        /* \"shipment.sol\":5147:5187  shipments[shipment_id-1].status =_status */\n      swap1\n      dup1\n      mload\n      swap1\n      0x20\n      add\n      swap1\n      tag_472\n      swap3\n      swap2\n      swap1\n      jump\t// in(tag_334)\n    tag_472:\n      pop\n        /* \"shipment.sol\":5240:5255  block.timestamp */\n      timestamp\n        /* \"shipment.sol\":5202:5211  shipments */\n      0x3\n        /* \"shipment.sol\":5224:5225  1 */\n      0x1\n        /* \"shipment.sol\":5212:5223  shipment_id */\n      dup5\n        /* \"shipment.sol\":5212:5225  shipment_id-1 */\n      sub\n        /* \"shipment.sol\":5202:5226  shipments[shipment_id-1] */\n      dup2\n      sload\n      dup2\n      lt\n      iszero\n      iszero\n      tag_473\n      jumpi\n      invalid\n    tag_473:\n      swap1\n      0x0\n      mstore\n      keccak256(0x0, 0x20)\n      swap1\n      0x8\n      mul\n      add\n        /* \"shipment.sol\":5202:5237  shipments[shipment_id-1].updateTime */\n      0x7\n      add\n        /* \"shipment.sol\":5202:5255  shipments[shipment_id-1].updateTime = block.timestamp */\n      dup2\n      swap1\n      sstore\n      pop\n        /* \"shipment.sol\":5083:5267  if (shipments[shipment_id-1].carrier==carrier_id){\r... */\n    tag_469:\n        /* \"shipment.sol\":4994:5274  function updateShipment(uint carrier_id,uint shipment_id,string _status)public{\r... */\n      pop\n      pop\n      pop\n      jump\t// out\n        /* \"shipment.sol\":8156:8391  function getUserById(uint _id) public view returns(uint,string,string){\r... */\n    tag_124:\n        /* \"shipment.sol\":8207:8211  uint */\n      0x0\n        /* \"shipment.sol\":8212:8218  string */\n      0x60\n        /* \"shipment.sol\":8219:8225  string */\n      dup1\n        /* \"shipment.sol\":8313:8326  User memory u */\n      tag_475\n      jump\t// in(tag_163)\n    tag_475:\n        /* \"shipment.sol\":8251:8252  0 */\n      0x0\n        /* \"shipment.sol\":8245:8248  _id */\n      dup6\n        /* \"shipment.sol\":8245:8252  _id > 0 */\n      gt\n        /* \"shipment.sol\":8245:8275  _id > 0 && _id <= users.length */\n      dup1\n      iszero\n      tag_477\n      jumpi\n      pop\n        /* \"shipment.sol\":8263:8268  users */\n      0x1\n        /* \"shipment.sol\":8263:8275  users.length */\n      dup1\n      sload\n      swap1\n      pop\n        /* \"shipment.sol\":8256:8259  _id */\n      dup6\n        /* \"shipment.sol\":8256:8275  _id <= users.length */\n      gt\n      iszero\n        /* \"shipment.sol\":8245:8275  _id > 0 && _id <= users.length */\n    tag_477:\n        /* \"shipment.sol\":8237:8302  require(_id > 0 && _id <= users.length, \"User ID does not exist\") */\n      iszero\n      iszero\n      tag_478\n      jumpi\n      mload(0x40)\n      0x8c379a000000000000000000000000000000000000000000000000000000000\n      dup2\n      mstore\n      0x4\n      add\n      tag_479\n      swap1\n      jump(tag_263)\n    tag_479:\n      mload(0x40)\n      dup1\n      swap2\n      sub\n      swap1\n      revert\n    tag_478:\n        /* \"shipment.sol\":8329:8334  users */\n      0x1\n        /* \"shipment.sol\":8339:8340  1 */\n      dup1\n        /* \"shipment.sol\":8335:8338  _id */\n      dup7\n        /* \"shipment.sol\":8335:8340  _id-1 */\n      sub\n        /* \"shipment.sol\":8329:8341  users[_id-1] */\n      dup2\n      sload\n      dup2\n      lt\n      iszero\n      iszero\n      tag_480\n      jumpi\n      invalid\n    tag_480:\n      swap1\n      0x0\n      mstore\n      keccak256(0x0, 0x20)\n      swap1\n      0x3\n      mul\n      add\n        /* \"shipment.sol\":8313:8341  User memory u = users[_id-1] */\n      0x60\n      mload(0x40)\n      swap1\n      dup2\n      add\n      0x40\n      mstore\n      swap1\n      dup2\n      0x0\n      dup3\n      add\n      sload\n      dup2\n      mstore\n      0x20\n      add\n      0x1\n      dup3\n      add\n      dup1\n      sload\n      0x1\n      dup2\n      0x1\n      and\n      iszero\n      0x100\n      mul\n      sub\n      and\n      0x2\n      swap1\n      div\n      dup1\n      0x1f\n      add\n      0x20\n      dup1\n      swap2\n      div\n      mul\n      0x20\n      add\n      mload(0x40)\n      swap1\n      dup2\n      add\n      0x40\n      mstore\n      dup1\n      swap3\n      swap2\n      swap1\n      dup2\n      dup2\n      mstore\n      0x20\n      add\n      dup3\n      dup1\n      sload\n      0x1\n      dup2\n      0x1\n      and\n      iszero\n      0x100\n      mul\n      sub\n      and\n      0x2\n      swap1\n      div\n      dup1\n      iszero\n      tag_482\n      jumpi\n      dup1\n      0x1f\n      lt\n      tag_483\n      jumpi\n      0x100\n      dup1\n      dup4\n      sload\n      div\n      mul\n      dup4\n      mstore\n      swap2\n      0x20\n      add\n      swap2\n      jump(tag_482)\n    tag_483:\n      dup3\n      add\n      swap2\n      swap1\n      0x0\n      mstore\n      keccak256(0x0, 0x20)\n      swap1\n    tag_484:\n      dup2\n      sload\n      dup2\n      mstore\n      swap1\n      0x1\n      add\n      swap1\n      0x20\n      add\n      dup1\n      dup4\n      gt\n      tag_484\n      jumpi\n      dup3\n      swap1\n      sub\n      0x1f\n      and\n      dup3\n      add\n      swap2\n    tag_482:\n      pop\n      pop\n      pop\n      pop\n      pop\n      dup2\n      mstore\n      0x20\n      add\n      0x2\n      dup3\n      add\n      dup1\n      sload\n      0x1\n      dup2\n      0x1\n      and\n      iszero\n      0x100\n      mul\n      sub\n      and\n      0x2\n      swap1\n      div\n      dup1\n      0x1f\n      add\n      0x20\n      dup1\n      swap2\n      div\n      mul\n      0x20\n      add\n      mload(0x40)\n      swap1\n      dup2\n      add\n      0x40\n      mstore\n      dup1\n      swap3\n      swap2\n      swap1\n      dup2\n      dup2\n      mstore\n      0x20\n      add\n      dup3\n      dup1\n      sload\n      0x1\n      dup2\n      0x1\n      and\n      iszero\n      0x100\n      mul\n      sub\n      and\n      0x2\n      swap1\n      div\n      dup1\n      iszero\n      tag_485\n      jumpi\n      dup1\n      0x1f\n      lt\n      tag_486\n      jumpi\n      0x100\n      dup1\n      dup4\n      sload\n      div\n      mul\n      dup4\n      mstore\n      swap2\n      0x20\n      add\n      swap2\n      jump(tag_485)\n    tag_486:\n      dup3\n      add\n      swap2\n      swap1\n      0x0\n      mstore\n      keccak256(0x0, 0x20)\n      swap1\n    tag_487:\n      dup2\n      sload\n      dup2\n      mstore\n      swap1\n      0x1\n      add\n      swap1\n      0x20\n      add\n      dup1\n      dup4\n      gt\n      tag_487\n      jumpi\n      dup3\n      swap1\n      sub\n      0x1f\n      and\n      dup3\n      add\n      swap2\n    tag_485:\n      pop\n      pop\n      pop\n      pop\n      pop\n      dup2\n      mstore\n      pop\n      pop\n      swap1\n      pop\n        /* \"shipment.sol\":8360:8361  u */\n      dup1\n        /* \"shipment.sol\":8360:8364  u.id */\n      0x0\n      add\n      mload\n        /* \"shipment.sol\":8366:8367  u */\n      dup2\n        /* \"shipment.sol\":8366:8372  u.name */\n      0x20\n      add\n      mload\n        /* \"shipment.sol\":8374:8375  u */\n      dup3\n        /* \"shipment.sol\":8374:8382  u.passwd */\n      0x40\n      add\n      mload\n        /* \"shipment.sol\":8352:8383  return (u.id, u.name, u.passwd) */\n      dup2\n      swap2\n      pop\n      dup1\n      swap1\n      pop\n      swap4\n      pop\n      swap4\n      pop\n      swap4\n      pop\n        /* \"shipment.sol\":8156:8391  function getUserById(uint _id) public view returns(uint,string,string){\r... */\n      pop\n      swap2\n      swap4\n      swap1\n      swap3\n      pop\n      jump\t// out\n        /* \"shipment.sol\":9639:10269  function getAllCarriers() public view returns(uint[], string[], string[], string[]){\r... */\n    tag_129:\n        /* \"shipment.sol\":9685:9691  uint[] */\n      0x60\n        /* \"shipment.sol\":9693:9701  string[] */\n      dup1\n        /* \"shipment.sol\":9703:9711  string[] */\n      0x60\n        /* \"shipment.sol\":9713:9721  string[] */\n      dup1\n        /* \"shipment.sol\":9733:9750  uint[] memory ids */\n      0x60\n        /* \"shipment.sol\":9791:9812  string[] memory names */\n      dup1\n        /* \"shipment.sol\":9855:9876  string[] memory infos */\n      0x60\n        /* \"shipment.sol\":9919:9942  string[] memory passwds */\n      dup1\n        /* \"shipment.sol\":9999:10005  uint u */\n      0x0\n        /* \"shipment.sol\":9764:9772  carriers */\n      0x2\n        /* \"shipment.sol\":9764:9779  carriers.length */\n      dup1\n      sload\n      swap1\n      pop\n        /* \"shipment.sol\":9753:9780  new uint[](carriers.length) */\n      mload(0x40)\n      swap1\n      dup1\n      dup3\n      mstore\n      dup1\n      0x20\n      mul\n      0x20\n      add\n      dup3\n      add\n      0x40\n      mstore\n      dup1\n      iszero\n      tag_489\n      jumpi\n      dup2\n      0x20\n      add\n        /* \"--CODEGEN--\":29:31   */\n      0x20\n        /* \"--CODEGEN--\":21:27   */\n      dup3\n        /* \"--CODEGEN--\":17:32   */\n      mul\n        /* \"--CODEGEN--\":117:121   */\n      dup1\n        /* \"--CODEGEN--\":105:115   */\n      codesize\n        /* \"--CODEGEN--\":97:103   */\n      dup4\n        /* \"--CODEGEN--\":88:122   */\n      codecopy\n        /* \"--CODEGEN--\":148:152   */\n      dup1\n        /* \"--CODEGEN--\":140:146   */\n      dup3\n        /* \"--CODEGEN--\":136:153   */\n      add\n        /* \"--CODEGEN--\":126:153   */\n      swap2\n      pop\n        /* \"--CODEGEN--\":0:157   */\n      pop\n        /* \"shipment.sol\":9753:9780  new uint[](carriers.length) */\n      swap1\n      pop\n    tag_489:\n      pop\n        /* \"shipment.sol\":9733:9780  uint[] memory ids = new uint[](carriers.length) */\n      swap5\n      pop\n        /* \"shipment.sol\":9828:9836  carriers */\n      0x2\n        /* \"shipment.sol\":9828:9843  carriers.length */\n      dup1\n      sload\n      swap1\n      pop\n        /* \"shipment.sol\":9815:9844  new string[](carriers.length) */\n      mload(0x40)\n      swap1\n      dup1\n      dup3\n      mstore\n      dup1\n      0x20\n      mul\n      0x20\n      add\n      dup3\n      add\n      0x40\n      mstore\n      dup1\n      iszero\n      tag_490\n      jumpi\n      dup2\n      0x20\n      add\n    tag_491:\n      0x60\n      dup2\n      mstore\n      0x20\n      add\n      swap1\n      0x1\n      swap1\n      sub\n      swap1\n      dup2\n      tag_491\n      jumpi\n      swap1\n      pop\n    tag_490:\n      pop\n        /* \"shipment.sol\":9791:9844  string[] memory names = new string[](carriers.length) */\n      swap4\n      pop\n        /* \"shipment.sol\":9892:9900  carriers */\n      0x2\n        /* \"shipment.sol\":9892:9907  carriers.length */\n      dup1\n      sload\n      swap1\n      pop\n        /* \"shipment.sol\":9879:9908  new string[](carriers.length) */\n      mload(0x40)\n      swap1\n      dup1\n      dup3\n      mstore\n      dup1\n      0x20\n      mul\n      0x20\n      add\n      dup3\n      add\n      0x40\n      mstore\n      dup1\n      iszero\n      tag_492\n      jumpi\n      dup2\n      0x20\n      add\n    tag_493:\n      0x60\n      dup2\n      mstore\n      0x20\n      add\n      swap1\n      0x1\n      swap1\n      sub\n      swap1\n      dup2\n      tag_493\n      jumpi\n      swap1\n      pop\n    tag_492:\n      pop\n        /* \"shipment.sol\":9855:9908  string[] memory infos = new string[](carriers.length) */\n      swap3\n      pop\n        /* \"shipment.sol\":9958:9966  carriers */\n      0x2\n        /* \"shipment.sol\":9958:9973  carriers.length */\n      dup1\n      sload\n      swap1\n      pop\n        /* \"shipment.sol\":9945:9974  new string[](carriers.length) */\n      mload(0x40)\n      swap1\n      dup1\n      dup3\n      mstore\n      dup1\n      0x20\n      mul\n      0x20\n      add\n      dup3\n      add\n      0x40\n      mstore\n      dup1\n      iszero\n      tag_494\n      jumpi\n      dup2\n      0x20\n      add\n    tag_495:\n      0x60\n      dup2\n      mstore\n      0x20\n      add\n      swap1\n      0x1\n      swap1\n      sub\n      swap1\n      dup2\n      tag_495\n      jumpi\n      swap1\n      pop\n    tag_494:\n      pop\n        /* \"shipment.sol\":9919:9974  string[] memory passwds = new string[](carriers.length) */\n      swap2\n      pop\n        /* \"shipment.sol\":10008:10009  0 */\n      0x0\n        /* \"shipment.sol\":9999:10009  uint u = 0 */\n      swap1\n      pop\n        /* \"shipment.sol\":9995:10216  for(uint u = 0; u < carriers.length; u++){\r... */\n    tag_496:\n        /* \"shipment.sol\":10015:10023  carriers */\n      0x2\n        /* \"shipment.sol\":10015:10030  carriers.length */\n      dup1\n      sload\n      swap1\n      pop\n        /* \"shipment.sol\":10011:10012  u */\n      dup2\n        /* \"shipment.sol\":10011:10030  u < carriers.length */\n      lt\n        /* \"shipment.sol\":9995:10216  for(uint u = 0; u < carriers.length; u++){\r... */\n      iszero\n      tag_497\n      jumpi\n        /* \"shipment.sol\":10060:10068  carriers */\n      0x2\n        /* \"shipment.sol\":10069:10070  u */\n      dup2\n        /* \"shipment.sol\":10060:10071  carriers[u] */\n      dup2\n      sload\n      dup2\n      lt\n      iszero\n      iszero\n      tag_499\n      jumpi\n      invalid\n    tag_499:\n      swap1\n      0x0\n      mstore\n      keccak256(0x0, 0x20)\n      swap1\n      0x5\n      mul\n      add\n        /* \"shipment.sol\":10060:10074  carriers[u].id */\n      0x0\n      add\n      sload\n        /* \"shipment.sol\":10051:10054  ids */\n      dup6\n        /* \"shipment.sol\":10055:10056  u */\n      dup3\n        /* \"shipment.sol\":10051:10057  ids[u] */\n      dup2\n      mload\n      dup2\n      lt\n      iszero\n      iszero\n      tag_501\n      jumpi\n      invalid\n    tag_501:\n      swap1\n      0x20\n      add\n      swap1\n      0x20\n      mul\n      add\n        /* \"shipment.sol\":10051:10074  ids[u] = carriers[u].id */\n      dup2\n      dup2\n      mstore\n      pop\n      pop\n        /* \"shipment.sol\":10100:10108  carriers */\n      0x2\n        /* \"shipment.sol\":10109:10110  u */\n      dup2\n        /* \"shipment.sol\":10100:10111  carriers[u] */\n      dup2\n      sload\n      dup2\n      lt\n      iszero\n      iszero\n      tag_502\n      jumpi\n      invalid\n    tag_502:\n      swap1\n      0x0\n      mstore\n      keccak256(0x0, 0x20)\n      swap1\n      0x5\n      mul\n      add\n        /* \"shipment.sol\":10100:10116  carriers[u].name */\n      0x1\n      add\n        /* \"shipment.sol\":10089:10116  names[u] = carriers[u].name */\n      dup1\n      sload\n      0x1\n      dup2\n      0x1\n      and\n      iszero\n      0x100\n      mul\n      sub\n      and\n      0x2\n      swap1\n      div\n      dup1\n      0x1f\n      add\n      0x20\n      dup1\n      swap2\n      div\n      mul\n      0x20\n      add\n      mload(0x40)\n      swap1\n      dup2\n      add\n      0x40\n      mstore\n      dup1\n      swap3\n      swap2\n      swap1\n      dup2\n      dup2\n      mstore\n      0x20\n      add\n      dup3\n      dup1\n      sload\n      0x1\n      dup2\n      0x1\n      and\n      iszero\n      0x100\n      mul\n      sub\n      and\n      0x2\n      swap1\n      div\n      dup1\n      iszero\n      tag_504\n      jumpi\n      dup1\n      0x1f\n      lt\n      tag_505\n      jumpi\n      0x100\n      dup1\n      dup4\n      sload\n      div\n      mul\n      dup4\n      mstore\n      swap2\n      0x20\n      add\n      swap2\n      jump(tag_504)\n    tag_505:\n      dup3\n      add\n      swap2\n      swap1\n      0x0\n      mstore\n      keccak256(0x0, 0x20)\n      swap1\n    tag_506:\n      dup2\n      sload\n      dup2\n      mstore\n      swap1\n      0x1\n      add\n      swap1\n      0x20\n      add\n      dup1\n      dup4\n      gt\n      tag_506\n      jumpi\n      dup3\n      swap1\n      sub\n      0x1f\n      and\n      dup3\n      add\n      swap2\n    tag_504:\n      pop\n      pop\n      pop\n      pop\n      pop\n        /* \"shipment.sol\":10089:10094  names */\n      dup5\n        /* \"shipment.sol\":10095:10096  u */\n      dup3\n        /* \"shipment.sol\":10089:10097  names[u] */\n      dup2\n      mload\n      dup2\n      lt\n      iszero\n      iszero\n      tag_507\n      jumpi\n      invalid\n    tag_507:\n      swap1\n      0x20\n      add\n      swap1\n      0x20\n      mul\n      add\n        /* \"shipment.sol\":10089:10116  names[u] = carriers[u].name */\n      dup2\n      swap1\n      mstore\n      pop\n        /* \"shipment.sol\":10142:10150  carriers */\n      0x2\n        /* \"shipment.sol\":10151:10152  u */\n      dup2\n        /* \"shipment.sol\":10142:10153  carriers[u] */\n      dup2\n      sload\n      dup2\n      lt\n      iszero\n      iszero\n      tag_508\n      jumpi\n      invalid\n    tag_508:\n      swap1\n      0x0\n      mstore\n      keccak256(0x0, 0x20)\n      swap1\n      0x5\n      mul\n      add\n        /* \"shipment.sol\":10142:10158  carriers[u].info */\n      0x2\n      add\n        /* \"shipment.sol\":10131:10158  infos[u] = carriers[u].info */\n      dup1\n      sload\n      0x1\n      dup2\n      0x1\n      and\n      iszero\n      0x100\n      mul\n      sub\n      and\n      0x2\n      swap1\n      div\n      dup1\n      0x1f\n      add\n      0x20\n      dup1\n      swap2\n      div\n      mul\n      0x20\n      add\n      mload(0x40)\n      swap1\n      dup2\n      add\n      0x40\n      mstore\n      dup1\n      swap3\n      swap2\n      swap1\n      dup2\n      dup2\n      mstore\n      0x20\n      add\n      dup3\n      dup1\n      sload\n      0x1\n      dup2\n      0x1\n      and\n      iszero\n      0x100\n      mul\n      sub\n      and\n      0x2\n      swap1\n      div\n      dup1\n      iszero\n      tag_510\n      jumpi\n      dup1\n      0x1f\n      lt\n      tag_511\n      jumpi\n      0x100\n      dup1\n      dup4\n      sload\n      div\n      mul\n      dup4\n      mstore\n      swap2\n      0x20\n      add\n      swap2\n      jump(tag_510)\n    tag_511:\n      dup3\n      add\n      swap2\n      swap1\n      0x0\n      mstore\n      keccak256(0x0, 0x20)\n      swap1\n    tag_512:\n      dup2\n      sload\n      dup2\n      mstore\n      swap1\n      0x1\n      add\n      swap1\n      0x20\n      add\n      dup1\n      dup4\n      gt\n      tag_512\n      jumpi\n      dup3\n      swap1\n      sub\n      0x1f\n      and\n      dup3\n      add\n      swap2\n    tag_510:\n      pop\n      pop\n      pop\n      pop\n      pop\n        /* \"shipment.sol\":10131:10136  infos */\n      dup4\n        /* \"shipment.sol\":10137:10138  u */\n      dup3\n        /* \"shipment.sol\":10131:10139  infos[u] */\n      dup2\n      mload\n      dup2\n      lt\n      iszero\n      iszero\n      tag_513\n      jumpi\n      invalid\n    tag_513:\n      swap1\n      0x20\n      add\n      swap1\n      0x20\n      mul\n      add\n        /* \"shipment.sol\":10131:10158  infos[u] = carriers[u].info */\n      dup2\n      swap1\n      mstore\n      pop\n        /* \"shipment.sol\":10186:10194  carriers */\n      0x2\n        /* \"shipment.sol\":10195:10196  u */\n      dup2\n        /* \"shipment.sol\":10186:10197  carriers[u] */\n      dup2\n      sload\n      dup2\n      lt\n      iszero\n      iszero\n      tag_514\n      jumpi\n      invalid\n    tag_514:\n      swap1\n      0x0\n      mstore\n      keccak256(0x0, 0x20)\n      swap1\n      0x5\n      mul\n      add\n        /* \"shipment.sol\":10186:10204  carriers[u].passwd */\n      0x3\n      add\n        /* \"shipment.sol\":10173:10204  passwds[u] = carriers[u].passwd */\n      dup1\n      sload\n      0x1\n      dup2\n      0x1\n      and\n      iszero\n      0x100\n      mul\n      sub\n      and\n      0x2\n      swap1\n      div\n      dup1\n      0x1f\n      add\n      0x20\n      dup1\n      swap2\n      div\n      mul\n      0x20\n      add\n      mload(0x40)\n      swap1\n      dup2\n      add\n      0x40\n      mstore\n      dup1\n      swap3\n      swap2\n      swap1\n      dup2\n      dup2\n      mstore\n      0x20\n      add\n      dup3\n      dup1\n      sload\n      0x1\n      dup2\n      0x1\n      and\n      iszero\n      0x100\n      mul\n      sub\n      and\n      0x2\n      swap1\n      div\n      dup1\n      iszero\n      tag_516\n      jumpi\n      dup1\n      0x1f\n      lt\n      tag_517\n      jumpi\n      0x100\n      dup1\n      dup4\n      sload\n      div\n      mul\n      dup4\n      mstore\n      swap2\n      0x20\n      add\n      swap2\n      jump(tag_516)\n    tag_517:\n      dup3\n      add\n      swap2\n      swap1\n      0x0\n      mstore\n      keccak256(0x0, 0x20)\n      swap1\n    tag_518:\n      dup2\n      sload\n      dup2\n      mstore\n      swap1\n      0x1\n      add\n      swap1\n      0x20\n      add\n      dup1\n      dup4\n      gt\n      tag_518\n      jumpi\n      dup3\n      swap1\n      sub\n      0x1f\n      and\n      dup3\n      add\n      swap2\n    tag_516:\n      pop\n      pop\n      pop\n      pop\n      pop\n        /* \"shipment.sol\":10173:10180  passwds */\n      dup3\n        /* \"shipment.sol\":10181:10182  u */\n      dup3\n        /* \"shipment.sol\":10173:10183  passwds[u] */\n      dup2\n      mload\n      dup2\n      lt\n      iszero\n      iszero\n      tag_519\n      jumpi\n      invalid\n    tag_519:\n      swap1\n      0x20\n      add\n      swap1\n      0x20\n      mul\n      add\n        /* \"shipment.sol\":10173:10204  passwds[u] = carriers[u].passwd */\n      dup2\n      swap1\n      mstore\n      pop\n        /* \"shipment.sol\":10032:10035  u++ */\n      dup1\n      dup1\n      0x1\n      add\n      swap2\n      pop\n      pop\n        /* \"shipment.sol\":9995:10216  for(uint u = 0; u < carriers.length; u++){\r... */\n      jump(tag_496)\n    tag_497:\n        /* \"shipment.sol\":10234:10237  ids */\n      dup5\n        /* \"shipment.sol\":10239:10244  names */\n      dup5\n        /* \"shipment.sol\":10246:10251  infos */\n      dup5\n        /* \"shipment.sol\":10253:10260  passwds */\n      dup5\n        /* \"shipment.sol\":10226:10261  return (ids, names, infos, passwds) */\n      swap9\n      pop\n      swap9\n      pop\n      swap9\n      pop\n      swap9\n      pop\n        /* \"shipment.sol\":9639:10269  function getAllCarriers() public view returns(uint[], string[], string[], string[]){\r... */\n      pop\n      pop\n      pop\n      pop\n      pop\n      swap1\n      swap2\n      swap3\n      swap4\n      jump\t// out\n        /* \"shipment.sol\":2058:2295  function updateUserPassword(uint _id, string _newPasswd) public returns(bool){\r... */\n    tag_135:\n        /* \"shipment.sol\":2130:2134  bool */\n      0x0\n        /* \"shipment.sol\":2155:2156  0 */\n      dup1\n        /* \"shipment.sol\":2149:2152  _id */\n      dup4\n        /* \"shipment.sol\":2149:2156  _id > 0 */\n      gt\n        /* \"shipment.sol\":2149:2179  _id > 0 && _id <= users.length */\n      dup1\n      iszero\n      tag_521\n      jumpi\n      pop\n        /* \"shipment.sol\":2167:2172  users */\n      0x1\n        /* \"shipment.sol\":2167:2179  users.length */\n      dup1\n      sload\n      swap1\n      pop\n        /* \"shipment.sol\":2160:2163  _id */\n      dup4\n        /* \"shipment.sol\":2160:2179  _id <= users.length */\n      gt\n      iszero\n        /* \"shipment.sol\":2149:2179  _id > 0 && _id <= users.length */\n    tag_521:\n        /* \"shipment.sol\":2146:2265  if(_id > 0 && _id <= users.length){\r... */\n      iszero\n      tag_522\n      jumpi\n        /* \"shipment.sol\":2217:2227  _newPasswd */\n      dup2\n        /* \"shipment.sol\":2195:2200  users */\n      0x1\n        /* \"shipment.sol\":2205:2206  1 */\n      dup1\n        /* \"shipment.sol\":2201:2204  _id */\n      dup6\n        /* \"shipment.sol\":2201:2206  _id-1 */\n      sub\n        /* \"shipment.sol\":2195:2207  users[_id-1] */\n      dup2\n      sload\n      dup2\n      lt\n      iszero\n      iszero\n      tag_523\n      jumpi\n      invalid\n    tag_523:\n      swap1\n      0x0\n      mstore\n      keccak256(0x0, 0x20)\n      swap1\n      0x3\n      mul\n      add\n        /* \"shipment.sol\":2195:2214  users[_id-1].passwd */\n      0x2\n      add\n        /* \"shipment.sol\":2195:2227  users[_id-1].passwd = _newPasswd */\n      swap1\n      dup1\n      mload\n      swap1\n      0x20\n      add\n      swap1\n      tag_525\n      swap3\n      swap2\n      swap1\n      jump\t// in(tag_334)\n    tag_525:\n      pop\n        /* \"shipment.sol\":2249:2253  true */\n      0x1\n        /* \"shipment.sol\":2242:2253  return true */\n      swap1\n      pop\n      jump(tag_520)\n        /* \"shipment.sol\":2146:2265  if(_id > 0 && _id <= users.length){\r... */\n    tag_522:\n        /* \"shipment.sol\":2282:2287  false */\n      0x0\n        /* \"shipment.sol\":2275:2287  return false */\n      swap1\n      pop\n        /* \"shipment.sol\":2058:2295  function updateUserPassword(uint _id, string _newPasswd) public returns(bool){\r... */\n    tag_520:\n      swap3\n      swap2\n      pop\n      pop\n      jump\t// out\n        /* \"shipment.sol\":10318:10583  function getCarrierById(uint _id) public view returns(uint,string,string,string){\r... */\n    tag_140:\n        /* \"shipment.sol\":10372:10376  uint */\n      0x0\n        /* \"shipment.sol\":10377:10383  string */\n      0x60\n        /* \"shipment.sol\":10384:10390  string */\n      dup1\n        /* \"shipment.sol\":10391:10397  string */\n      0x60\n        /* \"shipment.sol\":10491:10507  Carrier memory c */\n      tag_526\n      jump\t// in(tag_302)\n    tag_526:\n        /* \"shipment.sol\":10423:10424  0 */\n      0x0\n        /* \"shipment.sol\":10417:10420  _id */\n      dup7\n        /* \"shipment.sol\":10417:10424  _id > 0 */\n      gt\n        /* \"shipment.sol\":10417:10450  _id > 0 && _id <= carriers.length */\n      dup1\n      iszero\n      tag_528\n      jumpi\n      pop\n        /* \"shipment.sol\":10435:10443  carriers */\n      0x2\n        /* \"shipment.sol\":10435:10450  carriers.length */\n      dup1\n      sload\n      swap1\n      pop\n        /* \"shipment.sol\":10428:10431  _id */\n      dup7\n        /* \"shipment.sol\":10428:10450  _id <= carriers.length */\n      gt\n      iszero\n        /* \"shipment.sol\":10417:10450  _id > 0 && _id <= carriers.length */\n    tag_528:\n        /* \"shipment.sol\":10409:10480  require(_id > 0 && _id <= carriers.length, \"Carrier ID does not exist\") */\n      iszero\n      iszero\n      tag_529\n      jumpi\n      mload(0x40)\n      0x8c379a000000000000000000000000000000000000000000000000000000000\n      dup2\n      mstore\n      0x4\n      add\n      tag_530\n      swap1\n      jump(tag_410)\n    tag_530:\n      mload(0x40)\n      dup1\n      swap2\n      sub\n      swap1\n      revert\n    tag_529:\n        /* \"shipment.sol\":10510:10518  carriers */\n      0x2\n        /* \"shipment.sol\":10523:10524  1 */\n      0x1\n        /* \"shipment.sol\":10519:10522  _id */\n      dup8\n        /* \"shipment.sol\":10519:10524  _id-1 */\n      sub\n        /* \"shipment.sol\":10510:10525  carriers[_id-1] */\n      dup2\n      sload\n      dup2\n      lt\n      iszero\n      iszero\n      tag_531\n      jumpi\n      invalid\n    tag_531:\n      swap1\n      0x0\n      mstore\n      keccak256(0x0, 0x20)\n      swap1\n      0x5\n      mul\n      add\n        /* \"shipment.sol\":10491:10525  Carrier memory c = carriers[_id-1] */\n      0xa0\n      mload(0x40)\n      swap1\n      dup2\n      add\n      0x40\n      mstore\n      swap1\n      dup2\n      0x0\n      dup3\n      add\n      sload\n      dup2\n      mstore\n      0x20\n      add\n      0x1\n      dup3\n      add\n      dup1\n      sload\n      0x1\n      dup2\n      0x1\n      and\n      iszero\n      0x100\n      mul\n      sub\n      and\n      0x2\n      swap1\n      div\n      dup1\n      0x1f\n      add\n      0x20\n      dup1\n      swap2\n      div\n      mul\n      0x20\n      add\n      mload(0x40)\n      swap1\n      dup2\n      add\n      0x40\n      mstore\n      dup1\n      swap3\n      swap2\n      swap1\n      dup2\n      dup2\n      mstore\n      0x20\n      add\n      dup3\n      dup1\n      sload\n      0x1\n      dup2\n      0x1\n      and\n      iszero\n      0x100\n      mul\n      sub\n      and\n      0x2\n      swap1\n      div\n      dup1\n      iszero\n      tag_533\n      jumpi\n      dup1\n      0x1f\n      lt\n      tag_534\n      jumpi\n      0x100\n      dup1\n      dup4\n      sload\n      div\n      mul\n      dup4\n      mstore\n      swap2\n      0x20\n      add\n      swap2\n      jump(tag_533)\n    tag_534:\n      dup3\n      add\n      swap2\n      swap1\n      0x0\n      mstore\n      keccak256(0x0, 0x20)\n      swap1\n    tag_535:\n      dup2\n      sload\n      dup2\n      mstore\n      swap1\n      0x1\n      add\n      swap1\n      0x20\n      add\n      dup1\n      dup4\n      gt\n      tag_535\n      jumpi\n      dup3\n      swap1\n      sub\n      0x1f\n      and\n      dup3\n      add\n      swap2\n    tag_533:\n      pop\n      pop\n      pop\n      pop\n      pop\n      dup2\n      mstore\n      0x20\n      add\n      0x2\n      dup3\n      add\n      dup1\n      sload\n      0x1\n      dup2\n      0x1\n      and\n      iszero\n      0x100\n      mul\n      sub\n      and\n      0x2\n      swap1\n      div\n      dup1\n      0x1f\n      add\n      0x20\n      dup1\n      swap2\n      div\n      mul\n      0x20\n      add\n      mload(0x40)\n      swap1\n      dup2\n      add\n      0x40\n      mstore\n      dup1\n      swap3\n      swap2\n      swap1\n      dup2\n      dup2\n      mstore\n      0x20\n      add\n      dup3\n      dup1\n      sload\n      0x1\n      dup2\n      0x1\n      and\n      iszero\n      0x100\n      mul\n      sub\n      and\n      0x2\n      swap1\n      div\n      dup1\n      iszero\n      tag_536\n      jumpi\n      dup1\n      0x1f\n      lt\n      tag_537\n      jumpi\n      0x100\n      dup1\n      dup4\n      sload\n      div\n      mul\n      dup4\n      mstore\n      swap2\n      0x20\n      add\n      swap2\n      jump(tag_536)\n    tag_537:\n      dup3\n      add\n      swap2\n      swap1\n      0x0\n      mstore\n      keccak256(0x0, 0x20)\n      swap1\n    tag_538:\n      dup2\n      sload\n      dup2\n      mstore\n      swap1\n      0x1\n      add\n      swap1\n      0x20\n      add\n      dup1\n      dup4\n      gt\n      tag_538\n      jumpi\n      dup3\n      swap1\n      sub\n      0x1f\n      and\n      dup3\n      add\n      swap2\n    tag_536:\n      pop\n      pop\n      pop\n      pop\n      pop\n      dup2\n      mstore\n      0x20\n      add\n      0x3\n      dup3\n      add\n      dup1\n      sload\n      0x1\n      dup2\n      0x1\n      and\n      iszero\n      0x100\n      mul\n      sub\n      and\n      0x2\n      swap1\n      div\n      dup1\n      0x1f\n      add\n      0x20\n      dup1\n      swap2\n      div\n      mul\n      0x20\n      add\n      mload(0x40)\n      swap1\n      dup2\n      add\n      0x40\n      mstore\n      dup1\n      swap3\n      swap2\n      swap1\n      dup2\n      dup2\n      mstore\n      0x20\n      add\n      dup3\n      dup1\n      sload\n      0x1\n      dup2\n      0x1\n      and\n      iszero\n      0x100\n      mul\n      sub\n      and\n      0x2\n      swap1\n      div\n      dup1\n      iszero\n      tag_539\n      jumpi\n      dup1\n      0x1f\n      lt\n      tag_540\n      jumpi\n      0x100\n      dup1\n      dup4\n      sload\n      div\n      mul\n      dup4\n      mstore\n      swap2\n      0x20\n      add\n      swap2\n      jump(tag_539)\n    tag_540:\n      dup3\n      add\n      swap2\n      swap1\n      0x0\n      mstore\n      keccak256(0x0, 0x20)\n      swap1\n    tag_541:\n      dup2\n      sload\n      dup2\n      mstore\n      swap1\n      0x1\n      add\n      swap1\n      0x20\n      add\n      dup1\n      dup4\n      gt\n      tag_541\n      jumpi\n      dup3\n      swap1\n      sub\n      0x1f\n      and\n      dup3\n      add\n      swap2\n    tag_539:\n      pop\n      pop\n      pop\n      pop\n      pop\n      dup2\n      mstore\n      0x20\n      add\n      0x4\n      dup3\n      add\n      dup1\n      sload\n      dup1\n      0x20\n      mul\n      0x20\n      add\n      mload(0x40)\n      swap1\n      dup2\n      add\n      0x40\n      mstore\n      dup1\n      swap3\n      swap2\n      swap1\n      dup2\n      dup2\n      mstore\n      0x20\n      add\n      dup3\n      dup1\n      sload\n      dup1\n      iszero\n      tag_542\n      jumpi\n      0x20\n      mul\n      dup3\n      add\n      swap2\n      swap1\n      0x0\n      mstore\n      keccak256(0x0, 0x20)\n      swap1\n    tag_543:\n      dup2\n      sload\n      dup2\n      mstore\n      0x20\n      add\n      swap1\n      0x1\n      add\n      swap1\n      dup1\n      dup4\n      gt\n      tag_543\n      jumpi\n    tag_542:\n      pop\n      pop\n      pop\n      pop\n      pop\n      dup2\n      mstore\n      pop\n      pop\n      swap1\n      pop\n        /* \"shipment.sol\":10544:10545  c */\n      dup1\n        /* \"shipment.sol\":10544:10548  c.id */\n      0x0\n      add\n      mload\n        /* \"shipment.sol\":10550:10551  c */\n      dup2\n        /* \"shipment.sol\":10550:10556  c.name */\n      0x20\n      add\n      mload\n        /* \"shipment.sol\":10558:10559  c */\n      dup3\n        /* \"shipment.sol\":10558:10564  c.info */\n      0x40\n      add\n      mload\n        /* \"shipment.sol\":10566:10567  c */\n      dup4\n        /* \"shipment.sol\":10566:10574  c.passwd */\n      0x60\n      add\n      mload\n        /* \"shipment.sol\":10536:10575  return (c.id, c.name, c.info, c.passwd) */\n      dup3\n      swap3\n      pop\n      dup2\n      swap2\n      pop\n      dup1\n      swap1\n      pop\n      swap5\n      pop\n      swap5\n      pop\n      swap5\n      pop\n      swap5\n      pop\n        /* \"shipment.sol\":10318:10583  function getCarrierById(uint _id) public view returns(uint,string,string,string){\r... */\n      pop\n      swap2\n      swap4\n      pop\n      swap2\n      swap4\n      jump\t// out\n        /* \"shipment.sol\":2598:2845  function checkCarrier(uint _id,string _passwd)public view returns(bool){\r... */\n    tag_146:\n        /* \"shipment.sol\":2664:2668  bool */\n      0x0\n        /* \"shipment.sol\":2766:2773  _passwd */\n      dup2\n        /* \"shipment.sol\":2749:2774  abi.encodePacked(_passwd) */\n      add(0x20, mload(0x40))\n      dup1\n      dup3\n      dup1\n      mload\n      swap1\n      0x20\n      add\n      swap1\n      dup1\n      dup4\n      dup4\n        /* \"--CODEGEN--\":36:189   */\n    tag_545:\n        /* \"--CODEGEN--\":66:68   */\n      0x20\n        /* \"--CODEGEN--\":61:64   */\n      dup4\n        /* \"--CODEGEN--\":58:69   */\n      lt\n        /* \"--CODEGEN--\":51:70   */\n      iszero\n        /* \"--CODEGEN--\":36:189   */\n      iszero\n      tag_546\n      jumpi\n        /* \"--CODEGEN--\":182:185   */\n      dup1\n        /* \"--CODEGEN--\":176:186   */\n      mload\n        /* \"--CODEGEN--\":171:174   */\n      dup3\n        /* \"--CODEGEN--\":164:187   */\n      mstore\n        /* \"--CODEGEN--\":98:100   */\n      0x20\n        /* \"--CODEGEN--\":93:96   */\n      dup3\n        /* \"--CODEGEN--\":89:101   */\n      add\n        /* \"--CODEGEN--\":82:101   */\n      swap2\n      pop\n        /* \"--CODEGEN--\":123:125   */\n      0x20\n        /* \"--CODEGEN--\":118:121   */\n      dup2\n        /* \"--CODEGEN--\":114:126   */\n      add\n        /* \"--CODEGEN--\":107:126   */\n      swap1\n      pop\n        /* \"--CODEGEN--\":148:150   */\n      0x20\n        /* \"--CODEGEN--\":143:146   */\n      dup4\n        /* \"--CODEGEN--\":139:151   */\n      sub\n        /* \"--CODEGEN--\":132:151   */\n      swap3\n      pop\n        /* \"--CODEGEN--\":36:189   */\n      jump(tag_545)\n    tag_546:\n        /* \"--CODEGEN--\":274:275   */\n      0x1\n        /* \"--CODEGEN--\":267:270   */\n      dup4\n        /* \"--CODEGEN--\":263:265   */\n      0x20\n        /* \"--CODEGEN--\":259:271   */\n      sub\n        /* \"--CODEGEN--\":254:257   */\n      0x100\n        /* \"--CODEGEN--\":250:272   */\n      exp\n        /* \"--CODEGEN--\":246:276   */\n      sub\n        /* \"--CODEGEN--\":315:319   */\n      dup1\n        /* \"--CODEGEN--\":311:320   */\n      not\n        /* \"--CODEGEN--\":305:308   */\n      dup3\n        /* \"--CODEGEN--\":299:309   */\n      mload\n        /* \"--CODEGEN--\":295:321   */\n      and\n        /* \"--CODEGEN--\":356:360   */\n      dup2\n        /* \"--CODEGEN--\":350:353   */\n      dup5\n        /* \"--CODEGEN--\":344:354   */\n      mload\n        /* \"--CODEGEN--\":340:361   */\n      and\n        /* \"--CODEGEN--\":389:396   */\n      dup1\n        /* \"--CODEGEN--\":380:387   */\n      dup3\n        /* \"--CODEGEN--\":377:397   */\n      or\n        /* \"--CODEGEN--\":372:375   */\n      dup6\n        /* \"--CODEGEN--\":365:398   */\n      mstore\n        /* \"--CODEGEN--\":3:402   */\n      pop\n      pop\n      pop\n        /* \"shipment.sol\":2749:2774  abi.encodePacked(_passwd) */\n      pop\n      pop\n      pop\n      swap1\n      pop\n      add\n      swap2\n      pop\n      pop\n      mload(0x40)\n        /* \"--CODEGEN--\":49:53   */\n      0x20\n        /* \"--CODEGEN--\":39:46   */\n      dup2\n        /* \"--CODEGEN--\":30:37   */\n      dup4\n        /* \"--CODEGEN--\":26:47   */\n      sub\n        /* \"--CODEGEN--\":22:54   */\n      sub\n        /* \"--CODEGEN--\":13:20   */\n      dup2\n        /* \"--CODEGEN--\":6:55   */\n      mstore\n        /* \"shipment.sol\":2749:2774  abi.encodePacked(_passwd) */\n      swap1\n      0x40\n      mstore\n        /* \"shipment.sol\":2738:2776  keccak256((abi.encodePacked(_passwd))) */\n      mload(0x40)\n      dup1\n      dup3\n      dup1\n      mload\n      swap1\n      0x20\n      add\n      swap1\n      dup1\n      dup4\n      dup4\n        /* \"--CODEGEN--\":36:189   */\n    tag_548:\n        /* \"--CODEGEN--\":66:68   */\n      0x20\n        /* \"--CODEGEN--\":61:64   */\n      dup4\n        /* \"--CODEGEN--\":58:69   */\n      lt\n        /* \"--CODEGEN--\":51:70   */\n      iszero\n        /* \"--CODEGEN--\":36:189   */\n      iszero\n      tag_549\n      jumpi\n        /* \"--CODEGEN--\":182:185   */\n      dup1\n        /* \"--CODEGEN--\":176:186   */\n      mload\n        /* \"--CODEGEN--\":171:174   */\n      dup3\n        /* \"--CODEGEN--\":164:187   */\n      mstore\n        /* \"--CODEGEN--\":98:100   */\n      0x20\n        /* \"--CODEGEN--\":93:96   */\n      dup3\n        /* \"--CODEGEN--\":89:101   */\n      add\n        /* \"--CODEGEN--\":82:101   */\n      swap2\n      pop\n        /* \"--CODEGEN--\":123:125   */\n      0x20\n        /* \"--CODEGEN--\":118:121   */\n      dup2\n        /* \"--CODEGEN--\":114:126   */\n      add\n        /* \"--CODEGEN--\":107:126   */\n      swap1\n      pop\n        /* \"--CODEGEN--\":148:150   */\n      0x20\n        /* \"--CODEGEN--\":143:146   */\n      dup4\n        /* \"--CODEGEN--\":139:151   */\n      sub\n        /* \"--CODEGEN--\":132:151   */\n      swap3\n      pop\n        /* \"--CODEGEN--\":36:189   */\n      jump(tag_548)\n    tag_549:\n        /* \"--CODEGEN--\":274:275   */\n      0x1\n        /* \"--CODEGEN--\":267:270   */\n      dup4\n        /* \"--CODEGEN--\":263:265   */\n      0x20\n        /* \"--CODEGEN--\":259:271   */\n      sub\n        /* \"--CODEGEN--\":254:257   */\n      0x100\n        /* \"--CODEGEN--\":250:272   */\n      exp\n        /* \"--CODEGEN--\":246:276   */\n      sub\n        /* \"--CODEGEN--\":315:319   */\n      dup1\n        /* \"--CODEGEN--\":311:320   */\n      not\n        /* \"--CODEGEN--\":305:308   */\n      dup3\n        /* \"--CODEGEN--\":299:309   */\n      mload\n        /* \"--CODEGEN--\":295:321   */\n      and\n        /* \"--CODEGEN--\":356:360   */\n      dup2\n        /* \"--CODEGEN--\":350:353   */\n      dup5\n        /* \"--CODEGEN--\":344:354   */\n      mload\n        /* \"--CODEGEN--\":340:361   */\n      and\n        /* \"--CODEGEN--\":389:396   */\n      dup1\n        /* \"--CODEGEN--\":380:387   */\n      dup3\n        /* \"--CODEGEN--\":377:397   */\n      or\n        /* \"--CODEGEN--\":372:375   */\n      dup6\n        /* \"--CODEGEN--\":365:398   */\n      mstore\n        /* \"--CODEGEN--\":3:402   */\n      pop\n      pop\n      pop\n        /* \"shipment.sol\":2738:2776  keccak256((abi.encodePacked(_passwd))) */\n      pop\n      pop\n      pop\n      swap1\n      pop\n      add\n      swap2\n      pop\n      pop\n      mload(0x40)\n      dup1\n      swap2\n      sub\n      swap1\n      keccak256\n        /* \"shipment.sol\":2683:2776  keccak256((abi.encodePacked(carriers[_id-1].passwd)))==keccak256((abi.encodePacked(_passwd))) */\n      not(0x0)\n      and\n        /* \"shipment.sol\":2711:2719  carriers */\n      0x2\n        /* \"shipment.sol\":2724:2725  1 */\n      0x1\n        /* \"shipment.sol\":2720:2723  _id */\n      dup6\n        /* \"shipment.sol\":2720:2725  _id-1 */\n      sub\n        /* \"shipment.sol\":2711:2726  carriers[_id-1] */\n      dup2\n      sload\n      dup2\n      lt\n      iszero\n      iszero\n      tag_551\n      jumpi\n      invalid\n    tag_551:\n      swap1\n      0x0\n      mstore\n      keccak256(0x0, 0x20)\n      swap1\n      0x5\n      mul\n      add\n        /* \"shipment.sol\":2711:2733  carriers[_id-1].passwd */\n      0x3\n      add\n        /* \"shipment.sol\":2694:2734  abi.encodePacked(carriers[_id-1].passwd) */\n      add(0x20, mload(0x40))\n      dup1\n      dup3\n      dup1\n      sload\n      0x1\n      dup2\n      0x1\n      and\n      iszero\n      0x100\n      mul\n      sub\n      and\n      0x2\n      swap1\n      div\n      dup1\n      iszero\n      tag_553\n      jumpi\n      dup1\n      0x1f\n      lt\n      tag_554\n      jumpi\n      0x100\n      dup1\n      dup4\n      sload\n      div\n      mul\n      dup4\n      mstore\n      swap2\n      dup3\n      add\n      swap2\n      jump(tag_553)\n    tag_554:\n      dup3\n      add\n      swap2\n      swap1\n      0x0\n      mstore\n      keccak256(0x0, 0x20)\n      swap1\n    tag_555:\n      dup2\n      sload\n      dup2\n      mstore\n      swap1\n      0x1\n      add\n      swap1\n      0x20\n      add\n      dup1\n      dup4\n      gt\n      tag_555\n      jumpi\n    tag_553:\n      pop\n      pop\n      swap2\n      pop\n      pop\n      mload(0x40)\n        /* \"--CODEGEN--\":49:53   */\n      0x20\n        /* \"--CODEGEN--\":39:46   */\n      dup2\n        /* \"--CODEGEN--\":30:37   */\n      dup4\n        /* \"--CODEGEN--\":26:47   */\n      sub\n        /* \"--CODEGEN--\":22:54   */\n      sub\n        /* \"--CODEGEN--\":13:20   */\n      dup2\n        /* \"--CODEGEN--\":6:55   */\n      mstore\n        /* \"shipment.sol\":2694:2734  abi.encodePacked(carriers[_id-1].passwd) */\n      swap1\n      0x40\n      mstore\n        /* \"shipment.sol\":2683:2736  keccak256((abi.encodePacked(carriers[_id-1].passwd))) */\n      mload(0x40)\n      dup1\n      dup3\n      dup1\n      mload\n      swap1\n      0x20\n      add\n      swap1\n      dup1\n      dup4\n      dup4\n        /* \"--CODEGEN--\":36:189   */\n    tag_556:\n        /* \"--CODEGEN--\":66:68   */\n      0x20\n        /* \"--CODEGEN--\":61:64   */\n      dup4\n        /* \"--CODEGEN--\":58:69   */\n      lt\n        /* \"--CODEGEN--\":51:70   */\n      iszero\n        /* \"--CODEGEN--\":36:189   */\n      iszero\n      tag_557\n      jumpi\n        /* \"--CODEGEN--\":182:185   */\n      dup1\n        /* \"--CODEGEN--\":176:186   */\n      mload\n        /* \"--CODEGEN--\":171:174   */\n      dup3\n        /* \"--CODEGEN--\":164:187   */\n      mstore\n        /* \"--CODEGEN--\":98:100   */\n      0x20\n        /* \"--CODEGEN--\":93:96   */\n      dup3\n        /* \"--CODEGEN--\":89:101   */\n      add\n        /* \"--CODEGEN--\":82:101   */\n      swap2\n      pop\n        /* \"--CODEGEN--\":123:125   */\n      0x20\n        /* \"--CODEGEN--\":118:121   */\n      dup2\n        /* \"--CODEGEN--\":114:126   */\n      add\n        /* \"--CODEGEN--\":107:126   */\n      swap1\n      pop\n        /* \"--CODEGEN--\":148:150   */\n      0x20\n        /* \"--CODEGEN--\":143:146   */\n      dup4\n        /* \"--CODEGEN--\":139:151   */\n      sub\n        /* \"--CODEGEN--\":132:151   */\n      swap3\n      pop\n        /* \"--CODEGEN--\":36:189   */\n      jump(tag_556)\n    tag_557:\n        /* \"--CODEGEN--\":274:275   */\n      0x1\n        /* \"--CODEGEN--\":267:270   */\n      dup4\n        /* \"--CODEGEN--\":263:265   */\n      0x20\n        /* \"--CODEGEN--\":259:271   */\n      sub\n        /* \"--CODEGEN--\":254:257   */\n      0x100\n        /* \"--CODEGEN--\":250:272   */\n      exp\n        /* \"--CODEGEN--\":246:276   */\n      sub\n        /* \"--CODEGEN--\":315:319   */\n      dup1\n        /* \"--CODEGEN--\":311:320   */\n      not\n        /* \"--CODEGEN--\":305:308   */\n      dup3\n        /* \"--CODEGEN--\":299:309   */\n      mload\n        /* \"--CODEGEN--\":295:321   */\n      and\n        /* \"--CODEGEN--\":356:360   */\n      dup2\n        /* \"--CODEGEN--\":350:353   */\n      dup5\n        /* \"--CODEGEN--\":344:354   */\n      mload\n        /* \"--CODEGEN--\":340:361   */\n      and\n        /* \"--CODEGEN--\":389:396   */\n      dup1\n        /* \"--CODEGEN--\":380:387   */\n      dup3\n        /* \"--CODEGEN--\":377:397   */\n      or\n        /* \"--CODEGEN--\":372:375   */\n      dup6\n        /* \"--CODEGEN--\":365:398   */\n      mstore\n        /* \"--CODEGEN--\":3:402   */\n      pop\n      pop\n      pop\n        /* \"shipment.sol\":2683:2736  keccak256((abi.encodePacked(carriers[_id-1].passwd))) */\n      pop\n      pop\n      pop\n      swap1\n      pop\n      add\n      swap2\n      pop\n      pop\n      mload(0x40)\n      dup1\n      swap2\n      sub\n      swap1\n      keccak256\n        /* \"shipment.sol\":2683:2776  keccak256((abi.encodePacked(carriers[_id-1].passwd)))==keccak256((abi.encodePacked(_passwd))) */\n      not(0x0)\n      and\n      eq\n        /* \"shipment.sol\":2680:2815  if(keccak256((abi.encodePacked(carriers[_id-1].passwd)))==keccak256((abi.encodePacked(_passwd)))){\r... */\n      iszero\n      tag_559\n      jumpi\n        /* \"shipment.sol\":2799:2803  true */\n      0x1\n        /* \"shipment.sol\":2792:2803  return true */\n      swap1\n      pop\n      jump(tag_544)\n        /* \"shipment.sol\":2680:2815  if(keccak256((abi.encodePacked(carriers[_id-1].passwd)))==keccak256((abi.encodePacked(_passwd)))){\r... */\n    tag_559:\n        /* \"shipment.sol\":2832:2837  false */\n      0x0\n        /* \"shipment.sol\":2825:2837  return false */\n      swap1\n      pop\n        /* \"shipment.sol\":2598:2845  function checkCarrier(uint _id,string _passwd)public view returns(bool){\r... */\n    tag_544:\n      swap3\n      swap2\n      pop\n      pop\n      jump\t// out\n        /* \"shipment.sol\":1540:2023  function getAllUsers() public view returns(uint[], string[], string[]){\r... */\n    tag_150:\n        /* \"shipment.sol\":1583:1589  uint[] */\n      0x60\n        /* \"shipment.sol\":1591:1599  string[] */\n      dup1\n        /* \"shipment.sol\":1601:1609  string[] */\n      0x60\n        /* \"shipment.sol\":1621:1638  uint[] memory ids */\n      dup1\n        /* \"shipment.sol\":1676:1697  string[] memory names */\n      0x60\n        /* \"shipment.sol\":1737:1760  string[] memory passwds */\n      dup1\n        /* \"shipment.sol\":1814:1820  uint i */\n      0x0\n        /* \"shipment.sol\":1652:1657  users */\n      0x1\n        /* \"shipment.sol\":1652:1664  users.length */\n      dup1\n      sload\n      swap1\n      pop\n        /* \"shipment.sol\":1641:1665  new uint[](users.length) */\n      mload(0x40)\n      swap1\n      dup1\n      dup3\n      mstore\n      dup1\n      0x20\n      mul\n      0x20\n      add\n      dup3\n      add\n      0x40\n      mstore\n      dup1\n      iszero\n      tag_561\n      jumpi\n      dup2\n      0x20\n      add\n        /* \"--CODEGEN--\":29:31   */\n      0x20\n        /* \"--CODEGEN--\":21:27   */\n      dup3\n        /* \"--CODEGEN--\":17:32   */\n      mul\n        /* \"--CODEGEN--\":117:121   */\n      dup1\n        /* \"--CODEGEN--\":105:115   */\n      codesize\n        /* \"--CODEGEN--\":97:103   */\n      dup4\n        /* \"--CODEGEN--\":88:122   */\n      codecopy\n        /* \"--CODEGEN--\":148:152   */\n      dup1\n        /* \"--CODEGEN--\":140:146   */\n      dup3\n        /* \"--CODEGEN--\":136:153   */\n      add\n        /* \"--CODEGEN--\":126:153   */\n      swap2\n      pop\n        /* \"--CODEGEN--\":0:157   */\n      pop\n        /* \"shipment.sol\":1641:1665  new uint[](users.length) */\n      swap1\n      pop\n    tag_561:\n      pop\n        /* \"shipment.sol\":1621:1665  uint[] memory ids = new uint[](users.length) */\n      swap4\n      pop\n        /* \"shipment.sol\":1713:1718  users */\n      0x1\n        /* \"shipment.sol\":1713:1725  users.length */\n      dup1\n      sload\n      swap1\n      pop\n        /* \"shipment.sol\":1700:1726  new string[](users.length) */\n      mload(0x40)\n      swap1\n      dup1\n      dup3\n      mstore\n      dup1\n      0x20\n      mul\n      0x20\n      add\n      dup3\n      add\n      0x40\n      mstore\n      dup1\n      iszero\n      tag_562\n      jumpi\n      dup2\n      0x20\n      add\n    tag_563:\n      0x60\n      dup2\n      mstore\n      0x20\n      add\n      swap1\n      0x1\n      swap1\n      sub\n      swap1\n      dup2\n      tag_563\n      jumpi\n      swap1\n      pop\n    tag_562:\n      pop\n        /* \"shipment.sol\":1676:1726  string[] memory names = new string[](users.length) */\n      swap3\n      pop\n        /* \"shipment.sol\":1776:1781  users */\n      0x1\n        /* \"shipment.sol\":1776:1788  users.length */\n      dup1\n      sload\n      swap1\n      pop\n        /* \"shipment.sol\":1763:1789  new string[](users.length) */\n      mload(0x40)\n      swap1\n      dup1\n      dup3\n      mstore\n      dup1\n      0x20\n      mul\n      0x20\n      add\n      dup3\n      add\n      0x40\n      mstore\n      dup1\n      iszero\n      tag_564\n      jumpi\n      dup2\n      0x20\n      add\n    tag_565:\n      0x60\n      dup2\n      mstore\n      0x20\n      add\n      swap1\n      0x1\n      swap1\n      sub\n      swap1\n      dup2\n      tag_565\n      jumpi\n      swap1\n      pop\n    tag_564:\n      pop\n        /* \"shipment.sol\":1737:1789  string[] memory passwds = new string[](users.length) */\n      swap2\n      pop\n        /* \"shipment.sol\":1823:1824  0 */\n      0x0\n        /* \"shipment.sol\":1814:1824  uint i = 0 */\n      swap1\n      pop\n        /* \"shipment.sol\":1810:1977  for(uint i = 0; i < users.length; i++){\r... */\n    tag_566:\n        /* \"shipment.sol\":1830:1835  users */\n      0x1\n        /* \"shipment.sol\":1830:1842  users.length */\n      dup1\n      sload\n      swap1\n      pop\n        /* \"shipment.sol\":1826:1827  i */\n      dup2\n        /* \"shipment.sol\":1826:1842  i < users.length */\n      lt\n        /* \"shipment.sol\":1810:1977  for(uint i = 0; i < users.length; i++){\r... */\n      iszero\n      tag_567\n      jumpi\n        /* \"shipment.sol\":1872:1877  users */\n      0x1\n        /* \"shipment.sol\":1878:1879  i */\n      dup2\n        /* \"shipment.sol\":1872:1880  users[i] */\n      dup2\n      sload\n      dup2\n      lt\n      iszero\n      iszero\n      tag_569\n      jumpi\n      invalid\n    tag_569:\n      swap1\n      0x0\n      mstore\n      keccak256(0x0, 0x20)\n      swap1\n      0x3\n      mul\n      add\n        /* \"shipment.sol\":1872:1883  users[i].id */\n      0x0\n      add\n      sload\n        /* \"shipment.sol\":1863:1866  ids */\n      dup5\n        /* \"shipment.sol\":1867:1868  i */\n      dup3\n        /* \"shipment.sol\":1863:1869  ids[i] */\n      dup2\n      mload\n      dup2\n      lt\n      iszero\n      iszero\n      tag_571\n      jumpi\n      invalid\n    tag_571:\n      swap1\n      0x20\n      add\n      swap1\n      0x20\n      mul\n      add\n        /* \"shipment.sol\":1863:1883  ids[i] = users[i].id */\n      dup2\n      dup2\n      mstore\n      pop\n      pop\n        /* \"shipment.sol\":1909:1914  users */\n      0x1\n        /* \"shipment.sol\":1915:1916  i */\n      dup2\n        /* \"shipment.sol\":1909:1917  users[i] */\n      dup2\n      sload\n      dup2\n      lt\n      iszero\n      iszero\n      tag_572\n      jumpi\n      invalid\n    tag_572:\n      swap1\n      0x0\n      mstore\n      keccak256(0x0, 0x20)\n      swap1\n      0x3\n      mul\n      add\n        /* \"shipment.sol\":1909:1922  users[i].name */\n      0x1\n      add\n        /* \"shipment.sol\":1898:1922  names[i] = users[i].name */\n      dup1\n      sload\n      0x1\n      dup2\n      0x1\n      and\n      iszero\n      0x100\n      mul\n      sub\n      and\n      0x2\n      swap1\n      div\n      dup1\n      0x1f\n      add\n      0x20\n      dup1\n      swap2\n      div\n      mul\n      0x20\n      add\n      mload(0x40)\n      swap1\n      dup2\n      add\n      0x40\n      mstore\n      dup1\n      swap3\n      swap2\n      swap1\n      dup2\n      dup2\n      mstore\n      0x20\n      add\n      dup3\n      dup1\n      sload\n      0x1\n      dup2\n      0x1\n      and\n      iszero\n      0x100\n      mul\n      sub\n      and\n      0x2\n      swap1\n      div\n      dup1\n      iszero\n      tag_574\n      jumpi\n      dup1\n      0x1f\n      lt\n      tag_575\n      jumpi\n      0x100\n      dup1\n      dup4\n      sload\n      div\n      mul\n      dup4\n      mstore\n      swap2\n      0x20\n      add\n      swap2\n      jump(tag_574)\n    tag_575:\n      dup3\n      add\n      swap2\n      swap1\n      0x0\n      mstore\n      keccak256(0x0, 0x20)\n      swap1\n    tag_576:\n      dup2\n      sload\n      dup2\n      mstore\n      swap1\n      0x1\n      add\n      swap1\n      0x20\n      add\n      dup1\n      dup4\n      gt\n      tag_576\n      jumpi\n      dup3\n      swap1\n      sub\n      0x1f\n      and\n      dup3\n      add\n      swap2\n    tag_574:\n      pop\n      pop\n      pop\n      pop\n      pop\n        /* \"shipment.sol\":1898:1903  names */\n      dup4\n        /* \"shipment.sol\":1904:1905  i */\n      dup3\n        /* \"shipment.sol\":1898:1906  names[i] */\n      dup2\n      mload\n      dup2\n      lt\n      iszero\n      iszero\n      tag_577\n      jumpi\n      invalid\n    tag_577:\n      swap1\n      0x20\n      add\n      swap1\n      0x20\n      mul\n      add\n        /* \"shipment.sol\":1898:1922  names[i] = users[i].name */\n      dup2\n      swap1\n      mstore\n      pop\n        /* \"shipment.sol\":1950:1955  users */\n      0x1\n        /* \"shipment.sol\":1956:1957  i */\n      dup2\n        /* \"shipment.sol\":1950:1958  users[i] */\n      dup2\n      sload\n      dup2\n      lt\n      iszero\n      iszero\n      tag_578\n      jumpi\n      invalid\n    tag_578:\n      swap1\n      0x0\n      mstore\n      keccak256(0x0, 0x20)\n      swap1\n      0x3\n      mul\n      add\n        /* \"shipment.sol\":1950:1965  users[i].passwd */\n      0x2\n      add\n        /* \"shipment.sol\":1937:1965  passwds[i] = users[i].passwd */\n      dup1\n      sload\n      0x1\n      dup2\n      0x1\n      and\n      iszero\n      0x100\n      mul\n      sub\n      and\n      0x2\n      swap1\n      div\n      dup1\n      0x1f\n      add\n      0x20\n      dup1\n      swap2\n      div\n      mul\n      0x20\n      add\n      mload(0x40)\n      swap1\n      dup2\n      add\n      0x40\n      mstore\n      dup1\n      swap3\n      swap2\n      swap1\n      dup2\n      dup2\n      mstore\n      0x20\n      add\n      dup3\n      dup1\n      sload\n      0x1\n      dup2\n      0x1\n      and\n      iszero\n      0x100\n      mul\n      sub\n      and\n      0x2\n      swap1\n      div\n      dup1\n      iszero\n      tag_580\n      jumpi\n      dup1\n      0x1f\n      lt\n      tag_581\n      jumpi\n      0x100\n      dup1\n      dup4\n      sload\n      div\n      mul\n      dup4\n      mstore\n      swap2\n      0x20\n      add\n      swap2\n      jump(tag_580)\n    tag_581:\n      dup3\n      add\n      swap2\n      swap1\n      0x0\n      mstore\n      keccak256(0x0, 0x20)\n      swap1\n    tag_582:\n      dup2\n      sload\n      dup2\n      mstore\n      swap1\n      0x1\n      add\n      swap1\n      0x20\n      add\n      dup1\n      dup4\n      gt\n      tag_582\n      jumpi\n      dup3\n      swap1\n      sub\n      0x1f\n      and\n      dup3\n      add\n      swap2\n    tag_580:\n      pop\n      pop\n      pop\n      pop\n      pop\n        /* \"shipment.sol\":1937:1944  passwds */\n      dup3\n        /* \"shipment.sol\":1945:1946  i */\n      dup3\n        /* \"shipment.sol\":1937:1947  passwds[i] */\n      dup2\n      mload\n      dup2\n      lt\n      iszero\n      iszero\n      tag_583\n      jumpi\n      invalid\n    tag_583:\n      swap1\n      0x20\n      add\n      swap1\n      0x20\n      mul\n      add\n        /* \"shipment.sol\":1937:1965  passwds[i] = users[i].passwd */\n      dup2\n      swap1\n      mstore\n      pop\n        /* \"shipment.sol\":1844:1847  i++ */\n      dup1\n      dup1\n      0x1\n      add\n      swap2\n      pop\n      pop\n        /* \"shipment.sol\":1810:1977  for(uint i = 0; i < users.length; i++){\r... */\n      jump(tag_566)\n    tag_567:\n        /* \"shipment.sol\":1995:1998  ids */\n      dup4\n        /* \"shipment.sol\":2000:2005  names */\n      dup4\n        /* \"shipment.sol\":2007:2014  passwds */\n      dup4\n        /* \"shipment.sol\":1987:2015  return (ids, names, passwds) */\n      swap7\n      pop\n      swap7\n      pop\n      swap7\n      pop\n        /* \"shipment.sol\":1540:2023  function getAllUsers() public view returns(uint[], string[], string[]){\r... */\n      pop\n      pop\n      pop\n      pop\n      swap1\n      swap2\n      swap3\n      jump\t// out\n        /* \"shipment.sol\":10934:11172  function updateCarrierPassword(uint _id, string _newPasswd) public returns(bool){\r... */\n    tag_156:\n        /* \"shipment.sol\":11009:11013  bool */\n      0x0\n        /* \"shipment.sol\":11039:11040  0 */\n      dup1\n        /* \"shipment.sol\":11033:11036  _id */\n      dup4\n        /* \"shipment.sol\":11033:11040  _id > 0 */\n      gt\n        /* \"shipment.sol\":11033:11066  _id > 0 && _id <= carriers.length */\n      dup1\n      iszero\n      tag_585\n      jumpi\n      pop\n        /* \"shipment.sol\":11051:11059  carriers */\n      0x2\n        /* \"shipment.sol\":11051:11066  carriers.length */\n      dup1\n      sload\n      swap1\n      pop\n        /* \"shipment.sol\":11044:11047  _id */\n      dup4\n        /* \"shipment.sol\":11044:11066  _id <= carriers.length */\n      gt\n      iszero\n        /* \"shipment.sol\":11033:11066  _id > 0 && _id <= carriers.length */\n    tag_585:\n        /* \"shipment.sol\":11025:11096  require(_id > 0 && _id <= carriers.length, \"Carrier ID does not exist\") */\n      iszero\n      iszero\n      tag_586\n      jumpi\n      mload(0x40)\n      0x8c379a000000000000000000000000000000000000000000000000000000000\n      dup2\n      mstore\n      0x4\n      add\n      tag_587\n      swap1\n      jump(tag_410)\n    tag_587:\n      mload(0x40)\n      dup1\n      swap2\n      sub\n      swap1\n      revert\n    tag_586:\n        /* \"shipment.sol\":11132:11142  _newPasswd */\n      dup2\n        /* \"shipment.sol\":11107:11115  carriers */\n      0x2\n        /* \"shipment.sol\":11120:11121  1 */\n      0x1\n        /* \"shipment.sol\":11116:11119  _id */\n      dup6\n        /* \"shipment.sol\":11116:11121  _id-1 */\n      sub\n        /* \"shipment.sol\":11107:11122  carriers[_id-1] */\n      dup2\n      sload\n      dup2\n      lt\n      iszero\n      iszero\n      tag_588\n      jumpi\n      invalid\n    tag_588:\n      swap1\n      0x0\n      mstore\n      keccak256(0x0, 0x20)\n      swap1\n      0x5\n      mul\n      add\n        /* \"shipment.sol\":11107:11129  carriers[_id-1].passwd */\n      0x3\n      add\n        /* \"shipment.sol\":11107:11142  carriers[_id-1].passwd = _newPasswd */\n      swap1\n      dup1\n      mload\n      swap1\n      0x20\n      add\n      swap1\n      tag_590\n      swap3\n      swap2\n      swap1\n      jump\t// in(tag_334)\n    tag_590:\n      pop\n        /* \"shipment.sol\":11160:11164  true */\n      0x1\n        /* \"shipment.sol\":11153:11164  return true */\n      swap1\n      pop\n        /* \"shipment.sol\":10934:11172  function updateCarrierPassword(uint _id, string _newPasswd) public returns(bool){\r... */\n      swap3\n      swap2\n      pop\n      pop\n      jump\t// out\n        /* \"shipment.sol\":3583:4087  function getAllAdmins() public view returns(uint[], string[], string[]) {\r... */\n    tag_160:\n        /* \"shipment.sol\":3627:3633  uint[] */\n      0x60\n        /* \"shipment.sol\":3635:3643  string[] */\n      dup1\n        /* \"shipment.sol\":3645:3653  string[] */\n      0x60\n        /* \"shipment.sol\":3666:3683  uint[] memory ids */\n      dup1\n        /* \"shipment.sol\":3722:3746  string[] memory accounts */\n      0x60\n        /* \"shipment.sol\":3787:3810  string[] memory passwds */\n      dup1\n        /* \"shipment.sol\":3865:3871  uint j */\n      0x0\n        /* \"shipment.sol\":3697:3703  admins */\n      dup1\n        /* \"shipment.sol\":3697:3710  admins.length */\n      dup1\n      sload\n      swap1\n      pop\n        /* \"shipment.sol\":3686:3711  new uint[](admins.length) */\n      mload(0x40)\n      swap1\n      dup1\n      dup3\n      mstore\n      dup1\n      0x20\n      mul\n      0x20\n      add\n      dup3\n      add\n      0x40\n      mstore\n      dup1\n      iszero\n      tag_592\n      jumpi\n      dup2\n      0x20\n      add\n        /* \"--CODEGEN--\":29:31   */\n      0x20\n        /* \"--CODEGEN--\":21:27   */\n      dup3\n        /* \"--CODEGEN--\":17:32   */\n      mul\n        /* \"--CODEGEN--\":117:121   */\n      dup1\n        /* \"--CODEGEN--\":105:115   */\n      codesize\n        /* \"--CODEGEN--\":97:103   */\n      dup4\n        /* \"--CODEGEN--\":88:122   */\n      codecopy\n        /* \"--CODEGEN--\":148:152   */\n      dup1\n        /* \"--CODEGEN--\":140:146   */\n      dup3\n        /* \"--CODEGEN--\":136:153   */\n      add\n        /* \"--CODEGEN--\":126:153   */\n      swap2\n      pop\n        /* \"--CODEGEN--\":0:157   */\n      pop\n        /* \"shipment.sol\":3686:3711  new uint[](admins.length) */\n      swap1\n      pop\n    tag_592:\n      pop\n        /* \"shipment.sol\":3666:3711  uint[] memory ids = new uint[](admins.length) */\n      swap4\n      pop\n        /* \"shipment.sol\":3762:3768  admins */\n      0x0\n        /* \"shipment.sol\":3762:3775  admins.length */\n      dup1\n      sload\n      swap1\n      pop\n        /* \"shipment.sol\":3749:3776  new string[](admins.length) */\n      mload(0x40)\n      swap1\n      dup1\n      dup3\n      mstore\n      dup1\n      0x20\n      mul\n      0x20\n      add\n      dup3\n      add\n      0x40\n      mstore\n      dup1\n      iszero\n      tag_593\n      jumpi\n      dup2\n      0x20\n      add\n    tag_594:\n      0x60\n      dup2\n      mstore\n      0x20\n      add\n      swap1\n      0x1\n      swap1\n      sub\n      swap1\n      dup2\n      tag_594\n      jumpi\n      swap1\n      pop\n    tag_593:\n      pop\n        /* \"shipment.sol\":3722:3776  string[] memory accounts = new string[](admins.length) */\n      swap3\n      pop\n        /* \"shipment.sol\":3826:3832  admins */\n      0x0\n        /* \"shipment.sol\":3826:3839  admins.length */\n      dup1\n      sload\n      swap1\n      pop\n        /* \"shipment.sol\":3813:3840  new string[](admins.length) */\n      mload(0x40)\n      swap1\n      dup1\n      dup3\n      mstore\n      dup1\n      0x20\n      mul\n      0x20\n      add\n      dup3\n      add\n      0x40\n      mstore\n      dup1\n      iszero\n      tag_595\n      jumpi\n      dup2\n      0x20\n      add\n    tag_596:\n      0x60\n      dup2\n      mstore\n      0x20\n      add\n      swap1\n      0x1\n      swap1\n      sub\n      swap1\n      dup2\n      tag_596\n      jumpi\n      swap1\n      pop\n    tag_595:\n      pop\n        /* \"shipment.sol\":3787:3840  string[] memory passwds = new string[](admins.length) */\n      swap2\n      pop\n        /* \"shipment.sol\":3874:3875  0 */\n      0x0\n        /* \"shipment.sol\":3865:3875  uint j = 0 */\n      swap1\n      pop\n        /* \"shipment.sol\":3861:4038  for(uint j = 0; j < admins.length; j++){\r... */\n    tag_597:\n        /* \"shipment.sol\":3881:3887  admins */\n      0x0\n        /* \"shipment.sol\":3881:3894  admins.length */\n      dup1\n      sload\n      swap1\n      pop\n        /* \"shipment.sol\":3877:3878  j */\n      dup2\n        /* \"shipment.sol\":3877:3894  j < admins.length */\n      lt\n        /* \"shipment.sol\":3861:4038  for(uint j = 0; j < admins.length; j++){\r... */\n      iszero\n      tag_598\n      jumpi\n        /* \"shipment.sol\":3924:3930  admins */\n      0x0\n        /* \"shipment.sol\":3931:3932  j */\n      dup2\n        /* \"shipment.sol\":3924:3933  admins[j] */\n      dup2\n      sload\n      dup2\n      lt\n      iszero\n      iszero\n      tag_600\n      jumpi\n      invalid\n    tag_600:\n      swap1\n      0x0\n      mstore\n      keccak256(0x0, 0x20)\n      swap1\n      0x3\n      mul\n      add\n        /* \"shipment.sol\":3924:3936  admins[j].id */\n      0x0\n      add\n      sload\n        /* \"shipment.sol\":3915:3918  ids */\n      dup5\n        /* \"shipment.sol\":3919:3920  j */\n      dup3\n        /* \"shipment.sol\":3915:3921  ids[j] */\n      dup2\n      mload\n      dup2\n      lt\n      iszero\n      iszero\n      tag_602\n      jumpi\n      invalid\n    tag_602:\n      swap1\n      0x20\n      add\n      swap1\n      0x20\n      mul\n      add\n        /* \"shipment.sol\":3915:3936  ids[j] = admins[j].id */\n      dup2\n      dup2\n      mstore\n      pop\n      pop\n        /* \"shipment.sol\":3965:3971  admins */\n      0x0\n        /* \"shipment.sol\":3972:3973  j */\n      dup2\n        /* \"shipment.sol\":3965:3974  admins[j] */\n      dup2\n      sload\n      dup2\n      lt\n      iszero\n      iszero\n      tag_603\n      jumpi\n      invalid\n    tag_603:\n      swap1\n      0x0\n      mstore\n      keccak256(0x0, 0x20)\n      swap1\n      0x3\n      mul\n      add\n        /* \"shipment.sol\":3965:3982  admins[j].account */\n      0x1\n      add\n        /* \"shipment.sol\":3951:3982  accounts[j] = admins[j].account */\n      dup1\n      sload\n      0x1\n      dup2\n      0x1\n      and\n      iszero\n      0x100\n      mul\n      sub\n      and\n      0x2\n      swap1\n      div\n      dup1\n      0x1f\n      add\n      0x20\n      dup1\n      swap2\n      div\n      mul\n      0x20\n      add\n      mload(0x40)\n      swap1\n      dup2\n      add\n      0x40\n      mstore\n      dup1\n      swap3\n      swap2\n      swap1\n      dup2\n      dup2\n      mstore\n      0x20\n      add\n      dup3\n      dup1\n      sload\n      0x1\n      dup2\n      0x1\n      and\n      iszero\n      0x100\n      mul\n      sub\n      and\n      0x2\n      swap1\n      div\n      dup1\n      iszero\n      tag_605\n      jumpi\n      dup1\n      0x1f\n      lt\n      tag_606\n      jumpi\n      0x100\n      dup1\n      dup4\n      sload\n      div\n      mul\n      dup4\n      mstore\n      swap2\n      0x20\n      add\n      swap2\n      jump(tag_605)\n    tag_606:\n      dup3\n      add\n      swap2\n      swap1\n      0x0\n      mstore\n      keccak256(0x0, 0x20)\n      swap1\n    tag_607:\n      dup2\n      sload\n      dup2\n      mstore\n      swap1\n      0x1\n      add\n      swap1\n      0x20\n      add\n      dup1\n      dup4\n      gt\n      tag_607\n      jumpi\n      dup3\n      swap1\n      sub\n      0x1f\n      and\n      dup3\n      add\n      swap2\n    tag_605:\n      pop\n      pop\n      pop\n      pop\n      pop\n        /* \"shipment.sol\":3951:3959  accounts */\n      dup4\n        /* \"shipment.sol\":3960:3961  j */\n      dup3\n        /* \"shipment.sol\":3951:3962  accounts[j] */\n      dup2\n      mload\n      dup2\n      lt\n      iszero\n      iszero\n      tag_608\n      jumpi\n      invalid\n    tag_608:\n      swap1\n      0x20\n      add\n      swap1\n      0x20\n      mul\n      add\n        /* \"shipment.sol\":3951:3982  accounts[j] = admins[j].account */\n      dup2\n      swap1\n      mstore\n      pop\n        /* \"shipment.sol\":4010:4016  admins */\n      0x0\n        /* \"shipment.sol\":4017:4018  j */\n      dup2\n        /* \"shipment.sol\":4010:4019  admins[j] */\n      dup2\n      sload\n      dup2\n      lt\n      iszero\n      iszero\n      tag_609\n      jumpi\n      invalid\n    tag_609:\n      swap1\n      0x0\n      mstore\n      keccak256(0x0, 0x20)\n      swap1\n      0x3\n      mul\n      add\n        /* \"shipment.sol\":4010:4026  admins[j].passwd */\n      0x2\n      add\n        /* \"shipment.sol\":3997:4026  passwds[j] = admins[j].passwd */\n      dup1\n      sload\n      0x1\n      dup2\n      0x1\n      and\n      iszero\n      0x100\n      mul\n      sub\n      and\n      0x2\n      swap1\n      div\n      dup1\n      0x1f\n      add\n      0x20\n      dup1\n      swap2\n      div\n      mul\n      0x20\n      add\n      mload(0x40)\n      swap1\n      dup2\n      add\n      0x40\n      mstore\n      dup1\n      swap3\n      swap2\n      swap1\n      dup2\n      dup2\n      mstore\n      0x20\n      add\n      dup3\n      dup1\n      sload\n      0x1\n      dup2\n      0x1\n      and\n      iszero\n      0x100\n      mul\n      sub\n      and\n      0x2\n      swap1\n      div\n      dup1\n      iszero\n      tag_611\n      jumpi\n      dup1\n      0x1f\n      lt\n      tag_612\n      jumpi\n      0x100\n      dup1\n      dup4\n      sload\n      div\n      mul\n      dup4\n      mstore\n      swap2\n      0x20\n      add\n      swap2\n      jump(tag_611)\n    tag_612:\n      dup3\n      add\n      swap2\n      swap1\n      0x0\n      mstore\n      keccak256(0x0, 0x20)\n      swap1\n    tag_613:\n      dup2\n      sload\n      dup2\n      mstore\n      swap1\n      0x1\n      add\n      swap1\n      0x20\n      add\n      dup1\n      dup4\n      gt\n      tag_613\n      jumpi\n      dup3\n      swap1\n      sub\n      0x1f\n      and\n      dup3\n      add\n      swap2\n    tag_611:\n      pop\n      pop\n      pop\n      pop\n      pop\n        /* \"shipment.sol\":3997:4004  passwds */\n      dup3\n        /* \"shipment.sol\":4005:4006  j */\n      dup3\n        /* \"shipment.sol\":3997:4007  passwds[j] */\n      dup2\n      mload\n      dup2\n      lt\n      iszero\n      iszero\n      tag_614\n      jumpi\n      invalid\n    tag_614:\n      swap1\n      0x20\n      add\n      swap1\n      0x20\n      mul\n      add\n        /* \"shipment.sol\":3997:4026  passwds[j] = admins[j].passwd */\n      dup2\n      swap1\n      mstore\n      pop\n        /* \"shipment.sol\":3896:3899  j++ */\n      dup1\n      dup1\n      0x1\n      add\n      swap2\n      pop\n      pop\n        /* \"shipment.sol\":3861:4038  for(uint j = 0; j < admins.length; j++){\r... */\n      jump(tag_597)\n    tag_598:\n        /* \"shipment.sol\":4056:4059  ids */\n      dup4\n        /* \"shipment.sol\":4061:4069  accounts */\n      dup4\n        /* \"shipment.sol\":4071:4078  passwds */\n      dup4\n        /* \"shipment.sol\":4048:4079  return (ids, accounts, passwds) */\n      swap7\n      pop\n      swap7\n      pop\n      swap7\n      pop\n        /* \"shipment.sol\":3583:4087  function getAllAdmins() public view returns(uint[], string[], string[]) {\r... */\n      pop\n      pop\n      pop\n      pop\n      swap1\n      swap2\n      swap3\n      jump\t// out\n        /* \"shipment.sol\":95:12127  contract shipment{\r... */\n    tag_29:\n      0x60\n      mload(0x40)\n      swap1\n      dup2\n      add\n      0x40\n      mstore\n      dup1\n      0x0\n      dup2\n      mstore\n      0x20\n      add\n      0x60\n      dup2\n      mstore\n      0x20\n      add\n      0x60\n      dup2\n      mstore\n      pop\n      swap1\n      jump\t// out\n    tag_33:\n      dup3\n      dup1\n      sload\n      0x1\n      dup2\n      0x1\n      and\n      iszero\n      0x100\n      mul\n      sub\n      and\n      0x2\n      swap1\n      div\n      swap1\n      0x0\n      mstore\n      keccak256(0x0, 0x20)\n      swap1\n      0x1f\n      add\n      0x20\n      swap1\n      div\n      dup2\n      add\n      swap3\n      dup3\n      0x1f\n      lt\n      tag_616\n      jumpi\n      dup1\n      mload\n      not(0xff)\n      and\n      dup4\n      dup1\n      add\n      or\n      dup6\n      sstore\n      jump(tag_615)\n    tag_616:\n      dup3\n      dup1\n      add\n      0x1\n      add\n      dup6\n      sstore\n      dup3\n      iszero\n      tag_615\n      jumpi\n      swap2\n      dup3\n      add\n    tag_617:\n      dup3\n      dup2\n      gt\n      iszero\n      tag_618\n      jumpi\n      dup3\n      mload\n      dup3\n      sstore\n      swap2\n      0x20\n      add\n      swap2\n      swap1\n      0x1\n      add\n      swap1\n      jump(tag_617)\n    tag_618:\n    tag_615:\n      pop\n      swap1\n      pop\n      tag_619\n      swap2\n      swap1\n      jump\t// in(tag_620)\n    tag_619:\n      pop\n      swap1\n      jump\t// out\n    tag_163:\n      0x60\n      mload(0x40)\n      swap1\n      dup2\n      add\n      0x40\n      mstore\n      dup1\n      0x0\n      dup2\n      mstore\n      0x20\n      add\n      0x60\n      dup2\n      mstore\n      0x20\n      add\n      0x60\n      dup2\n      mstore\n      pop\n      swap1\n      jump\t// out\n    tag_169:\n      0x100\n      mload(0x40)\n      swap1\n      dup2\n      add\n      0x40\n      mstore\n      dup1\n      0x0\n      dup2\n      mstore\n      0x20\n      add\n      0x0\n      dup2\n      mstore\n      0x20\n      add\n      0x0\n      dup2\n      mstore\n      0x20\n      add\n      0x60\n      dup2\n      mstore\n      0x20\n      add\n      0x60\n      dup2\n      mstore\n      0x20\n      add\n      0x60\n      dup2\n      mstore\n      0x20\n      add\n      0x0\n      dup2\n      mstore\n      0x20\n      add\n      0x0\n      dup2\n      mstore\n      pop\n      swap1\n      jump\t// out\n    tag_241:\n      dup2\n      sload\n      dup2\n      dup4\n      sstore\n      dup2\n      dup2\n      gt\n      iszero\n      tag_621\n      jumpi\n      dup2\n      dup4\n      0x0\n      mstore\n      keccak256(0x0, 0x20)\n      swap2\n      dup3\n      add\n      swap2\n      add\n      tag_622\n      swap2\n      swap1\n      jump\t// in(tag_620)\n    tag_622:\n    tag_621:\n      pop\n      pop\n      pop\n      jump\t// out\n    tag_250:\n      dup3\n      dup1\n      sload\n      0x1\n      dup2\n      0x1\n      and\n      iszero\n      0x100\n      mul\n      sub\n      and\n      0x2\n      swap1\n      div\n      swap1\n      0x0\n      mstore\n      keccak256(0x0, 0x20)\n      swap1\n      0x1f\n      add\n      0x20\n      swap1\n      div\n      dup2\n      add\n      swap3\n      dup3\n      0x1f\n      lt\n      tag_624\n      jumpi\n      dup1\n      sload\n      dup6\n      sstore\n      jump(tag_623)\n    tag_624:\n      dup3\n      dup1\n      add\n      0x1\n      add\n      dup6\n      sstore\n      dup3\n      iszero\n      tag_623\n      jumpi\n      0x0\n      mstore\n      keccak256(0x0, 0x20)\n      swap2\n      0x1f\n      add\n      0x20\n      swap1\n      div\n      dup3\n      add\n    tag_625:\n      dup3\n      dup2\n      gt\n      iszero\n      tag_626\n      jumpi\n      dup3\n      sload\n      dup3\n      sstore\n      swap2\n      0x1\n      add\n      swap2\n      swap1\n      0x1\n      add\n      swap1\n      jump(tag_625)\n    tag_626:\n    tag_623:\n      pop\n      swap1\n      pop\n      tag_627\n      swap2\n      swap1\n      jump\t// in(tag_620)\n    tag_627:\n      pop\n      swap1\n      jump\t// out\n    tag_258:\n      dup2\n      sload\n      dup2\n      dup4\n      sstore\n      dup2\n      dup2\n      gt\n      iszero\n      tag_628\n      jumpi\n      0x8\n      mul\n      dup2\n      0x8\n      mul\n      dup4\n      0x0\n      mstore\n      keccak256(0x0, 0x20)\n      swap2\n      dup3\n      add\n      swap2\n      add\n      tag_629\n      swap2\n      swap1\n      jump\t// in(tag_630)\n    tag_629:\n    tag_628:\n      pop\n      pop\n      pop\n      jump\t// out\n    tag_300:\n      dup2\n      sload\n      dup2\n      dup4\n      sstore\n      dup2\n      dup2\n      gt\n      iszero\n      tag_631\n      jumpi\n      0x3\n      mul\n      dup2\n      0x3\n      mul\n      dup4\n      0x0\n      mstore\n      keccak256(0x0, 0x20)\n      swap2\n      dup3\n      add\n      swap2\n      add\n      tag_632\n      swap2\n      swap1\n      jump\t// in(tag_633)\n    tag_632:\n    tag_631:\n      pop\n      pop\n      pop\n      jump\t// out\n    tag_302:\n      0xa0\n      mload(0x40)\n      swap1\n      dup2\n      add\n      0x40\n      mstore\n      dup1\n      0x0\n      dup2\n      mstore\n      0x20\n      add\n      0x60\n      dup2\n      mstore\n      0x20\n      add\n      0x60\n      dup2\n      mstore\n      0x20\n      add\n      0x60\n      dup2\n      mstore\n      0x20\n      add\n      0x60\n      dup2\n      mstore\n      pop\n      swap1\n      jump\t// out\n    tag_311:\n      dup3\n      dup1\n      sload\n      dup3\n      dup3\n      sstore\n      swap1\n      0x0\n      mstore\n      keccak256(0x0, 0x20)\n      swap1\n      dup2\n      add\n      swap3\n      dup3\n      iszero\n      tag_634\n      jumpi\n      swap2\n      0x20\n      mul\n      dup3\n      add\n    tag_635:\n      dup3\n      dup2\n      gt\n      iszero\n      tag_636\n      jumpi\n      dup3\n      mload\n      dup3\n      sstore\n      swap2\n      0x20\n      add\n      swap2\n      swap1\n      0x1\n      add\n      swap1\n      jump(tag_635)\n    tag_636:\n    tag_634:\n      pop\n      swap1\n      pop\n      tag_637\n      swap2\n      swap1\n      jump\t// in(tag_620)\n    tag_637:\n      pop\n      swap1\n      jump\t// out\n    tag_334:\n      dup3\n      dup1\n      sload\n      0x1\n      dup2\n      0x1\n      and\n      iszero\n      0x100\n      mul\n      sub\n      and\n      0x2\n      swap1\n      div\n      swap1\n      0x0\n      mstore\n      keccak256(0x0, 0x20)\n      swap1\n      0x1f\n      add\n      0x20\n      swap1\n      div\n      dup2\n      add\n      swap3\n      dup3\n      0x1f\n      lt\n      tag_639\n      jumpi\n      dup1\n      mload\n      not(0xff)\n      and\n      dup4\n      dup1\n      add\n      or\n      dup6\n      sstore\n      jump(tag_638)\n    tag_639:\n      dup3\n      dup1\n      add\n      0x1\n      add\n      dup6\n      sstore\n      dup3\n      iszero\n      tag_638\n      jumpi\n      swap2\n      dup3\n      add\n    tag_640:\n      dup3\n      dup2\n      gt\n      iszero\n      tag_641\n      jumpi\n      dup3\n      mload\n      dup3\n      sstore\n      swap2\n      0x20\n      add\n      swap2\n      swap1\n      0x1\n      add\n      swap1\n      jump(tag_640)\n    tag_641:\n    tag_638:\n      pop\n      swap1\n      pop\n      tag_642\n      swap2\n      swap1\n      jump\t// in(tag_620)\n    tag_642:\n      pop\n      swap1\n      jump\t// out\n    tag_448:\n      dup3\n      dup1\n      sload\n      dup3\n      dup3\n      sstore\n      swap1\n      0x0\n      mstore\n      keccak256(0x0, 0x20)\n      swap1\n      dup2\n      add\n      swap3\n      dup3\n      iszero\n      tag_643\n      jumpi\n      0x0\n      mstore\n      keccak256(0x0, 0x20)\n      swap2\n      dup3\n      add\n    tag_644:\n      dup3\n      dup2\n      gt\n      iszero\n      tag_645\n      jumpi\n      dup3\n      sload\n      dup3\n      sstore\n      swap2\n      0x1\n      add\n      swap2\n      swap1\n      0x1\n      add\n      swap1\n      jump(tag_644)\n    tag_645:\n    tag_643:\n      pop\n      swap1\n      pop\n      tag_646\n      swap2\n      swap1\n      jump\t// in(tag_620)\n    tag_646:\n      pop\n      swap1\n      jump\t// out\n    tag_450:\n      dup2\n      sload\n      dup2\n      dup4\n      sstore\n      dup2\n      dup2\n      gt\n      iszero\n      tag_647\n      jumpi\n      0x5\n      mul\n      dup2\n      0x5\n      mul\n      dup4\n      0x0\n      mstore\n      keccak256(0x0, 0x20)\n      swap2\n      dup3\n      add\n      swap2\n      add\n      tag_648\n      swap2\n      swap1\n      jump\t// in(tag_649)\n    tag_648:\n    tag_647:\n      pop\n      pop\n      pop\n      jump\t// out\n    tag_620:\n      tag_650\n      swap2\n      swap1\n    tag_651:\n      dup1\n      dup3\n      gt\n      iszero\n      tag_652\n      jumpi\n      0x0\n      dup2\n      0x0\n      swap1\n      sstore\n      pop\n      0x1\n      add\n      jump(tag_651)\n    tag_652:\n      pop\n      swap1\n      jump\n    tag_650:\n      swap1\n      jump\t// out\n    tag_630:\n      tag_653\n      swap2\n      swap1\n    tag_654:\n      dup1\n      dup3\n      gt\n      iszero\n      tag_655\n      jumpi\n      0x0\n      dup1\n      dup3\n      add\n      0x0\n      swap1\n      sstore\n      0x1\n      dup3\n      add\n      0x0\n      swap1\n      sstore\n      0x2\n      dup3\n      add\n      0x0\n      swap1\n      sstore\n      0x3\n      dup3\n      add\n      0x0\n      tag_656\n      swap2\n      swap1\n      jump\t// in(tag_657)\n    tag_656:\n      0x4\n      dup3\n      add\n      0x0\n      tag_658\n      swap2\n      swap1\n      jump\t// in(tag_657)\n    tag_658:\n      0x5\n      dup3\n      add\n      0x0\n      tag_659\n      swap2\n      swap1\n      jump\t// in(tag_657)\n    tag_659:\n      0x6\n      dup3\n      add\n      0x0\n      swap1\n      sstore\n      0x7\n      dup3\n      add\n      0x0\n      swap1\n      sstore\n      pop\n      0x8\n      add\n      jump(tag_654)\n    tag_655:\n      pop\n      swap1\n      jump\n    tag_653:\n      swap1\n      jump\t// out\n    tag_633:\n      tag_660\n      swap2\n      swap1\n    tag_661:\n      dup1\n      dup3\n      gt\n      iszero\n      tag_662\n      jumpi\n      0x0\n      dup1\n      dup3\n      add\n      0x0\n      swap1\n      sstore\n      0x1\n      dup3\n      add\n      0x0\n      tag_663\n      swap2\n      swap1\n      jump\t// in(tag_657)\n    tag_663:\n      0x2\n      dup3\n      add\n      0x0\n      tag_664\n      swap2\n      swap1\n      jump\t// in(tag_657)\n    tag_664:\n      pop\n      0x3\n      add\n      jump(tag_661)\n    tag_662:\n      pop\n      swap1\n      jump\n    tag_660:\n      swap1\n      jump\t// out\n    tag_649:\n      tag_665\n      swap2\n      swap1\n    tag_666:\n      dup1\n      dup3\n      gt\n      iszero\n      tag_667\n      jumpi\n      0x0\n      dup1\n      dup3\n      add\n      0x0\n      swap1\n      sstore\n      0x1\n      dup3\n      add\n      0x0\n      tag_668\n      swap2\n      swap1\n      jump\t// in(tag_657)\n    tag_668:\n      0x2\n      dup3\n      add\n      0x0\n      tag_669\n      swap2\n      swap1\n      jump\t// in(tag_657)\n    tag_669:\n      0x3\n      dup3\n      add\n      0x0\n      tag_670\n      swap2\n      swap1\n      jump\t// in(tag_657)\n    tag_670:\n      0x4\n      dup3\n      add\n      0x0\n      tag_671\n      swap2\n      swap1\n      jump\t// in(tag_672)\n    tag_671:\n      pop\n      0x5\n      add\n      jump(tag_666)\n    tag_667:\n      pop\n      swap1\n      jump\n    tag_665:\n      swap1\n      jump\t// out\n    tag_657:\n      pop\n      dup1\n      sload\n      0x1\n      dup2\n      0x1\n      and\n      iszero\n      0x100\n      mul\n      sub\n      and\n      0x2\n      swap1\n      div\n      0x0\n      dup3\n      sstore\n      dup1\n      0x1f\n      lt\n      tag_674\n      jumpi\n      pop\n      jump(tag_673)\n    tag_674:\n      0x1f\n      add\n      0x20\n      swap1\n      div\n      swap1\n      0x0\n      mstore\n      keccak256(0x0, 0x20)\n      swap1\n      dup2\n      add\n      swap1\n      tag_675\n      swap2\n      swap1\n      jump\t// in(tag_620)\n    tag_675:\n    tag_673:\n      pop\n      jump\t// out\n    tag_672:\n      pop\n      dup1\n      sload\n      0x0\n      dup3\n      sstore\n      swap1\n      0x0\n      mstore\n      keccak256(0x0, 0x20)\n      swap1\n      dup2\n      add\n      swap1\n      tag_677\n      swap2\n      swap1\n      jump\t// in(tag_620)\n    tag_677:\n      pop\n      jump\t// out\n        /* \"--CODEGEN--\":6:448   */\n    tag_679:\n      0x0\n        /* \"--CODEGEN--\":108:111   */\n      dup3\n        /* \"--CODEGEN--\":101:105   */\n      0x1f\n        /* \"--CODEGEN--\":93:99   */\n      dup4\n        /* \"--CODEGEN--\":89:106   */\n      add\n        /* \"--CODEGEN--\":85:112   */\n      slt\n        /* \"--CODEGEN--\":78:113   */\n      iszero\n        /* \"--CODEGEN--\":75:77   */\n      iszero\n      tag_680\n      jumpi\n        /* \"--CODEGEN--\":126:127   */\n      0x0\n        /* \"--CODEGEN--\":123:124   */\n      dup1\n        /* \"--CODEGEN--\":116:128   */\n      revert\n        /* \"--CODEGEN--\":75:77   */\n    tag_680:\n        /* \"--CODEGEN--\":163:169   */\n      dup2\n        /* \"--CODEGEN--\":150:170   */\n      calldataload\n        /* \"--CODEGEN--\":185:250   */\n      tag_681\n        /* \"--CODEGEN--\":200:249   */\n      tag_682\n        /* \"--CODEGEN--\":242:248   */\n      dup3\n        /* \"--CODEGEN--\":200:249   */\n      jump(tag_683)\n    tag_682:\n        /* \"--CODEGEN--\":185:250   */\n      jump(tag_684)\n    tag_681:\n        /* \"--CODEGEN--\":176:250   */\n      swap2\n      pop\n        /* \"--CODEGEN--\":270:276   */\n      dup1\n        /* \"--CODEGEN--\":263:268   */\n      dup3\n        /* \"--CODEGEN--\":256:277   */\n      mstore\n        /* \"--CODEGEN--\":306:310   */\n      0x20\n        /* \"--CODEGEN--\":298:304   */\n      dup4\n        /* \"--CODEGEN--\":294:311   */\n      add\n        /* \"--CODEGEN--\":339:343   */\n      0x20\n        /* \"--CODEGEN--\":332:337   */\n      dup4\n        /* \"--CODEGEN--\":328:344   */\n      add\n        /* \"--CODEGEN--\":374:377   */\n      dup6\n        /* \"--CODEGEN--\":365:371   */\n      dup4\n        /* \"--CODEGEN--\":360:363   */\n      dup4\n        /* \"--CODEGEN--\":356:372   */\n      add\n        /* \"--CODEGEN--\":353:378   */\n      gt\n        /* \"--CODEGEN--\":350:352   */\n      iszero\n      tag_685\n      jumpi\n        /* \"--CODEGEN--\":391:392   */\n      0x0\n        /* \"--CODEGEN--\":388:389   */\n      dup1\n        /* \"--CODEGEN--\":381:393   */\n      revert\n        /* \"--CODEGEN--\":350:352   */\n    tag_685:\n        /* \"--CODEGEN--\":401:442   */\n      tag_686\n        /* \"--CODEGEN--\":435:441   */\n      dup4\n        /* \"--CODEGEN--\":430:433   */\n      dup3\n        /* \"--CODEGEN--\":425:428   */\n      dup5\n        /* \"--CODEGEN--\":401:442   */\n      jump(tag_687)\n    tag_686:\n        /* \"--CODEGEN--\":68:448   */\n      pop\n      pop\n      pop\n      swap3\n      swap2\n      pop\n      pop\n      jump\n        /* \"--CODEGEN--\":456:574   */\n    tag_689:\n      0x0\n        /* \"--CODEGEN--\":523:569   */\n      tag_690\n        /* \"--CODEGEN--\":561:567   */\n      dup3\n        /* \"--CODEGEN--\":548:568   */\n      calldataload\n        /* \"--CODEGEN--\":523:569   */\n      jump(tag_691)\n    tag_690:\n        /* \"--CODEGEN--\":514:569   */\n      swap1\n      pop\n        /* \"--CODEGEN--\":508:574   */\n      swap3\n      swap2\n      pop\n      pop\n      jump\n        /* \"--CODEGEN--\":581:1159   */\n    tag_38:\n      0x0\n      dup1\n        /* \"--CODEGEN--\":722:724   */\n      0x40\n        /* \"--CODEGEN--\":710:719   */\n      dup4\n        /* \"--CODEGEN--\":701:708   */\n      dup6\n        /* \"--CODEGEN--\":697:720   */\n      sub\n        /* \"--CODEGEN--\":693:725   */\n      slt\n        /* \"--CODEGEN--\":690:692   */\n      iszero\n      tag_693\n      jumpi\n        /* \"--CODEGEN--\":738:739   */\n      0x0\n        /* \"--CODEGEN--\":735:736   */\n      dup1\n        /* \"--CODEGEN--\":728:740   */\n      revert\n        /* \"--CODEGEN--\":690:692   */\n    tag_693:\n        /* \"--CODEGEN--\":801:802   */\n      0x0\n        /* \"--CODEGEN--\":790:799   */\n      dup4\n        /* \"--CODEGEN--\":786:803   */\n      add\n        /* \"--CODEGEN--\":773:804   */\n      calldataload\n        /* \"--CODEGEN--\":824:842   */\n      0xffffffffffffffff\n        /* \"--CODEGEN--\":816:822   */\n      dup2\n        /* \"--CODEGEN--\":813:843   */\n      gt\n        /* \"--CODEGEN--\":810:812   */\n      iszero\n      tag_694\n      jumpi\n        /* \"--CODEGEN--\":856:857   */\n      0x0\n        /* \"--CODEGEN--\":853:854   */\n      dup1\n        /* \"--CODEGEN--\":846:858   */\n      revert\n        /* \"--CODEGEN--\":810:812   */\n    tag_694:\n        /* \"--CODEGEN--\":876:939   */\n      tag_695\n        /* \"--CODEGEN--\":931:938   */\n      dup6\n        /* \"--CODEGEN--\":922:928   */\n      dup3\n        /* \"--CODEGEN--\":911:920   */\n      dup7\n        /* \"--CODEGEN--\":907:929   */\n      add\n        /* \"--CODEGEN--\":876:939   */\n      jump(tag_679)\n    tag_695:\n        /* \"--CODEGEN--\":866:939   */\n      swap3\n      pop\n        /* \"--CODEGEN--\":752:945   */\n      pop\n        /* \"--CODEGEN--\":1004:1006   */\n      0x20\n        /* \"--CODEGEN--\":993:1002   */\n      dup4\n        /* \"--CODEGEN--\":989:1007   */\n      add\n        /* \"--CODEGEN--\":976:1008   */\n      calldataload\n        /* \"--CODEGEN--\":1028:1046   */\n      0xffffffffffffffff\n        /* \"--CODEGEN--\":1020:1026   */\n      dup2\n        /* \"--CODEGEN--\":1017:1047   */\n      gt\n        /* \"--CODEGEN--\":1014:1016   */\n      iszero\n      tag_696\n      jumpi\n        /* \"--CODEGEN--\":1060:1061   */\n      0x0\n        /* \"--CODEGEN--\":1057:1058   */\n      dup1\n        /* \"--CODEGEN--\":1050:1062   */\n      revert\n        /* \"--CODEGEN--\":1014:1016   */\n    tag_696:\n        /* \"--CODEGEN--\":1080:1143   */\n      tag_697\n        /* \"--CODEGEN--\":1135:1142   */\n      dup6\n        /* \"--CODEGEN--\":1126:1132   */\n      dup3\n        /* \"--CODEGEN--\":1115:1124   */\n      dup7\n        /* \"--CODEGEN--\":1111:1133   */\n      add\n        /* \"--CODEGEN--\":1080:1143   */\n      jump(tag_679)\n    tag_697:\n        /* \"--CODEGEN--\":1070:1143   */\n      swap2\n      pop\n        /* \"--CODEGEN--\":955:1149   */\n      pop\n        /* \"--CODEGEN--\":684:1159   */\n      swap3\n      pop\n      swap3\n      swap1\n      pop\n      jump\n        /* \"--CODEGEN--\":1166:1975   */\n    tag_70:\n      0x0\n      dup1\n      0x0\n        /* \"--CODEGEN--\":1334:1336   */\n      0x60\n        /* \"--CODEGEN--\":1322:1331   */\n      dup5\n        /* \"--CODEGEN--\":1313:1320   */\n      dup7\n        /* \"--CODEGEN--\":1309:1332   */\n      sub\n        /* \"--CODEGEN--\":1305:1337   */\n      slt\n        /* \"--CODEGEN--\":1302:1304   */\n      iszero\n      tag_699\n      jumpi\n        /* \"--CODEGEN--\":1350:1351   */\n      0x0\n        /* \"--CODEGEN--\":1347:1348   */\n      dup1\n        /* \"--CODEGEN--\":1340:1352   */\n      revert\n        /* \"--CODEGEN--\":1302:1304   */\n    tag_699:\n        /* \"--CODEGEN--\":1413:1414   */\n      0x0\n        /* \"--CODEGEN--\":1402:1411   */\n      dup5\n        /* \"--CODEGEN--\":1398:1415   */\n      add\n        /* \"--CODEGEN--\":1385:1416   */\n      calldataload\n        /* \"--CODEGEN--\":1436:1454   */\n      0xffffffffffffffff\n        /* \"--CODEGEN--\":1428:1434   */\n      dup2\n        /* \"--CODEGEN--\":1425:1455   */\n      gt\n        /* \"--CODEGEN--\":1422:1424   */\n      iszero\n      tag_700\n      jumpi\n        /* \"--CODEGEN--\":1468:1469   */\n      0x0\n        /* \"--CODEGEN--\":1465:1466   */\n      dup1\n        /* \"--CODEGEN--\":1458:1470   */\n      revert\n        /* \"--CODEGEN--\":1422:1424   */\n    tag_700:\n        /* \"--CODEGEN--\":1488:1551   */\n      tag_701\n        /* \"--CODEGEN--\":1543:1550   */\n      dup7\n        /* \"--CODEGEN--\":1534:1540   */\n      dup3\n        /* \"--CODEGEN--\":1523:1532   */\n      dup8\n        /* \"--CODEGEN--\":1519:1541   */\n      add\n        /* \"--CODEGEN--\":1488:1551   */\n      jump(tag_679)\n    tag_701:\n        /* \"--CODEGEN--\":1478:1551   */\n      swap4\n      pop\n        /* \"--CODEGEN--\":1364:1557   */\n      pop\n        /* \"--CODEGEN--\":1616:1618   */\n      0x20\n        /* \"--CODEGEN--\":1605:1614   */\n      dup5\n        /* \"--CODEGEN--\":1601:1619   */\n      add\n        /* \"--CODEGEN--\":1588:1620   */\n      calldataload\n        /* \"--CODEGEN--\":1640:1658   */\n      0xffffffffffffffff\n        /* \"--CODEGEN--\":1632:1638   */\n      dup2\n        /* \"--CODEGEN--\":1629:1659   */\n      gt\n        /* \"--CODEGEN--\":1626:1628   */\n      iszero\n      tag_702\n      jumpi\n        /* \"--CODEGEN--\":1672:1673   */\n      0x0\n        /* \"--CODEGEN--\":1669:1670   */\n      dup1\n        /* \"--CODEGEN--\":1662:1674   */\n      revert\n        /* \"--CODEGEN--\":1626:1628   */\n    tag_702:\n        /* \"--CODEGEN--\":1692:1755   */\n      tag_703\n        /* \"--CODEGEN--\":1747:1754   */\n      dup7\n        /* \"--CODEGEN--\":1738:1744   */\n      dup3\n        /* \"--CODEGEN--\":1727:1736   */\n      dup8\n        /* \"--CODEGEN--\":1723:1745   */\n      add\n        /* \"--CODEGEN--\":1692:1755   */\n      jump(tag_679)\n    tag_703:\n        /* \"--CODEGEN--\":1682:1755   */\n      swap3\n      pop\n        /* \"--CODEGEN--\":1567:1761   */\n      pop\n        /* \"--CODEGEN--\":1820:1822   */\n      0x40\n        /* \"--CODEGEN--\":1809:1818   */\n      dup5\n        /* \"--CODEGEN--\":1805:1823   */\n      add\n        /* \"--CODEGEN--\":1792:1824   */\n      calldataload\n        /* \"--CODEGEN--\":1844:1862   */\n      0xffffffffffffffff\n        /* \"--CODEGEN--\":1836:1842   */\n      dup2\n        /* \"--CODEGEN--\":1833:1863   */\n      gt\n        /* \"--CODEGEN--\":1830:1832   */\n      iszero\n      tag_704\n      jumpi\n        /* \"--CODEGEN--\":1876:1877   */\n      0x0\n        /* \"--CODEGEN--\":1873:1874   */\n      dup1\n        /* \"--CODEGEN--\":1866:1878   */\n      revert\n        /* \"--CODEGEN--\":1830:1832   */\n    tag_704:\n        /* \"--CODEGEN--\":1896:1959   */\n      tag_705\n        /* \"--CODEGEN--\":1951:1958   */\n      dup7\n        /* \"--CODEGEN--\":1942:1948   */\n      dup3\n        /* \"--CODEGEN--\":1931:1940   */\n      dup8\n        /* \"--CODEGEN--\":1927:1949   */\n      add\n        /* \"--CODEGEN--\":1896:1959   */\n      jump(tag_679)\n    tag_705:\n        /* \"--CODEGEN--\":1886:1959   */\n      swap2\n      pop\n        /* \"--CODEGEN--\":1771:1965   */\n      pop\n        /* \"--CODEGEN--\":1296:1975   */\n      swap3\n      pop\n      swap3\n      pop\n      swap3\n      jump\n        /* \"--CODEGEN--\":1982:2223   */\n    tag_43:\n      0x0\n        /* \"--CODEGEN--\":2086:2088   */\n      0x20\n        /* \"--CODEGEN--\":2074:2083   */\n      dup3\n        /* \"--CODEGEN--\":2065:2072   */\n      dup5\n        /* \"--CODEGEN--\":2061:2084   */\n      sub\n        /* \"--CODEGEN--\":2057:2089   */\n      slt\n        /* \"--CODEGEN--\":2054:2056   */\n      iszero\n      tag_707\n      jumpi\n        /* \"--CODEGEN--\":2102:2103   */\n      0x0\n        /* \"--CODEGEN--\":2099:2100   */\n      dup1\n        /* \"--CODEGEN--\":2092:2104   */\n      revert\n        /* \"--CODEGEN--\":2054:2056   */\n    tag_707:\n        /* \"--CODEGEN--\":2137:2138   */\n      0x0\n        /* \"--CODEGEN--\":2154:2207   */\n      tag_708\n        /* \"--CODEGEN--\":2199:2206   */\n      dup5\n        /* \"--CODEGEN--\":2190:2196   */\n      dup3\n        /* \"--CODEGEN--\":2179:2188   */\n      dup6\n        /* \"--CODEGEN--\":2175:2197   */\n      add\n        /* \"--CODEGEN--\":2154:2207   */\n      jump(tag_689)\n    tag_708:\n        /* \"--CODEGEN--\":2144:2207   */\n      swap2\n      pop\n        /* \"--CODEGEN--\":2116:2213   */\n      pop\n        /* \"--CODEGEN--\":2048:2223   */\n      swap3\n      swap2\n      pop\n      pop\n      jump\n        /* \"--CODEGEN--\":2230:2702   */\n    tag_80:\n      0x0\n      dup1\n        /* \"--CODEGEN--\":2361:2363   */\n      0x40\n        /* \"--CODEGEN--\":2349:2358   */\n      dup4\n        /* \"--CODEGEN--\":2340:2347   */\n      dup6\n        /* \"--CODEGEN--\":2336:2359   */\n      sub\n        /* \"--CODEGEN--\":2332:2364   */\n      slt\n        /* \"--CODEGEN--\":2329:2331   */\n      iszero\n      tag_710\n      jumpi\n        /* \"--CODEGEN--\":2377:2378   */\n      0x0\n        /* \"--CODEGEN--\":2374:2375   */\n      dup1\n        /* \"--CODEGEN--\":2367:2379   */\n      revert\n        /* \"--CODEGEN--\":2329:2331   */\n    tag_710:\n        /* \"--CODEGEN--\":2412:2413   */\n      0x0\n        /* \"--CODEGEN--\":2429:2482   */\n      tag_711\n        /* \"--CODEGEN--\":2474:2481   */\n      dup6\n        /* \"--CODEGEN--\":2465:2471   */\n      dup3\n        /* \"--CODEGEN--\":2454:2463   */\n      dup7\n        /* \"--CODEGEN--\":2450:2472   */\n      add\n        /* \"--CODEGEN--\":2429:2482   */\n      jump(tag_689)\n    tag_711:\n        /* \"--CODEGEN--\":2419:2482   */\n      swap3\n      pop\n        /* \"--CODEGEN--\":2391:2488   */\n      pop\n        /* \"--CODEGEN--\":2547:2549   */\n      0x20\n        /* \"--CODEGEN--\":2536:2545   */\n      dup4\n        /* \"--CODEGEN--\":2532:2550   */\n      add\n        /* \"--CODEGEN--\":2519:2551   */\n      calldataload\n        /* \"--CODEGEN--\":2571:2589   */\n      0xffffffffffffffff\n        /* \"--CODEGEN--\":2563:2569   */\n      dup2\n        /* \"--CODEGEN--\":2560:2590   */\n      gt\n        /* \"--CODEGEN--\":2557:2559   */\n      iszero\n      tag_712\n      jumpi\n        /* \"--CODEGEN--\":2603:2604   */\n      0x0\n        /* \"--CODEGEN--\":2600:2601   */\n      dup1\n        /* \"--CODEGEN--\":2593:2605   */\n      revert\n        /* \"--CODEGEN--\":2557:2559   */\n    tag_712:\n        /* \"--CODEGEN--\":2623:2686   */\n      tag_713\n        /* \"--CODEGEN--\":2678:2685   */\n      dup6\n        /* \"--CODEGEN--\":2669:2675   */\n      dup3\n        /* \"--CODEGEN--\":2658:2667   */\n      dup7\n        /* \"--CODEGEN--\":2654:2676   */\n      add\n        /* \"--CODEGEN--\":2623:2686   */\n      jump(tag_679)\n    tag_713:\n        /* \"--CODEGEN--\":2613:2686   */\n      swap2\n      pop\n        /* \"--CODEGEN--\":2498:2692   */\n      pop\n        /* \"--CODEGEN--\":2323:2702   */\n      swap3\n      pop\n      swap3\n      swap1\n      pop\n      jump\n        /* \"--CODEGEN--\":2709:3412   */\n    tag_97:\n      0x0\n      dup1\n      0x0\n        /* \"--CODEGEN--\":2867:2869   */\n      0x60\n        /* \"--CODEGEN--\":2855:2864   */\n      dup5\n        /* \"--CODEGEN--\":2846:2853   */\n      dup7\n        /* \"--CODEGEN--\":2842:2865   */\n      sub\n        /* \"--CODEGEN--\":2838:2870   */\n      slt\n        /* \"--CODEGEN--\":2835:2837   */\n      iszero\n      tag_715\n      jumpi\n        /* \"--CODEGEN--\":2883:2884   */\n      0x0\n        /* \"--CODEGEN--\":2880:2881   */\n      dup1\n        /* \"--CODEGEN--\":2873:2885   */\n      revert\n        /* \"--CODEGEN--\":2835:2837   */\n    tag_715:\n        /* \"--CODEGEN--\":2918:2919   */\n      0x0\n        /* \"--CODEGEN--\":2935:2988   */\n      tag_716\n        /* \"--CODEGEN--\":2980:2987   */\n      dup7\n        /* \"--CODEGEN--\":2971:2977   */\n      dup3\n        /* \"--CODEGEN--\":2960:2969   */\n      dup8\n        /* \"--CODEGEN--\":2956:2978   */\n      add\n        /* \"--CODEGEN--\":2935:2988   */\n      jump(tag_689)\n    tag_716:\n        /* \"--CODEGEN--\":2925:2988   */\n      swap4\n      pop\n        /* \"--CODEGEN--\":2897:2994   */\n      pop\n        /* \"--CODEGEN--\":3053:3055   */\n      0x20\n        /* \"--CODEGEN--\":3042:3051   */\n      dup5\n        /* \"--CODEGEN--\":3038:3056   */\n      add\n        /* \"--CODEGEN--\":3025:3057   */\n      calldataload\n        /* \"--CODEGEN--\":3077:3095   */\n      0xffffffffffffffff\n        /* \"--CODEGEN--\":3069:3075   */\n      dup2\n        /* \"--CODEGEN--\":3066:3096   */\n      gt\n        /* \"--CODEGEN--\":3063:3065   */\n      iszero\n      tag_717\n      jumpi\n        /* \"--CODEGEN--\":3109:3110   */\n      0x0\n        /* \"--CODEGEN--\":3106:3107   */\n      dup1\n        /* \"--CODEGEN--\":3099:3111   */\n      revert\n        /* \"--CODEGEN--\":3063:3065   */\n    tag_717:\n        /* \"--CODEGEN--\":3129:3192   */\n      tag_718\n        /* \"--CODEGEN--\":3184:3191   */\n      dup7\n        /* \"--CODEGEN--\":3175:3181   */\n      dup3\n        /* \"--CODEGEN--\":3164:3173   */\n      dup8\n        /* \"--CODEGEN--\":3160:3182   */\n      add\n        /* \"--CODEGEN--\":3129:3192   */\n      jump(tag_679)\n    tag_718:\n        /* \"--CODEGEN--\":3119:3192   */\n      swap3\n      pop\n        /* \"--CODEGEN--\":3004:3198   */\n      pop\n        /* \"--CODEGEN--\":3257:3259   */\n      0x40\n        /* \"--CODEGEN--\":3246:3255   */\n      dup5\n        /* \"--CODEGEN--\":3242:3260   */\n      add\n        /* \"--CODEGEN--\":3229:3261   */\n      calldataload\n        /* \"--CODEGEN--\":3281:3299   */\n      0xffffffffffffffff\n        /* \"--CODEGEN--\":3273:3279   */\n      dup2\n        /* \"--CODEGEN--\":3270:3300   */\n      gt\n        /* \"--CODEGEN--\":3267:3269   */\n      iszero\n      tag_719\n      jumpi\n        /* \"--CODEGEN--\":3313:3314   */\n      0x0\n        /* \"--CODEGEN--\":3310:3311   */\n      dup1\n        /* \"--CODEGEN--\":3303:3315   */\n      revert\n        /* \"--CODEGEN--\":3267:3269   */\n    tag_719:\n        /* \"--CODEGEN--\":3333:3396   */\n      tag_720\n        /* \"--CODEGEN--\":3388:3395   */\n      dup7\n        /* \"--CODEGEN--\":3379:3385   */\n      dup3\n        /* \"--CODEGEN--\":3368:3377   */\n      dup8\n        /* \"--CODEGEN--\":3364:3386   */\n      add\n        /* \"--CODEGEN--\":3333:3396   */\n      jump(tag_679)\n    tag_720:\n        /* \"--CODEGEN--\":3323:3396   */\n      swap2\n      pop\n        /* \"--CODEGEN--\":3208:3402   */\n      pop\n        /* \"--CODEGEN--\":2829:3412   */\n      swap3\n      pop\n      swap3\n      pop\n      swap3\n      jump\n        /* \"--CODEGEN--\":3419:4016   */\n    tag_119:\n      0x0\n      dup1\n      0x0\n        /* \"--CODEGEN--\":3567:3569   */\n      0x60\n        /* \"--CODEGEN--\":3555:3564   */\n      dup5\n        /* \"--CODEGEN--\":3546:3553   */\n      dup7\n        /* \"--CODEGEN--\":3542:3565   */\n      sub\n        /* \"--CODEGEN--\":3538:3570   */\n      slt\n        /* \"--CODEGEN--\":3535:3537   */\n      iszero\n      tag_722\n      jumpi\n        /* \"--CODEGEN--\":3583:3584   */\n      0x0\n        /* \"--CODEGEN--\":3580:3581   */\n      dup1\n        /* \"--CODEGEN--\":3573:3585   */\n      revert\n        /* \"--CODEGEN--\":3535:3537   */\n    tag_722:\n        /* \"--CODEGEN--\":3618:3619   */\n      0x0\n        /* \"--CODEGEN--\":3635:3688   */\n      tag_723\n        /* \"--CODEGEN--\":3680:3687   */\n      dup7\n        /* \"--CODEGEN--\":3671:3677   */\n      dup3\n        /* \"--CODEGEN--\":3660:3669   */\n      dup8\n        /* \"--CODEGEN--\":3656:3678   */\n      add\n        /* \"--CODEGEN--\":3635:3688   */\n      jump(tag_689)\n    tag_723:\n        /* \"--CODEGEN--\":3625:3688   */\n      swap4\n      pop\n        /* \"--CODEGEN--\":3597:3694   */\n      pop\n        /* \"--CODEGEN--\":3725:3727   */\n      0x20\n        /* \"--CODEGEN--\":3743:3796   */\n      tag_724\n        /* \"--CODEGEN--\":3788:3795   */\n      dup7\n        /* \"--CODEGEN--\":3779:3785   */\n      dup3\n        /* \"--CODEGEN--\":3768:3777   */\n      dup8\n        /* \"--CODEGEN--\":3764:3786   */\n      add\n        /* \"--CODEGEN--\":3743:3796   */\n      jump(tag_689)\n    tag_724:\n        /* \"--CODEGEN--\":3733:3796   */\n      swap3\n      pop\n        /* \"--CODEGEN--\":3704:3802   */\n      pop\n        /* \"--CODEGEN--\":3861:3863   */\n      0x40\n        /* \"--CODEGEN--\":3850:3859   */\n      dup5\n        /* \"--CODEGEN--\":3846:3864   */\n      add\n        /* \"--CODEGEN--\":3833:3865   */\n      calldataload\n        /* \"--CODEGEN--\":3885:3903   */\n      0xffffffffffffffff\n        /* \"--CODEGEN--\":3877:3883   */\n      dup2\n        /* \"--CODEGEN--\":3874:3904   */\n      gt\n        /* \"--CODEGEN--\":3871:3873   */\n      iszero\n      tag_725\n      jumpi\n        /* \"--CODEGEN--\":3917:3918   */\n      0x0\n        /* \"--CODEGEN--\":3914:3915   */\n      dup1\n        /* \"--CODEGEN--\":3907:3919   */\n      revert\n        /* \"--CODEGEN--\":3871:3873   */\n    tag_725:\n        /* \"--CODEGEN--\":3937:4000   */\n      tag_726\n        /* \"--CODEGEN--\":3992:3999   */\n      dup7\n        /* \"--CODEGEN--\":3983:3989   */\n      dup3\n        /* \"--CODEGEN--\":3972:3981   */\n      dup8\n        /* \"--CODEGEN--\":3968:3990   */\n      add\n        /* \"--CODEGEN--\":3937:4000   */\n      jump(tag_679)\n    tag_726:\n        /* \"--CODEGEN--\":3927:4000   */\n      swap2\n      pop\n        /* \"--CODEGEN--\":3812:4006   */\n      pop\n        /* \"--CODEGEN--\":3529:4016   */\n      swap3\n      pop\n      swap3\n      pop\n      swap3\n      jump\n        /* \"--CODEGEN--\":4023:4852   */\n    tag_114:\n      0x0\n      dup1\n      0x0\n      dup1\n        /* \"--CODEGEN--\":4198:4201   */\n      0x80\n        /* \"--CODEGEN--\":4186:4195   */\n      dup6\n        /* \"--CODEGEN--\":4177:4184   */\n      dup8\n        /* \"--CODEGEN--\":4173:4196   */\n      sub\n        /* \"--CODEGEN--\":4169:4202   */\n      slt\n        /* \"--CODEGEN--\":4166:4168   */\n      iszero\n      tag_728\n      jumpi\n        /* \"--CODEGEN--\":4215:4216   */\n      0x0\n        /* \"--CODEGEN--\":4212:4213   */\n      dup1\n        /* \"--CODEGEN--\":4205:4217   */\n      revert\n        /* \"--CODEGEN--\":4166:4168   */\n    tag_728:\n        /* \"--CODEGEN--\":4250:4251   */\n      0x0\n        /* \"--CODEGEN--\":4267:4320   */\n      tag_729\n        /* \"--CODEGEN--\":4312:4319   */\n      dup8\n        /* \"--CODEGEN--\":4303:4309   */\n      dup3\n        /* \"--CODEGEN--\":4292:4301   */\n      dup9\n        /* \"--CODEGEN--\":4288:4310   */\n      add\n        /* \"--CODEGEN--\":4267:4320   */\n      jump(tag_689)\n    tag_729:\n        /* \"--CODEGEN--\":4257:4320   */\n      swap5\n      pop\n        /* \"--CODEGEN--\":4229:4326   */\n      pop\n        /* \"--CODEGEN--\":4357:4359   */\n      0x20\n        /* \"--CODEGEN--\":4375:4428   */\n      tag_730\n        /* \"--CODEGEN--\":4420:4427   */\n      dup8\n        /* \"--CODEGEN--\":4411:4417   */\n      dup3\n        /* \"--CODEGEN--\":4400:4409   */\n      dup9\n        /* \"--CODEGEN--\":4396:4418   */\n      add\n        /* \"--CODEGEN--\":4375:4428   */\n      jump(tag_689)\n    tag_730:\n        /* \"--CODEGEN--\":4365:4428   */\n      swap4\n      pop\n        /* \"--CODEGEN--\":4336:4434   */\n      pop\n        /* \"--CODEGEN--\":4493:4495   */\n      0x40\n        /* \"--CODEGEN--\":4482:4491   */\n      dup6\n        /* \"--CODEGEN--\":4478:4496   */\n      add\n        /* \"--CODEGEN--\":4465:4497   */\n      calldataload\n        /* \"--CODEGEN--\":4517:4535   */\n      0xffffffffffffffff\n        /* \"--CODEGEN--\":4509:4515   */\n      dup2\n        /* \"--CODEGEN--\":4506:4536   */\n      gt\n        /* \"--CODEGEN--\":4503:4505   */\n      iszero\n      tag_731\n      jumpi\n        /* \"--CODEGEN--\":4549:4550   */\n      0x0\n        /* \"--CODEGEN--\":4546:4547   */\n      dup1\n        /* \"--CODEGEN--\":4539:4551   */\n      revert\n        /* \"--CODEGEN--\":4503:4505   */\n    tag_731:\n        /* \"--CODEGEN--\":4569:4632   */\n      tag_732\n        /* \"--CODEGEN--\":4624:4631   */\n      dup8\n        /* \"--CODEGEN--\":4615:4621   */\n      dup3\n        /* \"--CODEGEN--\":4604:4613   */\n      dup9\n        /* \"--CODEGEN--\":4600:4622   */\n      add\n        /* \"--CODEGEN--\":4569:4632   */\n      jump(tag_679)\n    tag_732:\n        /* \"--CODEGEN--\":4559:4632   */\n      swap3\n      pop\n        /* \"--CODEGEN--\":4444:4638   */\n      pop\n        /* \"--CODEGEN--\":4697:4699   */\n      0x60\n        /* \"--CODEGEN--\":4686:4695   */\n      dup6\n        /* \"--CODEGEN--\":4682:4700   */\n      add\n        /* \"--CODEGEN--\":4669:4701   */\n      calldataload\n        /* \"--CODEGEN--\":4721:4739   */\n      0xffffffffffffffff\n        /* \"--CODEGEN--\":4713:4719   */\n      dup2\n        /* \"--CODEGEN--\":4710:4740   */\n      gt\n        /* \"--CODEGEN--\":4707:4709   */\n      iszero\n      tag_733\n      jumpi\n        /* \"--CODEGEN--\":4753:4754   */\n      0x0\n        /* \"--CODEGEN--\":4750:4751   */\n      dup1\n        /* \"--CODEGEN--\":4743:4755   */\n      revert\n        /* \"--CODEGEN--\":4707:4709   */\n    tag_733:\n        /* \"--CODEGEN--\":4773:4836   */\n      tag_734\n        /* \"--CODEGEN--\":4828:4835   */\n      dup8\n        /* \"--CODEGEN--\":4819:4825   */\n      dup3\n        /* \"--CODEGEN--\":4808:4817   */\n      dup9\n        /* \"--CODEGEN--\":4804:4826   */\n      add\n        /* \"--CODEGEN--\":4773:4836   */\n      jump(tag_679)\n    tag_734:\n        /* \"--CODEGEN--\":4763:4836   */\n      swap2\n      pop\n        /* \"--CODEGEN--\":4648:4842   */\n      pop\n        /* \"--CODEGEN--\":4160:4852   */\n      swap3\n      swap6\n      swap2\n      swap5\n      pop\n      swap3\n      pop\n      jump\n        /* \"--CODEGEN--\":4888:5661   */\n    tag_736:\n      0x0\n        /* \"--CODEGEN--\":5035:5095   */\n      tag_737\n        /* \"--CODEGEN--\":5089:5094   */\n      dup3\n        /* \"--CODEGEN--\":5035:5095   */\n      jump(tag_738)\n    tag_737:\n        /* \"--CODEGEN--\":5113:5119   */\n      dup1\n        /* \"--CODEGEN--\":5108:5111   */\n      dup5\n        /* \"--CODEGEN--\":5101:5120   */\n      mstore\n        /* \"--CODEGEN--\":5137:5141   */\n      0x20\n        /* \"--CODEGEN--\":5132:5135   */\n      dup5\n        /* \"--CODEGEN--\":5128:5142   */\n      add\n        /* \"--CODEGEN--\":5121:5142   */\n      swap4\n      pop\n        /* \"--CODEGEN--\":5185:5188   */\n      dup4\n        /* \"--CODEGEN--\":5227:5231   */\n      0x20\n        /* \"--CODEGEN--\":5219:5225   */\n      dup3\n        /* \"--CODEGEN--\":5215:5232   */\n      mul\n        /* \"--CODEGEN--\":5210:5213   */\n      dup6\n        /* \"--CODEGEN--\":5206:5233   */\n      add\n        /* \"--CODEGEN--\":5253:5315   */\n      tag_739\n        /* \"--CODEGEN--\":5309:5314   */\n      dup6\n        /* \"--CODEGEN--\":5253:5315   */\n      jump(tag_740)\n    tag_739:\n        /* \"--CODEGEN--\":5336:5337   */\n      0x0\n        /* \"--CODEGEN--\":5321:5622   */\n    tag_741:\n        /* \"--CODEGEN--\":5346:5352   */\n      dup5\n        /* \"--CODEGEN--\":5343:5344   */\n      dup2\n        /* \"--CODEGEN--\":5340:5353   */\n      lt\n        /* \"--CODEGEN--\":5321:5622   */\n      iszero\n      tag_742\n      jumpi\n        /* \"--CODEGEN--\":5408:5417   */\n      dup4\n        /* \"--CODEGEN--\":5402:5406   */\n      dup4\n        /* \"--CODEGEN--\":5398:5418   */\n      sub\n        /* \"--CODEGEN--\":5393:5396   */\n      dup9\n        /* \"--CODEGEN--\":5386:5419   */\n      mstore\n        /* \"--CODEGEN--\":5434:5504   */\n      tag_744\n        /* \"--CODEGEN--\":5499:5503   */\n      dup4\n        /* \"--CODEGEN--\":5490:5496   */\n      dup4\n        /* \"--CODEGEN--\":5484:5497   */\n      mload\n        /* \"--CODEGEN--\":5434:5504   */\n      jump(tag_745)\n    tag_744:\n        /* \"--CODEGEN--\":5426:5504   */\n      swap3\n      pop\n        /* \"--CODEGEN--\":5521:5587   */\n      tag_746\n        /* \"--CODEGEN--\":5580:5586   */\n      dup3\n        /* \"--CODEGEN--\":5521:5587   */\n      jump(tag_747)\n    tag_746:\n        /* \"--CODEGEN--\":5511:5587   */\n      swap2\n      pop\n        /* \"--CODEGEN--\":5610:5614   */\n      0x20\n        /* \"--CODEGEN--\":5605:5608   */\n      dup9\n        /* \"--CODEGEN--\":5601:5615   */\n      add\n        /* \"--CODEGEN--\":5594:5615   */\n      swap8\n      pop\n        /* \"--CODEGEN--\":5368:5369   */\n      0x1\n        /* \"--CODEGEN--\":5365:5366   */\n      dup2\n        /* \"--CODEGEN--\":5361:5370   */\n      add\n        /* \"--CODEGEN--\":5356:5370   */\n      swap1\n      pop\n        /* \"--CODEGEN--\":5321:5622   */\n      jump(tag_741)\n    tag_742:\n        /* \"--CODEGEN--\":5325:5339   */\n      pop\n        /* \"--CODEGEN--\":5635:5639   */\n      dup2\n        /* \"--CODEGEN--\":5628:5639   */\n      swap7\n      pop\n        /* \"--CODEGEN--\":5652:5655   */\n      dup7\n        /* \"--CODEGEN--\":5645:5655   */\n      swap5\n      pop\n        /* \"--CODEGEN--\":5014:5661   */\n      pop\n      pop\n      pop\n      pop\n      swap3\n      swap2\n      pop\n      pop\n      jump\n        /* \"--CODEGEN--\":5700:6290   */\n    tag_749:\n      0x0\n        /* \"--CODEGEN--\":5835:5889   */\n      tag_750\n        /* \"--CODEGEN--\":5883:5888   */\n      dup3\n        /* \"--CODEGEN--\":5835:5889   */\n      jump(tag_751)\n    tag_750:\n        /* \"--CODEGEN--\":5907:5913   */\n      dup1\n        /* \"--CODEGEN--\":5902:5905   */\n      dup5\n        /* \"--CODEGEN--\":5895:5914   */\n      mstore\n        /* \"--CODEGEN--\":5931:5935   */\n      0x20\n        /* \"--CODEGEN--\":5926:5929   */\n      dup5\n        /* \"--CODEGEN--\":5922:5936   */\n      add\n        /* \"--CODEGEN--\":5915:5936   */\n      swap4\n      pop\n        /* \"--CODEGEN--\":5976:6032   */\n      tag_752\n        /* \"--CODEGEN--\":6026:6031   */\n      dup4\n        /* \"--CODEGEN--\":5976:6032   */\n      jump(tag_753)\n    tag_752:\n        /* \"--CODEGEN--\":6053:6054   */\n      0x0\n        /* \"--CODEGEN--\":6038:6268   */\n    tag_754:\n        /* \"--CODEGEN--\":6063:6069   */\n      dup3\n        /* \"--CODEGEN--\":6060:6061   */\n      dup2\n        /* \"--CODEGEN--\":6057:6070   */\n      lt\n        /* \"--CODEGEN--\":6038:6268   */\n      iszero\n      tag_755\n      jumpi\n        /* \"--CODEGEN--\":6103:6156   */\n      tag_757\n        /* \"--CODEGEN--\":6152:6155   */\n      dup7\n        /* \"--CODEGEN--\":6143:6149   */\n      dup4\n        /* \"--CODEGEN--\":6137:6150   */\n      mload\n        /* \"--CODEGEN--\":6103:6156   */\n      jump(tag_758)\n    tag_757:\n        /* \"--CODEGEN--\":6173:6233   */\n      tag_759\n        /* \"--CODEGEN--\":6226:6232   */\n      dup3\n        /* \"--CODEGEN--\":6173:6233   */\n      jump(tag_760)\n    tag_759:\n        /* \"--CODEGEN--\":6163:6233   */\n      swap2\n      pop\n        /* \"--CODEGEN--\":6256:6260   */\n      0x20\n        /* \"--CODEGEN--\":6251:6254   */\n      dup7\n        /* \"--CODEGEN--\":6247:6261   */\n      add\n        /* \"--CODEGEN--\":6240:6261   */\n      swap6\n      pop\n        /* \"--CODEGEN--\":6085:6086   */\n      0x1\n        /* \"--CODEGEN--\":6082:6083   */\n      dup2\n        /* \"--CODEGEN--\":6078:6087   */\n      add\n        /* \"--CODEGEN--\":6073:6087   */\n      swap1\n      pop\n        /* \"--CODEGEN--\":6038:6268   */\n      jump(tag_754)\n    tag_755:\n        /* \"--CODEGEN--\":6042:6056   */\n      pop\n        /* \"--CODEGEN--\":6281:6284   */\n      dup5\n        /* \"--CODEGEN--\":6274:6284   */\n      swap3\n      pop\n        /* \"--CODEGEN--\":5814:6290   */\n      pop\n      pop\n      swap3\n      swap2\n      pop\n      pop\n      jump\n        /* \"--CODEGEN--\":6298:6399   */\n    tag_762:\n        /* \"--CODEGEN--\":6365:6393   */\n      tag_763\n        /* \"--CODEGEN--\":6387:6392   */\n      dup2\n        /* \"--CODEGEN--\":6365:6393   */\n      jump(tag_764)\n    tag_763:\n        /* \"--CODEGEN--\":6360:6363   */\n      dup3\n        /* \"--CODEGEN--\":6353:6394   */\n      mstore\n        /* \"--CODEGEN--\":6347:6399   */\n      pop\n      pop\n      jump\n        /* \"--CODEGEN--\":6406:6706   */\n    tag_766:\n      0x0\n        /* \"--CODEGEN--\":6508:6547   */\n      tag_767\n        /* \"--CODEGEN--\":6541:6546   */\n      dup3\n        /* \"--CODEGEN--\":6508:6547   */\n      jump(tag_768)\n    tag_767:\n        /* \"--CODEGEN--\":6564:6570   */\n      dup1\n        /* \"--CODEGEN--\":6559:6562   */\n      dup5\n        /* \"--CODEGEN--\":6552:6571   */\n      mstore\n        /* \"--CODEGEN--\":6576:6639   */\n      tag_769\n        /* \"--CODEGEN--\":6632:6638   */\n      dup2\n        /* \"--CODEGEN--\":6625:6629   */\n      0x20\n        /* \"--CODEGEN--\":6620:6623   */\n      dup7\n        /* \"--CODEGEN--\":6616:6630   */\n      add\n        /* \"--CODEGEN--\":6609:6613   */\n      0x20\n        /* \"--CODEGEN--\":6602:6607   */\n      dup7\n        /* \"--CODEGEN--\":6598:6614   */\n      add\n        /* \"--CODEGEN--\":6576:6639   */\n      jump(tag_770)\n    tag_769:\n        /* \"--CODEGEN--\":6671:6700   */\n      tag_771\n        /* \"--CODEGEN--\":6693:6699   */\n      dup2\n        /* \"--CODEGEN--\":6671:6700   */\n      jump(tag_772)\n    tag_771:\n        /* \"--CODEGEN--\":6664:6668   */\n      0x20\n        /* \"--CODEGEN--\":6659:6662   */\n      dup6\n        /* \"--CODEGEN--\":6655:6669   */\n      add\n        /* \"--CODEGEN--\":6651:6701   */\n      add\n        /* \"--CODEGEN--\":6644:6701   */\n      swap2\n      pop\n        /* \"--CODEGEN--\":6488:6706   */\n      pop\n      swap3\n      swap2\n      pop\n      pop\n      jump\n        /* \"--CODEGEN--\":6713:7005   */\n    tag_745:\n      0x0\n        /* \"--CODEGEN--\":6811:6846   */\n      tag_774\n        /* \"--CODEGEN--\":6840:6845   */\n      dup3\n        /* \"--CODEGEN--\":6811:6846   */\n      jump(tag_775)\n    tag_774:\n        /* \"--CODEGEN--\":6863:6869   */\n      dup1\n        /* \"--CODEGEN--\":6858:6861   */\n      dup5\n        /* \"--CODEGEN--\":6851:6870   */\n      mstore\n        /* \"--CODEGEN--\":6875:6938   */\n      tag_776\n        /* \"--CODEGEN--\":6931:6937   */\n      dup2\n        /* \"--CODEGEN--\":6924:6928   */\n      0x20\n        /* \"--CODEGEN--\":6919:6922   */\n      dup7\n        /* \"--CODEGEN--\":6915:6929   */\n      add\n        /* \"--CODEGEN--\":6908:6912   */\n      0x20\n        /* \"--CODEGEN--\":6901:6906   */\n      dup7\n        /* \"--CODEGEN--\":6897:6913   */\n      add\n        /* \"--CODEGEN--\":6875:6938   */\n      jump(tag_770)\n    tag_776:\n        /* \"--CODEGEN--\":6970:6999   */\n      tag_777\n        /* \"--CODEGEN--\":6992:6998   */\n      dup2\n        /* \"--CODEGEN--\":6970:6999   */\n      jump(tag_772)\n    tag_777:\n        /* \"--CODEGEN--\":6963:6967   */\n      0x20\n        /* \"--CODEGEN--\":6958:6961   */\n      dup6\n        /* \"--CODEGEN--\":6954:6968   */\n      add\n        /* \"--CODEGEN--\":6950:7000   */\n      add\n        /* \"--CODEGEN--\":6943:7000   */\n      swap2\n      pop\n        /* \"--CODEGEN--\":6791:7005   */\n      pop\n      swap3\n      swap2\n      pop\n      pop\n      jump\n        /* \"--CODEGEN--\":7013:7309   */\n    tag_779:\n      0x0\n        /* \"--CODEGEN--\":7168:7170   */\n      0x16\n        /* \"--CODEGEN--\":7163:7166   */\n      dup3\n        /* \"--CODEGEN--\":7156:7171   */\n      mstore\n        /* \"--CODEGEN--\":7205:7271   */\n      0x5573657220494420646f6573206e6f7420657869737400000000000000000000\n        /* \"--CODEGEN--\":7200:7202   */\n      0x20\n        /* \"--CODEGEN--\":7195:7198   */\n      dup4\n        /* \"--CODEGEN--\":7191:7203   */\n      add\n        /* \"--CODEGEN--\":7184:7272   */\n      mstore\n        /* \"--CODEGEN--\":7300:7302   */\n      0x40\n        /* \"--CODEGEN--\":7295:7298   */\n      dup3\n        /* \"--CODEGEN--\":7291:7303   */\n      add\n        /* \"--CODEGEN--\":7284:7303   */\n      swap1\n      pop\n        /* \"--CODEGEN--\":7149:7309   */\n      swap2\n      swap1\n      pop\n      jump\n        /* \"--CODEGEN--\":7318:7614   */\n    tag_781:\n      0x0\n        /* \"--CODEGEN--\":7473:7475   */\n      0x19\n        /* \"--CODEGEN--\":7468:7471   */\n      dup3\n        /* \"--CODEGEN--\":7461:7476   */\n      mstore\n        /* \"--CODEGEN--\":7510:7576   */\n      0x4361727269657220494420646f6573206e6f7420657869737400000000000000\n        /* \"--CODEGEN--\":7505:7507   */\n      0x20\n        /* \"--CODEGEN--\":7500:7503   */\n      dup4\n        /* \"--CODEGEN--\":7496:7508   */\n      add\n        /* \"--CODEGEN--\":7489:7577   */\n      mstore\n        /* \"--CODEGEN--\":7605:7607   */\n      0x40\n        /* \"--CODEGEN--\":7600:7603   */\n      dup3\n        /* \"--CODEGEN--\":7596:7608   */\n      add\n        /* \"--CODEGEN--\":7589:7608   */\n      swap1\n      pop\n        /* \"--CODEGEN--\":7454:7614   */\n      swap2\n      swap1\n      pop\n      jump\n        /* \"--CODEGEN--\":7623:7919   */\n    tag_783:\n      0x0\n        /* \"--CODEGEN--\":7778:7780   */\n      0x1a\n        /* \"--CODEGEN--\":7773:7776   */\n      dup3\n        /* \"--CODEGEN--\":7766:7781   */\n      mstore\n        /* \"--CODEGEN--\":7815:7881   */\n      0x536869706d656e7420494420646f6573206e6f74206578697374000000000000\n        /* \"--CODEGEN--\":7810:7812   */\n      0x20\n        /* \"--CODEGEN--\":7805:7808   */\n      dup4\n        /* \"--CODEGEN--\":7801:7813   */\n      add\n        /* \"--CODEGEN--\":7794:7882   */\n      mstore\n        /* \"--CODEGEN--\":7910:7912   */\n      0x40\n        /* \"--CODEGEN--\":7905:7908   */\n      dup3\n        /* \"--CODEGEN--\":7901:7913   */\n      add\n        /* \"--CODEGEN--\":7894:7913   */\n      swap1\n      pop\n        /* \"--CODEGEN--\":7759:7919   */\n      swap2\n      swap1\n      pop\n      jump\n        /* \"--CODEGEN--\":7927:8037   */\n    tag_758:\n        /* \"--CODEGEN--\":8000:8031   */\n      tag_785\n        /* \"--CODEGEN--\":8025:8030   */\n      dup2\n        /* \"--CODEGEN--\":8000:8031   */\n      jump(tag_786)\n    tag_785:\n        /* \"--CODEGEN--\":7995:7998   */\n      dup3\n        /* \"--CODEGEN--\":7988:8032   */\n      mstore\n        /* \"--CODEGEN--\":7982:8037   */\n      pop\n      pop\n      jump\n        /* \"--CODEGEN--\":8044:8385   */\n    tag_93:\n      0x0\n        /* \"--CODEGEN--\":8202:8204   */\n      0x20\n        /* \"--CODEGEN--\":8191:8200   */\n      dup3\n        /* \"--CODEGEN--\":8187:8205   */\n      add\n        /* \"--CODEGEN--\":8179:8205   */\n      swap1\n      pop\n        /* \"--CODEGEN--\":8252:8261   */\n      dup2\n        /* \"--CODEGEN--\":8246:8250   */\n      dup2\n        /* \"--CODEGEN--\":8242:8262   */\n      sub\n        /* \"--CODEGEN--\":8238:8239   */\n      0x0\n        /* \"--CODEGEN--\":8227:8236   */\n      dup4\n        /* \"--CODEGEN--\":8223:8240   */\n      add\n        /* \"--CODEGEN--\":8216:8263   */\n      mstore\n        /* \"--CODEGEN--\":8277:8375   */\n      tag_788\n        /* \"--CODEGEN--\":8370:8374   */\n      dup2\n        /* \"--CODEGEN--\":8361:8367   */\n      dup5\n        /* \"--CODEGEN--\":8277:8375   */\n      jump(tag_749)\n    tag_788:\n        /* \"--CODEGEN--\":8269:8375   */\n      swap1\n      pop\n        /* \"--CODEGEN--\":8173:8385   */\n      swap3\n      swap2\n      pop\n      pop\n      jump\n        /* \"--CODEGEN--\":8392:9279   */\n    tag_152:\n      0x0\n        /* \"--CODEGEN--\":8730:8732   */\n      0x60\n        /* \"--CODEGEN--\":8719:8728   */\n      dup3\n        /* \"--CODEGEN--\":8715:8733   */\n      add\n        /* \"--CODEGEN--\":8707:8733   */\n      swap1\n      pop\n        /* \"--CODEGEN--\":8780:8789   */\n      dup2\n        /* \"--CODEGEN--\":8774:8778   */\n      dup2\n        /* \"--CODEGEN--\":8770:8790   */\n      sub\n        /* \"--CODEGEN--\":8766:8767   */\n      0x0\n        /* \"--CODEGEN--\":8755:8764   */\n      dup4\n        /* \"--CODEGEN--\":8751:8768   */\n      add\n        /* \"--CODEGEN--\":8744:8791   */\n      mstore\n        /* \"--CODEGEN--\":8805:8903   */\n      tag_790\n        /* \"--CODEGEN--\":8898:8902   */\n      dup2\n        /* \"--CODEGEN--\":8889:8895   */\n      dup7\n        /* \"--CODEGEN--\":8805:8903   */\n      jump(tag_749)\n    tag_790:\n        /* \"--CODEGEN--\":8797:8903   */\n      swap1\n      pop\n        /* \"--CODEGEN--\":8951:8960   */\n      dup2\n        /* \"--CODEGEN--\":8945:8949   */\n      dup2\n        /* \"--CODEGEN--\":8941:8961   */\n      sub\n        /* \"--CODEGEN--\":8936:8938   */\n      0x20\n        /* \"--CODEGEN--\":8925:8934   */\n      dup4\n        /* \"--CODEGEN--\":8921:8939   */\n      add\n        /* \"--CODEGEN--\":8914:8962   */\n      mstore\n        /* \"--CODEGEN--\":8976:9086   */\n      tag_791\n        /* \"--CODEGEN--\":9081:9085   */\n      dup2\n        /* \"--CODEGEN--\":9072:9078   */\n      dup6\n        /* \"--CODEGEN--\":8976:9086   */\n      jump(tag_736)\n    tag_791:\n        /* \"--CODEGEN--\":8968:9086   */\n      swap1\n      pop\n        /* \"--CODEGEN--\":9134:9143   */\n      dup2\n        /* \"--CODEGEN--\":9128:9132   */\n      dup2\n        /* \"--CODEGEN--\":9124:9144   */\n      sub\n        /* \"--CODEGEN--\":9119:9121   */\n      0x40\n        /* \"--CODEGEN--\":9108:9117   */\n      dup4\n        /* \"--CODEGEN--\":9104:9122   */\n      add\n        /* \"--CODEGEN--\":9097:9145   */\n      mstore\n        /* \"--CODEGEN--\":9159:9269   */\n      tag_792\n        /* \"--CODEGEN--\":9264:9268   */\n      dup2\n        /* \"--CODEGEN--\":9255:9261   */\n      dup5\n        /* \"--CODEGEN--\":9159:9269   */\n      jump(tag_736)\n    tag_792:\n        /* \"--CODEGEN--\":9151:9269   */\n      swap1\n      pop\n        /* \"--CODEGEN--\":8701:9279   */\n      swap5\n      swap4\n      pop\n      pop\n      pop\n      pop\n      jump\n        /* \"--CODEGEN--\":9286:10447   */\n    tag_131:\n      0x0\n        /* \"--CODEGEN--\":9714:9717   */\n      0x80\n        /* \"--CODEGEN--\":9703:9712   */\n      dup3\n        /* \"--CODEGEN--\":9699:9718   */\n      add\n        /* \"--CODEGEN--\":9691:9718   */\n      swap1\n      pop\n        /* \"--CODEGEN--\":9765:9774   */\n      dup2\n        /* \"--CODEGEN--\":9759:9763   */\n      dup2\n        /* \"--CODEGEN--\":9755:9775   */\n      sub\n        /* \"--CODEGEN--\":9751:9752   */\n      0x0\n        /* \"--CODEGEN--\":9740:9749   */\n      dup4\n        /* \"--CODEGEN--\":9736:9753   */\n      add\n        /* \"--CODEGEN--\":9729:9776   */\n      mstore\n        /* \"--CODEGEN--\":9790:9888   */\n      tag_794\n        /* \"--CODEGEN--\":9883:9887   */\n      dup2\n        /* \"--CODEGEN--\":9874:9880   */\n      dup8\n        /* \"--CODEGEN--\":9790:9888   */\n      jump(tag_749)\n    tag_794:\n        /* \"--CODEGEN--\":9782:9888   */\n      swap1\n      pop\n        /* \"--CODEGEN--\":9936:9945   */\n      dup2\n        /* \"--CODEGEN--\":9930:9934   */\n      dup2\n        /* \"--CODEGEN--\":9926:9946   */\n      sub\n        /* \"--CODEGEN--\":9921:9923   */\n      0x20\n        /* \"--CODEGEN--\":9910:9919   */\n      dup4\n        /* \"--CODEGEN--\":9906:9924   */\n      add\n        /* \"--CODEGEN--\":9899:9947   */\n      mstore\n        /* \"--CODEGEN--\":9961:10071   */\n      tag_795\n        /* \"--CODEGEN--\":10066:10070   */\n      dup2\n        /* \"--CODEGEN--\":10057:10063   */\n      dup7\n        /* \"--CODEGEN--\":9961:10071   */\n      jump(tag_736)\n    tag_795:\n        /* \"--CODEGEN--\":9953:10071   */\n      swap1\n      pop\n        /* \"--CODEGEN--\":10119:10128   */\n      dup2\n        /* \"--CODEGEN--\":10113:10117   */\n      dup2\n        /* \"--CODEGEN--\":10109:10129   */\n      sub\n        /* \"--CODEGEN--\":10104:10106   */\n      0x40\n        /* \"--CODEGEN--\":10093:10102   */\n      dup4\n        /* \"--CODEGEN--\":10089:10107   */\n      add\n        /* \"--CODEGEN--\":10082:10130   */\n      mstore\n        /* \"--CODEGEN--\":10144:10254   */\n      tag_796\n        /* \"--CODEGEN--\":10249:10253   */\n      dup2\n        /* \"--CODEGEN--\":10240:10246   */\n      dup6\n        /* \"--CODEGEN--\":10144:10254   */\n      jump(tag_736)\n    tag_796:\n        /* \"--CODEGEN--\":10136:10254   */\n      swap1\n      pop\n        /* \"--CODEGEN--\":10302:10311   */\n      dup2\n        /* \"--CODEGEN--\":10296:10300   */\n      dup2\n        /* \"--CODEGEN--\":10292:10312   */\n      sub\n        /* \"--CODEGEN--\":10287:10289   */\n      0x60\n        /* \"--CODEGEN--\":10276:10285   */\n      dup4\n        /* \"--CODEGEN--\":10272:10290   */\n      add\n        /* \"--CODEGEN--\":10265:10313   */\n      mstore\n        /* \"--CODEGEN--\":10327:10437   */\n      tag_797\n        /* \"--CODEGEN--\":10432:10436   */\n      dup2\n        /* \"--CODEGEN--\":10423:10429   */\n      dup5\n        /* \"--CODEGEN--\":10327:10437   */\n      jump(tag_736)\n    tag_797:\n        /* \"--CODEGEN--\":10319:10437   */\n      swap1\n      pop\n        /* \"--CODEGEN--\":9685:10447   */\n      swap6\n      swap5\n      pop\n      pop\n      pop\n      pop\n      pop\n      jump\n        /* \"--CODEGEN--\":10454:12115   */\n    tag_87:\n      0x0\n        /* \"--CODEGEN--\":11038:11041   */\n      0xc0\n        /* \"--CODEGEN--\":11027:11036   */\n      dup3\n        /* \"--CODEGEN--\":11023:11042   */\n      add\n        /* \"--CODEGEN--\":11015:11042   */\n      swap1\n      pop\n        /* \"--CODEGEN--\":11089:11098   */\n      dup2\n        /* \"--CODEGEN--\":11083:11087   */\n      dup2\n        /* \"--CODEGEN--\":11079:11099   */\n      sub\n        /* \"--CODEGEN--\":11075:11076   */\n      0x0\n        /* \"--CODEGEN--\":11064:11073   */\n      dup4\n        /* \"--CODEGEN--\":11060:11077   */\n      add\n        /* \"--CODEGEN--\":11053:11100   */\n      mstore\n        /* \"--CODEGEN--\":11114:11212   */\n      tag_799\n        /* \"--CODEGEN--\":11207:11211   */\n      dup2\n        /* \"--CODEGEN--\":11198:11204   */\n      dup10\n        /* \"--CODEGEN--\":11114:11212   */\n      jump(tag_749)\n    tag_799:\n        /* \"--CODEGEN--\":11106:11212   */\n      swap1\n      pop\n        /* \"--CODEGEN--\":11260:11269   */\n      dup2\n        /* \"--CODEGEN--\":11254:11258   */\n      dup2\n        /* \"--CODEGEN--\":11250:11270   */\n      sub\n        /* \"--CODEGEN--\":11245:11247   */\n      0x20\n        /* \"--CODEGEN--\":11234:11243   */\n      dup4\n        /* \"--CODEGEN--\":11230:11248   */\n      add\n        /* \"--CODEGEN--\":11223:11271   */\n      mstore\n        /* \"--CODEGEN--\":11285:11383   */\n      tag_800\n        /* \"--CODEGEN--\":11378:11382   */\n      dup2\n        /* \"--CODEGEN--\":11369:11375   */\n      dup9\n        /* \"--CODEGEN--\":11285:11383   */\n      jump(tag_749)\n    tag_800:\n        /* \"--CODEGEN--\":11277:11383   */\n      swap1\n      pop\n        /* \"--CODEGEN--\":11431:11440   */\n      dup2\n        /* \"--CODEGEN--\":11425:11429   */\n      dup2\n        /* \"--CODEGEN--\":11421:11441   */\n      sub\n        /* \"--CODEGEN--\":11416:11418   */\n      0x40\n        /* \"--CODEGEN--\":11405:11414   */\n      dup4\n        /* \"--CODEGEN--\":11401:11419   */\n      add\n        /* \"--CODEGEN--\":11394:11442   */\n      mstore\n        /* \"--CODEGEN--\":11456:11554   */\n      tag_801\n        /* \"--CODEGEN--\":11549:11553   */\n      dup2\n        /* \"--CODEGEN--\":11540:11546   */\n      dup8\n        /* \"--CODEGEN--\":11456:11554   */\n      jump(tag_749)\n    tag_801:\n        /* \"--CODEGEN--\":11448:11554   */\n      swap1\n      pop\n        /* \"--CODEGEN--\":11602:11611   */\n      dup2\n        /* \"--CODEGEN--\":11596:11600   */\n      dup2\n        /* \"--CODEGEN--\":11592:11612   */\n      sub\n        /* \"--CODEGEN--\":11587:11589   */\n      0x60\n        /* \"--CODEGEN--\":11576:11585   */\n      dup4\n        /* \"--CODEGEN--\":11572:11590   */\n      add\n        /* \"--CODEGEN--\":11565:11613   */\n      mstore\n        /* \"--CODEGEN--\":11627:11737   */\n      tag_802\n        /* \"--CODEGEN--\":11732:11736   */\n      dup2\n        /* \"--CODEGEN--\":11723:11729   */\n      dup7\n        /* \"--CODEGEN--\":11627:11737   */\n      jump(tag_736)\n    tag_802:\n        /* \"--CODEGEN--\":11619:11737   */\n      swap1\n      pop\n        /* \"--CODEGEN--\":11786:11795   */\n      dup2\n        /* \"--CODEGEN--\":11780:11784   */\n      dup2\n        /* \"--CODEGEN--\":11776:11796   */\n      sub\n        /* \"--CODEGEN--\":11770:11773   */\n      0x80\n        /* \"--CODEGEN--\":11759:11768   */\n      dup4\n        /* \"--CODEGEN--\":11755:11774   */\n      add\n        /* \"--CODEGEN--\":11748:11797   */\n      mstore\n        /* \"--CODEGEN--\":11811:11921   */\n      tag_803\n        /* \"--CODEGEN--\":11916:11920   */\n      dup2\n        /* \"--CODEGEN--\":11907:11913   */\n      dup6\n        /* \"--CODEGEN--\":11811:11921   */\n      jump(tag_736)\n    tag_803:\n        /* \"--CODEGEN--\":11803:11921   */\n      swap1\n      pop\n        /* \"--CODEGEN--\":11970:11979   */\n      dup2\n        /* \"--CODEGEN--\":11964:11968   */\n      dup2\n        /* \"--CODEGEN--\":11960:11980   */\n      sub\n        /* \"--CODEGEN--\":11954:11957   */\n      0xa0\n        /* \"--CODEGEN--\":11943:11952   */\n      dup4\n        /* \"--CODEGEN--\":11939:11958   */\n      add\n        /* \"--CODEGEN--\":11932:11981   */\n      mstore\n        /* \"--CODEGEN--\":11995:12105   */\n      tag_804\n        /* \"--CODEGEN--\":12100:12104   */\n      dup2\n        /* \"--CODEGEN--\":12091:12097   */\n      dup5\n        /* \"--CODEGEN--\":11995:12105   */\n      jump(tag_736)\n    tag_804:\n        /* \"--CODEGEN--\":11987:12105   */\n      swap1\n      pop\n        /* \"--CODEGEN--\":11009:12115   */\n      swap8\n      swap7\n      pop\n      pop\n      pop\n      pop\n      pop\n      pop\n      pop\n      jump\n        /* \"--CODEGEN--\":12122:12303   */\n    tag_56:\n      0x0\n        /* \"--CODEGEN--\":12224:12226   */\n      0x20\n        /* \"--CODEGEN--\":12213:12222   */\n      dup3\n        /* \"--CODEGEN--\":12209:12227   */\n      add\n        /* \"--CODEGEN--\":12201:12227   */\n      swap1\n      pop\n        /* \"--CODEGEN--\":12238:12293   */\n      tag_806\n        /* \"--CODEGEN--\":12290:12291   */\n      0x0\n        /* \"--CODEGEN--\":12279:12288   */\n      dup4\n        /* \"--CODEGEN--\":12275:12292   */\n      add\n        /* \"--CODEGEN--\":12266:12272   */\n      dup5\n        /* \"--CODEGEN--\":12238:12293   */\n      jump(tag_762)\n    tag_806:\n        /* \"--CODEGEN--\":12195:12303   */\n      swap3\n      swap2\n      pop\n      pop\n      jump\n        /* \"--CODEGEN--\":12310:12591   */\n    tag_110:\n      0x0\n        /* \"--CODEGEN--\":12438:12440   */\n      0x20\n        /* \"--CODEGEN--\":12427:12436   */\n      dup3\n        /* \"--CODEGEN--\":12423:12441   */\n      add\n        /* \"--CODEGEN--\":12415:12441   */\n      swap1\n      pop\n        /* \"--CODEGEN--\":12488:12497   */\n      dup2\n        /* \"--CODEGEN--\":12482:12486   */\n      dup2\n        /* \"--CODEGEN--\":12478:12498   */\n      sub\n        /* \"--CODEGEN--\":12474:12475   */\n      0x0\n        /* \"--CODEGEN--\":12463:12472   */\n      dup4\n        /* \"--CODEGEN--\":12459:12476   */\n      add\n        /* \"--CODEGEN--\":12452:12499   */\n      mstore\n        /* \"--CODEGEN--\":12513:12581   */\n      tag_808\n        /* \"--CODEGEN--\":12576:12580   */\n      dup2\n        /* \"--CODEGEN--\":12567:12573   */\n      dup5\n        /* \"--CODEGEN--\":12513:12581   */\n      jump(tag_766)\n    tag_808:\n        /* \"--CODEGEN--\":12505:12581   */\n      swap1\n      pop\n        /* \"--CODEGEN--\":12409:12591   */\n      swap3\n      swap2\n      pop\n      pop\n      jump\n        /* \"--CODEGEN--\":12598:12985   */\n    tag_263:\n      0x0\n        /* \"--CODEGEN--\":12779:12781   */\n      0x20\n        /* \"--CODEGEN--\":12768:12777   */\n      dup3\n        /* \"--CODEGEN--\":12764:12782   */\n      add\n        /* \"--CODEGEN--\":12756:12782   */\n      swap1\n      pop\n        /* \"--CODEGEN--\":12829:12838   */\n      dup2\n        /* \"--CODEGEN--\":12823:12827   */\n      dup2\n        /* \"--CODEGEN--\":12819:12839   */\n      sub\n        /* \"--CODEGEN--\":12815:12816   */\n      0x0\n        /* \"--CODEGEN--\":12804:12813   */\n      dup4\n        /* \"--CODEGEN--\":12800:12817   */\n      add\n        /* \"--CODEGEN--\":12793:12840   */\n      mstore\n        /* \"--CODEGEN--\":12854:12975   */\n      tag_810\n        /* \"--CODEGEN--\":12970:12974   */\n      dup2\n        /* \"--CODEGEN--\":12854:12975   */\n      jump(tag_779)\n    tag_810:\n        /* \"--CODEGEN--\":12846:12975   */\n      swap1\n      pop\n        /* \"--CODEGEN--\":12750:12985   */\n      swap2\n      swap1\n      pop\n      jump\n        /* \"--CODEGEN--\":12992:13379   */\n    tag_410:\n      0x0\n        /* \"--CODEGEN--\":13173:13175   */\n      0x20\n        /* \"--CODEGEN--\":13162:13171   */\n      dup3\n        /* \"--CODEGEN--\":13158:13176   */\n      add\n        /* \"--CODEGEN--\":13150:13176   */\n      swap1\n      pop\n        /* \"--CODEGEN--\":13223:13232   */\n      dup2\n        /* \"--CODEGEN--\":13217:13221   */\n      dup2\n        /* \"--CODEGEN--\":13213:13233   */\n      sub\n        /* \"--CODEGEN--\":13209:13210   */\n      0x0\n        /* \"--CODEGEN--\":13198:13207   */\n      dup4\n        /* \"--CODEGEN--\":13194:13211   */\n      add\n        /* \"--CODEGEN--\":13187:13234   */\n      mstore\n        /* \"--CODEGEN--\":13248:13369   */\n      tag_812\n        /* \"--CODEGEN--\":13364:13368   */\n      dup2\n        /* \"--CODEGEN--\":13248:13369   */\n      jump(tag_781)\n    tag_812:\n        /* \"--CODEGEN--\":13240:13369   */\n      swap1\n      pop\n        /* \"--CODEGEN--\":13144:13379   */\n      swap2\n      swap1\n      pop\n      jump\n        /* \"--CODEGEN--\":13386:13773   */\n    tag_225:\n      0x0\n        /* \"--CODEGEN--\":13567:13569   */\n      0x20\n        /* \"--CODEGEN--\":13556:13565   */\n      dup3\n        /* \"--CODEGEN--\":13552:13570   */\n      add\n        /* \"--CODEGEN--\":13544:13570   */\n      swap1\n      pop\n        /* \"--CODEGEN--\":13617:13626   */\n      dup2\n        /* \"--CODEGEN--\":13611:13615   */\n      dup2\n        /* \"--CODEGEN--\":13607:13627   */\n      sub\n        /* \"--CODEGEN--\":13603:13604   */\n      0x0\n        /* \"--CODEGEN--\":13592:13601   */\n      dup4\n        /* \"--CODEGEN--\":13588:13605   */\n      add\n        /* \"--CODEGEN--\":13581:13628   */\n      mstore\n        /* \"--CODEGEN--\":13642:13763   */\n      tag_814\n        /* \"--CODEGEN--\":13758:13762   */\n      dup2\n        /* \"--CODEGEN--\":13642:13763   */\n      jump(tag_783)\n    tag_814:\n        /* \"--CODEGEN--\":13634:13763   */\n      swap1\n      pop\n        /* \"--CODEGEN--\":13538:13773   */\n      swap2\n      swap1\n      pop\n      jump\n        /* \"--CODEGEN--\":13780:14351   */\n    tag_126:\n      0x0\n        /* \"--CODEGEN--\":13984:13986   */\n      0x60\n        /* \"--CODEGEN--\":13973:13982   */\n      dup3\n        /* \"--CODEGEN--\":13969:13987   */\n      add\n        /* \"--CODEGEN--\":13961:13987   */\n      swap1\n      pop\n        /* \"--CODEGEN--\":13998:14059   */\n      tag_816\n        /* \"--CODEGEN--\":14056:14057   */\n      0x0\n        /* \"--CODEGEN--\":14045:14054   */\n      dup4\n        /* \"--CODEGEN--\":14041:14058   */\n      add\n        /* \"--CODEGEN--\":14032:14038   */\n      dup7\n        /* \"--CODEGEN--\":13998:14059   */\n      jump(tag_758)\n    tag_816:\n        /* \"--CODEGEN--\":14107:14116   */\n      dup2\n        /* \"--CODEGEN--\":14101:14105   */\n      dup2\n        /* \"--CODEGEN--\":14097:14117   */\n      sub\n        /* \"--CODEGEN--\":14092:14094   */\n      0x20\n        /* \"--CODEGEN--\":14081:14090   */\n      dup4\n        /* \"--CODEGEN--\":14077:14095   */\n      add\n        /* \"--CODEGEN--\":14070:14118   */\n      mstore\n        /* \"--CODEGEN--\":14132:14200   */\n      tag_817\n        /* \"--CODEGEN--\":14195:14199   */\n      dup2\n        /* \"--CODEGEN--\":14186:14192   */\n      dup6\n        /* \"--CODEGEN--\":14132:14200   */\n      jump(tag_766)\n    tag_817:\n        /* \"--CODEGEN--\":14124:14200   */\n      swap1\n      pop\n        /* \"--CODEGEN--\":14248:14257   */\n      dup2\n        /* \"--CODEGEN--\":14242:14246   */\n      dup2\n        /* \"--CODEGEN--\":14238:14258   */\n      sub\n        /* \"--CODEGEN--\":14233:14235   */\n      0x40\n        /* \"--CODEGEN--\":14222:14231   */\n      dup4\n        /* \"--CODEGEN--\":14218:14236   */\n      add\n        /* \"--CODEGEN--\":14211:14259   */\n      mstore\n        /* \"--CODEGEN--\":14273:14341   */\n      tag_818\n        /* \"--CODEGEN--\":14336:14340   */\n      dup2\n        /* \"--CODEGEN--\":14327:14333   */\n      dup5\n        /* \"--CODEGEN--\":14273:14341   */\n      jump(tag_766)\n    tag_818:\n        /* \"--CODEGEN--\":14265:14341   */\n      swap1\n      pop\n        /* \"--CODEGEN--\":13955:14351   */\n      swap5\n      swap4\n      pop\n      pop\n      pop\n      pop\n      jump\n        /* \"--CODEGEN--\":14358:15119   */\n    tag_142:\n      0x0\n        /* \"--CODEGEN--\":14610:14613   */\n      0x80\n        /* \"--CODEGEN--\":14599:14608   */\n      dup3\n        /* \"--CODEGEN--\":14595:14614   */\n      add\n        /* \"--CODEGEN--\":14587:14614   */\n      swap1\n      pop\n        /* \"--CODEGEN--\":14625:14686   */\n      tag_820\n        /* \"--CODEGEN--\":14683:14684   */\n      0x0\n        /* \"--CODEGEN--\":14672:14681   */\n      dup4\n        /* \"--CODEGEN--\":14668:14685   */\n      add\n        /* \"--CODEGEN--\":14659:14665   */\n      dup8\n        /* \"--CODEGEN--\":14625:14686   */\n      jump(tag_758)\n    tag_820:\n        /* \"--CODEGEN--\":14734:14743   */\n      dup2\n        /* \"--CODEGEN--\":14728:14732   */\n      dup2\n        /* \"--CODEGEN--\":14724:14744   */\n      sub\n        /* \"--CODEGEN--\":14719:14721   */\n      0x20\n        /* \"--CODEGEN--\":14708:14717   */\n      dup4\n        /* \"--CODEGEN--\":14704:14722   */\n      add\n        /* \"--CODEGEN--\":14697:14745   */\n      mstore\n        /* \"--CODEGEN--\":14759:14827   */\n      tag_821\n        /* \"--CODEGEN--\":14822:14826   */\n      dup2\n        /* \"--CODEGEN--\":14813:14819   */\n      dup7\n        /* \"--CODEGEN--\":14759:14827   */\n      jump(tag_766)\n    tag_821:\n        /* \"--CODEGEN--\":14751:14827   */\n      swap1\n      pop\n        /* \"--CODEGEN--\":14875:14884   */\n      dup2\n        /* \"--CODEGEN--\":14869:14873   */\n      dup2\n        /* \"--CODEGEN--\":14865:14885   */\n      sub\n        /* \"--CODEGEN--\":14860:14862   */\n      0x40\n        /* \"--CODEGEN--\":14849:14858   */\n      dup4\n        /* \"--CODEGEN--\":14845:14863   */\n      add\n        /* \"--CODEGEN--\":14838:14886   */\n      mstore\n        /* \"--CODEGEN--\":14900:14968   */\n      tag_822\n        /* \"--CODEGEN--\":14963:14967   */\n      dup2\n        /* \"--CODEGEN--\":14954:14960   */\n      dup6\n        /* \"--CODEGEN--\":14900:14968   */\n      jump(tag_766)\n    tag_822:\n        /* \"--CODEGEN--\":14892:14968   */\n      swap1\n      pop\n        /* \"--CODEGEN--\":15016:15025   */\n      dup2\n        /* \"--CODEGEN--\":15010:15014   */\n      dup2\n        /* \"--CODEGEN--\":15006:15026   */\n      sub\n        /* \"--CODEGEN--\":15001:15003   */\n      0x60\n        /* \"--CODEGEN--\":14990:14999   */\n      dup4\n        /* \"--CODEGEN--\":14986:15004   */\n      add\n        /* \"--CODEGEN--\":14979:15027   */\n      mstore\n        /* \"--CODEGEN--\":15041:15109   */\n      tag_823\n        /* \"--CODEGEN--\":15104:15108   */\n      dup2\n        /* \"--CODEGEN--\":15095:15101   */\n      dup5\n        /* \"--CODEGEN--\":15041:15109   */\n      jump(tag_766)\n    tag_823:\n        /* \"--CODEGEN--\":15033:15109   */\n      swap1\n      pop\n        /* \"--CODEGEN--\":14581:15119   */\n      swap6\n      swap5\n      pop\n      pop\n      pop\n      pop\n      pop\n      jump\n        /* \"--CODEGEN--\":15126:16295   */\n    tag_46:\n      0x0\n        /* \"--CODEGEN--\":15490:15493   */\n      0x100\n        /* \"--CODEGEN--\":15479:15488   */\n      dup3\n        /* \"--CODEGEN--\":15475:15494   */\n      add\n        /* \"--CODEGEN--\":15467:15494   */\n      swap1\n      pop\n        /* \"--CODEGEN--\":15505:15566   */\n      tag_825\n        /* \"--CODEGEN--\":15563:15564   */\n      0x0\n        /* \"--CODEGEN--\":15552:15561   */\n      dup4\n        /* \"--CODEGEN--\":15548:15565   */\n      add\n        /* \"--CODEGEN--\":15539:15545   */\n      dup12\n        /* \"--CODEGEN--\":15505:15566   */\n      jump(tag_758)\n    tag_825:\n        /* \"--CODEGEN--\":15577:15639   */\n      tag_826\n        /* \"--CODEGEN--\":15635:15637   */\n      0x20\n        /* \"--CODEGEN--\":15624:15633   */\n      dup4\n        /* \"--CODEGEN--\":15620:15638   */\n      add\n        /* \"--CODEGEN--\":15611:15617   */\n      dup11\n        /* \"--CODEGEN--\":15577:15639   */\n      jump(tag_758)\n    tag_826:\n        /* \"--CODEGEN--\":15650:15712   */\n      tag_827\n        /* \"--CODEGEN--\":15708:15710   */\n      0x40\n        /* \"--CODEGEN--\":15697:15706   */\n      dup4\n        /* \"--CODEGEN--\":15693:15711   */\n      add\n        /* \"--CODEGEN--\":15684:15690   */\n      dup10\n        /* \"--CODEGEN--\":15650:15712   */\n      jump(tag_758)\n    tag_827:\n        /* \"--CODEGEN--\":15760:15769   */\n      dup2\n        /* \"--CODEGEN--\":15754:15758   */\n      dup2\n        /* \"--CODEGEN--\":15750:15770   */\n      sub\n        /* \"--CODEGEN--\":15745:15747   */\n      0x60\n        /* \"--CODEGEN--\":15734:15743   */\n      dup4\n        /* \"--CODEGEN--\":15730:15748   */\n      add\n        /* \"--CODEGEN--\":15723:15771   */\n      mstore\n        /* \"--CODEGEN--\":15785:15853   */\n      tag_828\n        /* \"--CODEGEN--\":15848:15852   */\n      dup2\n        /* \"--CODEGEN--\":15839:15845   */\n      dup9\n        /* \"--CODEGEN--\":15785:15853   */\n      jump(tag_766)\n    tag_828:\n        /* \"--CODEGEN--\":15777:15853   */\n      swap1\n      pop\n        /* \"--CODEGEN--\":15902:15911   */\n      dup2\n        /* \"--CODEGEN--\":15896:15900   */\n      dup2\n        /* \"--CODEGEN--\":15892:15912   */\n      sub\n        /* \"--CODEGEN--\":15886:15889   */\n      0x80\n        /* \"--CODEGEN--\":15875:15884   */\n      dup4\n        /* \"--CODEGEN--\":15871:15890   */\n      add\n        /* \"--CODEGEN--\":15864:15913   */\n      mstore\n        /* \"--CODEGEN--\":15927:15995   */\n      tag_829\n        /* \"--CODEGEN--\":15990:15994   */\n      dup2\n        /* \"--CODEGEN--\":15981:15987   */\n      dup8\n        /* \"--CODEGEN--\":15927:15995   */\n      jump(tag_766)\n    tag_829:\n        /* \"--CODEGEN--\":15919:15995   */\n      swap1\n      pop\n        /* \"--CODEGEN--\":16044:16053   */\n      dup2\n        /* \"--CODEGEN--\":16038:16042   */\n      dup2\n        /* \"--CODEGEN--\":16034:16054   */\n      sub\n        /* \"--CODEGEN--\":16028:16031   */\n      0xa0\n        /* \"--CODEGEN--\":16017:16026   */\n      dup4\n        /* \"--CODEGEN--\":16013:16032   */\n      add\n        /* \"--CODEGEN--\":16006:16055   */\n      mstore\n        /* \"--CODEGEN--\":16069:16137   */\n      tag_830\n        /* \"--CODEGEN--\":16132:16136   */\n      dup2\n        /* \"--CODEGEN--\":16123:16129   */\n      dup7\n        /* \"--CODEGEN--\":16069:16137   */\n      jump(tag_766)\n    tag_830:\n        /* \"--CODEGEN--\":16061:16137   */\n      swap1\n      pop\n        /* \"--CODEGEN--\":16148:16211   */\n      tag_831\n        /* \"--CODEGEN--\":16206:16209   */\n      0xc0\n        /* \"--CODEGEN--\":16195:16204   */\n      dup4\n        /* \"--CODEGEN--\":16191:16210   */\n      add\n        /* \"--CODEGEN--\":16182:16188   */\n      dup6\n        /* \"--CODEGEN--\":16148:16211   */\n      jump(tag_758)\n    tag_831:\n        /* \"--CODEGEN--\":16222:16285   */\n      tag_832\n        /* \"--CODEGEN--\":16280:16283   */\n      0xe0\n        /* \"--CODEGEN--\":16269:16278   */\n      dup4\n        /* \"--CODEGEN--\":16265:16284   */\n      add\n        /* \"--CODEGEN--\":16256:16262   */\n      dup5\n        /* \"--CODEGEN--\":16222:16285   */\n      jump(tag_758)\n    tag_832:\n        /* \"--CODEGEN--\":15461:16295   */\n      swap10\n      swap9\n      pop\n      pop\n      pop\n      pop\n      pop\n      pop\n      pop\n      pop\n      pop\n      jump\n        /* \"--CODEGEN--\":16302:16558   */\n    tag_684:\n      0x0\n        /* \"--CODEGEN--\":16364:16366   */\n      0x40\n        /* \"--CODEGEN--\":16358:16367   */\n      mload\n        /* \"--CODEGEN--\":16348:16367   */\n      swap1\n      pop\n        /* \"--CODEGEN--\":16402:16406   */\n      dup2\n        /* \"--CODEGEN--\":16394:16400   */\n      dup2\n        /* \"--CODEGEN--\":16390:16407   */\n      add\n        /* \"--CODEGEN--\":16501:16507   */\n      dup2\n        /* \"--CODEGEN--\":16489:16499   */\n      dup2\n        /* \"--CODEGEN--\":16486:16508   */\n      lt\n        /* \"--CODEGEN--\":16465:16483   */\n      0xffffffffffffffff\n        /* \"--CODEGEN--\":16453:16463   */\n      dup3\n        /* \"--CODEGEN--\":16450:16484   */\n      gt\n        /* \"--CODEGEN--\":16447:16509   */\n      or\n        /* \"--CODEGEN--\":16444:16446   */\n      iszero\n      tag_834\n      jumpi\n        /* \"--CODEGEN--\":16522:16523   */\n      0x0\n        /* \"--CODEGEN--\":16519:16520   */\n      dup1\n        /* \"--CODEGEN--\":16512:16524   */\n      revert\n        /* \"--CODEGEN--\":16444:16446   */\n    tag_834:\n        /* \"--CODEGEN--\":16542:16552   */\n      dup1\n        /* \"--CODEGEN--\":16538:16540   */\n      0x40\n        /* \"--CODEGEN--\":16531:16553   */\n      mstore\n        /* \"--CODEGEN--\":16342:16558   */\n      pop\n      swap2\n      swap1\n      pop\n      jump\n        /* \"--CODEGEN--\":16565:16824   */\n    tag_683:\n      0x0\n        /* \"--CODEGEN--\":16709:16727   */\n      0xffffffffffffffff\n        /* \"--CODEGEN--\":16701:16707   */\n      dup3\n        /* \"--CODEGEN--\":16698:16728   */\n      gt\n        /* \"--CODEGEN--\":16695:16697   */\n      iszero\n      tag_836\n      jumpi\n        /* \"--CODEGEN--\":16741:16742   */\n      0x0\n        /* \"--CODEGEN--\":16738:16739   */\n      dup1\n        /* \"--CODEGEN--\":16731:16743   */\n      revert\n        /* \"--CODEGEN--\":16695:16697   */\n    tag_836:\n        /* \"--CODEGEN--\":16785:16789   */\n      0x1f\n        /* \"--CODEGEN--\":16781:16790   */\n      not\n        /* \"--CODEGEN--\":16774:16778   */\n      0x1f\n        /* \"--CODEGEN--\":16766:16772   */\n      dup4\n        /* \"--CODEGEN--\":16762:16779   */\n      add\n        /* \"--CODEGEN--\":16758:16791   */\n      and\n        /* \"--CODEGEN--\":16750:16791   */\n      swap1\n      pop\n        /* \"--CODEGEN--\":16814:16818   */\n      0x20\n        /* \"--CODEGEN--\":16808:16812   */\n      dup2\n        /* \"--CODEGEN--\":16804:16819   */\n      add\n        /* \"--CODEGEN--\":16796:16819   */\n      swap1\n      pop\n        /* \"--CODEGEN--\":16632:16824   */\n      swap2\n      swap1\n      pop\n      jump\n        /* \"--CODEGEN--\":16833:16960   */\n    tag_740:\n      0x0\n        /* \"--CODEGEN--\":16948:16952   */\n      0x20\n        /* \"--CODEGEN--\":16940:16946   */\n      dup3\n        /* \"--CODEGEN--\":16936:16953   */\n      add\n        /* \"--CODEGEN--\":16925:16953   */\n      swap1\n      pop\n        /* \"--CODEGEN--\":16917:16960   */\n      swap2\n      swap1\n      pop\n      jump\n        /* \"--CODEGEN--\":16971:17092   */\n    tag_753:\n      0x0\n        /* \"--CODEGEN--\":17080:17084   */\n      0x20\n        /* \"--CODEGEN--\":17072:17078   */\n      dup3\n        /* \"--CODEGEN--\":17068:17085   */\n      add\n        /* \"--CODEGEN--\":17057:17085   */\n      swap1\n      pop\n        /* \"--CODEGEN--\":17049:17092   */\n      swap2\n      swap1\n      pop\n      jump\n        /* \"--CODEGEN--\":17101:17214   */\n    tag_738:\n      0x0\n        /* \"--CODEGEN--\":17203:17208   */\n      dup2\n        /* \"--CODEGEN--\":17197:17209   */\n      mload\n        /* \"--CODEGEN--\":17187:17209   */\n      swap1\n      pop\n        /* \"--CODEGEN--\":17181:17214   */\n      swap2\n      swap1\n      pop\n      jump\n        /* \"--CODEGEN--\":17221:17328   */\n    tag_751:\n      0x0\n        /* \"--CODEGEN--\":17317:17322   */\n      dup2\n        /* \"--CODEGEN--\":17311:17323   */\n      mload\n        /* \"--CODEGEN--\":17301:17323   */\n      swap1\n      pop\n        /* \"--CODEGEN--\":17295:17328   */\n      swap2\n      swap1\n      pop\n      jump\n        /* \"--CODEGEN--\":17335:17423   */\n    tag_775:\n      0x0\n        /* \"--CODEGEN--\":17412:17417   */\n      dup2\n        /* \"--CODEGEN--\":17406:17418   */\n      mload\n        /* \"--CODEGEN--\":17396:17418   */\n      swap1\n      pop\n        /* \"--CODEGEN--\":17390:17423   */\n      swap2\n      swap1\n      pop\n      jump\n        /* \"--CODEGEN--\":17430:17522   */\n    tag_768:\n      0x0\n        /* \"--CODEGEN--\":17511:17516   */\n      dup2\n        /* \"--CODEGEN--\":17505:17517   */\n      mload\n        /* \"--CODEGEN--\":17495:17517   */\n      swap1\n      pop\n        /* \"--CODEGEN--\":17489:17522   */\n      swap2\n      swap1\n      pop\n      jump\n        /* \"--CODEGEN--\":17530:17658   */\n    tag_747:\n      0x0\n        /* \"--CODEGEN--\":17647:17651   */\n      0x20\n        /* \"--CODEGEN--\":17639:17645   */\n      dup3\n        /* \"--CODEGEN--\":17635:17652   */\n      add\n        /* \"--CODEGEN--\":17624:17652   */\n      swap1\n      pop\n        /* \"--CODEGEN--\":17617:17658   */\n      swap2\n      swap1\n      pop\n      jump\n        /* \"--CODEGEN--\":17667:17789   */\n    tag_760:\n      0x0\n        /* \"--CODEGEN--\":17778:17782   */\n      0x20\n        /* \"--CODEGEN--\":17770:17776   */\n      dup3\n        /* \"--CODEGEN--\":17766:17783   */\n      add\n        /* \"--CODEGEN--\":17755:17783   */\n      swap1\n      pop\n        /* \"--CODEGEN--\":17748:17789   */\n      swap2\n      swap1\n      pop\n      jump\n        /* \"--CODEGEN--\":17797:17889   */\n    tag_764:\n      0x0\n        /* \"--CODEGEN--\":17877:17882   */\n      dup2\n        /* \"--CODEGEN--\":17870:17883   */\n      iszero\n        /* \"--CODEGEN--\":17863:17884   */\n      iszero\n        /* \"--CODEGEN--\":17852:17884   */\n      swap1\n      pop\n        /* \"--CODEGEN--\":17846:17889   */\n      swap2\n      swap1\n      pop\n      jump\n        /* \"--CODEGEN--\":17896:17975   */\n    tag_786:\n      0x0\n        /* \"--CODEGEN--\":17965:17970   */\n      dup2\n        /* \"--CODEGEN--\":17954:17970   */\n      swap1\n      pop\n        /* \"--CODEGEN--\":17948:17975   */\n      swap2\n      swap1\n      pop\n      jump\n        /* \"--CODEGEN--\":17982:18061   */\n    tag_691:\n      0x0\n        /* \"--CODEGEN--\":18051:18056   */\n      dup2\n        /* \"--CODEGEN--\":18040:18056   */\n      swap1\n      pop\n        /* \"--CODEGEN--\":18034:18061   */\n      swap2\n      swap1\n      pop\n      jump\n        /* \"--CODEGEN--\":18069:18214   */\n    tag_687:\n        /* \"--CODEGEN--\":18150:18156   */\n      dup3\n        /* \"--CODEGEN--\":18145:18148   */\n      dup2\n        /* \"--CODEGEN--\":18140:18143   */\n      dup4\n        /* \"--CODEGEN--\":18127:18157   */\n      calldatacopy\n        /* \"--CODEGEN--\":18206:18207   */\n      0x0\n        /* \"--CODEGEN--\":18197:18203   */\n      dup4\n        /* \"--CODEGEN--\":18192:18195   */\n      dup4\n        /* \"--CODEGEN--\":18188:18204   */\n      add\n        /* \"--CODEGEN--\":18181:18208   */\n      mstore\n        /* \"--CODEGEN--\":18120:18214   */\n      pop\n      pop\n      pop\n      jump\n        /* \"--CODEGEN--\":18223:18491   */\n    tag_770:\n        /* \"--CODEGEN--\":18288:18289   */\n      0x0\n        /* \"--CODEGEN--\":18295:18396   */\n    tag_850:\n        /* \"--CODEGEN--\":18309:18315   */\n      dup4\n        /* \"--CODEGEN--\":18306:18307   */\n      dup2\n        /* \"--CODEGEN--\":18303:18316   */\n      lt\n        /* \"--CODEGEN--\":18295:18396   */\n      iszero\n      tag_851\n      jumpi\n        /* \"--CODEGEN--\":18385:18386   */\n      dup1\n        /* \"--CODEGEN--\":18380:18383   */\n      dup3\n        /* \"--CODEGEN--\":18376:18387   */\n      add\n        /* \"--CODEGEN--\":18370:18388   */\n      mload\n        /* \"--CODEGEN--\":18366:18367   */\n      dup2\n        /* \"--CODEGEN--\":18361:18364   */\n      dup5\n        /* \"--CODEGEN--\":18357:18368   */\n      add\n        /* \"--CODEGEN--\":18350:18389   */\n      mstore\n        /* \"--CODEGEN--\":18331:18333   */\n      0x20\n        /* \"--CODEGEN--\":18328:18329   */\n      dup2\n        /* \"--CODEGEN--\":18324:18334   */\n      add\n        /* \"--CODEGEN--\":18319:18334   */\n      swap1\n      pop\n        /* \"--CODEGEN--\":18295:18396   */\n      jump(tag_850)\n    tag_851:\n        /* \"--CODEGEN--\":18411:18417   */\n      dup4\n        /* \"--CODEGEN--\":18408:18409   */\n      dup2\n        /* \"--CODEGEN--\":18405:18418   */\n      gt\n        /* \"--CODEGEN--\":18402:18404   */\n      iszero\n      tag_853\n      jumpi\n        /* \"--CODEGEN--\":18476:18477   */\n      0x0\n        /* \"--CODEGEN--\":18467:18473   */\n      dup5\n        /* \"--CODEGEN--\":18462:18465   */\n      dup5\n        /* \"--CODEGEN--\":18458:18474   */\n      add\n        /* \"--CODEGEN--\":18451:18478   */\n      mstore\n        /* \"--CODEGEN--\":18402:18404   */\n    tag_853:\n        /* \"--CODEGEN--\":18272:18491   */\n      pop\n      pop\n      pop\n      pop\n      jump\n        /* \"--CODEGEN--\":18499:18596   */\n    tag_772:\n      0x0\n        /* \"--CODEGEN--\":18587:18589   */\n      0x1f\n        /* \"--CODEGEN--\":18583:18590   */\n      not\n        /* \"--CODEGEN--\":18578:18580   */\n      0x1f\n        /* \"--CODEGEN--\":18571:18576   */\n      dup4\n        /* \"--CODEGEN--\":18567:18581   */\n      add\n        /* \"--CODEGEN--\":18563:18591   */\n      and\n        /* \"--CODEGEN--\":18553:18591   */\n      swap1\n      pop\n        /* \"--CODEGEN--\":18547:18596   */\n      swap2\n      swap1\n      pop\n      jump\n\n    auxdata: 0xa265627a7a72305820124fcbde373d40624b725b1cdcc6d2fe6d49b0df33be6aa7b894561f56bc3c2c6c6578706572696d656e74616cf50037\n}\n",
				"bytecode": {
					"linkReferences": {},
					"object": "608060405234801561001057600080fd5b506147aa806100206000396000f30060806040526004361061013e576000357c0100000000000000000000000000000000000000000000000000000000900463ffffffff168063079eaf3414610254578063092b37401461027d5780631f459041146102c1578063269ee5c0146102ea5780632f3e0bc61461032757806338f14845146103645780633e92ecab146103a15780633e98ab21146103ca57806346fe46f914610407578063494dad6c146104445780634de52651146104745780634e9f4614146104b157806358ab49da146104ee5780635c622a0e1461052b5780635df2d3681461056857806365d7b766146105915780636ed6da9e146105ba5780639a006fe2146105f9578063b899799314610627578063b9def59e14610664578063c64cb4ed146106a4578063e2842d79146106e1578063e8a6dafe1461070e578063e9523c971461074b575b34801561014a57600080fd5b5061015361386b565b606060405190810160405280600181526020016040805190810160405280600581526020017f61646d696e00000000000000000000000000000000000000000000000000000081525081526020016040805190810160405280600581526020017f61646d696e00000000000000000000000000000000000000000000000000000081525081525090506000819080600181540180825580915050906001820390600052602060002090600302016000909192909190915060008201518160000155602082015181600101908051906020019061023092919061388d565b50604082015181600201908051906020019061024d92919061388d565b5050505050005b34801561026057600080fd5b5061027b60048036036102769190810190613e2a565b610778565b005b34801561028957600080fd5b506102a4600480360361029f9190810190613f2d565b61081f565b6040516102b89897969594939291906145b1565b60405180910390f35b3480156102cd57600080fd5b506102e860048036036102e39190810190613e2a565b610ac8565b005b3480156102f657600080fd5b50610311600480360361030c9190810190613e2a565b610b70565b60405161031e9190614475565b60405180910390f35b34801561033357600080fd5b5061034e60048036036103499190810190613f2d565b610f4a565b60405161035b9190614475565b60405180910390f35b34801561037057600080fd5b5061038b60048036036103869190810190613f2d565b611202565b6040516103989190614475565b60405180910390f35b3480156103ad57600080fd5b506103c860048036036103c39190810190613e96565b6114ae565b005b3480156103d657600080fd5b506103f160048036036103ec9190810190613e2a565b6115ef565b6040516103fe9190614475565b60405180910390f35b34801561041357600080fd5b5061042e60048036036104299190810190613f56565b61182c565b60405161043b9190614475565b60405180910390f35b34801561045057600080fd5b50610459611a15565b60405161046b969594939291906143ea565b60405180910390f35b34801561048057600080fd5b5061049b60048036036104969190810190613f2d565b61205b565b6040516104a8919061431b565b60405180910390f35b3480156104bd57600080fd5b506104d860048036036104d39190810190613faa565b6120d6565b6040516104e59190614475565b60405180910390f35b3480156104fa57600080fd5b5061051560048036036105109190810190613f2d565b6121a8565b6040516105229190614475565b60405180910390f35b34801561053757600080fd5b50610552600480360361054d9190810190613f2d565b612404565b60405161055f9190614490565b60405180910390f35b34801561057457600080fd5b5061058f600480360361058a9190810190614090565b6124c9565b005b34801561059d57600080fd5b506105b860048036036105b39190810190614029565b612661565b005b3480156105c657600080fd5b506105e160048036036105dc9190810190613f2d565b6126f2565b6040516105f093929190614512565b60405180910390f35b34801561060557600080fd5b5061060e6128f3565b60405161061e9493929190614389565b60405180910390f35b34801561063357600080fd5b5061064e60048036036106499190810190613f56565b612cdb565b60405161065b9190614475565b60405180910390f35b34801561067057600080fd5b5061068b60048036036106869190810190613f2d565b612d41565b60405161069b9493929190614557565b60405180910390f35b3480156106b057600080fd5b506106cb60048036036106c69190810190613f56565b613049565b6040516106d89190614475565b60405180910390f35b3480156106ed57600080fd5b506106f6613233565b6040516107059392919061433d565b60405180910390f35b34801561071a57600080fd5b5061073560048036036107309190810190613f56565b613503565b6040516107429190614475565b60405180910390f35b34801561075757600080fd5b5061076061359c565b60405161076f9392919061433d565b60405180910390f35b61078061390d565b60606040519081016040528060018080549050018152602001848152602001838152509050600181908060018154018082558091505090600182039060005260206000209060030201600090919290919091506000820151816000015560208201518160010190805190602001906107f992919061388d565b50604082015181600201908051906020019061081692919061388d565b50505050505050565b6000806000606080606060008061083461392f565b600360018b0381548110151561084657fe5b90600052602060002090600802016101006040519081016040529081600082015481526020016001820154815260200160028201548152602001600382018054600181600116156101000203166002900480601f0160208091040260200160405190810160405280929190818152602001828054600181600116156101000203166002900480156109185780601f106108ed57610100808354040283529160200191610918565b820191906000526020600020905b8154815290600101906020018083116108fb57829003601f168201915b50505050508152602001600482018054600181600116156101000203166002900480601f0160208091040260200160405190810160405280929190818152602001828054600181600116156101000203166002900480156109ba5780601f1061098f576101008083540402835291602001916109ba565b820191906000526020600020905b81548152906001019060200180831161099d57829003601f168201915b50505050508152602001600582018054600181600116156101000203166002900480601f016020809104026020016040519081016040528092919081815260200182805460018160011615610100020316600290048015610a5c5780601f10610a3157610100808354040283529160200191610a5c565b820191906000526020600020905b815481529060010190602001808311610a3f57829003601f168201915b50505050508152602001600682015481526020016007820154815250509050806000015181602001518260400151836060015184608001518560a001518660c001518760e001518494508393508292509850985098509850985098509850985050919395975091939597565b610ad061386b565b606060405190810160405280600160008054905001815260200184815260200183815250905060008190806001815401808255809150509060018203906000526020600020906003020160009091929091909150600082015181600001556020820151816001019080519060200190610b4a92919061388d565b506040820151816002019080519060200190610b6792919061388d565b50505050505050565b600080600090505b600080549050811015610f3e57836040516020018082805190602001908083835b602083101515610bbe5780518252602082019150602081019050602083039250610b99565b6001836020036101000a0380198251168184511680821785525050505050509050019150506040516020818303038152906040526040518082805190602001908083835b602083101515610c275780518252602082019150602081019050602083039250610c02565b6001836020036101000a038019825116818451168082178552505050505050905001915050604051809103902060001916600082815481101515610c6757fe5b90600052602060002090600302016001016040516020018082805460018160011615610100020316600290048015610cd65780601f10610cb4576101008083540402835291820191610cd6565b820191906000526020600020905b815481529060010190602001808311610cc2575b50509150506040516020818303038152906040526040518082805190602001908083835b602083101515610d1f5780518252602082019150602081019050602083039250610cfa565b6001836020036101000a0380198251168184511680821785525050505050509050019150506040518091039020600019161415610f3157826040516020018082805190602001908083835b602083101515610d8f5780518252602082019150602081019050602083039250610d6a565b6001836020036101000a0380198251168184511680821785525050505050509050019150506040516020818303038152906040526040518082805190602001908083835b602083101515610df85780518252602082019150602081019050602083039250610dd3565b6001836020036101000a038019825116818451168082178552505050505050905001915050604051809103902060001916600082815481101515610e3857fe5b90600052602060002090600302016002016040516020018082805460018160011615610100020316600290048015610ea75780601f10610e85576101008083540402835291820191610ea7565b820191906000526020600020905b815481529060010190602001808311610e93575b50509150506040516020818303038152906040526040518082805190602001908083835b602083101515610ef05780518252602082019150602081019050602083039250610ecb565b6001836020036101000a0380198251168184511680821785525050505050509050019150506040518091039020600019161415610f305760019150610f43565b5b8080600101915050610b78565b600091505b5092915050565b600080600080600080600087118015610f6857506003805490508711155b1515610fa9576040517f08c379a0000000000000000000000000000000000000000000000000000000008152600401610fa0906144f2565b60405180910390fd5b600187039450600385815481101515610fbe57fe5b9060005260206000209060080201600201549350600260018503815481101515610fe457fe5b90600052602060002090600502016004019250600091505b828054905082101561108b5786838381548110151561101757fe5b9060005260206000200154141561107e5782600184805490500381548110151561103d57fe5b9060005260206000200154838381548110151561105657fe5b9060005260206000200181905550828054809190600190036110789190613975565b5061108b565b8180600101925050610ffc565b8490505b6001600380549050038110156111de576003600182018154811015156110b157fe5b90600052602060002090600802016003828154811015156110ce57fe5b9060005260206000209060080201600082015481600001556001820154816001015560028201548160020155600382018160030190805460018160011615610100020316600290046111219291906139a1565b50600482018160040190805460018160011615610100020316600290046111499291906139a1565b50600582018160050190805460018160011615610100020316600290046111719291906139a1565b506006820154816006015560078201548160070155905050600160038281548110151561119a57fe5b906000526020600020906008020160000154036003828154811015156111bc57fe5b906000526020600020906008020160000181905550808060010191505061108f565b60038054809190600190036111f39190613a28565b50600195505050505050919050565b6000806000806000808611801561121e57506001805490508611155b151561125f576040517f08c379a0000000000000000000000000000000000000000000000000000000008152600401611256906144b2565b60405180910390fd5b600093505b6003805490508410156112af578560038581548110151561128157fe5b90600052602060002090600802016001015414156112a257600094506114a5565b8380600101945050611264565b600092505b60018054905083101561133e57856001848154811015156112d157fe5b906000526020600020906003020160000154111561133157600180848154811015156112f957fe5b9060005260206000209060030201600001540360018481548110151561131b57fe5b9060005260206000209060030201600001819055505b82806001019350506112b4565b600091505b6003805490508210156113ce578560038381548110151561136057fe5b90600052602060002090600802016001015411156113c157600160038381548110151561138957fe5b906000526020600020906008020160010154036003838154811015156113ab57fe5b9060005260206000209060080201600101819055505b8180600101925050611343565b6001860390505b600180805490500381101561148a5760018082018154811015156113f557fe5b906000526020600020906003020160018281548110151561141257fe5b906000526020600020906003020160008201548160000155600182018160010190805460018160011615610100020316600290046114519291906139a1565b50600282018160020190805460018160011615610100020316600290046114799291906139a1565b5090505080806001019150506113d5565b600180548091906001900361149f9190613a5a565b50600194505b50505050919050565b60006114b8613a8c565b60a06040519081016040528060016002805490500181526020018681526020018581526020018481526020018380548060200260200160405190810160405280929190818152602001828054801561152f57602002820191906000526020600020905b81548152602001906001019080831161151b575b505050505081525090506002819080600181540180825580915050906001820390600052602060002090600502016000909192909190915060008201518160000155602082015181600101908051906020019061158d92919061388d565b5060408201518160020190805190602001906115aa92919061388d565b5060608201518160030190805190602001906115c792919061388d565b5060808201518160040190805190602001906115e4929190613abc565b505050505050505050565b600080600090505b60008054905081101561182057836040516020018082805190602001908083835b60208310151561163d5780518252602082019150602081019050602083039250611618565b6001836020036101000a0380198251168184511680821785525050505050509050019150506040516020818303038152906040526040518082805190602001908083835b6020831015156116a65780518252602082019150602081019050602083039250611681565b6001836020036101000a0380198251168184511680821785525050505050509050019150506040518091039020600019166000828154811015156116e657fe5b906000526020600020906003020160010160405160200180828054600181600116156101000203166002900480156117555780601f10611733576101008083540402835291820191611755565b820191906000526020600020905b815481529060010190602001808311611741575b50509150506040516020818303038152906040526040518082805190602001908083835b60208310151561179e5780518252602082019150602081019050602083039250611779565b6001836020036101000a038019825116818451168082178552505050505050905001915050604051809103902060001916141561181357826000828154811015156117e557fe5b90600052602060002090600302016002019080519060200190611809929190613b09565b5060019150611825565b80806001019150506115f7565b600091505b5092915050565b6000816040516020018082805190602001908083835b6020831015156118675780518252602082019150602081019050602083039250611842565b6001836020036101000a0380198251168184511680821785525050505050509050019150506040516020818303038152906040526040518082805190602001908083835b6020831015156118d057805182526020820191506020810190506020830392506118ab565b6001836020036101000a038019825116818451168082178552505050505050905001915050604051809103902060001916600180850381548110151561191257fe5b906000526020600020906003020160020160405160200180828054600181600116156101000203166002900480156119815780601f1061195f576101008083540402835291820191611981565b820191906000526020600020905b81548152906001019060200180831161196d575b50509150506040516020818303038152906040526040518082805190602001908083835b6020831015156119ca57805182526020820191506020810190506020830392506119a5565b6001836020036101000a0380198251168184511680821785525050505050509050019150506040518091039020600019161415611a0a5760019050611a0f565b600090505b92915050565b6060806060806060806060806060806060806000806003805490501415611b8e576000604051908082528060200260200182016040528015611a665781602001602082028038833980820191505090505b506000604051908082528060200260200182016040528015611a975781602001602082028038833980820191505090505b506000604051908082528060200260200182016040528015611ac85781602001602082028038833980820191505090505b506000604051908082528060200260200182016040528015611afe57816020015b6060815260200190600190039081611ae95790505b506000604051908082528060200260200182016040528015611b3457816020015b6060815260200190600190039081611b1f5790505b506000604051908082528060200260200182016040528015611b6a57816020015b6060815260200190600190039081611b555790505b508595508494508393508292508191508090509c509c509c509c509c509c5061204c565b600380549050604051908082528060200260200182016040528015611bc25781602001602082028038833980820191505090505b509650600380549050604051908082528060200260200182016040528015611bf95781602001602082028038833980820191505090505b509550600380549050604051908082528060200260200182016040528015611c305781602001602082028038833980820191505090505b509450600380549050604051908082528060200260200182016040528015611c6c57816020015b6060815260200190600190039081611c575790505b509350600380549050604051908082528060200260200182016040528015611ca857816020015b6060815260200190600190039081611c935790505b509250600380549050604051908082528060200260200182016040528015611ce457816020015b6060815260200190600190039081611ccf5790505b509150600090505b60038054905081101561203957600381815481101515611d0857fe5b9060005260206000209060080201600001548782815181101515611d2857fe5b9060200190602002018181525050600381815481101515611d4557fe5b9060005260206000209060080201600101548682815181101515611d6557fe5b9060200190602002018181525050600381815481101515611d8257fe5b9060005260206000209060080201600201548582815181101515611da257fe5b9060200190602002018181525050600381815481101515611dbf57fe5b90600052602060002090600802016003018054600181600116156101000203166002900480601f016020809104026020016040519081016040528092919081815260200182805460018160011615610100020316600290048015611e645780601f10611e3957610100808354040283529160200191611e64565b820191906000526020600020905b815481529060010190602001808311611e4757829003601f168201915b50505050508482815181101515611e7757fe5b90602001906020020181905250600381815481101515611e9357fe5b90600052602060002090600802016004018054600181600116156101000203166002900480601f016020809104026020016040519081016040528092919081815260200182805460018160011615610100020316600290048015611f385780601f10611f0d57610100808354040283529160200191611f38565b820191906000526020600020905b815481529060010190602001808311611f1b57829003601f168201915b50505050508382815181101515611f4b57fe5b90602001906020020181905250600381815481101515611f6757fe5b90600052602060002090600802016005018054600181600116156101000203166002900480601f01602080910402602001604051908101604052809291908181526020018280546001816001161561010002031660029004801561200c5780601f10611fe15761010080835404028352916020019161200c565b820191906000526020600020905b815481529060010190602001808311611fef57829003601f168201915b5050505050828281518110151561201f57fe5b906020019060200201819052508080600101915050611cec565b8686868686869c509c509c509c509c509c505b50505050505050909192939495565b606060026001830381548110151561206f57fe5b90600052602060002090600502016004018054806020026020016040519081016040528092919081815260200182805480156120ca57602002820191906000526020600020905b8154815260200190600101908083116120b6575b50505050509050919050565b600080841180156120ec57506002805490508411155b151561212d576040517f08c379a0000000000000000000000000000000000000000000000000000000008152600401612124906144d2565b60405180910390fd5b8260026001860381548110151561214057fe5b90600052602060002090600502016001019080519060200190612164929190613b09565b508160026001860381548110151561217857fe5b9060005260206000209060050201600201908051906020019061219c929190613b09565b50600190509392505050565b6000806000806000851180156121c357506002805490508511155b1515612204576040517f08c379a00000000000000000000000000000000000000000000000000000000081526004016121fb906144d2565b60405180910390fd5b600092505b600380549050831015612254578460038481548110151561222657fe5b906000526020600020906008020160020154141561224757600093506123fc565b8280600101935050612209565b600091505b6003805490508210156122e4578460038381548110151561227657fe5b90600052602060002090600802016002015411156122d757600160038381548110151561229f57fe5b906000526020600020906008020160020154036003838154811015156122c157fe5b9060005260206000209060080201600201819055505b8180600101925050612259565b6001850390505b6001600280549050038110156123e15760026001820181548110151561230d57fe5b906000526020600020906005020160028281548110151561232a57fe5b906000526020600020906005020160008201548160000155600182018160010190805460018160011615610100020316600290046123699291906139a1565b50600282018160020190805460018160011615610100020316600290046123919291906139a1565b50600382018160030190805460018160011615610100020316600290046123b99291906139a1565b5060048201816004019080546123d0929190613b89565b5090505080806001019150506122eb565b60028054809190600190036123f69190613bdb565b50600193505b505050919050565b606060036001830381548110151561241857fe5b90600052602060002090600802016005018054600181600116156101000203166002900480601f0160208091040260200160405190810160405280929190818152602001828054600181600116156101000203166002900480156124bd5780601f10612492576101008083540402835291602001916124bd565b820191906000526020600020905b8154815290600101906020018083116124a057829003601f168201915b50505050509050919050565b6124d161392f565b6002600185038154811015156124e357fe5b906000526020600020906005020160040160016003805490500190806001815401808255809150509060018203906000526020600020016000909192909190915055506101006040519081016040528060016003805490500181526020018681526020018581526020018481526020018381526020016040805190810160405280600981526020017fe5be85e68fbde694b60000000000000000000000000000000000000000000000815250815260200142815260200142815250905060038190806001815401808255809150509060018203906000526020600020906008020160009091929091909150600082015181600001556020820151816001015560408201518160020155606082015181600301908051906020019061260892919061388d565b50608082015181600401908051906020019061262592919061388d565b5060a082015181600501908051906020019061264292919061388d565b5060c0820151816006015560e082015181600701555050505050505050565b8260036001840381548110151561267457fe5b90600052602060002090600802016002015414156126ed578060036001840381548110151561269f57fe5b906000526020600020906008020160050190805190602001906126c3929190613b09565b50426003600184038154811015156126d757fe5b9060005260206000209060080201600701819055505b505050565b60006060806126ff61390d565b60008511801561271457506001805490508511155b1515612755576040517f08c379a000000000000000000000000000000000000000000000000000000000815260040161274c906144b2565b60405180910390fd5b600180860381548110151561276657fe5b90600052602060002090600302016060604051908101604052908160008201548152602001600182018054600181600116156101000203166002900480601f0160208091040260200160405190810160405280929190818152602001828054600181600116156101000203166002900480156128235780601f106127f857610100808354040283529160200191612823565b820191906000526020600020905b81548152906001019060200180831161280657829003601f168201915b50505050508152602001600282018054600181600116156101000203166002900480601f0160208091040260200160405190810160405280929190818152602001828054600181600116156101000203166002900480156128c55780601f1061289a576101008083540402835291602001916128c5565b820191906000526020600020905b8154815290600101906020018083116128a857829003601f168201915b5050505050815250509050806000015181602001518260400151819150809050935093509350509193909250565b60608060608060608060608060006002805490506040519080825280602002602001820160405280156129355781602001602082028038833980820191505090505b50945060028054905060405190808252806020026020018201604052801561297157816020015b606081526020019060019003908161295c5790505b5093506002805490506040519080825280602002602001820160405280156129ad57816020015b60608152602001906001900390816129985790505b5092506002805490506040519080825280602002602001820160405280156129e957816020015b60608152602001906001900390816129d45790505b509150600090505b600280549050811015612cc457600281815481101515612a0d57fe5b9060005260206000209060050201600001548582815181101515612a2d57fe5b9060200190602002018181525050600281815481101515612a4a57fe5b90600052602060002090600502016001018054600181600116156101000203166002900480601f016020809104026020016040519081016040528092919081815260200182805460018160011615610100020316600290048015612aef5780601f10612ac457610100808354040283529160200191612aef565b820191906000526020600020905b815481529060010190602001808311612ad257829003601f168201915b50505050508482815181101515612b0257fe5b90602001906020020181905250600281815481101515612b1e57fe5b90600052602060002090600502016002018054600181600116156101000203166002900480601f016020809104026020016040519081016040528092919081815260200182805460018160011615610100020316600290048015612bc35780601f10612b9857610100808354040283529160200191612bc3565b820191906000526020600020905b815481529060010190602001808311612ba657829003601f168201915b50505050508382815181101515612bd657fe5b90602001906020020181905250600281815481101515612bf257fe5b90600052602060002090600502016003018054600181600116156101000203166002900480601f016020809104026020016040519081016040528092919081815260200182805460018160011615610100020316600290048015612c975780601f10612c6c57610100808354040283529160200191612c97565b820191906000526020600020905b815481529060010190602001808311612c7a57829003601f168201915b50505050508282815181101515612caa57fe5b9060200190602002018190525080806001019150506129f1565b848484849850985098509850505050505090919293565b60008083118015612cf157506001805490508311155b15612d3657816001808503815481101515612d0857fe5b90600052602060002090600302016002019080519060200190612d2c929190613b09565b5060019050612d3b565b600090505b92915050565b60006060806060612d50613a8c565b600086118015612d6557506002805490508611155b1515612da6576040517f08c379a0000000000000000000000000000000000000000000000000000000008152600401612d9d906144d2565b60405180910390fd5b600260018703815481101515612db857fe5b906000526020600020906005020160a0604051908101604052908160008201548152602001600182018054600181600116156101000203166002900480601f016020809104026020016040519081016040528092919081815260200182805460018160011615610100020316600290048015612e755780601f10612e4a57610100808354040283529160200191612e75565b820191906000526020600020905b815481529060010190602001808311612e5857829003601f168201915b50505050508152602001600282018054600181600116156101000203166002900480601f016020809104026020016040519081016040528092919081815260200182805460018160011615610100020316600290048015612f175780601f10612eec57610100808354040283529160200191612f17565b820191906000526020600020905b815481529060010190602001808311612efa57829003601f168201915b50505050508152602001600382018054600181600116156101000203166002900480601f016020809104026020016040519081016040528092919081815260200182805460018160011615610100020316600290048015612fb95780601f10612f8e57610100808354040283529160200191612fb9565b820191906000526020600020905b815481529060010190602001808311612f9c57829003601f168201915b505050505081526020016004820180548060200260200160405190810160405280929190818152602001828054801561301157602002820191906000526020600020905b815481526020019060010190808311612ffd575b505050505081525050905080600001518160200151826040015183606001518292508191508090509450945094509450509193509193565b6000816040516020018082805190602001908083835b602083101515613084578051825260208201915060208101905060208303925061305f565b6001836020036101000a0380198251168184511680821785525050505050509050019150506040516020818303038152906040526040518082805190602001908083835b6020831015156130ed57805182526020820191506020810190506020830392506130c8565b6001836020036101000a03801982511681845116808217855250505050505090500191505060405180910390206000191660026001850381548110151561313057fe5b9060005260206000209060050201600301604051602001808280546001816001161561010002031660029004801561319f5780601f1061317d57610100808354040283529182019161319f565b820191906000526020600020905b81548152906001019060200180831161318b575b50509150506040516020818303038152906040526040518082805190602001908083835b6020831015156131e857805182526020820191506020810190506020830392506131c3565b6001836020036101000a0380198251168184511680821785525050505050509050019150506040518091039020600019161415613228576001905061322d565b600090505b92915050565b60608060608060608060006001805490506040519080825280602002602001820160405280156132725781602001602082028038833980820191505090505b5093506001805490506040519080825280602002602001820160405280156132ae57816020015b60608152602001906001900390816132995790505b5092506001805490506040519080825280602002602001820160405280156132ea57816020015b60608152602001906001900390816132d55790505b509150600090505b6001805490508110156134f15760018181548110151561330e57fe5b906000526020600020906003020160000154848281518110151561332e57fe5b906020019060200201818152505060018181548110151561334b57fe5b90600052602060002090600302016001018054600181600116156101000203166002900480601f0160208091040260200160405190810160405280929190818152602001828054600181600116156101000203166002900480156133f05780601f106133c5576101008083540402835291602001916133f0565b820191906000526020600020905b8154815290600101906020018083116133d357829003601f168201915b5050505050838281518110151561340357fe5b9060200190602002018190525060018181548110151561341f57fe5b90600052602060002090600302016002018054600181600116156101000203166002900480601f0160208091040260200160405190810160405280929190818152602001828054600181600116156101000203166002900480156134c45780601f10613499576101008083540402835291602001916134c4565b820191906000526020600020905b8154815290600101906020018083116134a757829003601f168201915b505050505082828151811015156134d757fe5b9060200190602002018190525080806001019150506132f2565b83838396509650965050505050909192565b6000808311801561351957506002805490508311155b151561355a576040517f08c379a0000000000000000000000000000000000000000000000000000000008152600401613551906144d2565b60405180910390fd5b8160026001850381548110151561356d57fe5b90600052602060002090600502016003019080519060200190613591929190613b09565b506001905092915050565b606080606080606080600080805490506040519080825280602002602001820160405280156135da5781602001602082028038833980820191505090505b50935060008054905060405190808252806020026020018201604052801561361657816020015b60608152602001906001900390816136015790505b50925060008054905060405190808252806020026020018201604052801561365257816020015b606081526020019060019003908161363d5790505b509150600090505b6000805490508110156138595760008181548110151561367657fe5b906000526020600020906003020160000154848281518110151561369657fe5b90602001906020020181815250506000818154811015156136b357fe5b90600052602060002090600302016001018054600181600116156101000203166002900480601f0160208091040260200160405190810160405280929190818152602001828054600181600116156101000203166002900480156137585780601f1061372d57610100808354040283529160200191613758565b820191906000526020600020905b81548152906001019060200180831161373b57829003601f168201915b5050505050838281518110151561376b57fe5b9060200190602002018190525060008181548110151561378757fe5b90600052602060002090600302016002018054600181600116156101000203166002900480601f01602080910402602001604051908101604052809291908181526020018280546001816001161561010002031660029004801561382c5780601f106138015761010080835404028352916020019161382c565b820191906000526020600020905b81548152906001019060200180831161380f57829003601f168201915b5050505050828281518110151561383f57fe5b90602001906020020181905250808060010191505061365a565b83838396509650965050505050909192565b6060604051908101604052806000815260200160608152602001606081525090565b828054600181600116156101000203166002900490600052602060002090601f016020900481019282601f106138ce57805160ff19168380011785556138fc565b828001600101855582156138fc579182015b828111156138fb5782518255916020019190600101906138e0565b5b5090506139099190613c0d565b5090565b6060604051908101604052806000815260200160608152602001606081525090565b6101006040519081016040528060008152602001600081526020016000815260200160608152602001606081526020016060815260200160008152602001600081525090565b81548183558181111561399c5781836000526020600020918201910161399b9190613c0d565b5b505050565b828054600181600116156101000203166002900490600052602060002090601f016020900481019282601f106139da5780548555613a17565b82800160010185558215613a1757600052602060002091601f016020900482015b82811115613a165782548255916001019190600101906139fb565b5b509050613a249190613c0d565b5090565b815481835581811115613a5557600802816008028360005260206000209182019101613a549190613c32565b5b505050565b815481835581811115613a8757600302816003028360005260206000209182019101613a869190613ca9565b5b505050565b60a06040519081016040528060008152602001606081526020016060815260200160608152602001606081525090565b828054828255906000526020600020908101928215613af8579160200282015b82811115613af7578251825591602001919060010190613adc565b5b509050613b059190613c0d565b5090565b828054600181600116156101000203166002900490600052602060002090601f016020900481019282601f10613b4a57805160ff1916838001178555613b78565b82800160010185558215613b78579182015b82811115613b77578251825591602001919060010190613b5c565b5b509050613b859190613c0d565b5090565b828054828255906000526020600020908101928215613bca5760005260206000209182015b82811115613bc9578254825591600101919060010190613bae565b5b509050613bd79190613c0d565b5090565b815481835581811115613c0857600502816005028360005260206000209182019101613c079190613cf0565b5b505050565b613c2f91905b80821115613c2b576000816000905550600101613c13565b5090565b90565b613ca691905b80821115613ca25760008082016000905560018201600090556002820160009055600382016000613c699190613d57565b600482016000613c799190613d57565b600582016000613c899190613d57565b6006820160009055600782016000905550600801613c38565b5090565b90565b613ced91905b80821115613ce957600080820160009055600182016000613cd09190613d57565b600282016000613ce09190613d57565b50600301613caf565b5090565b90565b613d5491905b80821115613d5057600080820160009055600182016000613d179190613d57565b600282016000613d279190613d57565b600382016000613d379190613d57565b600482016000613d479190613d9f565b50600501613cf6565b5090565b90565b50805460018160011615610100020316600290046000825580601f10613d7d5750613d9c565b601f016020900490600052602060002090810190613d9b9190613c0d565b5b50565b5080546000825590600052602060002090810190613dbd9190613c0d565b50565b600082601f8301121515613dd357600080fd5b8135613de6613de182614671565b614644565b91508082526020830160208301858383011115613e0257600080fd5b613e0d83828461471d565b50505092915050565b6000613e228235614713565b905092915050565b60008060408385031215613e3d57600080fd5b600083013567ffffffffffffffff811115613e5757600080fd5b613e6385828601613dc0565b925050602083013567ffffffffffffffff811115613e8057600080fd5b613e8c85828601613dc0565b9150509250929050565b600080600060608486031215613eab57600080fd5b600084013567ffffffffffffffff811115613ec557600080fd5b613ed186828701613dc0565b935050602084013567ffffffffffffffff811115613eee57600080fd5b613efa86828701613dc0565b925050604084013567ffffffffffffffff811115613f1757600080fd5b613f2386828701613dc0565b9150509250925092565b600060208284031215613f3f57600080fd5b6000613f4d84828501613e16565b91505092915050565b60008060408385031215613f6957600080fd5b6000613f7785828601613e16565b925050602083013567ffffffffffffffff811115613f9457600080fd5b613fa085828601613dc0565b9150509250929050565b600080600060608486031215613fbf57600080fd5b6000613fcd86828701613e16565b935050602084013567ffffffffffffffff811115613fea57600080fd5b613ff686828701613dc0565b925050604084013567ffffffffffffffff81111561401357600080fd5b61401f86828701613dc0565b9150509250925092565b60008060006060848603121561403e57600080fd5b600061404c86828701613e16565b935050602061405d86828701613e16565b925050604084013567ffffffffffffffff81111561407a57600080fd5b61408686828701613dc0565b9150509250925092565b600080600080608085870312156140a657600080fd5b60006140b487828801613e16565b94505060206140c587828801613e16565b935050604085013567ffffffffffffffff8111156140e257600080fd5b6140ee87828801613dc0565b925050606085013567ffffffffffffffff81111561410b57600080fd5b61411787828801613dc0565b91505092959194509250565b600061412e826146b7565b808452602084019350836020820285016141478561469d565b60005b84811015614180578383038852614162838351614231565b925061416d826146e3565b915060208801975060018101905061414a565b508196508694505050505092915050565b600061419c826146c2565b8084526020840193506141ae836146aa565b60005b828110156141e0576141c486835161430c565b6141cd826146f0565b91506020860195506001810190506141b1565b50849250505092915050565b6141f5816146fd565b82525050565b6000614206826146d8565b80845261421a81602086016020860161472c565b6142238161475f565b602085010191505092915050565b600061423c826146cd565b80845261425081602086016020860161472c565b6142598161475f565b602085010191505092915050565b6000601682527f5573657220494420646f6573206e6f74206578697374000000000000000000006020830152604082019050919050565b6000601982527f4361727269657220494420646f6573206e6f74206578697374000000000000006020830152604082019050919050565b6000601a82527f536869706d656e7420494420646f6573206e6f742065786973740000000000006020830152604082019050919050565b61431581614709565b82525050565b600060208201905081810360008301526143358184614191565b905092915050565b600060608201905081810360008301526143578186614191565b9050818103602083015261436b8185614123565b9050818103604083015261437f8184614123565b9050949350505050565b600060808201905081810360008301526143a38187614191565b905081810360208301526143b78186614123565b905081810360408301526143cb8185614123565b905081810360608301526143df8184614123565b905095945050505050565b600060c08201905081810360008301526144048189614191565b905081810360208301526144188188614191565b9050818103604083015261442c8187614191565b905081810360608301526144408186614123565b905081810360808301526144548185614123565b905081810360a08301526144688184614123565b9050979650505050505050565b600060208201905061448a60008301846141ec565b92915050565b600060208201905081810360008301526144aa81846141fb565b905092915050565b600060208201905081810360008301526144cb81614267565b9050919050565b600060208201905081810360008301526144eb8161429e565b9050919050565b6000602082019050818103600083015261450b816142d5565b9050919050565b6000606082019050614527600083018661430c565b818103602083015261453981856141fb565b9050818103604083015261454d81846141fb565b9050949350505050565b600060808201905061456c600083018761430c565b818103602083015261457e81866141fb565b9050818103604083015261459281856141fb565b905081810360608301526145a681846141fb565b905095945050505050565b6000610100820190506145c7600083018b61430c565b6145d4602083018a61430c565b6145e1604083018961430c565b81810360608301526145f381886141fb565b9050818103608083015261460781876141fb565b905081810360a083015261461b81866141fb565b905061462a60c083018561430c565b61463760e083018461430c565b9998505050505050505050565b6000604051905081810181811067ffffffffffffffff8211171561466757600080fd5b8060405250919050565b600067ffffffffffffffff82111561468857600080fd5b601f19601f8301169050602081019050919050565b6000602082019050919050565b6000602082019050919050565b600081519050919050565b600081519050919050565b600081519050919050565b600081519050919050565b6000602082019050919050565b6000602082019050919050565b60008115159050919050565b6000819050919050565b6000819050919050565b82818337600083830152505050565b60005b8381101561474a57808201518184015260208101905061472f565b83811115614759576000848401525b50505050565b6000601f19601f83011690509190505600a265627a7a72305820124fcbde373d40624b725b1cdcc6d2fe6d49b0df33be6aa7b894561f56bc3c2c6c6578706572696d656e74616cf50037",
					"opcodes": "PUSH1 0x80 PUSH1 0x40 MSTORE CALLVALUE DUP1 ISZERO PUSH2 0x10 JUMPI PUSH1 0x0 DUP1 REVERT JUMPDEST POP PUSH2 0x47AA DUP1 PUSH2 0x20 PUSH1 0x0 CODECOPY PUSH1 0x0 RETURN STOP PUSH1 0x80 PUSH1 0x40 MSTORE PUSH1 0x4 CALLDATASIZE LT PUSH2 0x13E JUMPI PUSH1 0x0 CALLDATALOAD PUSH29 0x100000000000000000000000000000000000000000000000000000000 SWAP1 DIV PUSH4 0xFFFFFFFF AND DUP1 PUSH4 0x79EAF34 EQ PUSH2 0x254 JUMPI DUP1 PUSH4 0x92B3740 EQ PUSH2 0x27D JUMPI DUP1 PUSH4 0x1F459041 EQ PUSH2 0x2C1 JUMPI DUP1 PUSH4 0x269EE5C0 EQ PUSH2 0x2EA JUMPI DUP1 PUSH4 0x2F3E0BC6 EQ PUSH2 0x327 JUMPI DUP1 PUSH4 0x38F14845 EQ PUSH2 0x364 JUMPI DUP1 PUSH4 0x3E92ECAB EQ PUSH2 0x3A1 JUMPI DUP1 PUSH4 0x3E98AB21 EQ PUSH2 0x3CA JUMPI DUP1 PUSH4 0x46FE46F9 EQ PUSH2 0x407 JUMPI DUP1 PUSH4 0x494DAD6C EQ PUSH2 0x444 JUMPI DUP1 PUSH4 0x4DE52651 EQ PUSH2 0x474 JUMPI DUP1 PUSH4 0x4E9F4614 EQ PUSH2 0x4B1 JUMPI DUP1 PUSH4 0x58AB49DA EQ PUSH2 0x4EE JUMPI DUP1 PUSH4 0x5C622A0E EQ PUSH2 0x52B JUMPI DUP1 PUSH4 0x5DF2D368 EQ PUSH2 0x568 JUMPI DUP1 PUSH4 0x65D7B766 EQ PUSH2 0x591 JUMPI DUP1 PUSH4 0x6ED6DA9E EQ PUSH2 0x5BA JUMPI DUP1 PUSH4 0x9A006FE2 EQ PUSH2 0x5F9 JUMPI DUP1 PUSH4 0xB8997993 EQ PUSH2 0x627 JUMPI DUP1 PUSH4 0xB9DEF59E EQ PUSH2 0x664 JUMPI DUP1 PUSH4 0xC64CB4ED EQ PUSH2 0x6A4 JUMPI DUP1 PUSH4 0xE2842D79 EQ PUSH2 0x6E1 JUMPI DUP1 PUSH4 0xE8A6DAFE EQ PUSH2 0x70E JUMPI DUP1 PUSH4 0xE9523C97 EQ PUSH2 0x74B JUMPI JUMPDEST CALLVALUE DUP1 ISZERO PUSH2 0x14A JUMPI PUSH1 0x0 DUP1 REVERT JUMPDEST POP PUSH2 0x153 PUSH2 0x386B JUMP JUMPDEST PUSH1 0x60 PUSH1 0x40 MLOAD SWAP1 DUP2 ADD PUSH1 0x40 MSTORE DUP1 PUSH1 0x1 DUP2 MSTORE PUSH1 0x20 ADD PUSH1 0x40 DUP1 MLOAD SWAP1 DUP2 ADD PUSH1 0x40 MSTORE DUP1 PUSH1 0x5 DUP2 MSTORE PUSH1 0x20 ADD PUSH32 0x61646D696E000000000000000000000000000000000000000000000000000000 DUP2 MSTORE POP DUP2 MSTORE PUSH1 0x20 ADD PUSH1 0x40 DUP1 MLOAD SWAP1 DUP2 ADD PUSH1 0x40 MSTORE DUP1 PUSH1 0x5 DUP2 MSTORE PUSH1 0x20 ADD PUSH32 0x61646D696E000000000000000000000000000000000000000000000000000000 DUP2 MSTORE POP DUP2 MSTORE POP SWAP1 POP PUSH1 0x0 DUP2 SWAP1 DUP1 PUSH1 0x1 DUP2 SLOAD ADD DUP1 DUP3 SSTORE DUP1 SWAP2 POP POP SWAP1 PUSH1 0x1 DUP3 SUB SWAP1 PUSH1 0x0 MSTORE PUSH1 0x20 PUSH1 0x0 KECCAK256 SWAP1 PUSH1 0x3 MUL ADD PUSH1 0x0 SWAP1 SWAP2 SWAP3 SWAP1 SWAP2 SWAP1 SWAP2 POP PUSH1 0x0 DUP3 ADD MLOAD DUP2 PUSH1 0x0 ADD SSTORE PUSH1 0x20 DUP3 ADD MLOAD DUP2 PUSH1 0x1 ADD SWAP1 DUP1 MLOAD SWAP1 PUSH1 0x20 ADD SWAP1 PUSH2 0x230 SWAP3 SWAP2 SWAP1 PUSH2 0x388D JUMP JUMPDEST POP PUSH1 0x40 DUP3 ADD MLOAD DUP2 PUSH1 0x2 ADD SWAP1 DUP1 MLOAD SWAP1 PUSH1 0x20 ADD SWAP1 PUSH2 0x24D SWAP3 SWAP2 SWAP1 PUSH2 0x388D JUMP JUMPDEST POP POP POP POP POP STOP JUMPDEST CALLVALUE DUP1 ISZERO PUSH2 0x260 JUMPI PUSH1 0x0 DUP1 REVERT JUMPDEST POP PUSH2 0x27B PUSH1 0x4 DUP1 CALLDATASIZE SUB PUSH2 0x276 SWAP2 SWAP1 DUP2 ADD SWAP1 PUSH2 0x3E2A JUMP JUMPDEST PUSH2 0x778 JUMP JUMPDEST STOP JUMPDEST CALLVALUE DUP1 ISZERO PUSH2 0x289 JUMPI PUSH1 0x0 DUP1 REVERT JUMPDEST POP PUSH2 0x2A4 PUSH1 0x4 DUP1 CALLDATASIZE SUB PUSH2 0x29F SWAP2 SWAP1 DUP2 ADD SWAP1 PUSH2 0x3F2D JUMP JUMPDEST PUSH2 0x81F JUMP JUMPDEST PUSH1 0x40 MLOAD PUSH2 0x2B8 SWAP9 SWAP8 SWAP7 SWAP6 SWAP5 SWAP4 SWAP3 SWAP2 SWAP1 PUSH2 0x45B1 JUMP JUMPDEST PUSH1 0x40 MLOAD DUP1 SWAP2 SUB SWAP1 RETURN JUMPDEST CALLVALUE DUP1 ISZERO PUSH2 0x2CD JUMPI PUSH1 0x0 DUP1 REVERT JUMPDEST POP PUSH2 0x2E8 PUSH1 0x4 DUP1 CALLDATASIZE SUB PUSH2 0x2E3 SWAP2 SWAP1 DUP2 ADD SWAP1 PUSH2 0x3E2A JUMP JUMPDEST PUSH2 0xAC8 JUMP JUMPDEST STOP JUMPDEST CALLVALUE DUP1 ISZERO PUSH2 0x2F6 JUMPI PUSH1 0x0 DUP1 REVERT JUMPDEST POP PUSH2 0x311 PUSH1 0x4 DUP1 CALLDATASIZE SUB PUSH2 0x30C SWAP2 SWAP1 DUP2 ADD SWAP1 PUSH2 0x3E2A JUMP JUMPDEST PUSH2 0xB70 JUMP JUMPDEST PUSH1 0x40 MLOAD PUSH2 0x31E SWAP2 SWAP1 PUSH2 0x4475 JUMP JUMPDEST PUSH1 0x40 MLOAD DUP1 SWAP2 SUB SWAP1 RETURN JUMPDEST CALLVALUE DUP1 ISZERO PUSH2 0x333 JUMPI PUSH1 0x0 DUP1 REVERT JUMPDEST POP PUSH2 0x34E PUSH1 0x4 DUP1 CALLDATASIZE SUB PUSH2 0x349 SWAP2 SWAP1 DUP2 ADD SWAP1 PUSH2 0x3F2D JUMP JUMPDEST PUSH2 0xF4A JUMP JUMPDEST PUSH1 0x40 MLOAD PUSH2 0x35B SWAP2 SWAP1 PUSH2 0x4475 JUMP JUMPDEST PUSH1 0x40 MLOAD DUP1 SWAP2 SUB SWAP1 RETURN JUMPDEST CALLVALUE DUP1 ISZERO PUSH2 0x370 JUMPI PUSH1 0x0 DUP1 REVERT JUMPDEST POP PUSH2 0x38B PUSH1 0x4 DUP1 CALLDATASIZE SUB PUSH2 0x386 SWAP2 SWAP1 DUP2 ADD SWAP1 PUSH2 0x3F2D JUMP JUMPDEST PUSH2 0x1202 JUMP JUMPDEST PUSH1 0x40 MLOAD PUSH2 0x398 SWAP2 SWAP1 PUSH2 0x4475 JUMP JUMPDEST PUSH1 0x40 MLOAD DUP1 SWAP2 SUB SWAP1 RETURN JUMPDEST CALLVALUE DUP1 ISZERO PUSH2 0x3AD JUMPI PUSH1 0x0 DUP1 REVERT JUMPDEST POP PUSH2 0x3C8 PUSH1 0x4 DUP1 CALLDATASIZE SUB PUSH2 0x3C3 SWAP2 SWAP1 DUP2 ADD SWAP1 PUSH2 0x3E96 JUMP JUMPDEST PUSH2 0x14AE JUMP JUMPDEST STOP JUMPDEST CALLVALUE DUP1 ISZERO PUSH2 0x3D6 JUMPI PUSH1 0x0 DUP1 REVERT JUMPDEST POP PUSH2 0x3F1 PUSH1 0x4 DUP1 CALLDATASIZE SUB PUSH2 0x3EC SWAP2 SWAP1 DUP2 ADD SWAP1 PUSH2 0x3E2A JUMP JUMPDEST PUSH2 0x15EF JUMP JUMPDEST PUSH1 0x40 MLOAD PUSH2 0x3FE SWAP2 SWAP1 PUSH2 0x4475 JUMP JUMPDEST PUSH1 0x40 MLOAD DUP1 SWAP2 SUB SWAP1 RETURN JUMPDEST CALLVALUE DUP1 ISZERO PUSH2 0x413 JUMPI PUSH1 0x0 DUP1 REVERT JUMPDEST POP PUSH2 0x42E PUSH1 0x4 DUP1 CALLDATASIZE SUB PUSH2 0x429 SWAP2 SWAP1 DUP2 ADD SWAP1 PUSH2 0x3F56 JUMP JUMPDEST PUSH2 0x182C JUMP JUMPDEST PUSH1 0x40 MLOAD PUSH2 0x43B SWAP2 SWAP1 PUSH2 0x4475 JUMP JUMPDEST PUSH1 0x40 MLOAD DUP1 SWAP2 SUB SWAP1 RETURN JUMPDEST CALLVALUE DUP1 ISZERO PUSH2 0x450 JUMPI PUSH1 0x0 DUP1 REVERT JUMPDEST POP PUSH2 0x459 PUSH2 0x1A15 JUMP JUMPDEST PUSH1 0x40 MLOAD PUSH2 0x46B SWAP7 SWAP6 SWAP5 SWAP4 SWAP3 SWAP2 SWAP1 PUSH2 0x43EA JUMP JUMPDEST PUSH1 0x40 MLOAD DUP1 SWAP2 SUB SWAP1 RETURN JUMPDEST CALLVALUE DUP1 ISZERO PUSH2 0x480 JUMPI PUSH1 0x0 DUP1 REVERT JUMPDEST POP PUSH2 0x49B PUSH1 0x4 DUP1 CALLDATASIZE SUB PUSH2 0x496 SWAP2 SWAP1 DUP2 ADD SWAP1 PUSH2 0x3F2D JUMP JUMPDEST PUSH2 0x205B JUMP JUMPDEST PUSH1 0x40 MLOAD PUSH2 0x4A8 SWAP2 SWAP1 PUSH2 0x431B JUMP JUMPDEST PUSH1 0x40 MLOAD DUP1 SWAP2 SUB SWAP1 RETURN JUMPDEST CALLVALUE DUP1 ISZERO PUSH2 0x4BD JUMPI PUSH1 0x0 DUP1 REVERT JUMPDEST POP PUSH2 0x4D8 PUSH1 0x4 DUP1 CALLDATASIZE SUB PUSH2 0x4D3 SWAP2 SWAP1 DUP2 ADD SWAP1 PUSH2 0x3FAA JUMP JUMPDEST PUSH2 0x20D6 JUMP JUMPDEST PUSH1 0x40 MLOAD PUSH2 0x4E5 SWAP2 SWAP1 PUSH2 0x4475 JUMP JUMPDEST PUSH1 0x40 MLOAD DUP1 SWAP2 SUB SWAP1 RETURN JUMPDEST CALLVALUE DUP1 ISZERO PUSH2 0x4FA JUMPI PUSH1 0x0 DUP1 REVERT JUMPDEST POP PUSH2 0x515 PUSH1 0x4 DUP1 CALLDATASIZE SUB PUSH2 0x510 SWAP2 SWAP1 DUP2 ADD SWAP1 PUSH2 0x3F2D JUMP JUMPDEST PUSH2 0x21A8 JUMP JUMPDEST PUSH1 0x40 MLOAD PUSH2 0x522 SWAP2 SWAP1 PUSH2 0x4475 JUMP JUMPDEST PUSH1 0x40 MLOAD DUP1 SWAP2 SUB SWAP1 RETURN JUMPDEST CALLVALUE DUP1 ISZERO PUSH2 0x537 JUMPI PUSH1 0x0 DUP1 REVERT JUMPDEST POP PUSH2 0x552 PUSH1 0x4 DUP1 CALLDATASIZE SUB PUSH2 0x54D SWAP2 SWAP1 DUP2 ADD SWAP1 PUSH2 0x3F2D JUMP JUMPDEST PUSH2 0x2404 JUMP JUMPDEST PUSH1 0x40 MLOAD PUSH2 0x55F SWAP2 SWAP1 PUSH2 0x4490 JUMP JUMPDEST PUSH1 0x40 MLOAD DUP1 SWAP2 SUB SWAP1 RETURN JUMPDEST CALLVALUE DUP1 ISZERO PUSH2 0x574 JUMPI PUSH1 0x0 DUP1 REVERT JUMPDEST POP PUSH2 0x58F PUSH1 0x4 DUP1 CALLDATASIZE SUB PUSH2 0x58A SWAP2 SWAP1 DUP2 ADD SWAP1 PUSH2 0x4090 JUMP JUMPDEST PUSH2 0x24C9 JUMP JUMPDEST STOP JUMPDEST CALLVALUE DUP1 ISZERO PUSH2 0x59D JUMPI PUSH1 0x0 DUP1 REVERT JUMPDEST POP PUSH2 0x5B8 PUSH1 0x4 DUP1 CALLDATASIZE SUB PUSH2 0x5B3 SWAP2 SWAP1 DUP2 ADD SWAP1 PUSH2 0x4029 JUMP JUMPDEST PUSH2 0x2661 JUMP JUMPDEST STOP JUMPDEST CALLVALUE DUP1 ISZERO PUSH2 0x5C6 JUMPI PUSH1 0x0 DUP1 REVERT JUMPDEST POP PUSH2 0x5E1 PUSH1 0x4 DUP1 CALLDATASIZE SUB PUSH2 0x5DC SWAP2 SWAP1 DUP2 ADD SWAP1 PUSH2 0x3F2D JUMP JUMPDEST PUSH2 0x26F2 JUMP JUMPDEST PUSH1 0x40 MLOAD PUSH2 0x5F0 SWAP4 SWAP3 SWAP2 SWAP1 PUSH2 0x4512 JUMP JUMPDEST PUSH1 0x40 MLOAD DUP1 SWAP2 SUB SWAP1 RETURN JUMPDEST CALLVALUE DUP1 ISZERO PUSH2 0x605 JUMPI PUSH1 0x0 DUP1 REVERT JUMPDEST POP PUSH2 0x60E PUSH2 0x28F3 JUMP JUMPDEST PUSH1 0x40 MLOAD PUSH2 0x61E SWAP5 SWAP4 SWAP3 SWAP2 SWAP1 PUSH2 0x4389 JUMP JUMPDEST PUSH1 0x40 MLOAD DUP1 SWAP2 SUB SWAP1 RETURN JUMPDEST CALLVALUE DUP1 ISZERO PUSH2 0x633 JUMPI PUSH1 0x0 DUP1 REVERT JUMPDEST POP PUSH2 0x64E PUSH1 0x4 DUP1 CALLDATASIZE SUB PUSH2 0x649 SWAP2 SWAP1 DUP2 ADD SWAP1 PUSH2 0x3F56 JUMP JUMPDEST PUSH2 0x2CDB JUMP JUMPDEST PUSH1 0x40 MLOAD PUSH2 0x65B SWAP2 SWAP1 PUSH2 0x4475 JUMP JUMPDEST PUSH1 0x40 MLOAD DUP1 SWAP2 SUB SWAP1 RETURN JUMPDEST CALLVALUE DUP1 ISZERO PUSH2 0x670 JUMPI PUSH1 0x0 DUP1 REVERT JUMPDEST POP PUSH2 0x68B PUSH1 0x4 DUP1 CALLDATASIZE SUB PUSH2 0x686 SWAP2 SWAP1 DUP2 ADD SWAP1 PUSH2 0x3F2D JUMP JUMPDEST PUSH2 0x2D41 JUMP JUMPDEST PUSH1 0x40 MLOAD PUSH2 0x69B SWAP5 SWAP4 SWAP3 SWAP2 SWAP1 PUSH2 0x4557 JUMP JUMPDEST PUSH1 0x40 MLOAD DUP1 SWAP2 SUB SWAP1 RETURN JUMPDEST CALLVALUE DUP1 ISZERO PUSH2 0x6B0 JUMPI PUSH1 0x0 DUP1 REVERT JUMPDEST POP PUSH2 0x6CB PUSH1 0x4 DUP1 CALLDATASIZE SUB PUSH2 0x6C6 SWAP2 SWAP1 DUP2 ADD SWAP1 PUSH2 0x3F56 JUMP JUMPDEST PUSH2 0x3049 JUMP JUMPDEST PUSH1 0x40 MLOAD PUSH2 0x6D8 SWAP2 SWAP1 PUSH2 0x4475 JUMP JUMPDEST PUSH1 0x40 MLOAD DUP1 SWAP2 SUB SWAP1 RETURN JUMPDEST CALLVALUE DUP1 ISZERO PUSH2 0x6ED JUMPI PUSH1 0x0 DUP1 REVERT JUMPDEST POP PUSH2 0x6F6 PUSH2 0x3233 JUMP JUMPDEST PUSH1 0x40 MLOAD PUSH2 0x705 SWAP4 SWAP3 SWAP2 SWAP1 PUSH2 0x433D JUMP JUMPDEST PUSH1 0x40 MLOAD DUP1 SWAP2 SUB SWAP1 RETURN JUMPDEST CALLVALUE DUP1 ISZERO PUSH2 0x71A JUMPI PUSH1 0x0 DUP1 REVERT JUMPDEST POP PUSH2 0x735 PUSH1 0x4 DUP1 CALLDATASIZE SUB PUSH2 0x730 SWAP2 SWAP1 DUP2 ADD SWAP1 PUSH2 0x3F56 JUMP JUMPDEST PUSH2 0x3503 JUMP JUMPDEST PUSH1 0x40 MLOAD PUSH2 0x742 SWAP2 SWAP1 PUSH2 0x4475 JUMP JUMPDEST PUSH1 0x40 MLOAD DUP1 SWAP2 SUB SWAP1 RETURN JUMPDEST CALLVALUE DUP1 ISZERO PUSH2 0x757 JUMPI PUSH1 0x0 DUP1 REVERT JUMPDEST POP PUSH2 0x760 PUSH2 0x359C JUMP JUMPDEST PUSH1 0x40 MLOAD PUSH2 0x76F SWAP4 SWAP3 SWAP2 SWAP1 PUSH2 0x433D JUMP JUMPDEST PUSH1 0x40 MLOAD DUP1 SWAP2 SUB SWAP1 RETURN JUMPDEST PUSH2 0x780 PUSH2 0x390D JUMP JUMPDEST PUSH1 0x60 PUSH1 0x40 MLOAD SWAP1 DUP2 ADD PUSH1 0x40 MSTORE DUP1 PUSH1 0x1 DUP1 DUP1 SLOAD SWAP1 POP ADD DUP2 MSTORE PUSH1 0x20 ADD DUP5 DUP2 MSTORE PUSH1 0x20 ADD DUP4 DUP2 MSTORE POP SWAP1 POP PUSH1 0x1 DUP2 SWAP1 DUP1 PUSH1 0x1 DUP2 SLOAD ADD DUP1 DUP3 SSTORE DUP1 SWAP2 POP POP SWAP1 PUSH1 0x1 DUP3 SUB SWAP1 PUSH1 0x0 MSTORE PUSH1 0x20 PUSH1 0x0 KECCAK256 SWAP1 PUSH1 0x3 MUL ADD PUSH1 0x0 SWAP1 SWAP2 SWAP3 SWAP1 SWAP2 SWAP1 SWAP2 POP PUSH1 0x0 DUP3 ADD MLOAD DUP2 PUSH1 0x0 ADD SSTORE PUSH1 0x20 DUP3 ADD MLOAD DUP2 PUSH1 0x1 ADD SWAP1 DUP1 MLOAD SWAP1 PUSH1 0x20 ADD SWAP1 PUSH2 0x7F9 SWAP3 SWAP2 SWAP1 PUSH2 0x388D JUMP JUMPDEST POP PUSH1 0x40 DUP3 ADD MLOAD DUP2 PUSH1 0x2 ADD SWAP1 DUP1 MLOAD SWAP1 PUSH1 0x20 ADD SWAP1 PUSH2 0x816 SWAP3 SWAP2 SWAP1 PUSH2 0x388D JUMP JUMPDEST POP POP POP POP POP POP POP JUMP JUMPDEST PUSH1 0x0 DUP1 PUSH1 0x0 PUSH1 0x60 DUP1 PUSH1 0x60 PUSH1 0x0 DUP1 PUSH2 0x834 PUSH2 0x392F JUMP JUMPDEST PUSH1 0x3 PUSH1 0x1 DUP12 SUB DUP2 SLOAD DUP2 LT ISZERO ISZERO PUSH2 0x846 JUMPI INVALID JUMPDEST SWAP1 PUSH1 0x0 MSTORE PUSH1 0x20 PUSH1 0x0 KECCAK256 SWAP1 PUSH1 0x8 MUL ADD PUSH2 0x100 PUSH1 0x40 MLOAD SWAP1 DUP2 ADD PUSH1 0x40 MSTORE SWAP1 DUP2 PUSH1 0x0 DUP3 ADD SLOAD DUP2 MSTORE PUSH1 0x20 ADD PUSH1 0x1 DUP3 ADD SLOAD DUP2 MSTORE PUSH1 0x20 ADD PUSH1 0x2 DUP3 ADD SLOAD DUP2 MSTORE PUSH1 0x20 ADD PUSH1 0x3 DUP3 ADD DUP1 SLOAD PUSH1 0x1 DUP2 PUSH1 0x1 AND ISZERO PUSH2 0x100 MUL SUB AND PUSH1 0x2 SWAP1 DIV DUP1 PUSH1 0x1F ADD PUSH1 0x20 DUP1 SWAP2 DIV MUL PUSH1 0x20 ADD PUSH1 0x40 MLOAD SWAP1 DUP2 ADD PUSH1 0x40 MSTORE DUP1 SWAP3 SWAP2 SWAP1 DUP2 DUP2 MSTORE PUSH1 0x20 ADD DUP3 DUP1 SLOAD PUSH1 0x1 DUP2 PUSH1 0x1 AND ISZERO PUSH2 0x100 MUL SUB AND PUSH1 0x2 SWAP1 DIV DUP1 ISZERO PUSH2 0x918 JUMPI DUP1 PUSH1 0x1F LT PUSH2 0x8ED JUMPI PUSH2 0x100 DUP1 DUP4 SLOAD DIV MUL DUP4 MSTORE SWAP2 PUSH1 0x20 ADD SWAP2 PUSH2 0x918 JUMP JUMPDEST DUP3 ADD SWAP2 SWAP1 PUSH1 0x0 MSTORE PUSH1 0x20 PUSH1 0x0 KECCAK256 SWAP1 JUMPDEST DUP2 SLOAD DUP2 MSTORE SWAP1 PUSH1 0x1 ADD SWAP1 PUSH1 0x20 ADD DUP1 DUP4 GT PUSH2 0x8FB JUMPI DUP3 SWAP1 SUB PUSH1 0x1F AND DUP3 ADD SWAP2 JUMPDEST POP POP POP POP POP DUP2 MSTORE PUSH1 0x20 ADD PUSH1 0x4 DUP3 ADD DUP1 SLOAD PUSH1 0x1 DUP2 PUSH1 0x1 AND ISZERO PUSH2 0x100 MUL SUB AND PUSH1 0x2 SWAP1 DIV DUP1 PUSH1 0x1F ADD PUSH1 0x20 DUP1 SWAP2 DIV MUL PUSH1 0x20 ADD PUSH1 0x40 MLOAD SWAP1 DUP2 ADD PUSH1 0x40 MSTORE DUP1 SWAP3 SWAP2 SWAP1 DUP2 DUP2 MSTORE PUSH1 0x20 ADD DUP3 DUP1 SLOAD PUSH1 0x1 DUP2 PUSH1 0x1 AND ISZERO PUSH2 0x100 MUL SUB AND PUSH1 0x2 SWAP1 DIV DUP1 ISZERO PUSH2 0x9BA JUMPI DUP1 PUSH1 0x1F LT PUSH2 0x98F JUMPI PUSH2 0x100 DUP1 DUP4 SLOAD DIV MUL DUP4 MSTORE SWAP2 PUSH1 0x20 ADD SWAP2 PUSH2 0x9BA JUMP JUMPDEST DUP3 ADD SWAP2 SWAP1 PUSH1 0x0 MSTORE PUSH1 0x20 PUSH1 0x0 KECCAK256 SWAP1 JUMPDEST DUP2 SLOAD DUP2 MSTORE SWAP1 PUSH1 0x1 ADD SWAP1 PUSH1 0x20 ADD DUP1 DUP4 GT PUSH2 0x99D JUMPI DUP3 SWAP1 SUB PUSH1 0x1F AND DUP3 ADD SWAP2 JUMPDEST POP POP POP POP POP DUP2 MSTORE PUSH1 0x20 ADD PUSH1 0x5 DUP3 ADD DUP1 SLOAD PUSH1 0x1 DUP2 PUSH1 0x1 AND ISZERO PUSH2 0x100 MUL SUB AND PUSH1 0x2 SWAP1 DIV DUP1 PUSH1 0x1F ADD PUSH1 0x20 DUP1 SWAP2 DIV MUL PUSH1 0x20 ADD PUSH1 0x40 MLOAD SWAP1 DUP2 ADD PUSH1 0x40 MSTORE DUP1 SWAP3 SWAP2 SWAP1 DUP2 DUP2 MSTORE PUSH1 0x20 ADD DUP3 DUP1 SLOAD PUSH1 0x1 DUP2 PUSH1 0x1 AND ISZERO PUSH2 0x100 MUL SUB AND PUSH1 0x2 SWAP1 DIV DUP1 ISZERO PUSH2 0xA5C JUMPI DUP1 PUSH1 0x1F LT PUSH2 0xA31 JUMPI PUSH2 0x100 DUP1 DUP4 SLOAD DIV MUL DUP4 MSTORE SWAP2 PUSH1 0x20 ADD SWAP2 PUSH2 0xA5C JUMP JUMPDEST DUP3 ADD SWAP2 SWAP1 PUSH1 0x0 MSTORE PUSH1 0x20 PUSH1 0x0 KECCAK256 SWAP1 JUMPDEST DUP2 SLOAD DUP2 MSTORE SWAP1 PUSH1 0x1 ADD SWAP1 PUSH1 0x20 ADD DUP1 DUP4 GT PUSH2 0xA3F JUMPI DUP3 SWAP1 SUB PUSH1 0x1F AND DUP3 ADD SWAP2 JUMPDEST POP POP POP POP POP DUP2 MSTORE PUSH1 0x20 ADD PUSH1 0x6 DUP3 ADD SLOAD DUP2 MSTORE PUSH1 0x20 ADD PUSH1 0x7 DUP3 ADD SLOAD DUP2 MSTORE POP POP SWAP1 POP DUP1 PUSH1 0x0 ADD MLOAD DUP2 PUSH1 0x20 ADD MLOAD DUP3 PUSH1 0x40 ADD MLOAD DUP4 PUSH1 0x60 ADD MLOAD DUP5 PUSH1 0x80 ADD MLOAD DUP6 PUSH1 0xA0 ADD MLOAD DUP7 PUSH1 0xC0 ADD MLOAD DUP8 PUSH1 0xE0 ADD MLOAD DUP5 SWAP5 POP DUP4 SWAP4 POP DUP3 SWAP3 POP SWAP9 POP SWAP9 POP SWAP9 POP SWAP9 POP SWAP9 POP SWAP9 POP SWAP9 POP SWAP9 POP POP SWAP2 SWAP4 SWAP6 SWAP8 POP SWAP2 SWAP4 SWAP6 SWAP8 JUMP JUMPDEST PUSH2 0xAD0 PUSH2 0x386B JUMP JUMPDEST PUSH1 0x60 PUSH1 0x40 MLOAD SWAP1 DUP2 ADD PUSH1 0x40 MSTORE DUP1 PUSH1 0x1 PUSH1 0x0 DUP1 SLOAD SWAP1 POP ADD DUP2 MSTORE PUSH1 0x20 ADD DUP5 DUP2 MSTORE PUSH1 0x20 ADD DUP4 DUP2 MSTORE POP SWAP1 POP PUSH1 0x0 DUP2 SWAP1 DUP1 PUSH1 0x1 DUP2 SLOAD ADD DUP1 DUP3 SSTORE DUP1 SWAP2 POP POP SWAP1 PUSH1 0x1 DUP3 SUB SWAP1 PUSH1 0x0 MSTORE PUSH1 0x20 PUSH1 0x0 KECCAK256 SWAP1 PUSH1 0x3 MUL ADD PUSH1 0x0 SWAP1 SWAP2 SWAP3 SWAP1 SWAP2 SWAP1 SWAP2 POP PUSH1 0x0 DUP3 ADD MLOAD DUP2 PUSH1 0x0 ADD SSTORE PUSH1 0x20 DUP3 ADD MLOAD DUP2 PUSH1 0x1 ADD SWAP1 DUP1 MLOAD SWAP1 PUSH1 0x20 ADD SWAP1 PUSH2 0xB4A SWAP3 SWAP2 SWAP1 PUSH2 0x388D JUMP JUMPDEST POP PUSH1 0x40 DUP3 ADD MLOAD DUP2 PUSH1 0x2 ADD SWAP1 DUP1 MLOAD SWAP1 PUSH1 0x20 ADD SWAP1 PUSH2 0xB67 SWAP3 SWAP2 SWAP1 PUSH2 0x388D JUMP JUMPDEST POP POP POP POP POP POP POP JUMP JUMPDEST PUSH1 0x0 DUP1 PUSH1 0x0 SWAP1 POP JUMPDEST PUSH1 0x0 DUP1 SLOAD SWAP1 POP DUP2 LT ISZERO PUSH2 0xF3E JUMPI DUP4 PUSH1 0x40 MLOAD PUSH1 0x20 ADD DUP1 DUP3 DUP1 MLOAD SWAP1 PUSH1 0x20 ADD SWAP1 DUP1 DUP4 DUP4 JUMPDEST PUSH1 0x20 DUP4 LT ISZERO ISZERO PUSH2 0xBBE JUMPI DUP1 MLOAD DUP3 MSTORE PUSH1 0x20 DUP3 ADD SWAP2 POP PUSH1 0x20 DUP2 ADD SWAP1 POP PUSH1 0x20 DUP4 SUB SWAP3 POP PUSH2 0xB99 JUMP JUMPDEST PUSH1 0x1 DUP4 PUSH1 0x20 SUB PUSH2 0x100 EXP SUB DUP1 NOT DUP3 MLOAD AND DUP2 DUP5 MLOAD AND DUP1 DUP3 OR DUP6 MSTORE POP POP POP POP POP POP SWAP1 POP ADD SWAP2 POP POP PUSH1 0x40 MLOAD PUSH1 0x20 DUP2 DUP4 SUB SUB DUP2 MSTORE SWAP1 PUSH1 0x40 MSTORE PUSH1 0x40 MLOAD DUP1 DUP3 DUP1 MLOAD SWAP1 PUSH1 0x20 ADD SWAP1 DUP1 DUP4 DUP4 JUMPDEST PUSH1 0x20 DUP4 LT ISZERO ISZERO PUSH2 0xC27 JUMPI DUP1 MLOAD DUP3 MSTORE PUSH1 0x20 DUP3 ADD SWAP2 POP PUSH1 0x20 DUP2 ADD SWAP1 POP PUSH1 0x20 DUP4 SUB SWAP3 POP PUSH2 0xC02 JUMP JUMPDEST PUSH1 0x1 DUP4 PUSH1 0x20 SUB PUSH2 0x100 EXP SUB DUP1 NOT DUP3 MLOAD AND DUP2 DUP5 MLOAD AND DUP1 DUP3 OR DUP6 MSTORE POP POP POP POP POP POP SWAP1 POP ADD SWAP2 POP POP PUSH1 0x40 MLOAD DUP1 SWAP2 SUB SWAP1 KECCAK256 PUSH1 0x0 NOT AND PUSH1 0x0 DUP3 DUP2 SLOAD DUP2 LT ISZERO ISZERO PUSH2 0xC67 JUMPI INVALID JUMPDEST SWAP1 PUSH1 0x0 MSTORE PUSH1 0x20 PUSH1 0x0 KECCAK256 SWAP1 PUSH1 0x3 MUL ADD PUSH1 0x1 ADD PUSH1 0x40 MLOAD PUSH1 0x20 ADD DUP1 DUP3 DUP1 SLOAD PUSH1 0x1 DUP2 PUSH1 0x1 AND ISZERO PUSH2 0x100 MUL SUB AND PUSH1 0x2 SWAP1 DIV DUP1 ISZERO PUSH2 0xCD6 JUMPI DUP1 PUSH1 0x1F LT PUSH2 0xCB4 JUMPI PUSH2 0x100 DUP1 DUP4 SLOAD DIV MUL DUP4 MSTORE SWAP2 DUP3 ADD SWAP2 PUSH2 0xCD6 JUMP JUMPDEST DUP3 ADD SWAP2 SWAP1 PUSH1 0x0 MSTORE PUSH1 0x20 PUSH1 0x0 KECCAK256 SWAP1 JUMPDEST DUP2 SLOAD DUP2 MSTORE SWAP1 PUSH1 0x1 ADD SWAP1 PUSH1 0x20 ADD DUP1 DUP4 GT PUSH2 0xCC2 JUMPI JUMPDEST POP POP SWAP2 POP POP PUSH1 0x40 MLOAD PUSH1 0x20 DUP2 DUP4 SUB SUB DUP2 MSTORE SWAP1 PUSH1 0x40 MSTORE PUSH1 0x40 MLOAD DUP1 DUP3 DUP1 MLOAD SWAP1 PUSH1 0x20 ADD SWAP1 DUP1 DUP4 DUP4 JUMPDEST PUSH1 0x20 DUP4 LT ISZERO ISZERO PUSH2 0xD1F JUMPI DUP1 MLOAD DUP3 MSTORE PUSH1 0x20 DUP3 ADD SWAP2 POP PUSH1 0x20 DUP2 ADD SWAP1 POP PUSH1 0x20 DUP4 SUB SWAP3 POP PUSH2 0xCFA JUMP JUMPDEST PUSH1 0x1 DUP4 PUSH1 0x20 SUB PUSH2 0x100 EXP SUB DUP1 NOT DUP3 MLOAD AND DUP2 DUP5 MLOAD AND DUP1 DUP3 OR DUP6 MSTORE POP POP POP POP POP POP SWAP1 POP ADD SWAP2 POP POP PUSH1 0x40 MLOAD DUP1 SWAP2 SUB SWAP1 KECCAK256 PUSH1 0x0 NOT AND EQ ISZERO PUSH2 0xF31 JUMPI DUP3 PUSH1 0x40 MLOAD PUSH1 0x20 ADD DUP1 DUP3 DUP1 MLOAD SWAP1 PUSH1 0x20 ADD SWAP1 DUP1 DUP4 DUP4 JUMPDEST PUSH1 0x20 DUP4 LT ISZERO ISZERO PUSH2 0xD8F JUMPI DUP1 MLOAD DUP3 MSTORE PUSH1 0x20 DUP3 ADD SWAP2 POP PUSH1 0x20 DUP2 ADD SWAP1 POP PUSH1 0x20 DUP4 SUB SWAP3 POP PUSH2 0xD6A JUMP JUMPDEST PUSH1 0x1 DUP4 PUSH1 0x20 SUB PUSH2 0x100 EXP SUB DUP1 NOT DUP3 MLOAD AND DUP2 DUP5 MLOAD AND DUP1 DUP3 OR DUP6 MSTORE POP POP POP POP POP POP SWAP1 POP ADD SWAP2 POP POP PUSH1 0x40 MLOAD PUSH1 0x20 DUP2 DUP4 SUB SUB DUP2 MSTORE SWAP1 PUSH1 0x40 MSTORE PUSH1 0x40 MLOAD DUP1 DUP3 DUP1 MLOAD SWAP1 PUSH1 0x20 ADD SWAP1 DUP1 DUP4 DUP4 JUMPDEST PUSH1 0x20 DUP4 LT ISZERO ISZERO PUSH2 0xDF8 JUMPI DUP1 MLOAD DUP3 MSTORE PUSH1 0x20 DUP3 ADD SWAP2 POP PUSH1 0x20 DUP2 ADD SWAP1 POP PUSH1 0x20 DUP4 SUB SWAP3 POP PUSH2 0xDD3 JUMP JUMPDEST PUSH1 0x1 DUP4 PUSH1 0x20 SUB PUSH2 0x100 EXP SUB DUP1 NOT DUP3 MLOAD AND DUP2 DUP5 MLOAD AND DUP1 DUP3 OR DUP6 MSTORE POP POP POP POP POP POP SWAP1 POP ADD SWAP2 POP POP PUSH1 0x40 MLOAD DUP1 SWAP2 SUB SWAP1 KECCAK256 PUSH1 0x0 NOT AND PUSH1 0x0 DUP3 DUP2 SLOAD DUP2 LT ISZERO ISZERO PUSH2 0xE38 JUMPI INVALID JUMPDEST SWAP1 PUSH1 0x0 MSTORE PUSH1 0x20 PUSH1 0x0 KECCAK256 SWAP1 PUSH1 0x3 MUL ADD PUSH1 0x2 ADD PUSH1 0x40 MLOAD PUSH1 0x20 ADD DUP1 DUP3 DUP1 SLOAD PUSH1 0x1 DUP2 PUSH1 0x1 AND ISZERO PUSH2 0x100 MUL SUB AND PUSH1 0x2 SWAP1 DIV DUP1 ISZERO PUSH2 0xEA7 JUMPI DUP1 PUSH1 0x1F LT PUSH2 0xE85 JUMPI PUSH2 0x100 DUP1 DUP4 SLOAD DIV MUL DUP4 MSTORE SWAP2 DUP3 ADD SWAP2 PUSH2 0xEA7 JUMP JUMPDEST DUP3 ADD SWAP2 SWAP1 PUSH1 0x0 MSTORE PUSH1 0x20 PUSH1 0x0 KECCAK256 SWAP1 JUMPDEST DUP2 SLOAD DUP2 MSTORE SWAP1 PUSH1 0x1 ADD SWAP1 PUSH1 0x20 ADD DUP1 DUP4 GT PUSH2 0xE93 JUMPI JUMPDEST POP POP SWAP2 POP POP PUSH1 0x40 MLOAD PUSH1 0x20 DUP2 DUP4 SUB SUB DUP2 MSTORE SWAP1 PUSH1 0x40 MSTORE PUSH1 0x40 MLOAD DUP1 DUP3 DUP1 MLOAD SWAP1 PUSH1 0x20 ADD SWAP1 DUP1 DUP4 DUP4 JUMPDEST PUSH1 0x20 DUP4 LT ISZERO ISZERO PUSH2 0xEF0 JUMPI DUP1 MLOAD DUP3 MSTORE PUSH1 0x20 DUP3 ADD SWAP2 POP PUSH1 0x20 DUP2 ADD SWAP1 POP PUSH1 0x20 DUP4 SUB SWAP3 POP PUSH2 0xECB JUMP JUMPDEST PUSH1 0x1 DUP4 PUSH1 0x20 SUB PUSH2 0x100 EXP SUB DUP1 NOT DUP3 MLOAD AND DUP2 DUP5 MLOAD AND DUP1 DUP3 OR DUP6 MSTORE POP POP POP POP POP POP SWAP1 POP ADD SWAP2 POP POP PUSH1 0x40 MLOAD DUP1 SWAP2 SUB SWAP1 KECCAK256 PUSH1 0x0 NOT AND EQ ISZERO PUSH2 0xF30 JUMPI PUSH1 0x1 SWAP2 POP PUSH2 0xF43 JUMP JUMPDEST JUMPDEST DUP1 DUP1 PUSH1 0x1 ADD SWAP2 POP POP PUSH2 0xB78 JUMP JUMPDEST PUSH1 0x0 SWAP2 POP JUMPDEST POP SWAP3 SWAP2 POP POP JUMP JUMPDEST PUSH1 0x0 DUP1 PUSH1 0x0 DUP1 PUSH1 0x0 DUP1 PUSH1 0x0 DUP8 GT DUP1 ISZERO PUSH2 0xF68 JUMPI POP PUSH1 0x3 DUP1 SLOAD SWAP1 POP DUP8 GT ISZERO JUMPDEST ISZERO ISZERO PUSH2 0xFA9 JUMPI PUSH1 0x40 MLOAD PUSH32 0x8C379A000000000000000000000000000000000000000000000000000000000 DUP2 MSTORE PUSH1 0x4 ADD PUSH2 0xFA0 SWAP1 PUSH2 0x44F2 JUMP JUMPDEST PUSH1 0x40 MLOAD DUP1 SWAP2 SUB SWAP1 REVERT JUMPDEST PUSH1 0x1 DUP8 SUB SWAP5 POP PUSH1 0x3 DUP6 DUP2 SLOAD DUP2 LT ISZERO ISZERO PUSH2 0xFBE JUMPI INVALID JUMPDEST SWAP1 PUSH1 0x0 MSTORE PUSH1 0x20 PUSH1 0x0 KECCAK256 SWAP1 PUSH1 0x8 MUL ADD PUSH1 0x2 ADD SLOAD SWAP4 POP PUSH1 0x2 PUSH1 0x1 DUP6 SUB DUP2 SLOAD DUP2 LT ISZERO ISZERO PUSH2 0xFE4 JUMPI INVALID JUMPDEST SWAP1 PUSH1 0x0 MSTORE PUSH1 0x20 PUSH1 0x0 KECCAK256 SWAP1 PUSH1 0x5 MUL ADD PUSH1 0x4 ADD SWAP3 POP PUSH1 0x0 SWAP2 POP JUMPDEST DUP3 DUP1 SLOAD SWAP1 POP DUP3 LT ISZERO PUSH2 0x108B JUMPI DUP7 DUP4 DUP4 DUP2 SLOAD DUP2 LT ISZERO ISZERO PUSH2 0x1017 JUMPI INVALID JUMPDEST SWAP1 PUSH1 0x0 MSTORE PUSH1 0x20 PUSH1 0x0 KECCAK256 ADD SLOAD EQ ISZERO PUSH2 0x107E JUMPI DUP3 PUSH1 0x1 DUP5 DUP1 SLOAD SWAP1 POP SUB DUP2 SLOAD DUP2 LT ISZERO ISZERO PUSH2 0x103D JUMPI INVALID JUMPDEST SWAP1 PUSH1 0x0 MSTORE PUSH1 0x20 PUSH1 0x0 KECCAK256 ADD SLOAD DUP4 DUP4 DUP2 SLOAD DUP2 LT ISZERO ISZERO PUSH2 0x1056 JUMPI INVALID JUMPDEST SWAP1 PUSH1 0x0 MSTORE PUSH1 0x20 PUSH1 0x0 KECCAK256 ADD DUP2 SWAP1 SSTORE POP DUP3 DUP1 SLOAD DUP1 SWAP2 SWAP1 PUSH1 0x1 SWAP1 SUB PUSH2 0x1078 SWAP2 SWAP1 PUSH2 0x3975 JUMP JUMPDEST POP PUSH2 0x108B JUMP JUMPDEST DUP2 DUP1 PUSH1 0x1 ADD SWAP3 POP POP PUSH2 0xFFC JUMP JUMPDEST DUP5 SWAP1 POP JUMPDEST PUSH1 0x1 PUSH1 0x3 DUP1 SLOAD SWAP1 POP SUB DUP2 LT ISZERO PUSH2 0x11DE JUMPI PUSH1 0x3 PUSH1 0x1 DUP3 ADD DUP2 SLOAD DUP2 LT ISZERO ISZERO PUSH2 0x10B1 JUMPI INVALID JUMPDEST SWAP1 PUSH1 0x0 MSTORE PUSH1 0x20 PUSH1 0x0 KECCAK256 SWAP1 PUSH1 0x8 MUL ADD PUSH1 0x3 DUP3 DUP2 SLOAD DUP2 LT ISZERO ISZERO PUSH2 0x10CE JUMPI INVALID JUMPDEST SWAP1 PUSH1 0x0 MSTORE PUSH1 0x20 PUSH1 0x0 KECCAK256 SWAP1 PUSH1 0x8 MUL ADD PUSH1 0x0 DUP3 ADD SLOAD DUP2 PUSH1 0x0 ADD SSTORE PUSH1 0x1 DUP3 ADD SLOAD DUP2 PUSH1 0x1 ADD SSTORE PUSH1 0x2 DUP3 ADD SLOAD DUP2 PUSH1 0x2 ADD SSTORE PUSH1 0x3 DUP3 ADD DUP2 PUSH1 0x3 ADD SWAP1 DUP1 SLOAD PUSH1 0x1 DUP2 PUSH1 0x1 AND ISZERO PUSH2 0x100 MUL SUB AND PUSH1 0x2 SWAP1 DIV PUSH2 0x1121 SWAP3 SWAP2 SWAP1 PUSH2 0x39A1 JUMP JUMPDEST POP PUSH1 0x4 DUP3 ADD DUP2 PUSH1 0x4 ADD SWAP1 DUP1 SLOAD PUSH1 0x1 DUP2 PUSH1 0x1 AND ISZERO PUSH2 0x100 MUL SUB AND PUSH1 0x2 SWAP1 DIV PUSH2 0x1149 SWAP3 SWAP2 SWAP1 PUSH2 0x39A1 JUMP JUMPDEST POP PUSH1 0x5 DUP3 ADD DUP2 PUSH1 0x5 ADD SWAP1 DUP1 SLOAD PUSH1 0x1 DUP2 PUSH1 0x1 AND ISZERO PUSH2 0x100 MUL SUB AND PUSH1 0x2 SWAP1 DIV PUSH2 0x1171 SWAP3 SWAP2 SWAP1 PUSH2 0x39A1 JUMP JUMPDEST POP PUSH1 0x6 DUP3 ADD SLOAD DUP2 PUSH1 0x6 ADD SSTORE PUSH1 0x7 DUP3 ADD SLOAD DUP2 PUSH1 0x7 ADD SSTORE SWAP1 POP POP PUSH1 0x1 PUSH1 0x3 DUP3 DUP2 SLOAD DUP2 LT ISZERO ISZERO PUSH2 0x119A JUMPI INVALID JUMPDEST SWAP1 PUSH1 0x0 MSTORE PUSH1 0x20 PUSH1 0x0 KECCAK256 SWAP1 PUSH1 0x8 MUL ADD PUSH1 0x0 ADD SLOAD SUB PUSH1 0x3 DUP3 DUP2 SLOAD DUP2 LT ISZERO ISZERO PUSH2 0x11BC JUMPI INVALID JUMPDEST SWAP1 PUSH1 0x0 MSTORE PUSH1 0x20 PUSH1 0x0 KECCAK256 SWAP1 PUSH1 0x8 MUL ADD PUSH1 0x0 ADD DUP2 SWAP1 SSTORE POP DUP1 DUP1 PUSH1 0x1 ADD SWAP2 POP POP PUSH2 0x108F JUMP JUMPDEST PUSH1 0x3 DUP1 SLOAD DUP1 SWAP2 SWAP1 PUSH1 0x1 SWAP1 SUB PUSH2 0x11F3 SWAP2 SWAP1 PUSH2 0x3A28 JUMP JUMPDEST POP PUSH1 0x1 SWAP6 POP POP POP POP POP POP SWAP2 SWAP1 POP JUMP JUMPDEST PUSH1 0x0 DUP1 PUSH1 0x0 DUP1 PUSH1 0x0 DUP1 DUP7 GT DUP1 ISZERO PUSH2 0x121E JUMPI POP PUSH1 0x1 DUP1 SLOAD SWAP1 POP DUP7 GT ISZERO JUMPDEST ISZERO ISZERO PUSH2 0x125F JUMPI PUSH1 0x40 MLOAD PUSH32 0x8C379A000000000000000000000000000000000000000000000000000000000 DUP2 MSTORE PUSH1 0x4 ADD PUSH2 0x1256 SWAP1 PUSH2 0x44B2 JUMP JUMPDEST PUSH1 0x40 MLOAD DUP1 SWAP2 SUB SWAP1 REVERT JUMPDEST PUSH1 0x0 SWAP4 POP JUMPDEST PUSH1 0x3 DUP1 SLOAD SWAP1 POP DUP5 LT ISZERO PUSH2 0x12AF JUMPI DUP6 PUSH1 0x3 DUP6 DUP2 SLOAD DUP2 LT ISZERO ISZERO PUSH2 0x1281 JUMPI INVALID JUMPDEST SWAP1 PUSH1 0x0 MSTORE PUSH1 0x20 PUSH1 0x0 KECCAK256 SWAP1 PUSH1 0x8 MUL ADD PUSH1 0x1 ADD SLOAD EQ ISZERO PUSH2 0x12A2 JUMPI PUSH1 0x0 SWAP5 POP PUSH2 0x14A5 JUMP JUMPDEST DUP4 DUP1 PUSH1 0x1 ADD SWAP5 POP POP PUSH2 0x1264 JUMP JUMPDEST PUSH1 0x0 SWAP3 POP JUMPDEST PUSH1 0x1 DUP1 SLOAD SWAP1 POP DUP4 LT ISZERO PUSH2 0x133E JUMPI DUP6 PUSH1 0x1 DUP5 DUP2 SLOAD DUP2 LT ISZERO ISZERO PUSH2 0x12D1 JUMPI INVALID JUMPDEST SWAP1 PUSH1 0x0 MSTORE PUSH1 0x20 PUSH1 0x0 KECCAK256 SWAP1 PUSH1 0x3 MUL ADD PUSH1 0x0 ADD SLOAD GT ISZERO PUSH2 0x1331 JUMPI PUSH1 0x1 DUP1 DUP5 DUP2 SLOAD DUP2 LT ISZERO ISZERO PUSH2 0x12F9 JUMPI INVALID JUMPDEST SWAP1 PUSH1 0x0 MSTORE PUSH1 0x20 PUSH1 0x0 KECCAK256 SWAP1 PUSH1 0x3 MUL ADD PUSH1 0x0 ADD SLOAD SUB PUSH1 0x1 DUP5 DUP2 SLOAD DUP2 LT ISZERO ISZERO PUSH2 0x131B JUMPI INVALID JUMPDEST SWAP1 PUSH1 0x0 MSTORE PUSH1 0x20 PUSH1 0x0 KECCAK256 SWAP1 PUSH1 0x3 MUL ADD PUSH1 0x0 ADD DUP2 SWAP1 SSTORE POP JUMPDEST DUP3 DUP1 PUSH1 0x1 ADD SWAP4 POP POP PUSH2 0x12B4 JUMP JUMPDEST PUSH1 0x0 SWAP2 POP JUMPDEST PUSH1 0x3 DUP1 SLOAD SWAP1 POP DUP3 LT ISZERO PUSH2 0x13CE JUMPI DUP6 PUSH1 0x3 DUP4 DUP2 SLOAD DUP2 LT ISZERO ISZERO PUSH2 0x1360 JUMPI INVALID JUMPDEST SWAP1 PUSH1 0x0 MSTORE PUSH1 0x20 PUSH1 0x0 KECCAK256 SWAP1 PUSH1 0x8 MUL ADD PUSH1 0x1 ADD SLOAD GT ISZERO PUSH2 0x13C1 JUMPI PUSH1 0x1 PUSH1 0x3 DUP4 DUP2 SLOAD DUP2 LT ISZERO ISZERO PUSH2 0x1389 JUMPI INVALID JUMPDEST SWAP1 PUSH1 0x0 MSTORE PUSH1 0x20 PUSH1 0x0 KECCAK256 SWAP1 PUSH1 0x8 MUL ADD PUSH1 0x1 ADD SLOAD SUB PUSH1 0x3 DUP4 DUP2 SLOAD DUP2 LT ISZERO ISZERO PUSH2 0x13AB JUMPI INVALID JUMPDEST SWAP1 PUSH1 0x0 MSTORE PUSH1 0x20 PUSH1 0x0 KECCAK256 SWAP1 PUSH1 0x8 MUL ADD PUSH1 0x1 ADD DUP2 SWAP1 SSTORE POP JUMPDEST DUP2 DUP1 PUSH1 0x1 ADD SWAP3 POP POP PUSH2 0x1343 JUMP JUMPDEST PUSH1 0x1 DUP7 SUB SWAP1 POP JUMPDEST PUSH1 0x1 DUP1 DUP1 SLOAD SWAP1 POP SUB DUP2 LT ISZERO PUSH2 0x148A JUMPI PUSH1 0x1 DUP1 DUP3 ADD DUP2 SLOAD DUP2 LT ISZERO ISZERO PUSH2 0x13F5 JUMPI INVALID JUMPDEST SWAP1 PUSH1 0x0 MSTORE PUSH1 0x20 PUSH1 0x0 KECCAK256 SWAP1 PUSH1 0x3 MUL ADD PUSH1 0x1 DUP3 DUP2 SLOAD DUP2 LT ISZERO ISZERO PUSH2 0x1412 JUMPI INVALID JUMPDEST SWAP1 PUSH1 0x0 MSTORE PUSH1 0x20 PUSH1 0x0 KECCAK256 SWAP1 PUSH1 0x3 MUL ADD PUSH1 0x0 DUP3 ADD SLOAD DUP2 PUSH1 0x0 ADD SSTORE PUSH1 0x1 DUP3 ADD DUP2 PUSH1 0x1 ADD SWAP1 DUP1 SLOAD PUSH1 0x1 DUP2 PUSH1 0x1 AND ISZERO PUSH2 0x100 MUL SUB AND PUSH1 0x2 SWAP1 DIV PUSH2 0x1451 SWAP3 SWAP2 SWAP1 PUSH2 0x39A1 JUMP JUMPDEST POP PUSH1 0x2 DUP3 ADD DUP2 PUSH1 0x2 ADD SWAP1 DUP1 SLOAD PUSH1 0x1 DUP2 PUSH1 0x1 AND ISZERO PUSH2 0x100 MUL SUB AND PUSH1 0x2 SWAP1 DIV PUSH2 0x1479 SWAP3 SWAP2 SWAP1 PUSH2 0x39A1 JUMP JUMPDEST POP SWAP1 POP POP DUP1 DUP1 PUSH1 0x1 ADD SWAP2 POP POP PUSH2 0x13D5 JUMP JUMPDEST PUSH1 0x1 DUP1 SLOAD DUP1 SWAP2 SWAP1 PUSH1 0x1 SWAP1 SUB PUSH2 0x149F SWAP2 SWAP1 PUSH2 0x3A5A JUMP JUMPDEST POP PUSH1 0x1 SWAP5 POP JUMPDEST POP POP POP POP SWAP2 SWAP1 POP JUMP JUMPDEST PUSH1 0x0 PUSH2 0x14B8 PUSH2 0x3A8C JUMP JUMPDEST PUSH1 0xA0 PUSH1 0x40 MLOAD SWAP1 DUP2 ADD PUSH1 0x40 MSTORE DUP1 PUSH1 0x1 PUSH1 0x2 DUP1 SLOAD SWAP1 POP ADD DUP2 MSTORE PUSH1 0x20 ADD DUP7 DUP2 MSTORE PUSH1 0x20 ADD DUP6 DUP2 MSTORE PUSH1 0x20 ADD DUP5 DUP2 MSTORE PUSH1 0x20 ADD DUP4 DUP1 SLOAD DUP1 PUSH1 0x20 MUL PUSH1 0x20 ADD PUSH1 0x40 MLOAD SWAP1 DUP2 ADD PUSH1 0x40 MSTORE DUP1 SWAP3 SWAP2 SWAP1 DUP2 DUP2 MSTORE PUSH1 0x20 ADD DUP3 DUP1 SLOAD DUP1 ISZERO PUSH2 0x152F JUMPI PUSH1 0x20 MUL DUP3 ADD SWAP2 SWAP1 PUSH1 0x0 MSTORE PUSH1 0x20 PUSH1 0x0 KECCAK256 SWAP1 JUMPDEST DUP2 SLOAD DUP2 MSTORE PUSH1 0x20 ADD SWAP1 PUSH1 0x1 ADD SWAP1 DUP1 DUP4 GT PUSH2 0x151B JUMPI JUMPDEST POP POP POP POP POP DUP2 MSTORE POP SWAP1 POP PUSH1 0x2 DUP2 SWAP1 DUP1 PUSH1 0x1 DUP2 SLOAD ADD DUP1 DUP3 SSTORE DUP1 SWAP2 POP POP SWAP1 PUSH1 0x1 DUP3 SUB SWAP1 PUSH1 0x0 MSTORE PUSH1 0x20 PUSH1 0x0 KECCAK256 SWAP1 PUSH1 0x5 MUL ADD PUSH1 0x0 SWAP1 SWAP2 SWAP3 SWAP1 SWAP2 SWAP1 SWAP2 POP PUSH1 0x0 DUP3 ADD MLOAD DUP2 PUSH1 0x0 ADD SSTORE PUSH1 0x20 DUP3 ADD MLOAD DUP2 PUSH1 0x1 ADD SWAP1 DUP1 MLOAD SWAP1 PUSH1 0x20 ADD SWAP1 PUSH2 0x158D SWAP3 SWAP2 SWAP1 PUSH2 0x388D JUMP JUMPDEST POP PUSH1 0x40 DUP3 ADD MLOAD DUP2 PUSH1 0x2 ADD SWAP1 DUP1 MLOAD SWAP1 PUSH1 0x20 ADD SWAP1 PUSH2 0x15AA SWAP3 SWAP2 SWAP1 PUSH2 0x388D JUMP JUMPDEST POP PUSH1 0x60 DUP3 ADD MLOAD DUP2 PUSH1 0x3 ADD SWAP1 DUP1 MLOAD SWAP1 PUSH1 0x20 ADD SWAP1 PUSH2 0x15C7 SWAP3 SWAP2 SWAP1 PUSH2 0x388D JUMP JUMPDEST POP PUSH1 0x80 DUP3 ADD MLOAD DUP2 PUSH1 0x4 ADD SWAP1 DUP1 MLOAD SWAP1 PUSH1 0x20 ADD SWAP1 PUSH2 0x15E4 SWAP3 SWAP2 SWAP1 PUSH2 0x3ABC JUMP JUMPDEST POP POP POP POP POP POP POP POP POP JUMP JUMPDEST PUSH1 0x0 DUP1 PUSH1 0x0 SWAP1 POP JUMPDEST PUSH1 0x0 DUP1 SLOAD SWAP1 POP DUP2 LT ISZERO PUSH2 0x1820 JUMPI DUP4 PUSH1 0x40 MLOAD PUSH1 0x20 ADD DUP1 DUP3 DUP1 MLOAD SWAP1 PUSH1 0x20 ADD SWAP1 DUP1 DUP4 DUP4 JUMPDEST PUSH1 0x20 DUP4 LT ISZERO ISZERO PUSH2 0x163D JUMPI DUP1 MLOAD DUP3 MSTORE PUSH1 0x20 DUP3 ADD SWAP2 POP PUSH1 0x20 DUP2 ADD SWAP1 POP PUSH1 0x20 DUP4 SUB SWAP3 POP PUSH2 0x1618 JUMP JUMPDEST PUSH1 0x1 DUP4 PUSH1 0x20 SUB PUSH2 0x100 EXP SUB DUP1 NOT DUP3 MLOAD AND DUP2 DUP5 MLOAD AND DUP1 DUP3 OR DUP6 MSTORE POP POP POP POP POP POP SWAP1 POP ADD SWAP2 POP POP PUSH1 0x40 MLOAD PUSH1 0x20 DUP2 DUP4 SUB SUB DUP2 MSTORE SWAP1 PUSH1 0x40 MSTORE PUSH1 0x40 MLOAD DUP1 DUP3 DUP1 MLOAD SWAP1 PUSH1 0x20 ADD SWAP1 DUP1 DUP4 DUP4 JUMPDEST PUSH1 0x20 DUP4 LT ISZERO ISZERO PUSH2 0x16A6 JUMPI DUP1 MLOAD DUP3 MSTORE PUSH1 0x20 DUP3 ADD SWAP2 POP PUSH1 0x20 DUP2 ADD SWAP1 POP PUSH1 0x20 DUP4 SUB SWAP3 POP PUSH2 0x1681 JUMP JUMPDEST PUSH1 0x1 DUP4 PUSH1 0x20 SUB PUSH2 0x100 EXP SUB DUP1 NOT DUP3 MLOAD AND DUP2 DUP5 MLOAD AND DUP1 DUP3 OR DUP6 MSTORE POP POP POP POP POP POP SWAP1 POP ADD SWAP2 POP POP PUSH1 0x40 MLOAD DUP1 SWAP2 SUB SWAP1 KECCAK256 PUSH1 0x0 NOT AND PUSH1 0x0 DUP3 DUP2 SLOAD DUP2 LT ISZERO ISZERO PUSH2 0x16E6 JUMPI INVALID JUMPDEST SWAP1 PUSH1 0x0 MSTORE PUSH1 0x20 PUSH1 0x0 KECCAK256 SWAP1 PUSH1 0x3 MUL ADD PUSH1 0x1 ADD PUSH1 0x40 MLOAD PUSH1 0x20 ADD DUP1 DUP3 DUP1 SLOAD PUSH1 0x1 DUP2 PUSH1 0x1 AND ISZERO PUSH2 0x100 MUL SUB AND PUSH1 0x2 SWAP1 DIV DUP1 ISZERO PUSH2 0x1755 JUMPI DUP1 PUSH1 0x1F LT PUSH2 0x1733 JUMPI PUSH2 0x100 DUP1 DUP4 SLOAD DIV MUL DUP4 MSTORE SWAP2 DUP3 ADD SWAP2 PUSH2 0x1755 JUMP JUMPDEST DUP3 ADD SWAP2 SWAP1 PUSH1 0x0 MSTORE PUSH1 0x20 PUSH1 0x0 KECCAK256 SWAP1 JUMPDEST DUP2 SLOAD DUP2 MSTORE SWAP1 PUSH1 0x1 ADD SWAP1 PUSH1 0x20 ADD DUP1 DUP4 GT PUSH2 0x1741 JUMPI JUMPDEST POP POP SWAP2 POP POP PUSH1 0x40 MLOAD PUSH1 0x20 DUP2 DUP4 SUB SUB DUP2 MSTORE SWAP1 PUSH1 0x40 MSTORE PUSH1 0x40 MLOAD DUP1 DUP3 DUP1 MLOAD SWAP1 PUSH1 0x20 ADD SWAP1 DUP1 DUP4 DUP4 JUMPDEST PUSH1 0x20 DUP4 LT ISZERO ISZERO PUSH2 0x179E JUMPI DUP1 MLOAD DUP3 MSTORE PUSH1 0x20 DUP3 ADD SWAP2 POP PUSH1 0x20 DUP2 ADD SWAP1 POP PUSH1 0x20 DUP4 SUB SWAP3 POP PUSH2 0x1779 JUMP JUMPDEST PUSH1 0x1 DUP4 PUSH1 0x20 SUB PUSH2 0x100 EXP SUB DUP1 NOT DUP3 MLOAD AND DUP2 DUP5 MLOAD AND DUP1 DUP3 OR DUP6 MSTORE POP POP POP POP POP POP SWAP1 POP ADD SWAP2 POP POP PUSH1 0x40 MLOAD DUP1 SWAP2 SUB SWAP1 KECCAK256 PUSH1 0x0 NOT AND EQ ISZERO PUSH2 0x1813 JUMPI DUP3 PUSH1 0x0 DUP3 DUP2 SLOAD DUP2 LT ISZERO ISZERO PUSH2 0x17E5 JUMPI INVALID JUMPDEST SWAP1 PUSH1 0x0 MSTORE PUSH1 0x20 PUSH1 0x0 KECCAK256 SWAP1 PUSH1 0x3 MUL ADD PUSH1 0x2 ADD SWAP1 DUP1 MLOAD SWAP1 PUSH1 0x20 ADD SWAP1 PUSH2 0x1809 SWAP3 SWAP2 SWAP1 PUSH2 0x3B09 JUMP JUMPDEST POP PUSH1 0x1 SWAP2 POP PUSH2 0x1825 JUMP JUMPDEST DUP1 DUP1 PUSH1 0x1 ADD SWAP2 POP POP PUSH2 0x15F7 JUMP JUMPDEST PUSH1 0x0 SWAP2 POP JUMPDEST POP SWAP3 SWAP2 POP POP JUMP JUMPDEST PUSH1 0x0 DUP2 PUSH1 0x40 MLOAD PUSH1 0x20 ADD DUP1 DUP3 DUP1 MLOAD SWAP1 PUSH1 0x20 ADD SWAP1 DUP1 DUP4 DUP4 JUMPDEST PUSH1 0x20 DUP4 LT ISZERO ISZERO PUSH2 0x1867 JUMPI DUP1 MLOAD DUP3 MSTORE PUSH1 0x20 DUP3 ADD SWAP2 POP PUSH1 0x20 DUP2 ADD SWAP1 POP PUSH1 0x20 DUP4 SUB SWAP3 POP PUSH2 0x1842 JUMP JUMPDEST PUSH1 0x1 DUP4 PUSH1 0x20 SUB PUSH2 0x100 EXP SUB DUP1 NOT DUP3 MLOAD AND DUP2 DUP5 MLOAD AND DUP1 DUP3 OR DUP6 MSTORE POP POP POP POP POP POP SWAP1 POP ADD SWAP2 POP POP PUSH1 0x40 MLOAD PUSH1 0x20 DUP2 DUP4 SUB SUB DUP2 MSTORE SWAP1 PUSH1 0x40 MSTORE PUSH1 0x40 MLOAD DUP1 DUP3 DUP1 MLOAD SWAP1 PUSH1 0x20 ADD SWAP1 DUP1 DUP4 DUP4 JUMPDEST PUSH1 0x20 DUP4 LT ISZERO ISZERO PUSH2 0x18D0 JUMPI DUP1 MLOAD DUP3 MSTORE PUSH1 0x20 DUP3 ADD SWAP2 POP PUSH1 0x20 DUP2 ADD SWAP1 POP PUSH1 0x20 DUP4 SUB SWAP3 POP PUSH2 0x18AB JUMP JUMPDEST PUSH1 0x1 DUP4 PUSH1 0x20 SUB PUSH2 0x100 EXP SUB DUP1 NOT DUP3 MLOAD AND DUP2 DUP5 MLOAD AND DUP1 DUP3 OR DUP6 MSTORE POP POP POP POP POP POP SWAP1 POP ADD SWAP2 POP POP PUSH1 0x40 MLOAD DUP1 SWAP2 SUB SWAP1 KECCAK256 PUSH1 0x0 NOT AND PUSH1 0x1 DUP1 DUP6 SUB DUP2 SLOAD DUP2 LT ISZERO ISZERO PUSH2 0x1912 JUMPI INVALID JUMPDEST SWAP1 PUSH1 0x0 MSTORE PUSH1 0x20 PUSH1 0x0 KECCAK256 SWAP1 PUSH1 0x3 MUL ADD PUSH1 0x2 ADD PUSH1 0x40 MLOAD PUSH1 0x20 ADD DUP1 DUP3 DUP1 SLOAD PUSH1 0x1 DUP2 PUSH1 0x1 AND ISZERO PUSH2 0x100 MUL SUB AND PUSH1 0x2 SWAP1 DIV DUP1 ISZERO PUSH2 0x1981 JUMPI DUP1 PUSH1 0x1F LT PUSH2 0x195F JUMPI PUSH2 0x100 DUP1 DUP4 SLOAD DIV MUL DUP4 MSTORE SWAP2 DUP3 ADD SWAP2 PUSH2 0x1981 JUMP JUMPDEST DUP3 ADD SWAP2 SWAP1 PUSH1 0x0 MSTORE PUSH1 0x20 PUSH1 0x0 KECCAK256 SWAP1 JUMPDEST DUP2 SLOAD DUP2 MSTORE SWAP1 PUSH1 0x1 ADD SWAP1 PUSH1 0x20 ADD DUP1 DUP4 GT PUSH2 0x196D JUMPI JUMPDEST POP POP SWAP2 POP POP PUSH1 0x40 MLOAD PUSH1 0x20 DUP2 DUP4 SUB SUB DUP2 MSTORE SWAP1 PUSH1 0x40 MSTORE PUSH1 0x40 MLOAD DUP1 DUP3 DUP1 MLOAD SWAP1 PUSH1 0x20 ADD SWAP1 DUP1 DUP4 DUP4 JUMPDEST PUSH1 0x20 DUP4 LT ISZERO ISZERO PUSH2 0x19CA JUMPI DUP1 MLOAD DUP3 MSTORE PUSH1 0x20 DUP3 ADD SWAP2 POP PUSH1 0x20 DUP2 ADD SWAP1 POP PUSH1 0x20 DUP4 SUB SWAP3 POP PUSH2 0x19A5 JUMP JUMPDEST PUSH1 0x1 DUP4 PUSH1 0x20 SUB PUSH2 0x100 EXP SUB DUP1 NOT DUP3 MLOAD AND DUP2 DUP5 MLOAD AND DUP1 DUP3 OR DUP6 MSTORE POP POP POP POP POP POP SWAP1 POP ADD SWAP2 POP POP PUSH1 0x40 MLOAD DUP1 SWAP2 SUB SWAP1 KECCAK256 PUSH1 0x0 NOT AND EQ ISZERO PUSH2 0x1A0A JUMPI PUSH1 0x1 SWAP1 POP PUSH2 0x1A0F JUMP JUMPDEST PUSH1 0x0 SWAP1 POP JUMPDEST SWAP3 SWAP2 POP POP JUMP JUMPDEST PUSH1 0x60 DUP1 PUSH1 0x60 DUP1 PUSH1 0x60 DUP1 PUSH1 0x60 DUP1 PUSH1 0x60 DUP1 PUSH1 0x60 DUP1 PUSH1 0x0 DUP1 PUSH1 0x3 DUP1 SLOAD SWAP1 POP EQ ISZERO PUSH2 0x1B8E JUMPI PUSH1 0x0 PUSH1 0x40 MLOAD SWAP1 DUP1 DUP3 MSTORE DUP1 PUSH1 0x20 MUL PUSH1 0x20 ADD DUP3 ADD PUSH1 0x40 MSTORE DUP1 ISZERO PUSH2 0x1A66 JUMPI DUP2 PUSH1 0x20 ADD PUSH1 0x20 DUP3 MUL DUP1 CODESIZE DUP4 CODECOPY DUP1 DUP3 ADD SWAP2 POP POP SWAP1 POP JUMPDEST POP PUSH1 0x0 PUSH1 0x40 MLOAD SWAP1 DUP1 DUP3 MSTORE DUP1 PUSH1 0x20 MUL PUSH1 0x20 ADD DUP3 ADD PUSH1 0x40 MSTORE DUP1 ISZERO PUSH2 0x1A97 JUMPI DUP2 PUSH1 0x20 ADD PUSH1 0x20 DUP3 MUL DUP1 CODESIZE DUP4 CODECOPY DUP1 DUP3 ADD SWAP2 POP POP SWAP1 POP JUMPDEST POP PUSH1 0x0 PUSH1 0x40 MLOAD SWAP1 DUP1 DUP3 MSTORE DUP1 PUSH1 0x20 MUL PUSH1 0x20 ADD DUP3 ADD PUSH1 0x40 MSTORE DUP1 ISZERO PUSH2 0x1AC8 JUMPI DUP2 PUSH1 0x20 ADD PUSH1 0x20 DUP3 MUL DUP1 CODESIZE DUP4 CODECOPY DUP1 DUP3 ADD SWAP2 POP POP SWAP1 POP JUMPDEST POP PUSH1 0x0 PUSH1 0x40 MLOAD SWAP1 DUP1 DUP3 MSTORE DUP1 PUSH1 0x20 MUL PUSH1 0x20 ADD DUP3 ADD PUSH1 0x40 MSTORE DUP1 ISZERO PUSH2 0x1AFE JUMPI DUP2 PUSH1 0x20 ADD JUMPDEST PUSH1 0x60 DUP2 MSTORE PUSH1 0x20 ADD SWAP1 PUSH1 0x1 SWAP1 SUB SWAP1 DUP2 PUSH2 0x1AE9 JUMPI SWAP1 POP JUMPDEST POP PUSH1 0x0 PUSH1 0x40 MLOAD SWAP1 DUP1 DUP3 MSTORE DUP1 PUSH1 0x20 MUL PUSH1 0x20 ADD DUP3 ADD PUSH1 0x40 MSTORE DUP1 ISZERO PUSH2 0x1B34 JUMPI DUP2 PUSH1 0x20 ADD JUMPDEST PUSH1 0x60 DUP2 MSTORE PUSH1 0x20 ADD SWAP1 PUSH1 0x1 SWAP1 SUB SWAP1 DUP2 PUSH2 0x1B1F JUMPI SWAP1 POP JUMPDEST POP PUSH1 0x0 PUSH1 0x40 MLOAD SWAP1 DUP1 DUP3 MSTORE DUP1 PUSH1 0x20 MUL PUSH1 0x20 ADD DUP3 ADD PUSH1 0x40 MSTORE DUP1 ISZERO PUSH2 0x1B6A JUMPI DUP2 PUSH1 0x20 ADD JUMPDEST PUSH1 0x60 DUP2 MSTORE PUSH1 0x20 ADD SWAP1 PUSH1 0x1 SWAP1 SUB SWAP1 DUP2 PUSH2 0x1B55 JUMPI SWAP1 POP JUMPDEST POP DUP6 SWAP6 POP DUP5 SWAP5 POP DUP4 SWAP4 POP DUP3 SWAP3 POP DUP2 SWAP2 POP DUP1 SWAP1 POP SWAP13 POP SWAP13 POP SWAP13 POP SWAP13 POP SWAP13 POP SWAP13 POP PUSH2 0x204C JUMP JUMPDEST PUSH1 0x3 DUP1 SLOAD SWAP1 POP PUSH1 0x40 MLOAD SWAP1 DUP1 DUP3 MSTORE DUP1 PUSH1 0x20 MUL PUSH1 0x20 ADD DUP3 ADD PUSH1 0x40 MSTORE DUP1 ISZERO PUSH2 0x1BC2 JUMPI DUP2 PUSH1 0x20 ADD PUSH1 0x20 DUP3 MUL DUP1 CODESIZE DUP4 CODECOPY DUP1 DUP3 ADD SWAP2 POP POP SWAP1 POP JUMPDEST POP SWAP7 POP PUSH1 0x3 DUP1 SLOAD SWAP1 POP PUSH1 0x40 MLOAD SWAP1 DUP1 DUP3 MSTORE DUP1 PUSH1 0x20 MUL PUSH1 0x20 ADD DUP3 ADD PUSH1 0x40 MSTORE DUP1 ISZERO PUSH2 0x1BF9 JUMPI DUP2 PUSH1 0x20 ADD PUSH1 0x20 DUP3 MUL DUP1 CODESIZE DUP4 CODECOPY DUP1 DUP3 ADD SWAP2 POP POP SWAP1 POP JUMPDEST POP SWAP6 POP PUSH1 0x3 DUP1 SLOAD SWAP1 POP PUSH1 0x40 MLOAD SWAP1 DUP1 DUP3 MSTORE DUP1 PUSH1 0x20 MUL PUSH1 0x20 ADD DUP3 ADD PUSH1 0x40 MSTORE DUP1 ISZERO PUSH2 0x1C30 JUMPI DUP2 PUSH1 0x20 ADD PUSH1 0x20 DUP3 MUL DUP1 CODESIZE DUP4 CODECOPY DUP1 DUP3 ADD SWAP2 POP POP SWAP1 POP JUMPDEST POP SWAP5 POP PUSH1 0x3 DUP1 SLOAD SWAP1 POP PUSH1 0x40 MLOAD SWAP1 DUP1 DUP3 MSTORE DUP1 PUSH1 0x20 MUL PUSH1 0x20 ADD DUP3 ADD PUSH1 0x40 MSTORE DUP1 ISZERO PUSH2 0x1C6C JUMPI DUP2 PUSH1 0x20 ADD JUMPDEST PUSH1 0x60 DUP2 MSTORE PUSH1 0x20 ADD SWAP1 PUSH1 0x1 SWAP1 SUB SWAP1 DUP2 PUSH2 0x1C57 JUMPI SWAP1 POP JUMPDEST POP SWAP4 POP PUSH1 0x3 DUP1 SLOAD SWAP1 POP PUSH1 0x40 MLOAD SWAP1 DUP1 DUP3 MSTORE DUP1 PUSH1 0x20 MUL PUSH1 0x20 ADD DUP3 ADD PUSH1 0x40 MSTORE DUP1 ISZERO PUSH2 0x1CA8 JUMPI DUP2 PUSH1 0x20 ADD JUMPDEST PUSH1 0x60 DUP2 MSTORE PUSH1 0x20 ADD SWAP1 PUSH1 0x1 SWAP1 SUB SWAP1 DUP2 PUSH2 0x1C93 JUMPI SWAP1 POP JUMPDEST POP SWAP3 POP PUSH1 0x3 DUP1 SLOAD SWAP1 POP PUSH1 0x40 MLOAD SWAP1 DUP1 DUP3 MSTORE DUP1 PUSH1 0x20 MUL PUSH1 0x20 ADD DUP3 ADD PUSH1 0x40 MSTORE DUP1 ISZERO PUSH2 0x1CE4 JUMPI DUP2 PUSH1 0x20 ADD JUMPDEST PUSH1 0x60 DUP2 MSTORE PUSH1 0x20 ADD SWAP1 PUSH1 0x1 SWAP1 SUB SWAP1 DUP2 PUSH2 0x1CCF JUMPI SWAP1 POP JUMPDEST POP SWAP2 POP PUSH1 0x0 SWAP1 POP JUMPDEST PUSH1 0x3 DUP1 SLOAD SWAP1 POP DUP2 LT ISZERO PUSH2 0x2039 JUMPI PUSH1 0x3 DUP2 DUP2 SLOAD DUP2 LT ISZERO ISZERO PUSH2 0x1D08 JUMPI INVALID JUMPDEST SWAP1 PUSH1 0x0 MSTORE PUSH1 0x20 PUSH1 0x0 KECCAK256 SWAP1 PUSH1 0x8 MUL ADD PUSH1 0x0 ADD SLOAD DUP8 DUP3 DUP2 MLOAD DUP2 LT ISZERO ISZERO PUSH2 0x1D28 JUMPI INVALID JUMPDEST SWAP1 PUSH1 0x20 ADD SWAP1 PUSH1 0x20 MUL ADD DUP2 DUP2 MSTORE POP POP PUSH1 0x3 DUP2 DUP2 SLOAD DUP2 LT ISZERO ISZERO PUSH2 0x1D45 JUMPI INVALID JUMPDEST SWAP1 PUSH1 0x0 MSTORE PUSH1 0x20 PUSH1 0x0 KECCAK256 SWAP1 PUSH1 0x8 MUL ADD PUSH1 0x1 ADD SLOAD DUP7 DUP3 DUP2 MLOAD DUP2 LT ISZERO ISZERO PUSH2 0x1D65 JUMPI INVALID JUMPDEST SWAP1 PUSH1 0x20 ADD SWAP1 PUSH1 0x20 MUL ADD DUP2 DUP2 MSTORE POP POP PUSH1 0x3 DUP2 DUP2 SLOAD DUP2 LT ISZERO ISZERO PUSH2 0x1D82 JUMPI INVALID JUMPDEST SWAP1 PUSH1 0x0 MSTORE PUSH1 0x20 PUSH1 0x0 KECCAK256 SWAP1 PUSH1 0x8 MUL ADD PUSH1 0x2 ADD SLOAD DUP6 DUP3 DUP2 MLOAD DUP2 LT ISZERO ISZERO PUSH2 0x1DA2 JUMPI INVALID JUMPDEST SWAP1 PUSH1 0x20 ADD SWAP1 PUSH1 0x20 MUL ADD DUP2 DUP2 MSTORE POP POP PUSH1 0x3 DUP2 DUP2 SLOAD DUP2 LT ISZERO ISZERO PUSH2 0x1DBF JUMPI INVALID JUMPDEST SWAP1 PUSH1 0x0 MSTORE PUSH1 0x20 PUSH1 0x0 KECCAK256 SWAP1 PUSH1 0x8 MUL ADD PUSH1 0x3 ADD DUP1 SLOAD PUSH1 0x1 DUP2 PUSH1 0x1 AND ISZERO PUSH2 0x100 MUL SUB AND PUSH1 0x2 SWAP1 DIV DUP1 PUSH1 0x1F ADD PUSH1 0x20 DUP1 SWAP2 DIV MUL PUSH1 0x20 ADD PUSH1 0x40 MLOAD SWAP1 DUP2 ADD PUSH1 0x40 MSTORE DUP1 SWAP3 SWAP2 SWAP1 DUP2 DUP2 MSTORE PUSH1 0x20 ADD DUP3 DUP1 SLOAD PUSH1 0x1 DUP2 PUSH1 0x1 AND ISZERO PUSH2 0x100 MUL SUB AND PUSH1 0x2 SWAP1 DIV DUP1 ISZERO PUSH2 0x1E64 JUMPI DUP1 PUSH1 0x1F LT PUSH2 0x1E39 JUMPI PUSH2 0x100 DUP1 DUP4 SLOAD DIV MUL DUP4 MSTORE SWAP2 PUSH1 0x20 ADD SWAP2 PUSH2 0x1E64 JUMP JUMPDEST DUP3 ADD SWAP2 SWAP1 PUSH1 0x0 MSTORE PUSH1 0x20 PUSH1 0x0 KECCAK256 SWAP1 JUMPDEST DUP2 SLOAD DUP2 MSTORE SWAP1 PUSH1 0x1 ADD SWAP1 PUSH1 0x20 ADD DUP1 DUP4 GT PUSH2 0x1E47 JUMPI DUP3 SWAP1 SUB PUSH1 0x1F AND DUP3 ADD SWAP2 JUMPDEST POP POP POP POP POP DUP5 DUP3 DUP2 MLOAD DUP2 LT ISZERO ISZERO PUSH2 0x1E77 JUMPI INVALID JUMPDEST SWAP1 PUSH1 0x20 ADD SWAP1 PUSH1 0x20 MUL ADD DUP2 SWAP1 MSTORE POP PUSH1 0x3 DUP2 DUP2 SLOAD DUP2 LT ISZERO ISZERO PUSH2 0x1E93 JUMPI INVALID JUMPDEST SWAP1 PUSH1 0x0 MSTORE PUSH1 0x20 PUSH1 0x0 KECCAK256 SWAP1 PUSH1 0x8 MUL ADD PUSH1 0x4 ADD DUP1 SLOAD PUSH1 0x1 DUP2 PUSH1 0x1 AND ISZERO PUSH2 0x100 MUL SUB AND PUSH1 0x2 SWAP1 DIV DUP1 PUSH1 0x1F ADD PUSH1 0x20 DUP1 SWAP2 DIV MUL PUSH1 0x20 ADD PUSH1 0x40 MLOAD SWAP1 DUP2 ADD PUSH1 0x40 MSTORE DUP1 SWAP3 SWAP2 SWAP1 DUP2 DUP2 MSTORE PUSH1 0x20 ADD DUP3 DUP1 SLOAD PUSH1 0x1 DUP2 PUSH1 0x1 AND ISZERO PUSH2 0x100 MUL SUB AND PUSH1 0x2 SWAP1 DIV DUP1 ISZERO PUSH2 0x1F38 JUMPI DUP1 PUSH1 0x1F LT PUSH2 0x1F0D JUMPI PUSH2 0x100 DUP1 DUP4 SLOAD DIV MUL DUP4 MSTORE SWAP2 PUSH1 0x20 ADD SWAP2 PUSH2 0x1F38 JUMP JUMPDEST DUP3 ADD SWAP2 SWAP1 PUSH1 0x0 MSTORE PUSH1 0x20 PUSH1 0x0 KECCAK256 SWAP1 JUMPDEST DUP2 SLOAD DUP2 MSTORE SWAP1 PUSH1 0x1 ADD SWAP1 PUSH1 0x20 ADD DUP1 DUP4 GT PUSH2 0x1F1B JUMPI DUP3 SWAP1 SUB PUSH1 0x1F AND DUP3 ADD SWAP2 JUMPDEST POP POP POP POP POP DUP4 DUP3 DUP2 MLOAD DUP2 LT ISZERO ISZERO PUSH2 0x1F4B JUMPI INVALID JUMPDEST SWAP1 PUSH1 0x20 ADD SWAP1 PUSH1 0x20 MUL ADD DUP2 SWAP1 MSTORE POP PUSH1 0x3 DUP2 DUP2 SLOAD DUP2 LT ISZERO ISZERO PUSH2 0x1F67 JUMPI INVALID JUMPDEST SWAP1 PUSH1 0x0 MSTORE PUSH1 0x20 PUSH1 0x0 KECCAK256 SWAP1 PUSH1 0x8 MUL ADD PUSH1 0x5 ADD DUP1 SLOAD PUSH1 0x1 DUP2 PUSH1 0x1 AND ISZERO PUSH2 0x100 MUL SUB AND PUSH1 0x2 SWAP1 DIV DUP1 PUSH1 0x1F ADD PUSH1 0x20 DUP1 SWAP2 DIV MUL PUSH1 0x20 ADD PUSH1 0x40 MLOAD SWAP1 DUP2 ADD PUSH1 0x40 MSTORE DUP1 SWAP3 SWAP2 SWAP1 DUP2 DUP2 MSTORE PUSH1 0x20 ADD DUP3 DUP1 SLOAD PUSH1 0x1 DUP2 PUSH1 0x1 AND ISZERO PUSH2 0x100 MUL SUB AND PUSH1 0x2 SWAP1 DIV DUP1 ISZERO PUSH2 0x200C JUMPI DUP1 PUSH1 0x1F LT PUSH2 0x1FE1 JUMPI PUSH2 0x100 DUP1 DUP4 SLOAD DIV MUL DUP4 MSTORE SWAP2 PUSH1 0x20 ADD SWAP2 PUSH2 0x200C JUMP JUMPDEST DUP3 ADD SWAP2 SWAP1 PUSH1 0x0 MSTORE PUSH1 0x20 PUSH1 0x0 KECCAK256 SWAP1 JUMPDEST DUP2 SLOAD DUP2 MSTORE SWAP1 PUSH1 0x1 ADD SWAP1 PUSH1 0x20 ADD DUP1 DUP4 GT PUSH2 0x1FEF JUMPI DUP3 SWAP1 SUB PUSH1 0x1F AND DUP3 ADD SWAP2 JUMPDEST POP POP POP POP POP DUP3 DUP3 DUP2 MLOAD DUP2 LT ISZERO ISZERO PUSH2 0x201F JUMPI INVALID JUMPDEST SWAP1 PUSH1 0x20 ADD SWAP1 PUSH1 0x20 MUL ADD DUP2 SWAP1 MSTORE POP DUP1 DUP1 PUSH1 0x1 ADD SWAP2 POP POP PUSH2 0x1CEC JUMP JUMPDEST DUP7 DUP7 DUP7 DUP7 DUP7 DUP7 SWAP13 POP SWAP13 POP SWAP13 POP SWAP13 POP SWAP13 POP SWAP13 POP JUMPDEST POP POP POP POP POP POP POP SWAP1 SWAP2 SWAP3 SWAP4 SWAP5 SWAP6 JUMP JUMPDEST PUSH1 0x60 PUSH1 0x2 PUSH1 0x1 DUP4 SUB DUP2 SLOAD DUP2 LT ISZERO ISZERO PUSH2 0x206F JUMPI INVALID JUMPDEST SWAP1 PUSH1 0x0 MSTORE PUSH1 0x20 PUSH1 0x0 KECCAK256 SWAP1 PUSH1 0x5 MUL ADD PUSH1 0x4 ADD DUP1 SLOAD DUP1 PUSH1 0x20 MUL PUSH1 0x20 ADD PUSH1 0x40 MLOAD SWAP1 DUP2 ADD PUSH1 0x40 MSTORE DUP1 SWAP3 SWAP2 SWAP1 DUP2 DUP2 MSTORE PUSH1 0x20 ADD DUP3 DUP1 SLOAD DUP1 ISZERO PUSH2 0x20CA JUMPI PUSH1 0x20 MUL DUP3 ADD SWAP2 SWAP1 PUSH1 0x0 MSTORE PUSH1 0x20 PUSH1 0x0 KECCAK256 SWAP1 JUMPDEST DUP2 SLOAD DUP2 MSTORE PUSH1 0x20 ADD SWAP1 PUSH1 0x1 ADD SWAP1 DUP1 DUP4 GT PUSH2 0x20B6 JUMPI JUMPDEST POP POP POP POP POP SWAP1 POP SWAP2 SWAP1 POP JUMP JUMPDEST PUSH1 0x0 DUP1 DUP5 GT DUP1 ISZERO PUSH2 0x20EC JUMPI POP PUSH1 0x2 DUP1 SLOAD SWAP1 POP DUP5 GT ISZERO JUMPDEST ISZERO ISZERO PUSH2 0x212D JUMPI PUSH1 0x40 MLOAD PUSH32 0x8C379A000000000000000000000000000000000000000000000000000000000 DUP2 MSTORE PUSH1 0x4 ADD PUSH2 0x2124 SWAP1 PUSH2 0x44D2 JUMP JUMPDEST PUSH1 0x40 MLOAD DUP1 SWAP2 SUB SWAP1 REVERT JUMPDEST DUP3 PUSH1 0x2 PUSH1 0x1 DUP7 SUB DUP2 SLOAD DUP2 LT ISZERO ISZERO PUSH2 0x2140 JUMPI INVALID JUMPDEST SWAP1 PUSH1 0x0 MSTORE PUSH1 0x20 PUSH1 0x0 KECCAK256 SWAP1 PUSH1 0x5 MUL ADD PUSH1 0x1 ADD SWAP1 DUP1 MLOAD SWAP1 PUSH1 0x20 ADD SWAP1 PUSH2 0x2164 SWAP3 SWAP2 SWAP1 PUSH2 0x3B09 JUMP JUMPDEST POP DUP2 PUSH1 0x2 PUSH1 0x1 DUP7 SUB DUP2 SLOAD DUP2 LT ISZERO ISZERO PUSH2 0x2178 JUMPI INVALID JUMPDEST SWAP1 PUSH1 0x0 MSTORE PUSH1 0x20 PUSH1 0x0 KECCAK256 SWAP1 PUSH1 0x5 MUL ADD PUSH1 0x2 ADD SWAP1 DUP1 MLOAD SWAP1 PUSH1 0x20 ADD SWAP1 PUSH2 0x219C SWAP3 SWAP2 SWAP1 PUSH2 0x3B09 JUMP JUMPDEST POP PUSH1 0x1 SWAP1 POP SWAP4 SWAP3 POP POP POP JUMP JUMPDEST PUSH1 0x0 DUP1 PUSH1 0x0 DUP1 PUSH1 0x0 DUP6 GT DUP1 ISZERO PUSH2 0x21C3 JUMPI POP PUSH1 0x2 DUP1 SLOAD SWAP1 POP DUP6 GT ISZERO JUMPDEST ISZERO ISZERO PUSH2 0x2204 JUMPI PUSH1 0x40 MLOAD PUSH32 0x8C379A000000000000000000000000000000000000000000000000000000000 DUP2 MSTORE PUSH1 0x4 ADD PUSH2 0x21FB SWAP1 PUSH2 0x44D2 JUMP JUMPDEST PUSH1 0x40 MLOAD DUP1 SWAP2 SUB SWAP1 REVERT JUMPDEST PUSH1 0x0 SWAP3 POP JUMPDEST PUSH1 0x3 DUP1 SLOAD SWAP1 POP DUP4 LT ISZERO PUSH2 0x2254 JUMPI DUP5 PUSH1 0x3 DUP5 DUP2 SLOAD DUP2 LT ISZERO ISZERO PUSH2 0x2226 JUMPI INVALID JUMPDEST SWAP1 PUSH1 0x0 MSTORE PUSH1 0x20 PUSH1 0x0 KECCAK256 SWAP1 PUSH1 0x8 MUL ADD PUSH1 0x2 ADD SLOAD EQ ISZERO PUSH2 0x2247 JUMPI PUSH1 0x0 SWAP4 POP PUSH2 0x23FC JUMP JUMPDEST DUP3 DUP1 PUSH1 0x1 ADD SWAP4 POP POP PUSH2 0x2209 JUMP JUMPDEST PUSH1 0x0 SWAP2 POP JUMPDEST PUSH1 0x3 DUP1 SLOAD SWAP1 POP DUP3 LT ISZERO PUSH2 0x22E4 JUMPI DUP5 PUSH1 0x3 DUP4 DUP2 SLOAD DUP2 LT ISZERO ISZERO PUSH2 0x2276 JUMPI INVALID JUMPDEST SWAP1 PUSH1 0x0 MSTORE PUSH1 0x20 PUSH1 0x0 KECCAK256 SWAP1 PUSH1 0x8 MUL ADD PUSH1 0x2 ADD SLOAD GT ISZERO PUSH2 0x22D7 JUMPI PUSH1 0x1 PUSH1 0x3 DUP4 DUP2 SLOAD DUP2 LT ISZERO ISZERO PUSH2 0x229F JUMPI INVALID JUMPDEST SWAP1 PUSH1 0x0 MSTORE PUSH1 0x20 PUSH1 0x0 KECCAK256 SWAP1 PUSH1 0x8 MUL ADD PUSH1 0x2 ADD SLOAD SUB PUSH1 0x3 DUP4 DUP2 SLOAD DUP2 LT ISZERO ISZERO PUSH2 0x22C1 JUMPI INVALID JUMPDEST SWAP1 PUSH1 0x0 MSTORE PUSH1 0x20 PUSH1 0x0 KECCAK256 SWAP1 PUSH1 0x8 MUL ADD PUSH1 0x2 ADD DUP2 SWAP1 SSTORE POP JUMPDEST DUP2 DUP1 PUSH1 0x1 ADD SWAP3 POP POP PUSH2 0x2259 JUMP JUMPDEST PUSH1 0x1 DUP6 SUB SWAP1 POP JUMPDEST PUSH1 0x1 PUSH1 0x2 DUP1 SLOAD SWAP1 POP SUB DUP2 LT ISZERO PUSH2 0x23E1 JUMPI PUSH1 0x2 PUSH1 0x1 DUP3 ADD DUP2 SLOAD DUP2 LT ISZERO ISZERO PUSH2 0x230D JUMPI INVALID JUMPDEST SWAP1 PUSH1 0x0 MSTORE PUSH1 0x20 PUSH1 0x0 KECCAK256 SWAP1 PUSH1 0x5 MUL ADD PUSH1 0x2 DUP3 DUP2 SLOAD DUP2 LT ISZERO ISZERO PUSH2 0x232A JUMPI INVALID JUMPDEST SWAP1 PUSH1 0x0 MSTORE PUSH1 0x20 PUSH1 0x0 KECCAK256 SWAP1 PUSH1 0x5 MUL ADD PUSH1 0x0 DUP3 ADD SLOAD DUP2 PUSH1 0x0 ADD SSTORE PUSH1 0x1 DUP3 ADD DUP2 PUSH1 0x1 ADD SWAP1 DUP1 SLOAD PUSH1 0x1 DUP2 PUSH1 0x1 AND ISZERO PUSH2 0x100 MUL SUB AND PUSH1 0x2 SWAP1 DIV PUSH2 0x2369 SWAP3 SWAP2 SWAP1 PUSH2 0x39A1 JUMP JUMPDEST POP PUSH1 0x2 DUP3 ADD DUP2 PUSH1 0x2 ADD SWAP1 DUP1 SLOAD PUSH1 0x1 DUP2 PUSH1 0x1 AND ISZERO PUSH2 0x100 MUL SUB AND PUSH1 0x2 SWAP1 DIV PUSH2 0x2391 SWAP3 SWAP2 SWAP1 PUSH2 0x39A1 JUMP JUMPDEST POP PUSH1 0x3 DUP3 ADD DUP2 PUSH1 0x3 ADD SWAP1 DUP1 SLOAD PUSH1 0x1 DUP2 PUSH1 0x1 AND ISZERO PUSH2 0x100 MUL SUB AND PUSH1 0x2 SWAP1 DIV PUSH2 0x23B9 SWAP3 SWAP2 SWAP1 PUSH2 0x39A1 JUMP JUMPDEST POP PUSH1 0x4 DUP3 ADD DUP2 PUSH1 0x4 ADD SWAP1 DUP1 SLOAD PUSH2 0x23D0 SWAP3 SWAP2 SWAP1 PUSH2 0x3B89 JUMP JUMPDEST POP SWAP1 POP POP DUP1 DUP1 PUSH1 0x1 ADD SWAP2 POP POP PUSH2 0x22EB JUMP JUMPDEST PUSH1 0x2 DUP1 SLOAD DUP1 SWAP2 SWAP1 PUSH1 0x1 SWAP1 SUB PUSH2 0x23F6 SWAP2 SWAP1 PUSH2 0x3BDB JUMP JUMPDEST POP PUSH1 0x1 SWAP4 POP JUMPDEST POP POP POP SWAP2 SWAP1 POP JUMP JUMPDEST PUSH1 0x60 PUSH1 0x3 PUSH1 0x1 DUP4 SUB DUP2 SLOAD DUP2 LT ISZERO ISZERO PUSH2 0x2418 JUMPI INVALID JUMPDEST SWAP1 PUSH1 0x0 MSTORE PUSH1 0x20 PUSH1 0x0 KECCAK256 SWAP1 PUSH1 0x8 MUL ADD PUSH1 0x5 ADD DUP1 SLOAD PUSH1 0x1 DUP2 PUSH1 0x1 AND ISZERO PUSH2 0x100 MUL SUB AND PUSH1 0x2 SWAP1 DIV DUP1 PUSH1 0x1F ADD PUSH1 0x20 DUP1 SWAP2 DIV MUL PUSH1 0x20 ADD PUSH1 0x40 MLOAD SWAP1 DUP2 ADD PUSH1 0x40 MSTORE DUP1 SWAP3 SWAP2 SWAP1 DUP2 DUP2 MSTORE PUSH1 0x20 ADD DUP3 DUP1 SLOAD PUSH1 0x1 DUP2 PUSH1 0x1 AND ISZERO PUSH2 0x100 MUL SUB AND PUSH1 0x2 SWAP1 DIV DUP1 ISZERO PUSH2 0x24BD JUMPI DUP1 PUSH1 0x1F LT PUSH2 0x2492 JUMPI PUSH2 0x100 DUP1 DUP4 SLOAD DIV MUL DUP4 MSTORE SWAP2 PUSH1 0x20 ADD SWAP2 PUSH2 0x24BD JUMP JUMPDEST DUP3 ADD SWAP2 SWAP1 PUSH1 0x0 MSTORE PUSH1 0x20 PUSH1 0x0 KECCAK256 SWAP1 JUMPDEST DUP2 SLOAD DUP2 MSTORE SWAP1 PUSH1 0x1 ADD SWAP1 PUSH1 0x20 ADD DUP1 DUP4 GT PUSH2 0x24A0 JUMPI DUP3 SWAP1 SUB PUSH1 0x1F AND DUP3 ADD SWAP2 JUMPDEST POP POP POP POP POP SWAP1 POP SWAP2 SWAP1 POP JUMP JUMPDEST PUSH2 0x24D1 PUSH2 0x392F JUMP JUMPDEST PUSH1 0x2 PUSH1 0x1 DUP6 SUB DUP2 SLOAD DUP2 LT ISZERO ISZERO PUSH2 0x24E3 JUMPI INVALID JUMPDEST SWAP1 PUSH1 0x0 MSTORE PUSH1 0x20 PUSH1 0x0 KECCAK256 SWAP1 PUSH1 0x5 MUL ADD PUSH1 0x4 ADD PUSH1 0x1 PUSH1 0x3 DUP1 SLOAD SWAP1 POP ADD SWAP1 DUP1 PUSH1 0x1 DUP2 SLOAD ADD DUP1 DUP3 SSTORE DUP1 SWAP2 POP POP SWAP1 PUSH1 0x1 DUP3 SUB SWAP1 PUSH1 0x0 MSTORE PUSH1 0x20 PUSH1 0x0 KECCAK256 ADD PUSH1 0x0 SWAP1 SWAP2 SWAP3 SWAP1 SWAP2 SWAP1 SWAP2 POP SSTORE POP PUSH2 0x100 PUSH1 0x40 MLOAD SWAP1 DUP2 ADD PUSH1 0x40 MSTORE DUP1 PUSH1 0x1 PUSH1 0x3 DUP1 SLOAD SWAP1 POP ADD DUP2 MSTORE PUSH1 0x20 ADD DUP7 DUP2 MSTORE PUSH1 0x20 ADD DUP6 DUP2 MSTORE PUSH1 0x20 ADD DUP5 DUP2 MSTORE PUSH1 0x20 ADD DUP4 DUP2 MSTORE PUSH1 0x20 ADD PUSH1 0x40 DUP1 MLOAD SWAP1 DUP2 ADD PUSH1 0x40 MSTORE DUP1 PUSH1 0x9 DUP2 MSTORE PUSH1 0x20 ADD PUSH32 0xE5BE85E68FBDE694B60000000000000000000000000000000000000000000000 DUP2 MSTORE POP DUP2 MSTORE PUSH1 0x20 ADD TIMESTAMP DUP2 MSTORE PUSH1 0x20 ADD TIMESTAMP DUP2 MSTORE POP SWAP1 POP PUSH1 0x3 DUP2 SWAP1 DUP1 PUSH1 0x1 DUP2 SLOAD ADD DUP1 DUP3 SSTORE DUP1 SWAP2 POP POP SWAP1 PUSH1 0x1 DUP3 SUB SWAP1 PUSH1 0x0 MSTORE PUSH1 0x20 PUSH1 0x0 KECCAK256 SWAP1 PUSH1 0x8 MUL ADD PUSH1 0x0 SWAP1 SWAP2 SWAP3 SWAP1 SWAP2 SWAP1 SWAP2 POP PUSH1 0x0 DUP3 ADD MLOAD DUP2 PUSH1 0x0 ADD SSTORE PUSH1 0x20 DUP3 ADD MLOAD DUP2 PUSH1 0x1 ADD SSTORE PUSH1 0x40 DUP3 ADD MLOAD DUP2 PUSH1 0x2 ADD SSTORE PUSH1 0x60 DUP3 ADD MLOAD DUP2 PUSH1 0x3 ADD SWAP1 DUP1 MLOAD SWAP1 PUSH1 0x20 ADD SWAP1 PUSH2 0x2608 SWAP3 SWAP2 SWAP1 PUSH2 0x388D JUMP JUMPDEST POP PUSH1 0x80 DUP3 ADD MLOAD DUP2 PUSH1 0x4 ADD SWAP1 DUP1 MLOAD SWAP1 PUSH1 0x20 ADD SWAP1 PUSH2 0x2625 SWAP3 SWAP2 SWAP1 PUSH2 0x388D JUMP JUMPDEST POP PUSH1 0xA0 DUP3 ADD MLOAD DUP2 PUSH1 0x5 ADD SWAP1 DUP1 MLOAD SWAP1 PUSH1 0x20 ADD SWAP1 PUSH2 0x2642 SWAP3 SWAP2 SWAP1 PUSH2 0x388D JUMP JUMPDEST POP PUSH1 0xC0 DUP3 ADD MLOAD DUP2 PUSH1 0x6 ADD SSTORE PUSH1 0xE0 DUP3 ADD MLOAD DUP2 PUSH1 0x7 ADD SSTORE POP POP POP POP POP POP POP POP JUMP JUMPDEST DUP3 PUSH1 0x3 PUSH1 0x1 DUP5 SUB DUP2 SLOAD DUP2 LT ISZERO ISZERO PUSH2 0x2674 JUMPI INVALID JUMPDEST SWAP1 PUSH1 0x0 MSTORE PUSH1 0x20 PUSH1 0x0 KECCAK256 SWAP1 PUSH1 0x8 MUL ADD PUSH1 0x2 ADD SLOAD EQ ISZERO PUSH2 0x26ED JUMPI DUP1 PUSH1 0x3 PUSH1 0x1 DUP5 SUB DUP2 SLOAD DUP2 LT ISZERO ISZERO PUSH2 0x269F JUMPI INVALID JUMPDEST SWAP1 PUSH1 0x0 MSTORE PUSH1 0x20 PUSH1 0x0 KECCAK256 SWAP1 PUSH1 0x8 MUL ADD PUSH1 0x5 ADD SWAP1 DUP1 MLOAD SWAP1 PUSH1 0x20 ADD SWAP1 PUSH2 0x26C3 SWAP3 SWAP2 SWAP1 PUSH2 0x3B09 JUMP JUMPDEST POP TIMESTAMP PUSH1 0x3 PUSH1 0x1 DUP5 SUB DUP2 SLOAD DUP2 LT ISZERO ISZERO PUSH2 0x26D7 JUMPI INVALID JUMPDEST SWAP1 PUSH1 0x0 MSTORE PUSH1 0x20 PUSH1 0x0 KECCAK256 SWAP1 PUSH1 0x8 MUL ADD PUSH1 0x7 ADD DUP2 SWAP1 SSTORE POP JUMPDEST POP POP POP JUMP JUMPDEST PUSH1 0x0 PUSH1 0x60 DUP1 PUSH2 0x26FF PUSH2 0x390D JUMP JUMPDEST PUSH1 0x0 DUP6 GT DUP1 ISZERO PUSH2 0x2714 JUMPI POP PUSH1 0x1 DUP1 SLOAD SWAP1 POP DUP6 GT ISZERO JUMPDEST ISZERO ISZERO PUSH2 0x2755 JUMPI PUSH1 0x40 MLOAD PUSH32 0x8C379A000000000000000000000000000000000000000000000000000000000 DUP2 MSTORE PUSH1 0x4 ADD PUSH2 0x274C SWAP1 PUSH2 0x44B2 JUMP JUMPDEST PUSH1 0x40 MLOAD DUP1 SWAP2 SUB SWAP1 REVERT JUMPDEST PUSH1 0x1 DUP1 DUP7 SUB DUP2 SLOAD DUP2 LT ISZERO ISZERO PUSH2 0x2766 JUMPI INVALID JUMPDEST SWAP1 PUSH1 0x0 MSTORE PUSH1 0x20 PUSH1 0x0 KECCAK256 SWAP1 PUSH1 0x3 MUL ADD PUSH1 0x60 PUSH1 0x40 MLOAD SWAP1 DUP2 ADD PUSH1 0x40 MSTORE SWAP1 DUP2 PUSH1 0x0 DUP3 ADD SLOAD DUP2 MSTORE PUSH1 0x20 ADD PUSH1 0x1 DUP3 ADD DUP1 SLOAD PUSH1 0x1 DUP2 PUSH1 0x1 AND ISZERO PUSH2 0x100 MUL SUB AND PUSH1 0x2 SWAP1 DIV DUP1 PUSH1 0x1F ADD PUSH1 0x20 DUP1 SWAP2 DIV MUL PUSH1 0x20 ADD PUSH1 0x40 MLOAD SWAP1 DUP2 ADD PUSH1 0x40 MSTORE DUP1 SWAP3 SWAP2 SWAP1 DUP2 DUP2 MSTORE PUSH1 0x20 ADD DUP3 DUP1 SLOAD PUSH1 0x1 DUP2 PUSH1 0x1 AND ISZERO PUSH2 0x100 MUL SUB AND PUSH1 0x2 SWAP1 DIV DUP1 ISZERO PUSH2 0x2823 JUMPI DUP1 PUSH1 0x1F LT PUSH2 0x27F8 JUMPI PUSH2 0x100 DUP1 DUP4 SLOAD DIV MUL DUP4 MSTORE SWAP2 PUSH1 0x20 ADD SWAP2 PUSH2 0x2823 JUMP JUMPDEST DUP3 ADD SWAP2 SWAP1 PUSH1 0x0 MSTORE PUSH1 0x20 PUSH1 0x0 KECCAK256 SWAP1 JUMPDEST DUP2 SLOAD DUP2 MSTORE SWAP1 PUSH1 0x1 ADD SWAP1 PUSH1 0x20 ADD DUP1 DUP4 GT PUSH2 0x2806 JUMPI DUP3 SWAP1 SUB PUSH1 0x1F AND DUP3 ADD SWAP2 JUMPDEST POP POP POP POP POP DUP2 MSTORE PUSH1 0x20 ADD PUSH1 0x2 DUP3 ADD DUP1 SLOAD PUSH1 0x1 DUP2 PUSH1 0x1 AND ISZERO PUSH2 0x100 MUL SUB AND PUSH1 0x2 SWAP1 DIV DUP1 PUSH1 0x1F ADD PUSH1 0x20 DUP1 SWAP2 DIV MUL PUSH1 0x20 ADD PUSH1 0x40 MLOAD SWAP1 DUP2 ADD PUSH1 0x40 MSTORE DUP1 SWAP3 SWAP2 SWAP1 DUP2 DUP2 MSTORE PUSH1 0x20 ADD DUP3 DUP1 SLOAD PUSH1 0x1 DUP2 PUSH1 0x1 AND ISZERO PUSH2 0x100 MUL SUB AND PUSH1 0x2 SWAP1 DIV DUP1 ISZERO PUSH2 0x28C5 JUMPI DUP1 PUSH1 0x1F LT PUSH2 0x289A JUMPI PUSH2 0x100 DUP1 DUP4 SLOAD DIV MUL DUP4 MSTORE SWAP2 PUSH1 0x20 ADD SWAP2 PUSH2 0x28C5 JUMP JUMPDEST DUP3 ADD SWAP2 SWAP1 PUSH1 0x0 MSTORE PUSH1 0x20 PUSH1 0x0 KECCAK256 SWAP1 JUMPDEST DUP2 SLOAD DUP2 MSTORE SWAP1 PUSH1 0x1 ADD SWAP1 PUSH1 0x20 ADD DUP1 DUP4 GT PUSH2 0x28A8 JUMPI DUP3 SWAP1 SUB PUSH1 0x1F AND DUP3 ADD SWAP2 JUMPDEST POP POP POP POP POP DUP2 MSTORE POP POP SWAP1 POP DUP1 PUSH1 0x0 ADD MLOAD DUP2 PUSH1 0x20 ADD MLOAD DUP3 PUSH1 0x40 ADD MLOAD DUP2 SWAP2 POP DUP1 SWAP1 POP SWAP4 POP SWAP4 POP SWAP4 POP POP SWAP2 SWAP4 SWAP1 SWAP3 POP JUMP JUMPDEST PUSH1 0x60 DUP1 PUSH1 0x60 DUP1 PUSH1 0x60 DUP1 PUSH1 0x60 DUP1 PUSH1 0x0 PUSH1 0x2 DUP1 SLOAD SWAP1 POP PUSH1 0x40 MLOAD SWAP1 DUP1 DUP3 MSTORE DUP1 PUSH1 0x20 MUL PUSH1 0x20 ADD DUP3 ADD PUSH1 0x40 MSTORE DUP1 ISZERO PUSH2 0x2935 JUMPI DUP2 PUSH1 0x20 ADD PUSH1 0x20 DUP3 MUL DUP1 CODESIZE DUP4 CODECOPY DUP1 DUP3 ADD SWAP2 POP POP SWAP1 POP JUMPDEST POP SWAP5 POP PUSH1 0x2 DUP1 SLOAD SWAP1 POP PUSH1 0x40 MLOAD SWAP1 DUP1 DUP3 MSTORE DUP1 PUSH1 0x20 MUL PUSH1 0x20 ADD DUP3 ADD PUSH1 0x40 MSTORE DUP1 ISZERO PUSH2 0x2971 JUMPI DUP2 PUSH1 0x20 ADD JUMPDEST PUSH1 0x60 DUP2 MSTORE PUSH1 0x20 ADD SWAP1 PUSH1 0x1 SWAP1 SUB SWAP1 DUP2 PUSH2 0x295C JUMPI SWAP1 POP JUMPDEST POP SWAP4 POP PUSH1 0x2 DUP1 SLOAD SWAP1 POP PUSH1 0x40 MLOAD SWAP1 DUP1 DUP3 MSTORE DUP1 PUSH1 0x20 MUL PUSH1 0x20 ADD DUP3 ADD PUSH1 0x40 MSTORE DUP1 ISZERO PUSH2 0x29AD JUMPI DUP2 PUSH1 0x20 ADD JUMPDEST PUSH1 0x60 DUP2 MSTORE PUSH1 0x20 ADD SWAP1 PUSH1 0x1 SWAP1 SUB SWAP1 DUP2 PUSH2 0x2998 JUMPI SWAP1 POP JUMPDEST POP SWAP3 POP PUSH1 0x2 DUP1 SLOAD SWAP1 POP PUSH1 0x40 MLOAD SWAP1 DUP1 DUP3 MSTORE DUP1 PUSH1 0x20 MUL PUSH1 0x20 ADD DUP3 ADD PUSH1 0x40 MSTORE DUP1 ISZERO PUSH2 0x29E9 JUMPI DUP2 PUSH1 0x20 ADD JUMPDEST PUSH1 0x60 DUP2 MSTORE PUSH1 0x20 ADD SWAP1 PUSH1 0x1 SWAP1 SUB SWAP1 DUP2 PUSH2 0x29D4 JUMPI SWAP1 POP JUMPDEST POP SWAP2 POP PUSH1 0x0 SWAP1 POP JUMPDEST PUSH1 0x2 DUP1 SLOAD SWAP1 POP DUP2 LT ISZERO PUSH2 0x2CC4 JUMPI PUSH1 0x2 DUP2 DUP2 SLOAD DUP2 LT ISZERO ISZERO PUSH2 0x2A0D JUMPI INVALID JUMPDEST SWAP1 PUSH1 0x0 MSTORE PUSH1 0x20 PUSH1 0x0 KECCAK256 SWAP1 PUSH1 0x5 MUL ADD PUSH1 0x0 ADD SLOAD DUP6 DUP3 DUP2 MLOAD DUP2 LT ISZERO ISZERO PUSH2 0x2A2D JUMPI INVALID JUMPDEST SWAP1 PUSH1 0x20 ADD SWAP1 PUSH1 0x20 MUL ADD DUP2 DUP2 MSTORE POP POP PUSH1 0x2 DUP2 DUP2 SLOAD DUP2 LT ISZERO ISZERO PUSH2 0x2A4A JUMPI INVALID JUMPDEST SWAP1 PUSH1 0x0 MSTORE PUSH1 0x20 PUSH1 0x0 KECCAK256 SWAP1 PUSH1 0x5 MUL ADD PUSH1 0x1 ADD DUP1 SLOAD PUSH1 0x1 DUP2 PUSH1 0x1 AND ISZERO PUSH2 0x100 MUL SUB AND PUSH1 0x2 SWAP1 DIV DUP1 PUSH1 0x1F ADD PUSH1 0x20 DUP1 SWAP2 DIV MUL PUSH1 0x20 ADD PUSH1 0x40 MLOAD SWAP1 DUP2 ADD PUSH1 0x40 MSTORE DUP1 SWAP3 SWAP2 SWAP1 DUP2 DUP2 MSTORE PUSH1 0x20 ADD DUP3 DUP1 SLOAD PUSH1 0x1 DUP2 PUSH1 0x1 AND ISZERO PUSH2 0x100 MUL SUB AND PUSH1 0x2 SWAP1 DIV DUP1 ISZERO PUSH2 0x2AEF JUMPI DUP1 PUSH1 0x1F LT PUSH2 0x2AC4 JUMPI PUSH2 0x100 DUP1 DUP4 SLOAD DIV MUL DUP4 MSTORE SWAP2 PUSH1 0x20 ADD SWAP2 PUSH2 0x2AEF JUMP JUMPDEST DUP3 ADD SWAP2 SWAP1 PUSH1 0x0 MSTORE PUSH1 0x20 PUSH1 0x0 KECCAK256 SWAP1 JUMPDEST DUP2 SLOAD DUP2 MSTORE SWAP1 PUSH1 0x1 ADD SWAP1 PUSH1 0x20 ADD DUP1 DUP4 GT PUSH2 0x2AD2 JUMPI DUP3 SWAP1 SUB PUSH1 0x1F AND DUP3 ADD SWAP2 JUMPDEST POP POP POP POP POP DUP5 DUP3 DUP2 MLOAD DUP2 LT ISZERO ISZERO PUSH2 0x2B02 JUMPI INVALID JUMPDEST SWAP1 PUSH1 0x20 ADD SWAP1 PUSH1 0x20 MUL ADD DUP2 SWAP1 MSTORE POP PUSH1 0x2 DUP2 DUP2 SLOAD DUP2 LT ISZERO ISZERO PUSH2 0x2B1E JUMPI INVALID JUMPDEST SWAP1 PUSH1 0x0 MSTORE PUSH1 0x20 PUSH1 0x0 KECCAK256 SWAP1 PUSH1 0x5 MUL ADD PUSH1 0x2 ADD DUP1 SLOAD PUSH1 0x1 DUP2 PUSH1 0x1 AND ISZERO PUSH2 0x100 MUL SUB AND PUSH1 0x2 SWAP1 DIV DUP1 PUSH1 0x1F ADD PUSH1 0x20 DUP1 SWAP2 DIV MUL PUSH1 0x20 ADD PUSH1 0x40 MLOAD SWAP1 DUP2 ADD PUSH1 0x40 MSTORE DUP1 SWAP3 SWAP2 SWAP1 DUP2 DUP2 MSTORE PUSH1 0x20 ADD DUP3 DUP1 SLOAD PUSH1 0x1 DUP2 PUSH1 0x1 AND ISZERO PUSH2 0x100 MUL SUB AND PUSH1 0x2 SWAP1 DIV DUP1 ISZERO PUSH2 0x2BC3 JUMPI DUP1 PUSH1 0x1F LT PUSH2 0x2B98 JUMPI PUSH2 0x100 DUP1 DUP4 SLOAD DIV MUL DUP4 MSTORE SWAP2 PUSH1 0x20 ADD SWAP2 PUSH2 0x2BC3 JUMP JUMPDEST DUP3 ADD SWAP2 SWAP1 PUSH1 0x0 MSTORE PUSH1 0x20 PUSH1 0x0 KECCAK256 SWAP1 JUMPDEST DUP2 SLOAD DUP2 MSTORE SWAP1 PUSH1 0x1 ADD SWAP1 PUSH1 0x20 ADD DUP1 DUP4 GT PUSH2 0x2BA6 JUMPI DUP3 SWAP1 SUB PUSH1 0x1F AND DUP3 ADD SWAP2 JUMPDEST POP POP POP POP POP DUP4 DUP3 DUP2 MLOAD DUP2 LT ISZERO ISZERO PUSH2 0x2BD6 JUMPI INVALID JUMPDEST SWAP1 PUSH1 0x20 ADD SWAP1 PUSH1 0x20 MUL ADD DUP2 SWAP1 MSTORE POP PUSH1 0x2 DUP2 DUP2 SLOAD DUP2 LT ISZERO ISZERO PUSH2 0x2BF2 JUMPI INVALID JUMPDEST SWAP1 PUSH1 0x0 MSTORE PUSH1 0x20 PUSH1 0x0 KECCAK256 SWAP1 PUSH1 0x5 MUL ADD PUSH1 0x3 ADD DUP1 SLOAD PUSH1 0x1 DUP2 PUSH1 0x1 AND ISZERO PUSH2 0x100 MUL SUB AND PUSH1 0x2 SWAP1 DIV DUP1 PUSH1 0x1F ADD PUSH1 0x20 DUP1 SWAP2 DIV MUL PUSH1 0x20 ADD PUSH1 0x40 MLOAD SWAP1 DUP2 ADD PUSH1 0x40 MSTORE DUP1 SWAP3 SWAP2 SWAP1 DUP2 DUP2 MSTORE PUSH1 0x20 ADD DUP3 DUP1 SLOAD PUSH1 0x1 DUP2 PUSH1 0x1 AND ISZERO PUSH2 0x100 MUL SUB AND PUSH1 0x2 SWAP1 DIV DUP1 ISZERO PUSH2 0x2C97 JUMPI DUP1 PUSH1 0x1F LT PUSH2 0x2C6C JUMPI PUSH2 0x100 DUP1 DUP4 SLOAD DIV MUL DUP4 MSTORE SWAP2 PUSH1 0x20 ADD SWAP2 PUSH2 0x2C97 JUMP JUMPDEST DUP3 ADD SWAP2 SWAP1 PUSH1 0x0 MSTORE PUSH1 0x20 PUSH1 0x0 KECCAK256 SWAP1 JUMPDEST DUP2 SLOAD DUP2 MSTORE SWAP1 PUSH1 0x1 ADD SWAP1 PUSH1 0x20 ADD DUP1 DUP4 GT PUSH2 0x2C7A JUMPI DUP3 SWAP1 SUB PUSH1 0x1F AND DUP3 ADD SWAP2 JUMPDEST POP POP POP POP POP DUP3 DUP3 DUP2 MLOAD DUP2 LT ISZERO ISZERO PUSH2 0x2CAA JUMPI INVALID JUMPDEST SWAP1 PUSH1 0x20 ADD SWAP1 PUSH1 0x20 MUL ADD DUP2 SWAP1 MSTORE POP DUP1 DUP1 PUSH1 0x1 ADD SWAP2 POP POP PUSH2 0x29F1 JUMP JUMPDEST DUP5 DUP5 DUP5 DUP5 SWAP9 POP SWAP9 POP SWAP9 POP SWAP9 POP POP POP POP POP POP SWAP1 SWAP2 SWAP3 SWAP4 JUMP JUMPDEST PUSH1 0x0 DUP1 DUP4 GT DUP1 ISZERO PUSH2 0x2CF1 JUMPI POP PUSH1 0x1 DUP1 SLOAD SWAP1 POP DUP4 GT ISZERO JUMPDEST ISZERO PUSH2 0x2D36 JUMPI DUP2 PUSH1 0x1 DUP1 DUP6 SUB DUP2 SLOAD DUP2 LT ISZERO ISZERO PUSH2 0x2D08 JUMPI INVALID JUMPDEST SWAP1 PUSH1 0x0 MSTORE PUSH1 0x20 PUSH1 0x0 KECCAK256 SWAP1 PUSH1 0x3 MUL ADD PUSH1 0x2 ADD SWAP1 DUP1 MLOAD SWAP1 PUSH1 0x20 ADD SWAP1 PUSH2 0x2D2C SWAP3 SWAP2 SWAP1 PUSH2 0x3B09 JUMP JUMPDEST POP PUSH1 0x1 SWAP1 POP PUSH2 0x2D3B JUMP JUMPDEST PUSH1 0x0 SWAP1 POP JUMPDEST SWAP3 SWAP2 POP POP JUMP JUMPDEST PUSH1 0x0 PUSH1 0x60 DUP1 PUSH1 0x60 PUSH2 0x2D50 PUSH2 0x3A8C JUMP JUMPDEST PUSH1 0x0 DUP7 GT DUP1 ISZERO PUSH2 0x2D65 JUMPI POP PUSH1 0x2 DUP1 SLOAD SWAP1 POP DUP7 GT ISZERO JUMPDEST ISZERO ISZERO PUSH2 0x2DA6 JUMPI PUSH1 0x40 MLOAD PUSH32 0x8C379A000000000000000000000000000000000000000000000000000000000 DUP2 MSTORE PUSH1 0x4 ADD PUSH2 0x2D9D SWAP1 PUSH2 0x44D2 JUMP JUMPDEST PUSH1 0x40 MLOAD DUP1 SWAP2 SUB SWAP1 REVERT JUMPDEST PUSH1 0x2 PUSH1 0x1 DUP8 SUB DUP2 SLOAD DUP2 LT ISZERO ISZERO PUSH2 0x2DB8 JUMPI INVALID JUMPDEST SWAP1 PUSH1 0x0 MSTORE PUSH1 0x20 PUSH1 0x0 KECCAK256 SWAP1 PUSH1 0x5 MUL ADD PUSH1 0xA0 PUSH1 0x40 MLOAD SWAP1 DUP2 ADD PUSH1 0x40 MSTORE SWAP1 DUP2 PUSH1 0x0 DUP3 ADD SLOAD DUP2 MSTORE PUSH1 0x20 ADD PUSH1 0x1 DUP3 ADD DUP1 SLOAD PUSH1 0x1 DUP2 PUSH1 0x1 AND ISZERO PUSH2 0x100 MUL SUB AND PUSH1 0x2 SWAP1 DIV DUP1 PUSH1 0x1F ADD PUSH1 0x20 DUP1 SWAP2 DIV MUL PUSH1 0x20 ADD PUSH1 0x40 MLOAD SWAP1 DUP2 ADD PUSH1 0x40 MSTORE DUP1 SWAP3 SWAP2 SWAP1 DUP2 DUP2 MSTORE PUSH1 0x20 ADD DUP3 DUP1 SLOAD PUSH1 0x1 DUP2 PUSH1 0x1 AND ISZERO PUSH2 0x100 MUL SUB AND PUSH1 0x2 SWAP1 DIV DUP1 ISZERO PUSH2 0x2E75 JUMPI DUP1 PUSH1 0x1F LT PUSH2 0x2E4A JUMPI PUSH2 0x100 DUP1 DUP4 SLOAD DIV MUL DUP4 MSTORE SWAP2 PUSH1 0x20 ADD SWAP2 PUSH2 0x2E75 JUMP JUMPDEST DUP3 ADD SWAP2 SWAP1 PUSH1 0x0 MSTORE PUSH1 0x20 PUSH1 0x0 KECCAK256 SWAP1 JUMPDEST DUP2 SLOAD DUP2 MSTORE SWAP1 PUSH1 0x1 ADD SWAP1 PUSH1 0x20 ADD DUP1 DUP4 GT PUSH2 0x2E58 JUMPI DUP3 SWAP1 SUB PUSH1 0x1F AND DUP3 ADD SWAP2 JUMPDEST POP POP POP POP POP DUP2 MSTORE PUSH1 0x20 ADD PUSH1 0x2 DUP3 ADD DUP1 SLOAD PUSH1 0x1 DUP2 PUSH1 0x1 AND ISZERO PUSH2 0x100 MUL SUB AND PUSH1 0x2 SWAP1 DIV DUP1 PUSH1 0x1F ADD PUSH1 0x20 DUP1 SWAP2 DIV MUL PUSH1 0x20 ADD PUSH1 0x40 MLOAD SWAP1 DUP2 ADD PUSH1 0x40 MSTORE DUP1 SWAP3 SWAP2 SWAP1 DUP2 DUP2 MSTORE PUSH1 0x20 ADD DUP3 DUP1 SLOAD PUSH1 0x1 DUP2 PUSH1 0x1 AND ISZERO PUSH2 0x100 MUL SUB AND PUSH1 0x2 SWAP1 DIV DUP1 ISZERO PUSH2 0x2F17 JUMPI DUP1 PUSH1 0x1F LT PUSH2 0x2EEC JUMPI PUSH2 0x100 DUP1 DUP4 SLOAD DIV MUL DUP4 MSTORE SWAP2 PUSH1 0x20 ADD SWAP2 PUSH2 0x2F17 JUMP JUMPDEST DUP3 ADD SWAP2 SWAP1 PUSH1 0x0 MSTORE PUSH1 0x20 PUSH1 0x0 KECCAK256 SWAP1 JUMPDEST DUP2 SLOAD DUP2 MSTORE SWAP1 PUSH1 0x1 ADD SWAP1 PUSH1 0x20 ADD DUP1 DUP4 GT PUSH2 0x2EFA JUMPI DUP3 SWAP1 SUB PUSH1 0x1F AND DUP3 ADD SWAP2 JUMPDEST POP POP POP POP POP DUP2 MSTORE PUSH1 0x20 ADD PUSH1 0x3 DUP3 ADD DUP1 SLOAD PUSH1 0x1 DUP2 PUSH1 0x1 AND ISZERO PUSH2 0x100 MUL SUB AND PUSH1 0x2 SWAP1 DIV DUP1 PUSH1 0x1F ADD PUSH1 0x20 DUP1 SWAP2 DIV MUL PUSH1 0x20 ADD PUSH1 0x40 MLOAD SWAP1 DUP2 ADD PUSH1 0x40 MSTORE DUP1 SWAP3 SWAP2 SWAP1 DUP2 DUP2 MSTORE PUSH1 0x20 ADD DUP3 DUP1 SLOAD PUSH1 0x1 DUP2 PUSH1 0x1 AND ISZERO PUSH2 0x100 MUL SUB AND PUSH1 0x2 SWAP1 DIV DUP1 ISZERO PUSH2 0x2FB9 JUMPI DUP1 PUSH1 0x1F LT PUSH2 0x2F8E JUMPI PUSH2 0x100 DUP1 DUP4 SLOAD DIV MUL DUP4 MSTORE SWAP2 PUSH1 0x20 ADD SWAP2 PUSH2 0x2FB9 JUMP JUMPDEST DUP3 ADD SWAP2 SWAP1 PUSH1 0x0 MSTORE PUSH1 0x20 PUSH1 0x0 KECCAK256 SWAP1 JUMPDEST DUP2 SLOAD DUP2 MSTORE SWAP1 PUSH1 0x1 ADD SWAP1 PUSH1 0x20 ADD DUP1 DUP4 GT PUSH2 0x2F9C JUMPI DUP3 SWAP1 SUB PUSH1 0x1F AND DUP3 ADD SWAP2 JUMPDEST POP POP POP POP POP DUP2 MSTORE PUSH1 0x20 ADD PUSH1 0x4 DUP3 ADD DUP1 SLOAD DUP1 PUSH1 0x20 MUL PUSH1 0x20 ADD PUSH1 0x40 MLOAD SWAP1 DUP2 ADD PUSH1 0x40 MSTORE DUP1 SWAP3 SWAP2 SWAP1 DUP2 DUP2 MSTORE PUSH1 0x20 ADD DUP3 DUP1 SLOAD DUP1 ISZERO PUSH2 0x3011 JUMPI PUSH1 0x20 MUL DUP3 ADD SWAP2 SWAP1 PUSH1 0x0 MSTORE PUSH1 0x20 PUSH1 0x0 KECCAK256 SWAP1 JUMPDEST DUP2 SLOAD DUP2 MSTORE PUSH1 0x20 ADD SWAP1 PUSH1 0x1 ADD SWAP1 DUP1 DUP4 GT PUSH2 0x2FFD JUMPI JUMPDEST POP POP POP POP POP DUP2 MSTORE POP POP SWAP1 POP DUP1 PUSH1 0x0 ADD MLOAD DUP2 PUSH1 0x20 ADD MLOAD DUP3 PUSH1 0x40 ADD MLOAD DUP4 PUSH1 0x60 ADD MLOAD DUP3 SWAP3 POP DUP2 SWAP2 POP DUP1 SWAP1 POP SWAP5 POP SWAP5 POP SWAP5 POP SWAP5 POP POP SWAP2 SWAP4 POP SWAP2 SWAP4 JUMP JUMPDEST PUSH1 0x0 DUP2 PUSH1 0x40 MLOAD PUSH1 0x20 ADD DUP1 DUP3 DUP1 MLOAD SWAP1 PUSH1 0x20 ADD SWAP1 DUP1 DUP4 DUP4 JUMPDEST PUSH1 0x20 DUP4 LT ISZERO ISZERO PUSH2 0x3084 JUMPI DUP1 MLOAD DUP3 MSTORE PUSH1 0x20 DUP3 ADD SWAP2 POP PUSH1 0x20 DUP2 ADD SWAP1 POP PUSH1 0x20 DUP4 SUB SWAP3 POP PUSH2 0x305F JUMP JUMPDEST PUSH1 0x1 DUP4 PUSH1 0x20 SUB PUSH2 0x100 EXP SUB DUP1 NOT DUP3 MLOAD AND DUP2 DUP5 MLOAD AND DUP1 DUP3 OR DUP6 MSTORE POP POP POP POP POP POP SWAP1 POP ADD SWAP2 POP POP PUSH1 0x40 MLOAD PUSH1 0x20 DUP2 DUP4 SUB SUB DUP2 MSTORE SWAP1 PUSH1 0x40 MSTORE PUSH1 0x40 MLOAD DUP1 DUP3 DUP1 MLOAD SWAP1 PUSH1 0x20 ADD SWAP1 DUP1 DUP4 DUP4 JUMPDEST PUSH1 0x20 DUP4 LT ISZERO ISZERO PUSH2 0x30ED JUMPI DUP1 MLOAD DUP3 MSTORE PUSH1 0x20 DUP3 ADD SWAP2 POP PUSH1 0x20 DUP2 ADD SWAP1 POP PUSH1 0x20 DUP4 SUB SWAP3 POP PUSH2 0x30C8 JUMP JUMPDEST PUSH1 0x1 DUP4 PUSH1 0x20 SUB PUSH2 0x100 EXP SUB DUP1 NOT DUP3 MLOAD AND DUP2 DUP5 MLOAD AND DUP1 DUP3 OR DUP6 MSTORE POP POP POP POP POP POP SWAP1 POP ADD SWAP2 POP POP PUSH1 0x40 MLOAD DUP1 SWAP2 SUB SWAP1 KECCAK256 PUSH1 0x0 NOT AND PUSH1 0x2 PUSH1 0x1 DUP6 SUB DUP2 SLOAD DUP2 LT ISZERO ISZERO PUSH2 0x3130 JUMPI INVALID JUMPDEST SWAP1 PUSH1 0x0 MSTORE PUSH1 0x20 PUSH1 0x0 KECCAK256 SWAP1 PUSH1 0x5 MUL ADD PUSH1 0x3 ADD PUSH1 0x40 MLOAD PUSH1 0x20 ADD DUP1 DUP3 DUP1 SLOAD PUSH1 0x1 DUP2 PUSH1 0x1 AND ISZERO PUSH2 0x100 MUL SUB AND PUSH1 0x2 SWAP1 DIV DUP1 ISZERO PUSH2 0x319F JUMPI DUP1 PUSH1 0x1F LT PUSH2 0x317D JUMPI PUSH2 0x100 DUP1 DUP4 SLOAD DIV MUL DUP4 MSTORE SWAP2 DUP3 ADD SWAP2 PUSH2 0x319F JUMP JUMPDEST DUP3 ADD SWAP2 SWAP1 PUSH1 0x0 MSTORE PUSH1 0x20 PUSH1 0x0 KECCAK256 SWAP1 JUMPDEST DUP2 SLOAD DUP2 MSTORE SWAP1 PUSH1 0x1 ADD SWAP1 PUSH1 0x20 ADD DUP1 DUP4 GT PUSH2 0x318B JUMPI JUMPDEST POP POP SWAP2 POP POP PUSH1 0x40 MLOAD PUSH1 0x20 DUP2 DUP4 SUB SUB DUP2 MSTORE SWAP1 PUSH1 0x40 MSTORE PUSH1 0x40 MLOAD DUP1 DUP3 DUP1 MLOAD SWAP1 PUSH1 0x20 ADD SWAP1 DUP1 DUP4 DUP4 JUMPDEST PUSH1 0x20 DUP4 LT ISZERO ISZERO PUSH2 0x31E8 JUMPI DUP1 MLOAD DUP3 MSTORE PUSH1 0x20 DUP3 ADD SWAP2 POP PUSH1 0x20 DUP2 ADD SWAP1 POP PUSH1 0x20 DUP4 SUB SWAP3 POP PUSH2 0x31C3 JUMP JUMPDEST PUSH1 0x1 DUP4 PUSH1 0x20 SUB PUSH2 0x100 EXP SUB DUP1 NOT DUP3 MLOAD AND DUP2 DUP5 MLOAD AND DUP1 DUP3 OR DUP6 MSTORE POP POP POP POP POP POP SWAP1 POP ADD SWAP2 POP POP PUSH1 0x40 MLOAD DUP1 SWAP2 SUB SWAP1 KECCAK256 PUSH1 0x0 NOT AND EQ ISZERO PUSH2 0x3228 JUMPI PUSH1 0x1 SWAP1 POP PUSH2 0x322D JUMP JUMPDEST PUSH1 0x0 SWAP1 POP JUMPDEST SWAP3 SWAP2 POP POP JUMP JUMPDEST PUSH1 0x60 DUP1 PUSH1 0x60 DUP1 PUSH1 0x60 DUP1 PUSH1 0x0 PUSH1 0x1 DUP1 SLOAD SWAP1 POP PUSH1 0x40 MLOAD SWAP1 DUP1 DUP3 MSTORE DUP1 PUSH1 0x20 MUL PUSH1 0x20 ADD DUP3 ADD PUSH1 0x40 MSTORE DUP1 ISZERO PUSH2 0x3272 JUMPI DUP2 PUSH1 0x20 ADD PUSH1 0x20 DUP3 MUL DUP1 CODESIZE DUP4 CODECOPY DUP1 DUP3 ADD SWAP2 POP POP SWAP1 POP JUMPDEST POP SWAP4 POP PUSH1 0x1 DUP1 SLOAD SWAP1 POP PUSH1 0x40 MLOAD SWAP1 DUP1 DUP3 MSTORE DUP1 PUSH1 0x20 MUL PUSH1 0x20 ADD DUP3 ADD PUSH1 0x40 MSTORE DUP1 ISZERO PUSH2 0x32AE JUMPI DUP2 PUSH1 0x20 ADD JUMPDEST PUSH1 0x60 DUP2 MSTORE PUSH1 0x20 ADD SWAP1 PUSH1 0x1 SWAP1 SUB SWAP1 DUP2 PUSH2 0x3299 JUMPI SWAP1 POP JUMPDEST POP SWAP3 POP PUSH1 0x1 DUP1 SLOAD SWAP1 POP PUSH1 0x40 MLOAD SWAP1 DUP1 DUP3 MSTORE DUP1 PUSH1 0x20 MUL PUSH1 0x20 ADD DUP3 ADD PUSH1 0x40 MSTORE DUP1 ISZERO PUSH2 0x32EA JUMPI DUP2 PUSH1 0x20 ADD JUMPDEST PUSH1 0x60 DUP2 MSTORE PUSH1 0x20 ADD SWAP1 PUSH1 0x1 SWAP1 SUB SWAP1 DUP2 PUSH2 0x32D5 JUMPI SWAP1 POP JUMPDEST POP SWAP2 POP PUSH1 0x0 SWAP1 POP JUMPDEST PUSH1 0x1 DUP1 SLOAD SWAP1 POP DUP2 LT ISZERO PUSH2 0x34F1 JUMPI PUSH1 0x1 DUP2 DUP2 SLOAD DUP2 LT ISZERO ISZERO PUSH2 0x330E JUMPI INVALID JUMPDEST SWAP1 PUSH1 0x0 MSTORE PUSH1 0x20 PUSH1 0x0 KECCAK256 SWAP1 PUSH1 0x3 MUL ADD PUSH1 0x0 ADD SLOAD DUP5 DUP3 DUP2 MLOAD DUP2 LT ISZERO ISZERO PUSH2 0x332E JUMPI INVALID JUMPDEST SWAP1 PUSH1 0x20 ADD SWAP1 PUSH1 0x20 MUL ADD DUP2 DUP2 MSTORE POP POP PUSH1 0x1 DUP2 DUP2 SLOAD DUP2 LT ISZERO ISZERO PUSH2 0x334B JUMPI INVALID JUMPDEST SWAP1 PUSH1 0x0 MSTORE PUSH1 0x20 PUSH1 0x0 KECCAK256 SWAP1 PUSH1 0x3 MUL ADD PUSH1 0x1 ADD DUP1 SLOAD PUSH1 0x1 DUP2 PUSH1 0x1 AND ISZERO PUSH2 0x100 MUL SUB AND PUSH1 0x2 SWAP1 DIV DUP1 PUSH1 0x1F ADD PUSH1 0x20 DUP1 SWAP2 DIV MUL PUSH1 0x20 ADD PUSH1 0x40 MLOAD SWAP1 DUP2 ADD PUSH1 0x40 MSTORE DUP1 SWAP3 SWAP2 SWAP1 DUP2 DUP2 MSTORE PUSH1 0x20 ADD DUP3 DUP1 SLOAD PUSH1 0x1 DUP2 PUSH1 0x1 AND ISZERO PUSH2 0x100 MUL SUB AND PUSH1 0x2 SWAP1 DIV DUP1 ISZERO PUSH2 0x33F0 JUMPI DUP1 PUSH1 0x1F LT PUSH2 0x33C5 JUMPI PUSH2 0x100 DUP1 DUP4 SLOAD DIV MUL DUP4 MSTORE SWAP2 PUSH1 0x20 ADD SWAP2 PUSH2 0x33F0 JUMP JUMPDEST DUP3 ADD SWAP2 SWAP1 PUSH1 0x0 MSTORE PUSH1 0x20 PUSH1 0x0 KECCAK256 SWAP1 JUMPDEST DUP2 SLOAD DUP2 MSTORE SWAP1 PUSH1 0x1 ADD SWAP1 PUSH1 0x20 ADD DUP1 DUP4 GT PUSH2 0x33D3 JUMPI DUP3 SWAP1 SUB PUSH1 0x1F AND DUP3 ADD SWAP2 JUMPDEST POP POP POP POP POP DUP4 DUP3 DUP2 MLOAD DUP2 LT ISZERO ISZERO PUSH2 0x3403 JUMPI INVALID JUMPDEST SWAP1 PUSH1 0x20 ADD SWAP1 PUSH1 0x20 MUL ADD DUP2 SWAP1 MSTORE POP PUSH1 0x1 DUP2 DUP2 SLOAD DUP2 LT ISZERO ISZERO PUSH2 0x341F JUMPI INVALID JUMPDEST SWAP1 PUSH1 0x0 MSTORE PUSH1 0x20 PUSH1 0x0 KECCAK256 SWAP1 PUSH1 0x3 MUL ADD PUSH1 0x2 ADD DUP1 SLOAD PUSH1 0x1 DUP2 PUSH1 0x1 AND ISZERO PUSH2 0x100 MUL SUB AND PUSH1 0x2 SWAP1 DIV DUP1 PUSH1 0x1F ADD PUSH1 0x20 DUP1 SWAP2 DIV MUL PUSH1 0x20 ADD PUSH1 0x40 MLOAD SWAP1 DUP2 ADD PUSH1 0x40 MSTORE DUP1 SWAP3 SWAP2 SWAP1 DUP2 DUP2 MSTORE PUSH1 0x20 ADD DUP3 DUP1 SLOAD PUSH1 0x1 DUP2 PUSH1 0x1 AND ISZERO PUSH2 0x100 MUL SUB AND PUSH1 0x2 SWAP1 DIV DUP1 ISZERO PUSH2 0x34C4 JUMPI DUP1 PUSH1 0x1F LT PUSH2 0x3499 JUMPI PUSH2 0x100 DUP1 DUP4 SLOAD DIV MUL DUP4 MSTORE SWAP2 PUSH1 0x20 ADD SWAP2 PUSH2 0x34C4 JUMP JUMPDEST DUP3 ADD SWAP2 SWAP1 PUSH1 0x0 MSTORE PUSH1 0x20 PUSH1 0x0 KECCAK256 SWAP1 JUMPDEST DUP2 SLOAD DUP2 MSTORE SWAP1 PUSH1 0x1 ADD SWAP1 PUSH1 0x20 ADD DUP1 DUP4 GT PUSH2 0x34A7 JUMPI DUP3 SWAP1 SUB PUSH1 0x1F AND DUP3 ADD SWAP2 JUMPDEST POP POP POP POP POP DUP3 DUP3 DUP2 MLOAD DUP2 LT ISZERO ISZERO PUSH2 0x34D7 JUMPI INVALID JUMPDEST SWAP1 PUSH1 0x20 ADD SWAP1 PUSH1 0x20 MUL ADD DUP2 SWAP1 MSTORE POP DUP1 DUP1 PUSH1 0x1 ADD SWAP2 POP POP PUSH2 0x32F2 JUMP JUMPDEST DUP4 DUP4 DUP4 SWAP7 POP SWAP7 POP SWAP7 POP POP POP POP POP SWAP1 SWAP2 SWAP3 JUMP JUMPDEST PUSH1 0x0 DUP1 DUP4 GT DUP1 ISZERO PUSH2 0x3519 JUMPI POP PUSH1 0x2 DUP1 SLOAD SWAP1 POP DUP4 GT ISZERO JUMPDEST ISZERO ISZERO PUSH2 0x355A JUMPI PUSH1 0x40 MLOAD PUSH32 0x8C379A000000000000000000000000000000000000000000000000000000000 DUP2 MSTORE PUSH1 0x4 ADD PUSH2 0x3551 SWAP1 PUSH2 0x44D2 JUMP JUMPDEST PUSH1 0x40 MLOAD DUP1 SWAP2 SUB SWAP1 REVERT JUMPDEST DUP2 PUSH1 0x2 PUSH1 0x1 DUP6 SUB DUP2 SLOAD DUP2 LT ISZERO ISZERO PUSH2 0x356D JUMPI INVALID JUMPDEST SWAP1 PUSH1 0x0 MSTORE PUSH1 0x20 PUSH1 0x0 KECCAK256 SWAP1 PUSH1 0x5 MUL ADD PUSH1 0x3 ADD SWAP1 DUP1 MLOAD SWAP1 PUSH1 0x20 ADD SWAP1 PUSH2 0x3591 SWAP3 SWAP2 SWAP1 PUSH2 0x3B09 JUMP JUMPDEST POP PUSH1 0x1 SWAP1 POP SWAP3 SWAP2 POP POP JUMP JUMPDEST PUSH1 0x60 DUP1 PUSH1 0x60 DUP1 PUSH1 0x60 DUP1 PUSH1 0x0 DUP1 DUP1 SLOAD SWAP1 POP PUSH1 0x40 MLOAD SWAP1 DUP1 DUP3 MSTORE DUP1 PUSH1 0x20 MUL PUSH1 0x20 ADD DUP3 ADD PUSH1 0x40 MSTORE DUP1 ISZERO PUSH2 0x35DA JUMPI DUP2 PUSH1 0x20 ADD PUSH1 0x20 DUP3 MUL DUP1 CODESIZE DUP4 CODECOPY DUP1 DUP3 ADD SWAP2 POP POP SWAP1 POP JUMPDEST POP SWAP4 POP PUSH1 0x0 DUP1 SLOAD SWAP1 POP PUSH1 0x40 MLOAD SWAP1 DUP1 DUP3 MSTORE DUP1 PUSH1 0x20 MUL PUSH1 0x20 ADD DUP3 ADD PUSH1 0x40 MSTORE DUP1 ISZERO PUSH2 0x3616 JUMPI DUP2 PUSH1 0x20 ADD JUMPDEST PUSH1 0x60 DUP2 MSTORE PUSH1 0x20 ADD SWAP1 PUSH1 0x1 SWAP1 SUB SWAP1 DUP2 PUSH2 0x3601 JUMPI SWAP1 POP JUMPDEST POP SWAP3 POP PUSH1 0x0 DUP1 SLOAD SWAP1 POP PUSH1 0x40 MLOAD SWAP1 DUP1 DUP3 MSTORE DUP1 PUSH1 0x20 MUL PUSH1 0x20 ADD DUP3 ADD PUSH1 0x40 MSTORE DUP1 ISZERO PUSH2 0x3652 JUMPI DUP2 PUSH1 0x20 ADD JUMPDEST PUSH1 0x60 DUP2 MSTORE PUSH1 0x20 ADD SWAP1 PUSH1 0x1 SWAP1 SUB SWAP1 DUP2 PUSH2 0x363D JUMPI SWAP1 POP JUMPDEST POP SWAP2 POP PUSH1 0x0 SWAP1 POP JUMPDEST PUSH1 0x0 DUP1 SLOAD SWAP1 POP DUP2 LT ISZERO PUSH2 0x3859 JUMPI PUSH1 0x0 DUP2 DUP2 SLOAD DUP2 LT ISZERO ISZERO PUSH2 0x3676 JUMPI INVALID JUMPDEST SWAP1 PUSH1 0x0 MSTORE PUSH1 0x20 PUSH1 0x0 KECCAK256 SWAP1 PUSH1 0x3 MUL ADD PUSH1 0x0 ADD SLOAD DUP5 DUP3 DUP2 MLOAD DUP2 LT ISZERO ISZERO PUSH2 0x3696 JUMPI INVALID JUMPDEST SWAP1 PUSH1 0x20 ADD SWAP1 PUSH1 0x20 MUL ADD DUP2 DUP2 MSTORE POP POP PUSH1 0x0 DUP2 DUP2 SLOAD DUP2 LT ISZERO ISZERO PUSH2 0x36B3 JUMPI INVALID JUMPDEST SWAP1 PUSH1 0x0 MSTORE PUSH1 0x20 PUSH1 0x0 KECCAK256 SWAP1 PUSH1 0x3 MUL ADD PUSH1 0x1 ADD DUP1 SLOAD PUSH1 0x1 DUP2 PUSH1 0x1 AND ISZERO PUSH2 0x100 MUL SUB AND PUSH1 0x2 SWAP1 DIV DUP1 PUSH1 0x1F ADD PUSH1 0x20 DUP1 SWAP2 DIV MUL PUSH1 0x20 ADD PUSH1 0x40 MLOAD SWAP1 DUP2 ADD PUSH1 0x40 MSTORE DUP1 SWAP3 SWAP2 SWAP1 DUP2 DUP2 MSTORE PUSH1 0x20 ADD DUP3 DUP1 SLOAD PUSH1 0x1 DUP2 PUSH1 0x1 AND ISZERO PUSH2 0x100 MUL SUB AND PUSH1 0x2 SWAP1 DIV DUP1 ISZERO PUSH2 0x3758 JUMPI DUP1 PUSH1 0x1F LT PUSH2 0x372D JUMPI PUSH2 0x100 DUP1 DUP4 SLOAD DIV MUL DUP4 MSTORE SWAP2 PUSH1 0x20 ADD SWAP2 PUSH2 0x3758 JUMP JUMPDEST DUP3 ADD SWAP2 SWAP1 PUSH1 0x0 MSTORE PUSH1 0x20 PUSH1 0x0 KECCAK256 SWAP1 JUMPDEST DUP2 SLOAD DUP2 MSTORE SWAP1 PUSH1 0x1 ADD SWAP1 PUSH1 0x20 ADD DUP1 DUP4 GT PUSH2 0x373B JUMPI DUP3 SWAP1 SUB PUSH1 0x1F AND DUP3 ADD SWAP2 JUMPDEST POP POP POP POP POP DUP4 DUP3 DUP2 MLOAD DUP2 LT ISZERO ISZERO PUSH2 0x376B JUMPI INVALID JUMPDEST SWAP1 PUSH1 0x20 ADD SWAP1 PUSH1 0x20 MUL ADD DUP2 SWAP1 MSTORE POP PUSH1 0x0 DUP2 DUP2 SLOAD DUP2 LT ISZERO ISZERO PUSH2 0x3787 JUMPI INVALID JUMPDEST SWAP1 PUSH1 0x0 MSTORE PUSH1 0x20 PUSH1 0x0 KECCAK256 SWAP1 PUSH1 0x3 MUL ADD PUSH1 0x2 ADD DUP1 SLOAD PUSH1 0x1 DUP2 PUSH1 0x1 AND ISZERO PUSH2 0x100 MUL SUB AND PUSH1 0x2 SWAP1 DIV DUP1 PUSH1 0x1F ADD PUSH1 0x20 DUP1 SWAP2 DIV MUL PUSH1 0x20 ADD PUSH1 0x40 MLOAD SWAP1 DUP2 ADD PUSH1 0x40 MSTORE DUP1 SWAP3 SWAP2 SWAP1 DUP2 DUP2 MSTORE PUSH1 0x20 ADD DUP3 DUP1 SLOAD PUSH1 0x1 DUP2 PUSH1 0x1 AND ISZERO PUSH2 0x100 MUL SUB AND PUSH1 0x2 SWAP1 DIV DUP1 ISZERO PUSH2 0x382C JUMPI DUP1 PUSH1 0x1F LT PUSH2 0x3801 JUMPI PUSH2 0x100 DUP1 DUP4 SLOAD DIV MUL DUP4 MSTORE SWAP2 PUSH1 0x20 ADD SWAP2 PUSH2 0x382C JUMP JUMPDEST DUP3 ADD SWAP2 SWAP1 PUSH1 0x0 MSTORE PUSH1 0x20 PUSH1 0x0 KECCAK256 SWAP1 JUMPDEST DUP2 SLOAD DUP2 MSTORE SWAP1 PUSH1 0x1 ADD SWAP1 PUSH1 0x20 ADD DUP1 DUP4 GT PUSH2 0x380F JUMPI DUP3 SWAP1 SUB PUSH1 0x1F AND DUP3 ADD SWAP2 JUMPDEST POP POP POP POP POP DUP3 DUP3 DUP2 MLOAD DUP2 LT ISZERO ISZERO PUSH2 0x383F JUMPI INVALID JUMPDEST SWAP1 PUSH1 0x20 ADD SWAP1 PUSH1 0x20 MUL ADD DUP2 SWAP1 MSTORE POP DUP1 DUP1 PUSH1 0x1 ADD SWAP2 POP POP PUSH2 0x365A JUMP JUMPDEST DUP4 DUP4 DUP4 SWAP7 POP SWAP7 POP SWAP7 POP POP POP POP POP SWAP1 SWAP2 SWAP3 JUMP JUMPDEST PUSH1 0x60 PUSH1 0x40 MLOAD SWAP1 DUP2 ADD PUSH1 0x40 MSTORE DUP1 PUSH1 0x0 DUP2 MSTORE PUSH1 0x20 ADD PUSH1 0x60 DUP2 MSTORE PUSH1 0x20 ADD PUSH1 0x60 DUP2 MSTORE POP SWAP1 JUMP JUMPDEST DUP3 DUP1 SLOAD PUSH1 0x1 DUP2 PUSH1 0x1 AND ISZERO PUSH2 0x100 MUL SUB AND PUSH1 0x2 SWAP1 DIV SWAP1 PUSH1 0x0 MSTORE PUSH1 0x20 PUSH1 0x0 KECCAK256 SWAP1 PUSH1 0x1F ADD PUSH1 0x20 SWAP1 DIV DUP2 ADD SWAP3 DUP3 PUSH1 0x1F LT PUSH2 0x38CE JUMPI DUP1 MLOAD PUSH1 0xFF NOT AND DUP4 DUP1 ADD OR DUP6 SSTORE PUSH2 0x38FC JUMP JUMPDEST DUP3 DUP1 ADD PUSH1 0x1 ADD DUP6 SSTORE DUP3 ISZERO PUSH2 0x38FC JUMPI SWAP2 DUP3 ADD JUMPDEST DUP3 DUP2 GT ISZERO PUSH2 0x38FB JUMPI DUP3 MLOAD DUP3 SSTORE SWAP2 PUSH1 0x20 ADD SWAP2 SWAP1 PUSH1 0x1 ADD SWAP1 PUSH2 0x38E0 JUMP JUMPDEST JUMPDEST POP SWAP1 POP PUSH2 0x3909 SWAP2 SWAP1 PUSH2 0x3C0D JUMP JUMPDEST POP SWAP1 JUMP JUMPDEST PUSH1 0x60 PUSH1 0x40 MLOAD SWAP1 DUP2 ADD PUSH1 0x40 MSTORE DUP1 PUSH1 0x0 DUP2 MSTORE PUSH1 0x20 ADD PUSH1 0x60 DUP2 MSTORE PUSH1 0x20 ADD PUSH1 0x60 DUP2 MSTORE POP SWAP1 JUMP JUMPDEST PUSH2 0x100 PUSH1 0x40 MLOAD SWAP1 DUP2 ADD PUSH1 0x40 MSTORE DUP1 PUSH1 0x0 DUP2 MSTORE PUSH1 0x20 ADD PUSH1 0x0 DUP2 MSTORE PUSH1 0x20 ADD PUSH1 0x0 DUP2 MSTORE PUSH1 0x20 ADD PUSH1 0x60 DUP2 MSTORE PUSH1 0x20 ADD PUSH1 0x60 DUP2 MSTORE PUSH1 0x20 ADD PUSH1 0x60 DUP2 MSTORE PUSH1 0x20 ADD PUSH1 0x0 DUP2 MSTORE PUSH1 0x20 ADD PUSH1 0x0 DUP2 MSTORE POP SWAP1 JUMP JUMPDEST DUP2 SLOAD DUP2 DUP4 SSTORE DUP2 DUP2 GT ISZERO PUSH2 0x399C JUMPI DUP2 DUP4 PUSH1 0x0 MSTORE PUSH1 0x20 PUSH1 0x0 KECCAK256 SWAP2 DUP3 ADD SWAP2 ADD PUSH2 0x399B SWAP2 SWAP1 PUSH2 0x3C0D JUMP JUMPDEST JUMPDEST POP POP POP JUMP JUMPDEST DUP3 DUP1 SLOAD PUSH1 0x1 DUP2 PUSH1 0x1 AND ISZERO PUSH2 0x100 MUL SUB AND PUSH1 0x2 SWAP1 DIV SWAP1 PUSH1 0x0 MSTORE PUSH1 0x20 PUSH1 0x0 KECCAK256 SWAP1 PUSH1 0x1F ADD PUSH1 0x20 SWAP1 DIV DUP2 ADD SWAP3 DUP3 PUSH1 0x1F LT PUSH2 0x39DA JUMPI DUP1 SLOAD DUP6 SSTORE PUSH2 0x3A17 JUMP JUMPDEST DUP3 DUP1 ADD PUSH1 0x1 ADD DUP6 SSTORE DUP3 ISZERO PUSH2 0x3A17 JUMPI PUSH1 0x0 MSTORE PUSH1 0x20 PUSH1 0x0 KECCAK256 SWAP2 PUSH1 0x1F ADD PUSH1 0x20 SWAP1 DIV DUP3 ADD JUMPDEST DUP3 DUP2 GT ISZERO PUSH2 0x3A16 JUMPI DUP3 SLOAD DUP3 SSTORE SWAP2 PUSH1 0x1 ADD SWAP2 SWAP1 PUSH1 0x1 ADD SWAP1 PUSH2 0x39FB JUMP JUMPDEST JUMPDEST POP SWAP1 POP PUSH2 0x3A24 SWAP2 SWAP1 PUSH2 0x3C0D JUMP JUMPDEST POP SWAP1 JUMP JUMPDEST DUP2 SLOAD DUP2 DUP4 SSTORE DUP2 DUP2 GT ISZERO PUSH2 0x3A55 JUMPI PUSH1 0x8 MUL DUP2 PUSH1 0x8 MUL DUP4 PUSH1 0x0 MSTORE PUSH1 0x20 PUSH1 0x0 KECCAK256 SWAP2 DUP3 ADD SWAP2 ADD PUSH2 0x3A54 SWAP2 SWAP1 PUSH2 0x3C32 JUMP JUMPDEST JUMPDEST POP POP POP JUMP JUMPDEST DUP2 SLOAD DUP2 DUP4 SSTORE DUP2 DUP2 GT ISZERO PUSH2 0x3A87 JUMPI PUSH1 0x3 MUL DUP2 PUSH1 0x3 MUL DUP4 PUSH1 0x0 MSTORE PUSH1 0x20 PUSH1 0x0 KECCAK256 SWAP2 DUP3 ADD SWAP2 ADD PUSH2 0x3A86 SWAP2 SWAP1 PUSH2 0x3CA9 JUMP JUMPDEST JUMPDEST POP POP POP JUMP JUMPDEST PUSH1 0xA0 PUSH1 0x40 MLOAD SWAP1 DUP2 ADD PUSH1 0x40 MSTORE DUP1 PUSH1 0x0 DUP2 MSTORE PUSH1 0x20 ADD PUSH1 0x60 DUP2 MSTORE PUSH1 0x20 ADD PUSH1 0x60 DUP2 MSTORE PUSH1 0x20 ADD PUSH1 0x60 DUP2 MSTORE PUSH1 0x20 ADD PUSH1 0x60 DUP2 MSTORE POP SWAP1 JUMP JUMPDEST DUP3 DUP1 SLOAD DUP3 DUP3 SSTORE SWAP1 PUSH1 0x0 MSTORE PUSH1 0x20 PUSH1 0x0 KECCAK256 SWAP1 DUP2 ADD SWAP3 DUP3 ISZERO PUSH2 0x3AF8 JUMPI SWAP2 PUSH1 0x20 MUL DUP3 ADD JUMPDEST DUP3 DUP2 GT ISZERO PUSH2 0x3AF7 JUMPI DUP3 MLOAD DUP3 SSTORE SWAP2 PUSH1 0x20 ADD SWAP2 SWAP1 PUSH1 0x1 ADD SWAP1 PUSH2 0x3ADC JUMP JUMPDEST JUMPDEST POP SWAP1 POP PUSH2 0x3B05 SWAP2 SWAP1 PUSH2 0x3C0D JUMP JUMPDEST POP SWAP1 JUMP JUMPDEST DUP3 DUP1 SLOAD PUSH1 0x1 DUP2 PUSH1 0x1 AND ISZERO PUSH2 0x100 MUL SUB AND PUSH1 0x2 SWAP1 DIV SWAP1 PUSH1 0x0 MSTORE PUSH1 0x20 PUSH1 0x0 KECCAK256 SWAP1 PUSH1 0x1F ADD PUSH1 0x20 SWAP1 DIV DUP2 ADD SWAP3 DUP3 PUSH1 0x1F LT PUSH2 0x3B4A JUMPI DUP1 MLOAD PUSH1 0xFF NOT AND DUP4 DUP1 ADD OR DUP6 SSTORE PUSH2 0x3B78 JUMP JUMPDEST DUP3 DUP1 ADD PUSH1 0x1 ADD DUP6 SSTORE DUP3 ISZERO PUSH2 0x3B78 JUMPI SWAP2 DUP3 ADD JUMPDEST DUP3 DUP2 GT ISZERO PUSH2 0x3B77 JUMPI DUP3 MLOAD DUP3 SSTORE SWAP2 PUSH1 0x20 ADD SWAP2 SWAP1 PUSH1 0x1 ADD SWAP1 PUSH2 0x3B5C JUMP JUMPDEST JUMPDEST POP SWAP1 POP PUSH2 0x3B85 SWAP2 SWAP1 PUSH2 0x3C0D JUMP JUMPDEST POP SWAP1 JUMP JUMPDEST DUP3 DUP1 SLOAD DUP3 DUP3 SSTORE SWAP1 PUSH1 0x0 MSTORE PUSH1 0x20 PUSH1 0x0 KECCAK256 SWAP1 DUP2 ADD SWAP3 DUP3 ISZERO PUSH2 0x3BCA JUMPI PUSH1 0x0 MSTORE PUSH1 0x20 PUSH1 0x0 KECCAK256 SWAP2 DUP3 ADD JUMPDEST DUP3 DUP2 GT ISZERO PUSH2 0x3BC9 JUMPI DUP3 SLOAD DUP3 SSTORE SWAP2 PUSH1 0x1 ADD SWAP2 SWAP1 PUSH1 0x1 ADD SWAP1 PUSH2 0x3BAE JUMP JUMPDEST JUMPDEST POP SWAP1 POP PUSH2 0x3BD7 SWAP2 SWAP1 PUSH2 0x3C0D JUMP JUMPDEST POP SWAP1 JUMP JUMPDEST DUP2 SLOAD DUP2 DUP4 SSTORE DUP2 DUP2 GT ISZERO PUSH2 0x3C08 JUMPI PUSH1 0x5 MUL DUP2 PUSH1 0x5 MUL DUP4 PUSH1 0x0 MSTORE PUSH1 0x20 PUSH1 0x0 KECCAK256 SWAP2 DUP3 ADD SWAP2 ADD PUSH2 0x3C07 SWAP2 SWAP1 PUSH2 0x3CF0 JUMP JUMPDEST JUMPDEST POP POP POP JUMP JUMPDEST PUSH2 0x3C2F SWAP2 SWAP1 JUMPDEST DUP1 DUP3 GT ISZERO PUSH2 0x3C2B JUMPI PUSH1 0x0 DUP2 PUSH1 0x0 SWAP1 SSTORE POP PUSH1 0x1 ADD PUSH2 0x3C13 JUMP JUMPDEST POP SWAP1 JUMP JUMPDEST SWAP1 JUMP JUMPDEST PUSH2 0x3CA6 SWAP2 SWAP1 JUMPDEST DUP1 DUP3 GT ISZERO PUSH2 0x3CA2 JUMPI PUSH1 0x0 DUP1 DUP3 ADD PUSH1 0x0 SWAP1 SSTORE PUSH1 0x1 DUP3 ADD PUSH1 0x0 SWAP1 SSTORE PUSH1 0x2 DUP3 ADD PUSH1 0x0 SWAP1 SSTORE PUSH1 0x3 DUP3 ADD PUSH1 0x0 PUSH2 0x3C69 SWAP2 SWAP1 PUSH2 0x3D57 JUMP JUMPDEST PUSH1 0x4 DUP3 ADD PUSH1 0x0 PUSH2 0x3C79 SWAP2 SWAP1 PUSH2 0x3D57 JUMP JUMPDEST PUSH1 0x5 DUP3 ADD PUSH1 0x0 PUSH2 0x3C89 SWAP2 SWAP1 PUSH2 0x3D57 JUMP JUMPDEST PUSH1 0x6 DUP3 ADD PUSH1 0x0 SWAP1 SSTORE PUSH1 0x7 DUP3 ADD PUSH1 0x0 SWAP1 SSTORE POP PUSH1 0x8 ADD PUSH2 0x3C38 JUMP JUMPDEST POP SWAP1 JUMP JUMPDEST SWAP1 JUMP JUMPDEST PUSH2 0x3CED SWAP2 SWAP1 JUMPDEST DUP1 DUP3 GT ISZERO PUSH2 0x3CE9 JUMPI PUSH1 0x0 DUP1 DUP3 ADD PUSH1 0x0 SWAP1 SSTORE PUSH1 0x1 DUP3 ADD PUSH1 0x0 PUSH2 0x3CD0 SWAP2 SWAP1 PUSH2 0x3D57 JUMP JUMPDEST PUSH1 0x2 DUP3 ADD PUSH1 0x0 PUSH2 0x3CE0 SWAP2 SWAP1 PUSH2 0x3D57 JUMP JUMPDEST POP PUSH1 0x3 ADD PUSH2 0x3CAF JUMP JUMPDEST POP SWAP1 JUMP JUMPDEST SWAP1 JUMP JUMPDEST PUSH2 0x3D54 SWAP2 SWAP1 JUMPDEST DUP1 DUP3 GT ISZERO PUSH2 0x3D50 JUMPI PUSH1 0x0 DUP1 DUP3 ADD PUSH1 0x0 SWAP1 SSTORE PUSH1 0x1 DUP3 ADD PUSH1 0x0 PUSH2 0x3D17 SWAP2 SWAP1 PUSH2 0x3D57 JUMP JUMPDEST PUSH1 0x2 DUP3 ADD PUSH1 0x0 PUSH2 0x3D27 SWAP2 SWAP1 PUSH2 0x3D57 JUMP JUMPDEST PUSH1 0x3 DUP3 ADD PUSH1 0x0 PUSH2 0x3D37 SWAP2 SWAP1 PUSH2 0x3D57 JUMP JUMPDEST PUSH1 0x4 DUP3 ADD PUSH1 0x0 PUSH2 0x3D47 SWAP2 SWAP1 PUSH2 0x3D9F JUMP JUMPDEST POP PUSH1 0x5 ADD PUSH2 0x3CF6 JUMP JUMPDEST POP SWAP1 JUMP JUMPDEST SWAP1 JUMP JUMPDEST POP DUP1 SLOAD PUSH1 0x1 DUP2 PUSH1 0x1 AND ISZERO PUSH2 0x100 MUL SUB AND PUSH1 0x2 SWAP1 DIV PUSH1 0x0 DUP3 SSTORE DUP1 PUSH1 0x1F LT PUSH2 0x3D7D JUMPI POP PUSH2 0x3D9C JUMP JUMPDEST PUSH1 0x1F ADD PUSH1 0x20 SWAP1 DIV SWAP1 PUSH1 0x0 MSTORE PUSH1 0x20 PUSH1 0x0 KECCAK256 SWAP1 DUP2 ADD SWAP1 PUSH2 0x3D9B SWAP2 SWAP1 PUSH2 0x3C0D JUMP JUMPDEST JUMPDEST POP JUMP JUMPDEST POP DUP1 SLOAD PUSH1 0x0 DUP3 SSTORE SWAP1 PUSH1 0x0 MSTORE PUSH1 0x20 PUSH1 0x0 KECCAK256 SWAP1 DUP2 ADD SWAP1 PUSH2 0x3DBD SWAP2 SWAP1 PUSH2 0x3C0D JUMP JUMPDEST POP JUMP JUMPDEST PUSH1 0x0 DUP3 PUSH1 0x1F DUP4 ADD SLT ISZERO ISZERO PUSH2 0x3DD3 JUMPI PUSH1 0x0 DUP1 REVERT JUMPDEST DUP2 CALLDATALOAD PUSH2 0x3DE6 PUSH2 0x3DE1 DUP3 PUSH2 0x4671 JUMP JUMPDEST PUSH2 0x4644 JUMP JUMPDEST SWAP2 POP DUP1 DUP3 MSTORE PUSH1 0x20 DUP4 ADD PUSH1 0x20 DUP4 ADD DUP6 DUP4 DUP4 ADD GT ISZERO PUSH2 0x3E02 JUMPI PUSH1 0x0 DUP1 REVERT JUMPDEST PUSH2 0x3E0D DUP4 DUP3 DUP5 PUSH2 0x471D JUMP JUMPDEST POP POP POP SWAP3 SWAP2 POP POP JUMP JUMPDEST PUSH1 0x0 PUSH2 0x3E22 DUP3 CALLDATALOAD PUSH2 0x4713 JUMP JUMPDEST SWAP1 POP SWAP3 SWAP2 POP POP JUMP JUMPDEST PUSH1 0x0 DUP1 PUSH1 0x40 DUP4 DUP6 SUB SLT ISZERO PUSH2 0x3E3D JUMPI PUSH1 0x0 DUP1 REVERT JUMPDEST PUSH1 0x0 DUP4 ADD CALLDATALOAD PUSH8 0xFFFFFFFFFFFFFFFF DUP2 GT ISZERO PUSH2 0x3E57 JUMPI PUSH1 0x0 DUP1 REVERT JUMPDEST PUSH2 0x3E63 DUP6 DUP3 DUP7 ADD PUSH2 0x3DC0 JUMP JUMPDEST SWAP3 POP POP PUSH1 0x20 DUP4 ADD CALLDATALOAD PUSH8 0xFFFFFFFFFFFFFFFF DUP2 GT ISZERO PUSH2 0x3E80 JUMPI PUSH1 0x0 DUP1 REVERT JUMPDEST PUSH2 0x3E8C DUP6 DUP3 DUP7 ADD PUSH2 0x3DC0 JUMP JUMPDEST SWAP2 POP POP SWAP3 POP SWAP3 SWAP1 POP JUMP JUMPDEST PUSH1 0x0 DUP1 PUSH1 0x0 PUSH1 0x60 DUP5 DUP7 SUB SLT ISZERO PUSH2 0x3EAB JUMPI PUSH1 0x0 DUP1 REVERT JUMPDEST PUSH1 0x0 DUP5 ADD CALLDATALOAD PUSH8 0xFFFFFFFFFFFFFFFF DUP2 GT ISZERO PUSH2 0x3EC5 JUMPI PUSH1 0x0 DUP1 REVERT JUMPDEST PUSH2 0x3ED1 DUP7 DUP3 DUP8 ADD PUSH2 0x3DC0 JUMP JUMPDEST SWAP4 POP POP PUSH1 0x20 DUP5 ADD CALLDATALOAD PUSH8 0xFFFFFFFFFFFFFFFF DUP2 GT ISZERO PUSH2 0x3EEE JUMPI PUSH1 0x0 DUP1 REVERT JUMPDEST PUSH2 0x3EFA DUP7 DUP3 DUP8 ADD PUSH2 0x3DC0 JUMP JUMPDEST SWAP3 POP POP PUSH1 0x40 DUP5 ADD CALLDATALOAD PUSH8 0xFFFFFFFFFFFFFFFF DUP2 GT ISZERO PUSH2 0x3F17 JUMPI PUSH1 0x0 DUP1 REVERT JUMPDEST PUSH2 0x3F23 DUP7 DUP3 DUP8 ADD PUSH2 0x3DC0 JUMP JUMPDEST SWAP2 POP POP SWAP3 POP SWAP3 POP SWAP3 JUMP JUMPDEST PUSH1 0x0 PUSH1 0x20 DUP3 DUP5 SUB SLT ISZERO PUSH2 0x3F3F JUMPI PUSH1 0x0 DUP1 REVERT JUMPDEST PUSH1 0x0 PUSH2 0x3F4D DUP5 DUP3 DUP6 ADD PUSH2 0x3E16 JUMP JUMPDEST SWAP2 POP POP SWAP3 SWAP2 POP POP JUMP JUMPDEST PUSH1 0x0 DUP1 PUSH1 0x40 DUP4 DUP6 SUB SLT ISZERO PUSH2 0x3F69 JUMPI PUSH1 0x0 DUP1 REVERT JUMPDEST PUSH1 0x0 PUSH2 0x3F77 DUP6 DUP3 DUP7 ADD PUSH2 0x3E16 JUMP JUMPDEST SWAP3 POP POP PUSH1 0x20 DUP4 ADD CALLDATALOAD PUSH8 0xFFFFFFFFFFFFFFFF DUP2 GT ISZERO PUSH2 0x3F94 JUMPI PUSH1 0x0 DUP1 REVERT JUMPDEST PUSH2 0x3FA0 DUP6 DUP3 DUP7 ADD PUSH2 0x3DC0 JUMP JUMPDEST SWAP2 POP POP SWAP3 POP SWAP3 SWAP1 POP JUMP JUMPDEST PUSH1 0x0 DUP1 PUSH1 0x0 PUSH1 0x60 DUP5 DUP7 SUB SLT ISZERO PUSH2 0x3FBF JUMPI PUSH1 0x0 DUP1 REVERT JUMPDEST PUSH1 0x0 PUSH2 0x3FCD DUP7 DUP3 DUP8 ADD PUSH2 0x3E16 JUMP JUMPDEST SWAP4 POP POP PUSH1 0x20 DUP5 ADD CALLDATALOAD PUSH8 0xFFFFFFFFFFFFFFFF DUP2 GT ISZERO PUSH2 0x3FEA JUMPI PUSH1 0x0 DUP1 REVERT JUMPDEST PUSH2 0x3FF6 DUP7 DUP3 DUP8 ADD PUSH2 0x3DC0 JUMP JUMPDEST SWAP3 POP POP PUSH1 0x40 DUP5 ADD CALLDATALOAD PUSH8 0xFFFFFFFFFFFFFFFF DUP2 GT ISZERO PUSH2 0x4013 JUMPI PUSH1 0x0 DUP1 REVERT JUMPDEST PUSH2 0x401F DUP7 DUP3 DUP8 ADD PUSH2 0x3DC0 JUMP JUMPDEST SWAP2 POP POP SWAP3 POP SWAP3 POP SWAP3 JUMP JUMPDEST PUSH1 0x0 DUP1 PUSH1 0x0 PUSH1 0x60 DUP5 DUP7 SUB SLT ISZERO PUSH2 0x403E JUMPI PUSH1 0x0 DUP1 REVERT JUMPDEST PUSH1 0x0 PUSH2 0x404C DUP7 DUP3 DUP8 ADD PUSH2 0x3E16 JUMP JUMPDEST SWAP4 POP POP PUSH1 0x20 PUSH2 0x405D DUP7 DUP3 DUP8 ADD PUSH2 0x3E16 JUMP JUMPDEST SWAP3 POP POP PUSH1 0x40 DUP5 ADD CALLDATALOAD PUSH8 0xFFFFFFFFFFFFFFFF DUP2 GT ISZERO PUSH2 0x407A JUMPI PUSH1 0x0 DUP1 REVERT JUMPDEST PUSH2 0x4086 DUP7 DUP3 DUP8 ADD PUSH2 0x3DC0 JUMP JUMPDEST SWAP2 POP POP SWAP3 POP SWAP3 POP SWAP3 JUMP JUMPDEST PUSH1 0x0 DUP1 PUSH1 0x0 DUP1 PUSH1 0x80 DUP6 DUP8 SUB SLT ISZERO PUSH2 0x40A6 JUMPI PUSH1 0x0 DUP1 REVERT JUMPDEST PUSH1 0x0 PUSH2 0x40B4 DUP8 DUP3 DUP9 ADD PUSH2 0x3E16 JUMP JUMPDEST SWAP5 POP POP PUSH1 0x20 PUSH2 0x40C5 DUP8 DUP3 DUP9 ADD PUSH2 0x3E16 JUMP JUMPDEST SWAP4 POP POP PUSH1 0x40 DUP6 ADD CALLDATALOAD PUSH8 0xFFFFFFFFFFFFFFFF DUP2 GT ISZERO PUSH2 0x40E2 JUMPI PUSH1 0x0 DUP1 REVERT JUMPDEST PUSH2 0x40EE DUP8 DUP3 DUP9 ADD PUSH2 0x3DC0 JUMP JUMPDEST SWAP3 POP POP PUSH1 0x60 DUP6 ADD CALLDATALOAD PUSH8 0xFFFFFFFFFFFFFFFF DUP2 GT ISZERO PUSH2 0x410B JUMPI PUSH1 0x0 DUP1 REVERT JUMPDEST PUSH2 0x4117 DUP8 DUP3 DUP9 ADD PUSH2 0x3DC0 JUMP JUMPDEST SWAP2 POP POP SWAP3 SWAP6 SWAP2 SWAP5 POP SWAP3 POP JUMP JUMPDEST PUSH1 0x0 PUSH2 0x412E DUP3 PUSH2 0x46B7 JUMP JUMPDEST DUP1 DUP5 MSTORE PUSH1 0x20 DUP5 ADD SWAP4 POP DUP4 PUSH1 0x20 DUP3 MUL DUP6 ADD PUSH2 0x4147 DUP6 PUSH2 0x469D JUMP JUMPDEST PUSH1 0x0 JUMPDEST DUP5 DUP2 LT ISZERO PUSH2 0x4180 JUMPI DUP4 DUP4 SUB DUP9 MSTORE PUSH2 0x4162 DUP4 DUP4 MLOAD PUSH2 0x4231 JUMP JUMPDEST SWAP3 POP PUSH2 0x416D DUP3 PUSH2 0x46E3 JUMP JUMPDEST SWAP2 POP PUSH1 0x20 DUP9 ADD SWAP8 POP PUSH1 0x1 DUP2 ADD SWAP1 POP PUSH2 0x414A JUMP JUMPDEST POP DUP2 SWAP7 POP DUP7 SWAP5 POP POP POP POP POP SWAP3 SWAP2 POP POP JUMP JUMPDEST PUSH1 0x0 PUSH2 0x419C DUP3 PUSH2 0x46C2 JUMP JUMPDEST DUP1 DUP5 MSTORE PUSH1 0x20 DUP5 ADD SWAP4 POP PUSH2 0x41AE DUP4 PUSH2 0x46AA JUMP JUMPDEST PUSH1 0x0 JUMPDEST DUP3 DUP2 LT ISZERO PUSH2 0x41E0 JUMPI PUSH2 0x41C4 DUP7 DUP4 MLOAD PUSH2 0x430C JUMP JUMPDEST PUSH2 0x41CD DUP3 PUSH2 0x46F0 JUMP JUMPDEST SWAP2 POP PUSH1 0x20 DUP7 ADD SWAP6 POP PUSH1 0x1 DUP2 ADD SWAP1 POP PUSH2 0x41B1 JUMP JUMPDEST POP DUP5 SWAP3 POP POP POP SWAP3 SWAP2 POP POP JUMP JUMPDEST PUSH2 0x41F5 DUP2 PUSH2 0x46FD JUMP JUMPDEST DUP3 MSTORE POP POP JUMP JUMPDEST PUSH1 0x0 PUSH2 0x4206 DUP3 PUSH2 0x46D8 JUMP JUMPDEST DUP1 DUP5 MSTORE PUSH2 0x421A DUP2 PUSH1 0x20 DUP7 ADD PUSH1 0x20 DUP7 ADD PUSH2 0x472C JUMP JUMPDEST PUSH2 0x4223 DUP2 PUSH2 0x475F JUMP JUMPDEST PUSH1 0x20 DUP6 ADD ADD SWAP2 POP POP SWAP3 SWAP2 POP POP JUMP JUMPDEST PUSH1 0x0 PUSH2 0x423C DUP3 PUSH2 0x46CD JUMP JUMPDEST DUP1 DUP5 MSTORE PUSH2 0x4250 DUP2 PUSH1 0x20 DUP7 ADD PUSH1 0x20 DUP7 ADD PUSH2 0x472C JUMP JUMPDEST PUSH2 0x4259 DUP2 PUSH2 0x475F JUMP JUMPDEST PUSH1 0x20 DUP6 ADD ADD SWAP2 POP POP SWAP3 SWAP2 POP POP JUMP JUMPDEST PUSH1 0x0 PUSH1 0x16 DUP3 MSTORE PUSH32 0x5573657220494420646F6573206E6F7420657869737400000000000000000000 PUSH1 0x20 DUP4 ADD MSTORE PUSH1 0x40 DUP3 ADD SWAP1 POP SWAP2 SWAP1 POP JUMP JUMPDEST PUSH1 0x0 PUSH1 0x19 DUP3 MSTORE PUSH32 0x4361727269657220494420646F6573206E6F7420657869737400000000000000 PUSH1 0x20 DUP4 ADD MSTORE PUSH1 0x40 DUP3 ADD SWAP1 POP SWAP2 SWAP1 POP JUMP JUMPDEST PUSH1 0x0 PUSH1 0x1A DUP3 MSTORE PUSH32 0x536869706D656E7420494420646F6573206E6F74206578697374000000000000 PUSH1 0x20 DUP4 ADD MSTORE PUSH1 0x40 DUP3 ADD SWAP1 POP SWAP2 SWAP1 POP JUMP JUMPDEST PUSH2 0x4315 DUP2 PUSH2 0x4709 JUMP JUMPDEST DUP3 MSTORE POP POP JUMP JUMPDEST PUSH1 0x0 PUSH1 0x20 DUP3 ADD SWAP1 POP DUP2 DUP2 SUB PUSH1 0x0 DUP4 ADD MSTORE PUSH2 0x4335 DUP2 DUP5 PUSH2 0x4191 JUMP JUMPDEST SWAP1 POP SWAP3 SWAP2 POP POP JUMP JUMPDEST PUSH1 0x0 PUSH1 0x60 DUP3 ADD SWAP1 POP DUP2 DUP2 SUB PUSH1 0x0 DUP4 ADD MSTORE PUSH2 0x4357 DUP2 DUP7 PUSH2 0x4191 JUMP JUMPDEST SWAP1 POP DUP2 DUP2 SUB PUSH1 0x20 DUP4 ADD MSTORE PUSH2 0x436B DUP2 DUP6 PUSH2 0x4123 JUMP JUMPDEST SWAP1 POP DUP2 DUP2 SUB PUSH1 0x40 DUP4 ADD MSTORE PUSH2 0x437F DUP2 DUP5 PUSH2 0x4123 JUMP JUMPDEST SWAP1 POP SWAP5 SWAP4 POP POP POP POP JUMP JUMPDEST PUSH1 0x0 PUSH1 0x80 DUP3 ADD SWAP1 POP DUP2 DUP2 SUB PUSH1 0x0 DUP4 ADD MSTORE PUSH2 0x43A3 DUP2 DUP8 PUSH2 0x4191 JUMP JUMPDEST SWAP1 POP DUP2 DUP2 SUB PUSH1 0x20 DUP4 ADD MSTORE PUSH2 0x43B7 DUP2 DUP7 PUSH2 0x4123 JUMP JUMPDEST SWAP1 POP DUP2 DUP2 SUB PUSH1 0x40 DUP4 ADD MSTORE PUSH2 0x43CB DUP2 DUP6 PUSH2 0x4123 JUMP JUMPDEST SWAP1 POP DUP2 DUP2 SUB PUSH1 0x60 DUP4 ADD MSTORE PUSH2 0x43DF DUP2 DUP5 PUSH2 0x4123 JUMP JUMPDEST SWAP1 POP SWAP6 SWAP5 POP POP POP POP POP JUMP JUMPDEST PUSH1 0x0 PUSH1 0xC0 DUP3 ADD SWAP1 POP DUP2 DUP2 SUB PUSH1 0x0 DUP4 ADD MSTORE PUSH2 0x4404 DUP2 DUP10 PUSH2 0x4191 JUMP JUMPDEST SWAP1 POP DUP2 DUP2 SUB PUSH1 0x20 DUP4 ADD MSTORE PUSH2 0x4418 DUP2 DUP9 PUSH2 0x4191 JUMP JUMPDEST SWAP1 POP DUP2 DUP2 SUB PUSH1 0x40 DUP4 ADD MSTORE PUSH2 0x442C DUP2 DUP8 PUSH2 0x4191 JUMP JUMPDEST SWAP1 POP DUP2 DUP2 SUB PUSH1 0x60 DUP4 ADD MSTORE PUSH2 0x4440 DUP2 DUP7 PUSH2 0x4123 JUMP JUMPDEST SWAP1 POP DUP2 DUP2 SUB PUSH1 0x80 DUP4 ADD MSTORE PUSH2 0x4454 DUP2 DUP6 PUSH2 0x4123 JUMP JUMPDEST SWAP1 POP DUP2 DUP2 SUB PUSH1 0xA0 DUP4 ADD MSTORE PUSH2 0x4468 DUP2 DUP5 PUSH2 0x4123 JUMP JUMPDEST SWAP1 POP SWAP8 SWAP7 POP POP POP POP POP POP POP JUMP JUMPDEST PUSH1 0x0 PUSH1 0x20 DUP3 ADD SWAP1 POP PUSH2 0x448A PUSH1 0x0 DUP4 ADD DUP5 PUSH2 0x41EC JUMP JUMPDEST SWAP3 SWAP2 POP POP JUMP JUMPDEST PUSH1 0x0 PUSH1 0x20 DUP3 ADD SWAP1 POP DUP2 DUP2 SUB PUSH1 0x0 DUP4 ADD MSTORE PUSH2 0x44AA DUP2 DUP5 PUSH2 0x41FB JUMP JUMPDEST SWAP1 POP SWAP3 SWAP2 POP POP JUMP JUMPDEST PUSH1 0x0 PUSH1 0x20 DUP3 ADD SWAP1 POP DUP2 DUP2 SUB PUSH1 0x0 DUP4 ADD MSTORE PUSH2 0x44CB DUP2 PUSH2 0x4267 JUMP JUMPDEST SWAP1 POP SWAP2 SWAP1 POP JUMP JUMPDEST PUSH1 0x0 PUSH1 0x20 DUP3 ADD SWAP1 POP DUP2 DUP2 SUB PUSH1 0x0 DUP4 ADD MSTORE PUSH2 0x44EB DUP2 PUSH2 0x429E JUMP JUMPDEST SWAP1 POP SWAP2 SWAP1 POP JUMP JUMPDEST PUSH1 0x0 PUSH1 0x20 DUP3 ADD SWAP1 POP DUP2 DUP2 SUB PUSH1 0x0 DUP4 ADD MSTORE PUSH2 0x450B DUP2 PUSH2 0x42D5 JUMP JUMPDEST SWAP1 POP SWAP2 SWAP1 POP JUMP JUMPDEST PUSH1 0x0 PUSH1 0x60 DUP3 ADD SWAP1 POP PUSH2 0x4527 PUSH1 0x0 DUP4 ADD DUP7 PUSH2 0x430C JUMP JUMPDEST DUP2 DUP2 SUB PUSH1 0x20 DUP4 ADD MSTORE PUSH2 0x4539 DUP2 DUP6 PUSH2 0x41FB JUMP JUMPDEST SWAP1 POP DUP2 DUP2 SUB PUSH1 0x40 DUP4 ADD MSTORE PUSH2 0x454D DUP2 DUP5 PUSH2 0x41FB JUMP JUMPDEST SWAP1 POP SWAP5 SWAP4 POP POP POP POP JUMP JUMPDEST PUSH1 0x0 PUSH1 0x80 DUP3 ADD SWAP1 POP PUSH2 0x456C PUSH1 0x0 DUP4 ADD DUP8 PUSH2 0x430C JUMP JUMPDEST DUP2 DUP2 SUB PUSH1 0x20 DUP4 ADD MSTORE PUSH2 0x457E DUP2 DUP7 PUSH2 0x41FB JUMP JUMPDEST SWAP1 POP DUP2 DUP2 SUB PUSH1 0x40 DUP4 ADD MSTORE PUSH2 0x4592 DUP2 DUP6 PUSH2 0x41FB JUMP JUMPDEST SWAP1 POP DUP2 DUP2 SUB PUSH1 0x60 DUP4 ADD MSTORE PUSH2 0x45A6 DUP2 DUP5 PUSH2 0x41FB JUMP JUMPDEST SWAP1 POP SWAP6 SWAP5 POP POP POP POP POP JUMP JUMPDEST PUSH1 0x0 PUSH2 0x100 DUP3 ADD SWAP1 POP PUSH2 0x45C7 PUSH1 0x0 DUP4 ADD DUP12 PUSH2 0x430C JUMP JUMPDEST PUSH2 0x45D4 PUSH1 0x20 DUP4 ADD DUP11 PUSH2 0x430C JUMP JUMPDEST PUSH2 0x45E1 PUSH1 0x40 DUP4 ADD DUP10 PUSH2 0x430C JUMP JUMPDEST DUP2 DUP2 SUB PUSH1 0x60 DUP4 ADD MSTORE PUSH2 0x45F3 DUP2 DUP9 PUSH2 0x41FB JUMP JUMPDEST SWAP1 POP DUP2 DUP2 SUB PUSH1 0x80 DUP4 ADD MSTORE PUSH2 0x4607 DUP2 DUP8 PUSH2 0x41FB JUMP JUMPDEST SWAP1 POP DUP2 DUP2 SUB PUSH1 0xA0 DUP4 ADD MSTORE PUSH2 0x461B DUP2 DUP7 PUSH2 0x41FB JUMP JUMPDEST SWAP1 POP PUSH2 0x462A PUSH1 0xC0 DUP4 ADD DUP6 PUSH2 0x430C JUMP JUMPDEST PUSH2 0x4637 PUSH1 0xE0 DUP4 ADD DUP5 PUSH2 0x430C JUMP JUMPDEST SWAP10 SWAP9 POP POP POP POP POP POP POP POP POP JUMP JUMPDEST PUSH1 0x0 PUSH1 0x40 MLOAD SWAP1 POP DUP2 DUP2 ADD DUP2 DUP2 LT PUSH8 0xFFFFFFFFFFFFFFFF DUP3 GT OR ISZERO PUSH2 0x4667 JUMPI PUSH1 0x0 DUP1 REVERT JUMPDEST DUP1 PUSH1 0x40 MSTORE POP SWAP2 SWAP1 POP JUMP JUMPDEST PUSH1 0x0 PUSH8 0xFFFFFFFFFFFFFFFF DUP3 GT ISZERO PUSH2 0x4688 JUMPI PUSH1 0x0 DUP1 REVERT JUMPDEST PUSH1 0x1F NOT PUSH1 0x1F DUP4 ADD AND SWAP1 POP PUSH1 0x20 DUP2 ADD SWAP1 POP SWAP2 SWAP1 POP JUMP JUMPDEST PUSH1 0x0 PUSH1 0x20 DUP3 ADD SWAP1 POP SWAP2 SWAP1 POP JUMP JUMPDEST PUSH1 0x0 PUSH1 0x20 DUP3 ADD SWAP1 POP SWAP2 SWAP1 POP JUMP JUMPDEST PUSH1 0x0 DUP2 MLOAD SWAP1 POP SWAP2 SWAP1 POP JUMP JUMPDEST PUSH1 0x0 DUP2 MLOAD SWAP1 POP SWAP2 SWAP1 POP JUMP JUMPDEST PUSH1 0x0 DUP2 MLOAD SWAP1 POP SWAP2 SWAP1 POP JUMP JUMPDEST PUSH1 0x0 DUP2 MLOAD SWAP1 POP SWAP2 SWAP1 POP JUMP JUMPDEST PUSH1 0x0 PUSH1 0x20 DUP3 ADD SWAP1 POP SWAP2 SWAP1 POP JUMP JUMPDEST PUSH1 0x0 PUSH1 0x20 DUP3 ADD SWAP1 POP SWAP2 SWAP1 POP JUMP JUMPDEST PUSH1 0x0 DUP2 ISZERO ISZERO SWAP1 POP SWAP2 SWAP1 POP JUMP JUMPDEST PUSH1 0x0 DUP2 SWAP1 POP SWAP2 SWAP1 POP JUMP JUMPDEST PUSH1 0x0 DUP2 SWAP1 POP SWAP2 SWAP1 POP JUMP JUMPDEST DUP3 DUP2 DUP4 CALLDATACOPY PUSH1 0x0 DUP4 DUP4 ADD MSTORE POP POP POP JUMP JUMPDEST PUSH1 0x0 JUMPDEST DUP4 DUP2 LT ISZERO PUSH2 0x474A JUMPI DUP1 DUP3 ADD MLOAD DUP2 DUP5 ADD MSTORE PUSH1 0x20 DUP2 ADD SWAP1 POP PUSH2 0x472F JUMP JUMPDEST DUP4 DUP2 GT ISZERO PUSH2 0x4759 JUMPI PUSH1 0x0 DUP5 DUP5 ADD MSTORE JUMPDEST POP POP POP POP JUMP JUMPDEST PUSH1 0x0 PUSH1 0x1F NOT PUSH1 0x1F DUP4 ADD AND SWAP1 POP SWAP2 SWAP1 POP JUMP STOP LOG2 PUSH6 0x627A7A723058 KECCAK256 SLT 0x4f 0xcb 0xde CALLDATACOPY RETURNDATASIZE BLOCKHASH PUSH3 0x4B725B SHR 0xdc 0xc6 0xd2 INVALID PUSH14 0x49B0DF33BE6AA7B894561F56BC3C 0x2c PUSH13 0x6578706572696D656E74616CF5 STOP CALLDATACOPY "
				},
				"gasEstimates": {
					"creation": {
						"codeDepositCost": "3669200",
						"executionCost": "4138",
						"totalCost": "3673338"
					},
					"external": {
						"": "infinite",
						"addAdmin(string,string)": "infinite",
						"addCarrier(string,string,string)": "infinite",
						"addShipment(uint256,uint256,string,string)": "infinite",
						"addUser(string,string)": "infinite",
						"checkAdmin(string,string)": "infinite",
						"checkCarrier(uint256,string)": "infinite",
						"checkUser(uint256,string)": "infinite",
						"deleteCarrier(uint256)": "infinite",
						"deleteShipment(uint256)": "infinite",
						"deleteUser(uint256)": "infinite",
						"getAllAdmins()": "infinite",
						"getAllCarriers()": "infinite",
						"getAllShipments()": "infinite",
						"getAllUsers()": "infinite",
						"getCarrierById(uint256)": "infinite",
						"getShipment(uint256)": "infinite",
						"getShipmentsByCarrier(uint256)": "infinite",
						"getStatus(uint256)": "infinite",
						"getUserById(uint256)": "infinite",
						"updateAdminPassword(string,string)": "infinite",
						"updateCarrierInfo(uint256,string,string)": "infinite",
						"updateCarrierPassword(uint256,string)": "infinite",
						"updateShipment(uint256,uint256,string)": "infinite",
						"updateUserPassword(uint256,string)": "infinite"
					}
				},
				"methodIdentifiers": {
					"addAdmin(string,string)": "1f459041",
					"addCarrier(string,string,string)": "3e92ecab",
					"addShipment(uint256,uint256,string,string)": "5df2d368",
					"addUser(string,string)": "079eaf34",
					"checkAdmin(string,string)": "269ee5c0",
					"checkCarrier(uint256,string)": "c64cb4ed",
					"checkUser(uint256,string)": "46fe46f9",
					"deleteCarrier(uint256)": "58ab49da",
					"deleteShipment(uint256)": "2f3e0bc6",
					"deleteUser(uint256)": "38f14845",
					"getAllAdmins()": "e9523c97",
					"getAllCarriers()": "9a006fe2",
					"getAllShipments()": "494dad6c",
					"getAllUsers()": "e2842d79",
					"getCarrierById(uint256)": "b9def59e",
					"getShipment(uint256)": "092b3740",
					"getShipmentsByCarrier(uint256)": "4de52651",
					"getStatus(uint256)": "5c622a0e",
					"getUserById(uint256)": "6ed6da9e",
					"updateAdminPassword(string,string)": "3e98ab21",
					"updateCarrierInfo(uint256,string,string)": "4e9f4614",
					"updateCarrierPassword(uint256,string)": "e8a6dafe",
					"updateShipment(uint256,uint256,string)": "65d7b766",
					"updateUserPassword(uint256,string)": "b8997993"
				}
			},
			"userdoc": {
				"methods": {}
			}
		}
	}
}